{
	"contracts/subasta.sol": {
		"Subasta": {
			"abi": [
				{
					"inputs": [
						{
							"internalType": "string",
							"name": "_description",
							"type": "string"
						},
						{
							"internalType": "uint256",
							"name": "_minBid",
							"type": "uint256"
						},
						{
							"internalType": "uint256",
							"name": "_minutes",
							"type": "uint256"
						}
					],
					"stateMutability": "nonpayable",
					"type": "constructor"
				},
				{
					"anonymous": false,
					"inputs": [
						{
							"indexed": false,
							"internalType": "address",
							"name": "bidder",
							"type": "address"
						},
						{
							"indexed": false,
							"internalType": "uint256",
							"name": "amount",
							"type": "uint256"
						}
					],
					"name": "Bid",
					"type": "event"
				},
				{
					"inputs": [],
					"name": "addressMaxBid",
					"outputs": [
						{
							"internalType": "address",
							"name": "",
							"type": "address"
						}
					],
					"stateMutability": "view",
					"type": "function"
				},
				{
					"inputs": [],
					"name": "deadLine",
					"outputs": [
						{
							"internalType": "uint256",
							"name": "",
							"type": "uint256"
						}
					],
					"stateMutability": "view",
					"type": "function"
				},
				{
					"inputs": [],
					"name": "description",
					"outputs": [
						{
							"internalType": "string",
							"name": "",
							"type": "string"
						}
					],
					"stateMutability": "view",
					"type": "function"
				},
				{
					"inputs": [],
					"name": "makeBid",
					"outputs": [],
					"stateMutability": "payable",
					"type": "function"
				},
				{
					"inputs": [],
					"name": "maxBid",
					"outputs": [
						{
							"internalType": "uint256",
							"name": "",
							"type": "uint256"
						}
					],
					"stateMutability": "view",
					"type": "function"
				},
				{
					"inputs": [],
					"name": "minBid",
					"outputs": [
						{
							"internalType": "uint256",
							"name": "",
							"type": "uint256"
						}
					],
					"stateMutability": "view",
					"type": "function"
				},
				{
					"inputs": [],
					"name": "owner",
					"outputs": [
						{
							"internalType": "address",
							"name": "",
							"type": "address"
						}
					],
					"stateMutability": "view",
					"type": "function"
				},
				{
					"inputs": [],
					"name": "ownerWithdraw",
					"outputs": [],
					"stateMutability": "nonpayable",
					"type": "function"
				},
				{
					"inputs": [],
					"name": "refund",
					"outputs": [],
					"stateMutability": "nonpayable",
					"type": "function"
				}
			],
			"devdoc": {
				"details": "Permite pujar por un artículo durante un tiempo limitado.",
				"kind": "dev",
				"methods": {
					"constructor": {
						"params": {
							"_description": "Artículo a subastar.",
							"_minBid": "Monto de la puja mínima inicial en wei.",
							"_minutes": "Duración de la subasta en minutos."
						}
					},
					"makeBid()": {
						"details": "La puja debe ser mayor que la actual."
					},
					"ownerWithdraw()": {
						"details": "Solo si la subasta está terminada y es el propietario."
					},
					"refund()": {
						"details": "Solo si la subasta está terminada y no es la puja ganadora."
					}
				},
				"title": "Subasta simple",
				"version": 1
			},
			"evm": {
				"assembly": "    /* \"contracts/subasta.sol\":158:6507  contract Subasta {... */\n  mstore(0x40, 0x80)\n    /* \"contracts/subasta.sol\":205:247  0xF55301514c27489Fde7C9cd9A3EA8044E7E04579 */\n  0xf55301514c27489fde7c9cd9a3ea8044e7e04579\n    /* \"contracts/subasta.sol\":181:247  address public  owner = 0xF55301514c27489Fde7C9cd9A3EA8044E7E04579 */\n  0x00\n  exp(0x0100, 0x00)\n  dup2\n  sload\n  dup2\n  0xffffffffffffffffffffffffffffffffffffffff\n  mul\n  not\n  and\n  swap1\n  dup4\n  0xffffffffffffffffffffffffffffffffffffffff\n  and\n  mul\n  or\n  swap1\n  sstore\n  pop\n    /* \"contracts/subasta.sol\":1495:1742  constructor (string memory _description, uint256 _minBid, uint256 _minutes) {... */\n  callvalue\n  dup1\n  iszero\n  tag_1\n  jumpi\n  revert(0x00, 0x00)\ntag_1:\n  pop\n  mload(0x40)\n  sub(codesize, bytecodeSize)\n  dup1\n  bytecodeSize\n  dup4\n  codecopy\n  dup2\n  dup2\n  add\n  0x40\n  mstore\n  dup2\n  add\n  swap1\n  tag_2\n  swap2\n  swap1\n  tag_3\n  jump\t// in\ntag_2:\n    /* \"contracts/subasta.sol\":1595:1607  _description */\n  dup3\n    /* \"contracts/subasta.sol\":1581:1592  description */\n  0x01\n    /* \"contracts/subasta.sol\":1581:1607  description = _description */\n  swap1\n  dup2\n  tag_6\n  swap2\n  swap1\n  tag_7\n  jump\t// in\ntag_6:\n  pop\n    /* \"contracts/subasta.sol\":1626:1633  _minBid */\n  dup2\n    /* \"contracts/subasta.sol\":1617:1623  minBid */\n  0x02\n    /* \"contracts/subasta.sol\":1617:1633  minBid = _minBid */\n  dup2\n  swap1\n  sstore\n  pop\n    /* \"contracts/subasta.sol\":1652:1653  0 */\n  0x00\n    /* \"contracts/subasta.sol\":1643:1649  maxBid */\n  0x03\n    /* \"contracts/subasta.sol\":1643:1653  maxBid = 0 */\n  dup2\n  swap1\n  sstore\n  pop\n    /* \"contracts/subasta.sol\":1703:1712  1 minutes */\n  0x3c\n    /* \"contracts/subasta.sol\":1692:1700  _minutes */\n  dup2\n    /* \"contracts/subasta.sol\":1692:1712  _minutes * 1 minutes */\n  tag_8\n  swap2\n  swap1\n  tag_9\n  jump\t// in\ntag_8:\n    /* \"contracts/subasta.sol\":1674:1689  block.timestamp */\n  timestamp\n    /* \"contracts/subasta.sol\":1674:1712  block.timestamp + _minutes * 1 minutes */\n  tag_10\n  swap2\n  swap1\n  tag_11\n  jump\t// in\ntag_10:\n    /* \"contracts/subasta.sol\":1663:1671  deadLine */\n  0x05\n    /* \"contracts/subasta.sol\":1663:1712  deadLine = block.timestamp + _minutes * 1 minutes */\n  dup2\n  swap1\n  sstore\n  pop\n    /* \"contracts/subasta.sol\":1495:1742  constructor (string memory _description, uint256 _minBid, uint256 _minutes) {... */\n  pop\n  pop\n  pop\n    /* \"contracts/subasta.sol\":158:6507  contract Subasta {... */\n  jump(tag_12)\n    /* \"#utility.yul\":7:82   */\ntag_13:\n    /* \"#utility.yul\":40:46   */\n  0x00\n    /* \"#utility.yul\":73:75   */\n  0x40\n    /* \"#utility.yul\":67:76   */\n  mload\n    /* \"#utility.yul\":57:76   */\n  swap1\n  pop\n    /* \"#utility.yul\":7:82   */\n  swap1\n  jump\t// out\n    /* \"#utility.yul\":88:205   */\ntag_14:\n    /* \"#utility.yul\":197:198   */\n  0x00\n    /* \"#utility.yul\":194:195   */\n  0x00\n    /* \"#utility.yul\":187:199   */\n  revert\n    /* \"#utility.yul\":211:328   */\ntag_15:\n    /* \"#utility.yul\":320:321   */\n  0x00\n    /* \"#utility.yul\":317:318   */\n  0x00\n    /* \"#utility.yul\":310:322   */\n  revert\n    /* \"#utility.yul\":334:451   */\ntag_16:\n    /* \"#utility.yul\":443:444   */\n  0x00\n    /* \"#utility.yul\":440:441   */\n  0x00\n    /* \"#utility.yul\":433:445   */\n  revert\n    /* \"#utility.yul\":457:574   */\ntag_17:\n    /* \"#utility.yul\":566:567   */\n  0x00\n    /* \"#utility.yul\":563:564   */\n  0x00\n    /* \"#utility.yul\":556:568   */\n  revert\n    /* \"#utility.yul\":580:682   */\ntag_18:\n    /* \"#utility.yul\":621:627   */\n  0x00\n    /* \"#utility.yul\":672:674   */\n  0x1f\n    /* \"#utility.yul\":668:675   */\n  not\n    /* \"#utility.yul\":663:665   */\n  0x1f\n    /* \"#utility.yul\":656:661   */\n  dup4\n    /* \"#utility.yul\":652:666   */\n  add\n    /* \"#utility.yul\":648:676   */\n  and\n    /* \"#utility.yul\":638:676   */\n  swap1\n  pop\n    /* \"#utility.yul\":580:682   */\n  swap2\n  swap1\n  pop\n  jump\t// out\n    /* \"#utility.yul\":688:868   */\ntag_19:\n    /* \"#utility.yul\":736:813   */\n  0x4e487b7100000000000000000000000000000000000000000000000000000000\n    /* \"#utility.yul\":733:734   */\n  0x00\n    /* \"#utility.yul\":726:814   */\n  mstore\n    /* \"#utility.yul\":833:837   */\n  0x41\n    /* \"#utility.yul\":830:831   */\n  0x04\n    /* \"#utility.yul\":823:838   */\n  mstore\n    /* \"#utility.yul\":857:861   */\n  0x24\n    /* \"#utility.yul\":854:855   */\n  0x00\n    /* \"#utility.yul\":847:862   */\n  revert\n    /* \"#utility.yul\":874:1155   */\ntag_20:\n    /* \"#utility.yul\":957:984   */\n  tag_57\n    /* \"#utility.yul\":979:983   */\n  dup3\n    /* \"#utility.yul\":957:984   */\n  tag_18\n  jump\t// in\ntag_57:\n    /* \"#utility.yul\":949:955   */\n  dup2\n    /* \"#utility.yul\":945:985   */\n  add\n    /* \"#utility.yul\":1087:1093   */\n  dup2\n    /* \"#utility.yul\":1075:1085   */\n  dup2\n    /* \"#utility.yul\":1072:1094   */\n  lt\n    /* \"#utility.yul\":1051:1069   */\n  0xffffffffffffffff\n    /* \"#utility.yul\":1039:1049   */\n  dup3\n    /* \"#utility.yul\":1036:1070   */\n  gt\n    /* \"#utility.yul\":1033:1095   */\n  or\n    /* \"#utility.yul\":1030:1118   */\n  iszero\n  tag_58\n  jumpi\n    /* \"#utility.yul\":1098:1116   */\n  tag_59\n  tag_19\n  jump\t// in\ntag_59:\n    /* \"#utility.yul\":1030:1118   */\ntag_58:\n    /* \"#utility.yul\":1138:1148   */\n  dup1\n    /* \"#utility.yul\":1134:1136   */\n  0x40\n    /* \"#utility.yul\":1127:1149   */\n  mstore\n    /* \"#utility.yul\":917:1155   */\n  pop\n    /* \"#utility.yul\":874:1155   */\n  pop\n  pop\n  jump\t// out\n    /* \"#utility.yul\":1161:1290   */\ntag_21:\n    /* \"#utility.yul\":1195:1201   */\n  0x00\n    /* \"#utility.yul\":1222:1242   */\n  tag_61\n  tag_13\n  jump\t// in\ntag_61:\n    /* \"#utility.yul\":1212:1242   */\n  swap1\n  pop\n    /* \"#utility.yul\":1251:1284   */\n  tag_62\n    /* \"#utility.yul\":1279:1283   */\n  dup3\n    /* \"#utility.yul\":1271:1277   */\n  dup3\n    /* \"#utility.yul\":1251:1284   */\n  tag_20\n  jump\t// in\ntag_62:\n    /* \"#utility.yul\":1161:1290   */\n  swap2\n  swap1\n  pop\n  jump\t// out\n    /* \"#utility.yul\":1296:1604   */\ntag_22:\n    /* \"#utility.yul\":1358:1362   */\n  0x00\n    /* \"#utility.yul\":1448:1466   */\n  0xffffffffffffffff\n    /* \"#utility.yul\":1440:1446   */\n  dup3\n    /* \"#utility.yul\":1437:1467   */\n  gt\n    /* \"#utility.yul\":1434:1490   */\n  iszero\n  tag_64\n  jumpi\n    /* \"#utility.yul\":1470:1488   */\n  tag_65\n  tag_19\n  jump\t// in\ntag_65:\n    /* \"#utility.yul\":1434:1490   */\ntag_64:\n    /* \"#utility.yul\":1508:1537   */\n  tag_66\n    /* \"#utility.yul\":1530:1536   */\n  dup3\n    /* \"#utility.yul\":1508:1537   */\n  tag_18\n  jump\t// in\ntag_66:\n    /* \"#utility.yul\":1500:1537   */\n  swap1\n  pop\n    /* \"#utility.yul\":1592:1596   */\n  0x20\n    /* \"#utility.yul\":1586:1590   */\n  dup2\n    /* \"#utility.yul\":1582:1597   */\n  add\n    /* \"#utility.yul\":1574:1597   */\n  swap1\n  pop\n    /* \"#utility.yul\":1296:1604   */\n  swap2\n  swap1\n  pop\n  jump\t// out\n    /* \"#utility.yul\":1610:1749   */\ntag_23:\n    /* \"#utility.yul\":1699:1705   */\n  dup3\n    /* \"#utility.yul\":1694:1697   */\n  dup2\n    /* \"#utility.yul\":1689:1692   */\n  dup4\n    /* \"#utility.yul\":1683:1706   */\n  mcopy\n    /* \"#utility.yul\":1740:1741   */\n  0x00\n    /* \"#utility.yul\":1731:1737   */\n  dup4\n    /* \"#utility.yul\":1726:1729   */\n  dup4\n    /* \"#utility.yul\":1722:1738   */\n  add\n    /* \"#utility.yul\":1715:1742   */\n  mstore\n    /* \"#utility.yul\":1610:1749   */\n  pop\n  pop\n  pop\n  jump\t// out\n    /* \"#utility.yul\":1755:2189   */\ntag_24:\n    /* \"#utility.yul\":1844:1849   */\n  0x00\n    /* \"#utility.yul\":1869:1935   */\n  tag_69\n    /* \"#utility.yul\":1885:1934   */\n  tag_70\n    /* \"#utility.yul\":1927:1933   */\n  dup5\n    /* \"#utility.yul\":1885:1934   */\n  tag_22\n  jump\t// in\ntag_70:\n    /* \"#utility.yul\":1869:1935   */\n  tag_21\n  jump\t// in\ntag_69:\n    /* \"#utility.yul\":1860:1935   */\n  swap1\n  pop\n    /* \"#utility.yul\":1958:1964   */\n  dup3\n    /* \"#utility.yul\":1951:1956   */\n  dup2\n    /* \"#utility.yul\":1944:1965   */\n  mstore\n    /* \"#utility.yul\":1996:2000   */\n  0x20\n    /* \"#utility.yul\":1989:1994   */\n  dup2\n    /* \"#utility.yul\":1985:2001   */\n  add\n    /* \"#utility.yul\":2034:2037   */\n  dup5\n    /* \"#utility.yul\":2025:2031   */\n  dup5\n    /* \"#utility.yul\":2020:2023   */\n  dup5\n    /* \"#utility.yul\":2016:2032   */\n  add\n    /* \"#utility.yul\":2013:2038   */\n  gt\n    /* \"#utility.yul\":2010:2122   */\n  iszero\n  tag_71\n  jumpi\n    /* \"#utility.yul\":2041:2120   */\n  tag_72\n  tag_17\n  jump\t// in\ntag_72:\n    /* \"#utility.yul\":2010:2122   */\ntag_71:\n    /* \"#utility.yul\":2131:2183   */\n  tag_73\n    /* \"#utility.yul\":2176:2182   */\n  dup5\n    /* \"#utility.yul\":2171:2174   */\n  dup3\n    /* \"#utility.yul\":2166:2169   */\n  dup6\n    /* \"#utility.yul\":2131:2183   */\n  tag_23\n  jump\t// in\ntag_73:\n    /* \"#utility.yul\":1850:2189   */\n  pop\n    /* \"#utility.yul\":1755:2189   */\n  swap4\n  swap3\n  pop\n  pop\n  pop\n  jump\t// out\n    /* \"#utility.yul\":2209:2564   */\ntag_25:\n    /* \"#utility.yul\":2276:2281   */\n  0x00\n    /* \"#utility.yul\":2325:2328   */\n  dup3\n    /* \"#utility.yul\":2318:2322   */\n  0x1f\n    /* \"#utility.yul\":2310:2316   */\n  dup4\n    /* \"#utility.yul\":2306:2323   */\n  add\n    /* \"#utility.yul\":2302:2329   */\n  slt\n    /* \"#utility.yul\":2292:2414   */\n  tag_75\n  jumpi\n    /* \"#utility.yul\":2333:2412   */\n  tag_76\n  tag_16\n  jump\t// in\ntag_76:\n    /* \"#utility.yul\":2292:2414   */\ntag_75:\n    /* \"#utility.yul\":2443:2449   */\n  dup2\n    /* \"#utility.yul\":2437:2450   */\n  mload\n    /* \"#utility.yul\":2468:2558   */\n  tag_77\n    /* \"#utility.yul\":2554:2557   */\n  dup5\n    /* \"#utility.yul\":2546:2552   */\n  dup3\n    /* \"#utility.yul\":2539:2543   */\n  0x20\n    /* \"#utility.yul\":2531:2537   */\n  dup7\n    /* \"#utility.yul\":2527:2544   */\n  add\n    /* \"#utility.yul\":2468:2558   */\n  tag_24\n  jump\t// in\ntag_77:\n    /* \"#utility.yul\":2459:2558   */\n  swap2\n  pop\n    /* \"#utility.yul\":2282:2564   */\n  pop\n    /* \"#utility.yul\":2209:2564   */\n  swap3\n  swap2\n  pop\n  pop\n  jump\t// out\n    /* \"#utility.yul\":2570:2647   */\ntag_26:\n    /* \"#utility.yul\":2607:2614   */\n  0x00\n    /* \"#utility.yul\":2636:2641   */\n  dup2\n    /* \"#utility.yul\":2625:2641   */\n  swap1\n  pop\n    /* \"#utility.yul\":2570:2647   */\n  swap2\n  swap1\n  pop\n  jump\t// out\n    /* \"#utility.yul\":2653:2775   */\ntag_27:\n    /* \"#utility.yul\":2726:2750   */\n  tag_80\n    /* \"#utility.yul\":2744:2749   */\n  dup2\n    /* \"#utility.yul\":2726:2750   */\n  tag_26\n  jump\t// in\ntag_80:\n    /* \"#utility.yul\":2719:2724   */\n  dup2\n    /* \"#utility.yul\":2716:2751   */\n  eq\n    /* \"#utility.yul\":2706:2769   */\n  tag_81\n  jumpi\n    /* \"#utility.yul\":2765:2766   */\n  0x00\n    /* \"#utility.yul\":2762:2763   */\n  0x00\n    /* \"#utility.yul\":2755:2767   */\n  revert\n    /* \"#utility.yul\":2706:2769   */\ntag_81:\n    /* \"#utility.yul\":2653:2775   */\n  pop\n  jump\t// out\n    /* \"#utility.yul\":2781:2924   */\ntag_28:\n    /* \"#utility.yul\":2838:2843   */\n  0x00\n    /* \"#utility.yul\":2869:2875   */\n  dup2\n    /* \"#utility.yul\":2863:2876   */\n  mload\n    /* \"#utility.yul\":2854:2876   */\n  swap1\n  pop\n    /* \"#utility.yul\":2885:2918   */\n  tag_83\n    /* \"#utility.yul\":2912:2917   */\n  dup2\n    /* \"#utility.yul\":2885:2918   */\n  tag_27\n  jump\t// in\ntag_83:\n    /* \"#utility.yul\":2781:2924   */\n  swap3\n  swap2\n  pop\n  pop\n  jump\t// out\n    /* \"#utility.yul\":2930:3766   */\ntag_3:\n    /* \"#utility.yul\":3028:3034   */\n  0x00\n    /* \"#utility.yul\":3036:3042   */\n  0x00\n    /* \"#utility.yul\":3044:3050   */\n  0x00\n    /* \"#utility.yul\":3093:3095   */\n  0x60\n    /* \"#utility.yul\":3081:3090   */\n  dup5\n    /* \"#utility.yul\":3072:3079   */\n  dup7\n    /* \"#utility.yul\":3068:3091   */\n  sub\n    /* \"#utility.yul\":3064:3096   */\n  slt\n    /* \"#utility.yul\":3061:3180   */\n  iszero\n  tag_85\n  jumpi\n    /* \"#utility.yul\":3099:3178   */\n  tag_86\n  tag_14\n  jump\t// in\ntag_86:\n    /* \"#utility.yul\":3061:3180   */\ntag_85:\n    /* \"#utility.yul\":3240:3241   */\n  0x00\n    /* \"#utility.yul\":3229:3238   */\n  dup5\n    /* \"#utility.yul\":3225:3242   */\n  add\n    /* \"#utility.yul\":3219:3243   */\n  mload\n    /* \"#utility.yul\":3270:3288   */\n  0xffffffffffffffff\n    /* \"#utility.yul\":3262:3268   */\n  dup2\n    /* \"#utility.yul\":3259:3289   */\n  gt\n    /* \"#utility.yul\":3256:3373   */\n  iszero\n  tag_87\n  jumpi\n    /* \"#utility.yul\":3292:3371   */\n  tag_88\n  tag_15\n  jump\t// in\ntag_88:\n    /* \"#utility.yul\":3256:3373   */\ntag_87:\n    /* \"#utility.yul\":3397:3471   */\n  tag_89\n    /* \"#utility.yul\":3463:3470   */\n  dup7\n    /* \"#utility.yul\":3454:3460   */\n  dup3\n    /* \"#utility.yul\":3443:3452   */\n  dup8\n    /* \"#utility.yul\":3439:3461   */\n  add\n    /* \"#utility.yul\":3397:3471   */\n  tag_25\n  jump\t// in\ntag_89:\n    /* \"#utility.yul\":3387:3471   */\n  swap4\n  pop\n    /* \"#utility.yul\":3190:3481   */\n  pop\n    /* \"#utility.yul\":3520:3522   */\n  0x20\n    /* \"#utility.yul\":3546:3610   */\n  tag_90\n    /* \"#utility.yul\":3602:3609   */\n  dup7\n    /* \"#utility.yul\":3593:3599   */\n  dup3\n    /* \"#utility.yul\":3582:3591   */\n  dup8\n    /* \"#utility.yul\":3578:3600   */\n  add\n    /* \"#utility.yul\":3546:3610   */\n  tag_28\n  jump\t// in\ntag_90:\n    /* \"#utility.yul\":3536:3610   */\n  swap3\n  pop\n    /* \"#utility.yul\":3491:3620   */\n  pop\n    /* \"#utility.yul\":3659:3661   */\n  0x40\n    /* \"#utility.yul\":3685:3749   */\n  tag_91\n    /* \"#utility.yul\":3741:3748   */\n  dup7\n    /* \"#utility.yul\":3732:3738   */\n  dup3\n    /* \"#utility.yul\":3721:3730   */\n  dup8\n    /* \"#utility.yul\":3717:3739   */\n  add\n    /* \"#utility.yul\":3685:3749   */\n  tag_28\n  jump\t// in\ntag_91:\n    /* \"#utility.yul\":3675:3749   */\n  swap2\n  pop\n    /* \"#utility.yul\":3630:3759   */\n  pop\n    /* \"#utility.yul\":2930:3766   */\n  swap3\n  pop\n  swap3\n  pop\n  swap3\n  jump\t// out\n    /* \"#utility.yul\":3772:3871   */\ntag_29:\n    /* \"#utility.yul\":3824:3830   */\n  0x00\n    /* \"#utility.yul\":3858:3863   */\n  dup2\n    /* \"#utility.yul\":3852:3864   */\n  mload\n    /* \"#utility.yul\":3842:3864   */\n  swap1\n  pop\n    /* \"#utility.yul\":3772:3871   */\n  swap2\n  swap1\n  pop\n  jump\t// out\n    /* \"#utility.yul\":3877:4057   */\ntag_30:\n    /* \"#utility.yul\":3925:4002   */\n  0x4e487b7100000000000000000000000000000000000000000000000000000000\n    /* \"#utility.yul\":3922:3923   */\n  0x00\n    /* \"#utility.yul\":3915:4003   */\n  mstore\n    /* \"#utility.yul\":4022:4026   */\n  0x22\n    /* \"#utility.yul\":4019:4020   */\n  0x04\n    /* \"#utility.yul\":4012:4027   */\n  mstore\n    /* \"#utility.yul\":4046:4050   */\n  0x24\n    /* \"#utility.yul\":4043:4044   */\n  0x00\n    /* \"#utility.yul\":4036:4051   */\n  revert\n    /* \"#utility.yul\":4063:4383   */\ntag_31:\n    /* \"#utility.yul\":4107:4113   */\n  0x00\n    /* \"#utility.yul\":4144:4145   */\n  0x02\n    /* \"#utility.yul\":4138:4142   */\n  dup3\n    /* \"#utility.yul\":4134:4146   */\n  div\n    /* \"#utility.yul\":4124:4146   */\n  swap1\n  pop\n    /* \"#utility.yul\":4191:4192   */\n  0x01\n    /* \"#utility.yul\":4185:4189   */\n  dup3\n    /* \"#utility.yul\":4181:4193   */\n  and\n    /* \"#utility.yul\":4212:4230   */\n  dup1\n    /* \"#utility.yul\":4202:4283   */\n  tag_95\n  jumpi\n    /* \"#utility.yul\":4268:4272   */\n  0x7f\n    /* \"#utility.yul\":4260:4266   */\n  dup3\n    /* \"#utility.yul\":4256:4273   */\n  and\n    /* \"#utility.yul\":4246:4273   */\n  swap2\n  pop\n    /* \"#utility.yul\":4202:4283   */\ntag_95:\n    /* \"#utility.yul\":4330:4332   */\n  0x20\n    /* \"#utility.yul\":4322:4328   */\n  dup3\n    /* \"#utility.yul\":4319:4333   */\n  lt\n    /* \"#utility.yul\":4299:4317   */\n  dup2\n    /* \"#utility.yul\":4296:4334   */\n  sub\n    /* \"#utility.yul\":4293:4377   */\n  tag_96\n  jumpi\n    /* \"#utility.yul\":4349:4367   */\n  tag_97\n  tag_30\n  jump\t// in\ntag_97:\n    /* \"#utility.yul\":4293:4377   */\ntag_96:\n    /* \"#utility.yul\":4114:4383   */\n  pop\n    /* \"#utility.yul\":4063:4383   */\n  swap2\n  swap1\n  pop\n  jump\t// out\n    /* \"#utility.yul\":4389:4530   */\ntag_32:\n    /* \"#utility.yul\":4438:4442   */\n  0x00\n    /* \"#utility.yul\":4461:4464   */\n  dup2\n    /* \"#utility.yul\":4453:4464   */\n  swap1\n  pop\n    /* \"#utility.yul\":4484:4487   */\n  dup2\n    /* \"#utility.yul\":4481:4482   */\n  0x00\n    /* \"#utility.yul\":4474:4488   */\n  mstore\n    /* \"#utility.yul\":4518:4522   */\n  0x20\n    /* \"#utility.yul\":4515:4516   */\n  0x00\n    /* \"#utility.yul\":4505:4523   */\n  keccak256\n    /* \"#utility.yul\":4497:4523   */\n  swap1\n  pop\n    /* \"#utility.yul\":4389:4530   */\n  swap2\n  swap1\n  pop\n  jump\t// out\n    /* \"#utility.yul\":4536:4629   */\ntag_33:\n    /* \"#utility.yul\":4573:4579   */\n  0x00\n    /* \"#utility.yul\":4620:4622   */\n  0x20\n    /* \"#utility.yul\":4615:4617   */\n  0x1f\n    /* \"#utility.yul\":4608:4613   */\n  dup4\n    /* \"#utility.yul\":4604:4618   */\n  add\n    /* \"#utility.yul\":4600:4623   */\n  div\n    /* \"#utility.yul\":4590:4623   */\n  swap1\n  pop\n    /* \"#utility.yul\":4536:4629   */\n  swap2\n  swap1\n  pop\n  jump\t// out\n    /* \"#utility.yul\":4635:4742   */\ntag_34:\n    /* \"#utility.yul\":4679:4687   */\n  0x00\n    /* \"#utility.yul\":4729:4734   */\n  dup3\n    /* \"#utility.yul\":4723:4727   */\n  dup3\n    /* \"#utility.yul\":4719:4735   */\n  shl\n    /* \"#utility.yul\":4698:4735   */\n  swap1\n  pop\n    /* \"#utility.yul\":4635:4742   */\n  swap3\n  swap2\n  pop\n  pop\n  jump\t// out\n    /* \"#utility.yul\":4748:5141   */\ntag_35:\n    /* \"#utility.yul\":4817:4823   */\n  0x00\n    /* \"#utility.yul\":4867:4868   */\n  0x08\n    /* \"#utility.yul\":4855:4865   */\n  dup4\n    /* \"#utility.yul\":4851:4869   */\n  mul\n    /* \"#utility.yul\":4890:4987   */\n  tag_102\n    /* \"#utility.yul\":4920:4986   */\n  0xffffffffffffffffffffffffffffffffffffffffffffffffffffffffffffffff\n    /* \"#utility.yul\":4909:4918   */\n  dup3\n    /* \"#utility.yul\":4890:4987   */\n  tag_34\n  jump\t// in\ntag_102:\n    /* \"#utility.yul\":5008:5047   */\n  tag_103\n    /* \"#utility.yul\":5038:5046   */\n  dup7\n    /* \"#utility.yul\":5027:5036   */\n  dup4\n    /* \"#utility.yul\":5008:5047   */\n  tag_34\n  jump\t// in\ntag_103:\n    /* \"#utility.yul\":4996:5047   */\n  swap6\n  pop\n    /* \"#utility.yul\":5080:5084   */\n  dup1\n    /* \"#utility.yul\":5076:5085   */\n  not\n    /* \"#utility.yul\":5069:5074   */\n  dup5\n    /* \"#utility.yul\":5065:5086   */\n  and\n    /* \"#utility.yul\":5056:5086   */\n  swap4\n  pop\n    /* \"#utility.yul\":5129:5133   */\n  dup1\n    /* \"#utility.yul\":5119:5127   */\n  dup7\n    /* \"#utility.yul\":5115:5134   */\n  and\n    /* \"#utility.yul\":5108:5113   */\n  dup5\n    /* \"#utility.yul\":5105:5135   */\n  or\n    /* \"#utility.yul\":5095:5135   */\n  swap3\n  pop\n    /* \"#utility.yul\":4824:5141   */\n  pop\n  pop\n    /* \"#utility.yul\":4748:5141   */\n  swap4\n  swap3\n  pop\n  pop\n  pop\n  jump\t// out\n    /* \"#utility.yul\":5147:5207   */\ntag_36:\n    /* \"#utility.yul\":5175:5178   */\n  0x00\n    /* \"#utility.yul\":5196:5201   */\n  dup2\n    /* \"#utility.yul\":5189:5201   */\n  swap1\n  pop\n    /* \"#utility.yul\":5147:5207   */\n  swap2\n  swap1\n  pop\n  jump\t// out\n    /* \"#utility.yul\":5213:5355   */\ntag_37:\n    /* \"#utility.yul\":5263:5272   */\n  0x00\n    /* \"#utility.yul\":5296:5349   */\n  tag_106\n    /* \"#utility.yul\":5314:5348   */\n  tag_107\n    /* \"#utility.yul\":5323:5347   */\n  tag_108\n    /* \"#utility.yul\":5341:5346   */\n  dup5\n    /* \"#utility.yul\":5323:5347   */\n  tag_26\n  jump\t// in\ntag_108:\n    /* \"#utility.yul\":5314:5348   */\n  tag_36\n  jump\t// in\ntag_107:\n    /* \"#utility.yul\":5296:5349   */\n  tag_26\n  jump\t// in\ntag_106:\n    /* \"#utility.yul\":5283:5349   */\n  swap1\n  pop\n    /* \"#utility.yul\":5213:5355   */\n  swap2\n  swap1\n  pop\n  jump\t// out\n    /* \"#utility.yul\":5361:5436   */\ntag_38:\n    /* \"#utility.yul\":5404:5407   */\n  0x00\n    /* \"#utility.yul\":5425:5430   */\n  dup2\n    /* \"#utility.yul\":5418:5430   */\n  swap1\n  pop\n    /* \"#utility.yul\":5361:5436   */\n  swap2\n  swap1\n  pop\n  jump\t// out\n    /* \"#utility.yul\":5442:5711   */\ntag_39:\n    /* \"#utility.yul\":5552:5591   */\n  tag_111\n    /* \"#utility.yul\":5583:5590   */\n  dup4\n    /* \"#utility.yul\":5552:5591   */\n  tag_37\n  jump\t// in\ntag_111:\n    /* \"#utility.yul\":5613:5704   */\n  tag_112\n    /* \"#utility.yul\":5662:5703   */\n  tag_113\n    /* \"#utility.yul\":5686:5702   */\n  dup3\n    /* \"#utility.yul\":5662:5703   */\n  tag_38\n  jump\t// in\ntag_113:\n    /* \"#utility.yul\":5654:5660   */\n  dup5\n    /* \"#utility.yul\":5647:5651   */\n  dup5\n    /* \"#utility.yul\":5641:5652   */\n  sload\n    /* \"#utility.yul\":5613:5704   */\n  tag_35\n  jump\t// in\ntag_112:\n    /* \"#utility.yul\":5607:5611   */\n  dup3\n    /* \"#utility.yul\":5600:5705   */\n  sstore\n    /* \"#utility.yul\":5518:5711   */\n  pop\n    /* \"#utility.yul\":5442:5711   */\n  pop\n  pop\n  pop\n  jump\t// out\n    /* \"#utility.yul\":5717:5790   */\ntag_40:\n    /* \"#utility.yul\":5762:5765   */\n  0x00\n    /* \"#utility.yul\":5783:5784   */\n  0x00\n    /* \"#utility.yul\":5776:5784   */\n  swap1\n  pop\n    /* \"#utility.yul\":5717:5790   */\n  swap1\n  jump\t// out\n    /* \"#utility.yul\":5796:5985   */\ntag_41:\n    /* \"#utility.yul\":5873:5905   */\n  tag_116\n  tag_40\n  jump\t// in\ntag_116:\n    /* \"#utility.yul\":5914:5979   */\n  tag_117\n    /* \"#utility.yul\":5972:5978   */\n  dup2\n    /* \"#utility.yul\":5964:5970   */\n  dup5\n    /* \"#utility.yul\":5958:5962   */\n  dup5\n    /* \"#utility.yul\":5914:5979   */\n  tag_39\n  jump\t// in\ntag_117:\n    /* \"#utility.yul\":5849:5985   */\n  pop\n    /* \"#utility.yul\":5796:5985   */\n  pop\n  pop\n  jump\t// out\n    /* \"#utility.yul\":5991:6177   */\ntag_42:\n    /* \"#utility.yul\":6051:6171   */\ntag_119:\n    /* \"#utility.yul\":6068:6071   */\n  dup2\n    /* \"#utility.yul\":6061:6066   */\n  dup2\n    /* \"#utility.yul\":6058:6072   */\n  lt\n    /* \"#utility.yul\":6051:6171   */\n  iszero\n  tag_121\n  jumpi\n    /* \"#utility.yul\":6122:6161   */\n  tag_122\n    /* \"#utility.yul\":6159:6160   */\n  0x00\n    /* \"#utility.yul\":6152:6157   */\n  dup3\n    /* \"#utility.yul\":6122:6161   */\n  tag_41\n  jump\t// in\ntag_122:\n    /* \"#utility.yul\":6095:6096   */\n  0x01\n    /* \"#utility.yul\":6088:6093   */\n  dup2\n    /* \"#utility.yul\":6084:6097   */\n  add\n    /* \"#utility.yul\":6075:6097   */\n  swap1\n  pop\n    /* \"#utility.yul\":6051:6171   */\n  jump(tag_119)\ntag_121:\n    /* \"#utility.yul\":5991:6177   */\n  pop\n  pop\n  jump\t// out\n    /* \"#utility.yul\":6183:6726   */\ntag_43:\n    /* \"#utility.yul\":6284:6286   */\n  0x1f\n    /* \"#utility.yul\":6279:6282   */\n  dup3\n    /* \"#utility.yul\":6276:6287   */\n  gt\n    /* \"#utility.yul\":6273:6719   */\n  iszero\n  tag_124\n  jumpi\n    /* \"#utility.yul\":6318:6356   */\n  tag_125\n    /* \"#utility.yul\":6350:6355   */\n  dup2\n    /* \"#utility.yul\":6318:6356   */\n  tag_32\n  jump\t// in\ntag_125:\n    /* \"#utility.yul\":6402:6431   */\n  tag_126\n    /* \"#utility.yul\":6420:6430   */\n  dup5\n    /* \"#utility.yul\":6402:6431   */\n  tag_33\n  jump\t// in\ntag_126:\n    /* \"#utility.yul\":6392:6400   */\n  dup2\n    /* \"#utility.yul\":6388:6432   */\n  add\n    /* \"#utility.yul\":6585:6587   */\n  0x20\n    /* \"#utility.yul\":6573:6583   */\n  dup6\n    /* \"#utility.yul\":6570:6588   */\n  lt\n    /* \"#utility.yul\":6567:6616   */\n  iszero\n  tag_127\n  jumpi\n    /* \"#utility.yul\":6606:6614   */\n  dup2\n    /* \"#utility.yul\":6591:6614   */\n  swap1\n  pop\n    /* \"#utility.yul\":6567:6616   */\ntag_127:\n    /* \"#utility.yul\":6629:6709   */\n  tag_128\n    /* \"#utility.yul\":6685:6707   */\n  tag_129\n    /* \"#utility.yul\":6703:6706   */\n  dup6\n    /* \"#utility.yul\":6685:6707   */\n  tag_33\n  jump\t// in\ntag_129:\n    /* \"#utility.yul\":6675:6683   */\n  dup4\n    /* \"#utility.yul\":6671:6708   */\n  add\n    /* \"#utility.yul\":6658:6669   */\n  dup3\n    /* \"#utility.yul\":6629:6709   */\n  tag_42\n  jump\t// in\ntag_128:\n    /* \"#utility.yul\":6288:6719   */\n  pop\n  pop\n    /* \"#utility.yul\":6273:6719   */\ntag_124:\n    /* \"#utility.yul\":6183:6726   */\n  pop\n  pop\n  pop\n  jump\t// out\n    /* \"#utility.yul\":6732:6849   */\ntag_44:\n    /* \"#utility.yul\":6786:6794   */\n  0x00\n    /* \"#utility.yul\":6836:6841   */\n  dup3\n    /* \"#utility.yul\":6830:6834   */\n  dup3\n    /* \"#utility.yul\":6826:6842   */\n  shr\n    /* \"#utility.yul\":6805:6842   */\n  swap1\n  pop\n    /* \"#utility.yul\":6732:6849   */\n  swap3\n  swap2\n  pop\n  pop\n  jump\t// out\n    /* \"#utility.yul\":6855:7024   */\ntag_45:\n    /* \"#utility.yul\":6899:6905   */\n  0x00\n    /* \"#utility.yul\":6932:6983   */\n  tag_132\n    /* \"#utility.yul\":6980:6981   */\n  0x00\n    /* \"#utility.yul\":6976:6982   */\n  not\n    /* \"#utility.yul\":6968:6973   */\n  dup5\n    /* \"#utility.yul\":6965:6966   */\n  0x08\n    /* \"#utility.yul\":6961:6974   */\n  mul\n    /* \"#utility.yul\":6932:6983   */\n  tag_44\n  jump\t// in\ntag_132:\n    /* \"#utility.yul\":6928:6984   */\n  not\n    /* \"#utility.yul\":7013:7017   */\n  dup1\n    /* \"#utility.yul\":7007:7011   */\n  dup4\n    /* \"#utility.yul\":7003:7018   */\n  and\n    /* \"#utility.yul\":6993:7018   */\n  swap2\n  pop\n    /* \"#utility.yul\":6906:7024   */\n  pop\n    /* \"#utility.yul\":6855:7024   */\n  swap3\n  swap2\n  pop\n  pop\n  jump\t// out\n    /* \"#utility.yul\":7029:7324   */\ntag_46:\n    /* \"#utility.yul\":7105:7109   */\n  0x00\n    /* \"#utility.yul\":7251:7280   */\n  tag_134\n    /* \"#utility.yul\":7276:7279   */\n  dup4\n    /* \"#utility.yul\":7270:7274   */\n  dup4\n    /* \"#utility.yul\":7251:7280   */\n  tag_45\n  jump\t// in\ntag_134:\n    /* \"#utility.yul\":7243:7280   */\n  swap2\n  pop\n    /* \"#utility.yul\":7313:7316   */\n  dup3\n    /* \"#utility.yul\":7310:7311   */\n  0x02\n    /* \"#utility.yul\":7306:7317   */\n  mul\n    /* \"#utility.yul\":7300:7304   */\n  dup3\n    /* \"#utility.yul\":7297:7318   */\n  or\n    /* \"#utility.yul\":7289:7318   */\n  swap1\n  pop\n    /* \"#utility.yul\":7029:7324   */\n  swap3\n  swap2\n  pop\n  pop\n  jump\t// out\n    /* \"#utility.yul\":7329:8724   */\ntag_7:\n    /* \"#utility.yul\":7446:7483   */\n  tag_136\n    /* \"#utility.yul\":7479:7482   */\n  dup3\n    /* \"#utility.yul\":7446:7483   */\n  tag_29\n  jump\t// in\ntag_136:\n    /* \"#utility.yul\":7548:7566   */\n  0xffffffffffffffff\n    /* \"#utility.yul\":7540:7546   */\n  dup2\n    /* \"#utility.yul\":7537:7567   */\n  gt\n    /* \"#utility.yul\":7534:7590   */\n  iszero\n  tag_137\n  jumpi\n    /* \"#utility.yul\":7570:7588   */\n  tag_138\n  tag_19\n  jump\t// in\ntag_138:\n    /* \"#utility.yul\":7534:7590   */\ntag_137:\n    /* \"#utility.yul\":7614:7652   */\n  tag_139\n    /* \"#utility.yul\":7646:7650   */\n  dup3\n    /* \"#utility.yul\":7640:7651   */\n  sload\n    /* \"#utility.yul\":7614:7652   */\n  tag_31\n  jump\t// in\ntag_139:\n    /* \"#utility.yul\":7699:7766   */\n  tag_140\n    /* \"#utility.yul\":7759:7765   */\n  dup3\n    /* \"#utility.yul\":7751:7757   */\n  dup3\n    /* \"#utility.yul\":7745:7749   */\n  dup6\n    /* \"#utility.yul\":7699:7766   */\n  tag_43\n  jump\t// in\ntag_140:\n    /* \"#utility.yul\":7793:7794   */\n  0x00\n    /* \"#utility.yul\":7817:7821   */\n  0x20\n    /* \"#utility.yul\":7804:7821   */\n  swap1\n  pop\n    /* \"#utility.yul\":7849:7851   */\n  0x1f\n    /* \"#utility.yul\":7841:7847   */\n  dup4\n    /* \"#utility.yul\":7838:7852   */\n  gt\n    /* \"#utility.yul\":7866:7867   */\n  0x01\n    /* \"#utility.yul\":7861:8479   */\n  dup2\n  eq\n  tag_142\n  jumpi\n    /* \"#utility.yul\":8523:8524   */\n  0x00\n    /* \"#utility.yul\":8540:8546   */\n  dup5\n    /* \"#utility.yul\":8537:8614   */\n  iszero\n  tag_143\n  jumpi\n    /* \"#utility.yul\":8589:8598   */\n  dup3\n    /* \"#utility.yul\":8584:8587   */\n  dup8\n    /* \"#utility.yul\":8580:8599   */\n  add\n    /* \"#utility.yul\":8574:8600   */\n  mload\n    /* \"#utility.yul\":8565:8600   */\n  swap1\n  pop\n    /* \"#utility.yul\":8537:8614   */\ntag_143:\n    /* \"#utility.yul\":8640:8707   */\n  tag_144\n    /* \"#utility.yul\":8700:8706   */\n  dup6\n    /* \"#utility.yul\":8693:8698   */\n  dup3\n    /* \"#utility.yul\":8640:8707   */\n  tag_46\n  jump\t// in\ntag_144:\n    /* \"#utility.yul\":8634:8638   */\n  dup7\n    /* \"#utility.yul\":8627:8708   */\n  sstore\n    /* \"#utility.yul\":8496:8718   */\n  pop\n    /* \"#utility.yul\":7831:8718   */\n  jump(tag_141)\n    /* \"#utility.yul\":7861:8479   */\ntag_142:\n    /* \"#utility.yul\":7913:7917   */\n  0x1f\n    /* \"#utility.yul\":7909:7918   */\n  not\n    /* \"#utility.yul\":7901:7907   */\n  dup5\n    /* \"#utility.yul\":7897:7919   */\n  and\n    /* \"#utility.yul\":7947:7984   */\n  tag_145\n    /* \"#utility.yul\":7979:7983   */\n  dup7\n    /* \"#utility.yul\":7947:7984   */\n  tag_32\n  jump\t// in\ntag_145:\n    /* \"#utility.yul\":8006:8007   */\n  0x00\n    /* \"#utility.yul\":8020:8228   */\ntag_146:\n    /* \"#utility.yul\":8034:8041   */\n  dup3\n    /* \"#utility.yul\":8031:8032   */\n  dup2\n    /* \"#utility.yul\":8028:8042   */\n  lt\n    /* \"#utility.yul\":8020:8228   */\n  iszero\n  tag_148\n  jumpi\n    /* \"#utility.yul\":8113:8122   */\n  dup5\n    /* \"#utility.yul\":8108:8111   */\n  dup10\n    /* \"#utility.yul\":8104:8123   */\n  add\n    /* \"#utility.yul\":8098:8124   */\n  mload\n    /* \"#utility.yul\":8090:8096   */\n  dup3\n    /* \"#utility.yul\":8083:8125   */\n  sstore\n    /* \"#utility.yul\":8164:8165   */\n  0x01\n    /* \"#utility.yul\":8156:8162   */\n  dup3\n    /* \"#utility.yul\":8152:8166   */\n  add\n    /* \"#utility.yul\":8142:8166   */\n  swap2\n  pop\n    /* \"#utility.yul\":8211:8213   */\n  0x20\n    /* \"#utility.yul\":8200:8209   */\n  dup6\n    /* \"#utility.yul\":8196:8214   */\n  add\n    /* \"#utility.yul\":8183:8214   */\n  swap5\n  pop\n    /* \"#utility.yul\":8057:8061   */\n  0x20\n    /* \"#utility.yul\":8054:8055   */\n  dup2\n    /* \"#utility.yul\":8050:8062   */\n  add\n    /* \"#utility.yul\":8045:8062   */\n  swap1\n  pop\n    /* \"#utility.yul\":8020:8228   */\n  jump(tag_146)\ntag_148:\n    /* \"#utility.yul\":8256:8262   */\n  dup7\n    /* \"#utility.yul\":8247:8254   */\n  dup4\n    /* \"#utility.yul\":8244:8263   */\n  lt\n    /* \"#utility.yul\":8241:8420   */\n  iszero\n  tag_149\n  jumpi\n    /* \"#utility.yul\":8314:8323   */\n  dup5\n    /* \"#utility.yul\":8309:8312   */\n  dup10\n    /* \"#utility.yul\":8305:8324   */\n  add\n    /* \"#utility.yul\":8299:8325   */\n  mload\n    /* \"#utility.yul\":8357:8405   */\n  tag_150\n    /* \"#utility.yul\":8399:8403   */\n  0x1f\n    /* \"#utility.yul\":8391:8397   */\n  dup10\n    /* \"#utility.yul\":8387:8404   */\n  and\n    /* \"#utility.yul\":8376:8385   */\n  dup3\n    /* \"#utility.yul\":8357:8405   */\n  tag_45\n  jump\t// in\ntag_150:\n    /* \"#utility.yul\":8349:8355   */\n  dup4\n    /* \"#utility.yul\":8342:8406   */\n  sstore\n    /* \"#utility.yul\":8264:8420   */\n  pop\n    /* \"#utility.yul\":8241:8420   */\ntag_149:\n    /* \"#utility.yul\":8466:8467   */\n  0x01\n    /* \"#utility.yul\":8462:8463   */\n  0x02\n    /* \"#utility.yul\":8454:8460   */\n  dup9\n    /* \"#utility.yul\":8450:8464   */\n  mul\n    /* \"#utility.yul\":8446:8468   */\n  add\n    /* \"#utility.yul\":8440:8444   */\n  dup9\n    /* \"#utility.yul\":8433:8469   */\n  sstore\n    /* \"#utility.yul\":7868:8479   */\n  pop\n  pop\n  pop\n    /* \"#utility.yul\":7831:8718   */\ntag_141:\n  pop\n    /* \"#utility.yul\":7421:8724   */\n  pop\n  pop\n  pop\n    /* \"#utility.yul\":7329:8724   */\n  pop\n  pop\n  jump\t// out\n    /* \"#utility.yul\":8730:8910   */\ntag_47:\n    /* \"#utility.yul\":8778:8855   */\n  0x4e487b7100000000000000000000000000000000000000000000000000000000\n    /* \"#utility.yul\":8775:8776   */\n  0x00\n    /* \"#utility.yul\":8768:8856   */\n  mstore\n    /* \"#utility.yul\":8875:8879   */\n  0x11\n    /* \"#utility.yul\":8872:8873   */\n  0x04\n    /* \"#utility.yul\":8865:8880   */\n  mstore\n    /* \"#utility.yul\":8899:8903   */\n  0x24\n    /* \"#utility.yul\":8896:8897   */\n  0x00\n    /* \"#utility.yul\":8889:8904   */\n  revert\n    /* \"#utility.yul\":8916:9326   */\ntag_9:\n    /* \"#utility.yul\":8956:8963   */\n  0x00\n    /* \"#utility.yul\":8979:8999   */\n  tag_153\n    /* \"#utility.yul\":8997:8998   */\n  dup3\n    /* \"#utility.yul\":8979:8999   */\n  tag_26\n  jump\t// in\ntag_153:\n    /* \"#utility.yul\":8974:8999   */\n  swap2\n  pop\n    /* \"#utility.yul\":9013:9033   */\n  tag_154\n    /* \"#utility.yul\":9031:9032   */\n  dup4\n    /* \"#utility.yul\":9013:9033   */\n  tag_26\n  jump\t// in\ntag_154:\n    /* \"#utility.yul\":9008:9033   */\n  swap3\n  pop\n    /* \"#utility.yul\":9068:9069   */\n  dup3\n    /* \"#utility.yul\":9065:9066   */\n  dup3\n    /* \"#utility.yul\":9061:9070   */\n  mul\n    /* \"#utility.yul\":9090:9120   */\n  tag_155\n    /* \"#utility.yul\":9108:9119   */\n  dup2\n    /* \"#utility.yul\":9090:9120   */\n  tag_26\n  jump\t// in\ntag_155:\n    /* \"#utility.yul\":9079:9120   */\n  swap2\n  pop\n    /* \"#utility.yul\":9269:9270   */\n  dup3\n    /* \"#utility.yul\":9260:9267   */\n  dup3\n    /* \"#utility.yul\":9256:9271   */\n  div\n    /* \"#utility.yul\":9253:9254   */\n  dup5\n    /* \"#utility.yul\":9250:9272   */\n  eq\n    /* \"#utility.yul\":9230:9231   */\n  dup4\n    /* \"#utility.yul\":9223:9232   */\n  iszero\n    /* \"#utility.yul\":9203:9286   */\n  or\n    /* \"#utility.yul\":9180:9319   */\n  tag_156\n  jumpi\n    /* \"#utility.yul\":9299:9317   */\n  tag_157\n  tag_47\n  jump\t// in\ntag_157:\n    /* \"#utility.yul\":9180:9319   */\ntag_156:\n    /* \"#utility.yul\":8964:9326   */\n  pop\n    /* \"#utility.yul\":8916:9326   */\n  swap3\n  swap2\n  pop\n  pop\n  jump\t// out\n    /* \"#utility.yul\":9332:9523   */\ntag_11:\n    /* \"#utility.yul\":9372:9375   */\n  0x00\n    /* \"#utility.yul\":9391:9411   */\n  tag_159\n    /* \"#utility.yul\":9409:9410   */\n  dup3\n    /* \"#utility.yul\":9391:9411   */\n  tag_26\n  jump\t// in\ntag_159:\n    /* \"#utility.yul\":9386:9411   */\n  swap2\n  pop\n    /* \"#utility.yul\":9425:9445   */\n  tag_160\n    /* \"#utility.yul\":9443:9444   */\n  dup4\n    /* \"#utility.yul\":9425:9445   */\n  tag_26\n  jump\t// in\ntag_160:\n    /* \"#utility.yul\":9420:9445   */\n  swap3\n  pop\n    /* \"#utility.yul\":9468:9469   */\n  dup3\n    /* \"#utility.yul\":9465:9466   */\n  dup3\n    /* \"#utility.yul\":9461:9470   */\n  add\n    /* \"#utility.yul\":9454:9470   */\n  swap1\n  pop\n    /* \"#utility.yul\":9489:9492   */\n  dup1\n    /* \"#utility.yul\":9486:9487   */\n  dup3\n    /* \"#utility.yul\":9483:9493   */\n  gt\n    /* \"#utility.yul\":9480:9516   */\n  iszero\n  tag_161\n  jumpi\n    /* \"#utility.yul\":9496:9514   */\n  tag_162\n  tag_47\n  jump\t// in\ntag_162:\n    /* \"#utility.yul\":9480:9516   */\ntag_161:\n    /* \"#utility.yul\":9332:9523   */\n  swap3\n  swap2\n  pop\n  pop\n  jump\t// out\n    /* \"contracts/subasta.sol\":158:6507  contract Subasta {... */\ntag_12:\n  dataSize(sub_0)\n  dup1\n  dataOffset(sub_0)\n  0x00\n  codecopy\n  0x00\n  return\nstop\n\nsub_0: assembly {\n        /* \"contracts/subasta.sol\":158:6507  contract Subasta {... */\n      mstore(0x40, 0x80)\n      jumpi(tag_1, lt(calldatasize, 0x04))\n      shr(0xe0, calldataload(0x00))\n      dup1\n      0x7284e416\n      gt\n      tag_11\n      jumpi\n      dup1\n      0x7284e416\n      eq\n      tag_6\n      jumpi\n      dup1\n      0x74b11d8a\n      eq\n      tag_7\n      jumpi\n      dup1\n      0x8da5cb5b\n      eq\n      tag_8\n      jumpi\n      dup1\n      0xbef3a083\n      eq\n      tag_9\n      jumpi\n      dup1\n      0xf30e3658\n      eq\n      tag_10\n      jumpi\n      jump(tag_1)\n    tag_11:\n      dup1\n      0x3e109a19\n      eq\n      tag_2\n      jumpi\n      dup1\n      0x4311de8f\n      eq\n      tag_3\n      jumpi\n      dup1\n      0x590e1ae3\n      eq\n      tag_4\n      jumpi\n      dup1\n      0x6569ddf5\n      eq\n      tag_5\n      jumpi\n    tag_1:\n      revert(0x00, 0x00)\n        /* \"contracts/subasta.sol\":286:308  uint256 public  minBid */\n    tag_2:\n      callvalue\n      dup1\n      iszero\n      tag_12\n      jumpi\n      revert(0x00, 0x00)\n    tag_12:\n      pop\n      tag_13\n      tag_14\n      jump\t// in\n    tag_13:\n      mload(0x40)\n      tag_15\n      swap2\n      swap1\n      tag_16\n      jump\t// in\n    tag_15:\n      mload(0x40)\n      dup1\n      swap2\n      sub\n      swap1\n      return\n        /* \"contracts/subasta.sol\":5300:6317  function ownerWithdraw () external noReentrancy {... */\n    tag_3:\n      callvalue\n      dup1\n      iszero\n      tag_17\n      jumpi\n      revert(0x00, 0x00)\n    tag_17:\n      pop\n      tag_18\n      tag_19\n      jump\t// in\n    tag_18:\n      stop\n        /* \"contracts/subasta.sol\":4000:5164  function refund () external noReentrancy {... */\n    tag_4:\n      callvalue\n      dup1\n      iszero\n      tag_20\n      jumpi\n      revert(0x00, 0x00)\n    tag_20:\n      pop\n      tag_21\n      tag_22\n      jump\t// in\n    tag_21:\n      stop\n        /* \"contracts/subasta.sol\":342:371  address public  addressMaxBid */\n    tag_5:\n      callvalue\n      dup1\n      iszero\n      tag_23\n      jumpi\n      revert(0x00, 0x00)\n    tag_23:\n      pop\n      tag_24\n      tag_25\n      jump\t// in\n    tag_24:\n      mload(0x40)\n      tag_26\n      swap2\n      swap1\n      tag_27\n      jump\t// in\n    tag_26:\n      mload(0x40)\n      dup1\n      swap2\n      sub\n      swap1\n      return\n        /* \"contracts/subasta.sol\":253:280  string  public  description */\n    tag_6:\n      callvalue\n      dup1\n      iszero\n      tag_28\n      jumpi\n      revert(0x00, 0x00)\n    tag_28:\n      pop\n      tag_29\n      tag_30\n      jump\t// in\n    tag_29:\n      mload(0x40)\n      tag_31\n      swap2\n      swap1\n      tag_32\n      jump\t// in\n    tag_31:\n      mload(0x40)\n      dup1\n      swap2\n      sub\n      swap1\n      return\n        /* \"contracts/subasta.sol\":314:336  uint256 public  maxBid */\n    tag_7:\n      callvalue\n      dup1\n      iszero\n      tag_33\n      jumpi\n      revert(0x00, 0x00)\n    tag_33:\n      pop\n      tag_34\n      tag_35\n      jump\t// in\n    tag_34:\n      mload(0x40)\n      tag_36\n      swap2\n      swap1\n      tag_16\n      jump\t// in\n    tag_36:\n      mload(0x40)\n      dup1\n      swap2\n      sub\n      swap1\n      return\n        /* \"contracts/subasta.sol\":181:247  address public  owner = 0xF55301514c27489Fde7C9cd9A3EA8044E7E04579 */\n    tag_8:\n      callvalue\n      dup1\n      iszero\n      tag_37\n      jumpi\n      revert(0x00, 0x00)\n    tag_37:\n      pop\n      tag_38\n      tag_39\n      jump\t// in\n    tag_38:\n      mload(0x40)\n      tag_40\n      swap2\n      swap1\n      tag_27\n      jump\t// in\n    tag_40:\n      mload(0x40)\n      dup1\n      swap2\n      sub\n      swap1\n      return\n        /* \"contracts/subasta.sol\":377:401  uint256 public  deadLine */\n    tag_9:\n      callvalue\n      dup1\n      iszero\n      tag_41\n      jumpi\n      revert(0x00, 0x00)\n    tag_41:\n      pop\n      tag_42\n      tag_43\n      jump\t// in\n    tag_42:\n      mload(0x40)\n      tag_44\n      swap2\n      swap1\n      tag_16\n      jump\t// in\n    tag_44:\n      mload(0x40)\n      dup1\n      swap2\n      sub\n      swap1\n      return\n        /* \"contracts/subasta.sol\":1850:3863  function makeBid () external payable {... */\n    tag_10:\n      tag_45\n      tag_46\n      jump\t// in\n    tag_45:\n      stop\n        /* \"contracts/subasta.sol\":286:308  uint256 public  minBid */\n    tag_14:\n      sload(0x02)\n      dup2\n      jump\t// out\n        /* \"contracts/subasta.sol\":5300:6317  function ownerWithdraw () external noReentrancy {... */\n    tag_19:\n        /* \"contracts/subasta.sol\":6415:6424  bloqueado */\n      0x06\n      0x00\n      swap1\n      sload\n      swap1\n      0x0100\n      exp\n      swap1\n      div\n      0xff\n      and\n        /* \"contracts/subasta.sol\":6411:6434  if (bloqueado) revert() */\n      iszero\n      tag_48\n      jumpi\n        /* \"contracts/subasta.sol\":6426:6434  revert() */\n      revert(0x00, 0x00)\n        /* \"contracts/subasta.sol\":6411:6434  if (bloqueado) revert() */\n    tag_48:\n        /* \"contracts/subasta.sol\":6456:6460  true */\n      0x01\n        /* \"contracts/subasta.sol\":6444:6453  bloqueado */\n      0x06\n      0x00\n        /* \"contracts/subasta.sol\":6444:6460  bloqueado = true */\n      0x0100\n      exp\n      dup2\n      sload\n      dup2\n      0xff\n      mul\n      not\n      and\n      swap1\n      dup4\n      iszero\n      iszero\n      mul\n      or\n      swap1\n      sstore\n      pop\n        /* \"contracts/subasta.sol\":5428:5433  owner */\n      0x00\n      0x00\n      swap1\n      sload\n      swap1\n      0x0100\n      exp\n      swap1\n      div\n      0xffffffffffffffffffffffffffffffffffffffff\n      and\n        /* \"contracts/subasta.sol\":5414:5433  msg.sender == owner */\n      0xffffffffffffffffffffffffffffffffffffffff\n      and\n        /* \"contracts/subasta.sol\":5414:5424  msg.sender */\n      caller\n        /* \"contracts/subasta.sol\":5414:5433  msg.sender == owner */\n      0xffffffffffffffffffffffffffffffffffffffff\n      and\n      eq\n        /* \"contracts/subasta.sol\":5406:5473  require(msg.sender == owner, \"No eres el propietario del articulo\") */\n      tag_50\n      jumpi\n      mload(0x40)\n      0x08c379a000000000000000000000000000000000000000000000000000000000\n      dup2\n      mstore\n      0x04\n      add\n      tag_51\n      swap1\n      tag_52\n      jump\t// in\n    tag_51:\n      mload(0x40)\n      dup1\n      swap2\n      sub\n      swap1\n      revert\n    tag_50:\n        /* \"contracts/subasta.sol\":5639:5647  deadLine */\n      sload(0x05)\n        /* \"contracts/subasta.sol\":5621:5636  block.timestamp */\n      timestamp\n        /* \"contracts/subasta.sol\":5621:5647  block.timestamp > deadLine */\n      gt\n        /* \"contracts/subasta.sol\":5613:5686  require(block.timestamp > deadLine, \"La subasta no esta cerrada todavia\") */\n      tag_53\n      jumpi\n      mload(0x40)\n      0x08c379a000000000000000000000000000000000000000000000000000000000\n      dup2\n      mstore\n      0x04\n      add\n      tag_54\n      swap1\n      tag_55\n      jump\t// in\n    tag_54:\n      mload(0x40)\n      dup1\n      swap2\n      sub\n      swap1\n      revert\n    tag_53:\n        /* \"contracts/subasta.sol\":6027:6028  0 */\n      0x00\n        /* \"contracts/subasta.sol\":6005:6009  bids */\n      0x07\n        /* \"contracts/subasta.sol\":6005:6024  bids[addressMaxBid] */\n      0x00\n        /* \"contracts/subasta.sol\":6010:6023  addressMaxBid */\n      0x04\n      0x00\n      swap1\n      sload\n      swap1\n      0x0100\n      exp\n      swap1\n      div\n      0xffffffffffffffffffffffffffffffffffffffff\n      and\n        /* \"contracts/subasta.sol\":6005:6024  bids[addressMaxBid] */\n      0xffffffffffffffffffffffffffffffffffffffff\n      and\n      0xffffffffffffffffffffffffffffffffffffffff\n      and\n      dup2\n      mstore\n      0x20\n      add\n      swap1\n      dup2\n      mstore\n      0x20\n      add\n      0x00\n      keccak256\n        /* \"contracts/subasta.sol\":6005:6028  bids[addressMaxBid] = 0 */\n      dup2\n      swap1\n      sstore\n      pop\n        /* \"contracts/subasta.sol\":6064:6071  bool ok */\n      0x00\n        /* \"contracts/subasta.sol\":6085:6090  owner */\n      0x00\n      0x00\n      swap1\n      sload\n      swap1\n      0x0100\n      exp\n      swap1\n      div\n      0xffffffffffffffffffffffffffffffffffffffff\n      and\n        /* \"contracts/subasta.sol\":6077:6096  payable(owner).call */\n      0xffffffffffffffffffffffffffffffffffffffff\n      and\n        /* \"contracts/subasta.sol\":6103:6109  maxBid */\n      sload(0x03)\n        /* \"contracts/subasta.sol\":6077:6114  payable(owner).call{value:maxBid}(\"\") */\n      mload(0x40)\n      tag_56\n      swap1\n      tag_57\n      jump\t// in\n    tag_56:\n      0x00\n      mload(0x40)\n      dup1\n      dup4\n      sub\n      dup2\n      dup6\n      dup8\n      gas\n      call\n      swap3\n      pop\n      pop\n      pop\n      returndatasize\n      dup1\n      0x00\n      dup2\n      eq\n      tag_60\n      jumpi\n      mload(0x40)\n      swap2\n      pop\n      and(add(returndatasize, 0x3f), not(0x1f))\n      dup3\n      add\n      0x40\n      mstore\n      returndatasize\n      dup3\n      mstore\n      returndatasize\n      0x00\n      0x20\n      dup5\n      add\n      returndatacopy\n      jump(tag_59)\n    tag_60:\n      0x60\n      swap2\n      pop\n    tag_59:\n      pop\n        /* \"contracts/subasta.sol\":6063:6114  (bool ok, ) = payable(owner).call{value:maxBid}(\"\") */\n      pop\n      swap1\n      pop\n        /* \"contracts/subasta.sol\":6132:6134  ok */\n      dup1\n        /* \"contracts/subasta.sol\":6124:6161  require(ok, \"Fallo al enviar fondos\") */\n      tag_61\n      jumpi\n      mload(0x40)\n      0x08c379a000000000000000000000000000000000000000000000000000000000\n      dup2\n      mstore\n      0x04\n      add\n      tag_62\n      swap1\n      tag_63\n      jump\t// in\n    tag_62:\n      mload(0x40)\n      dup1\n      swap2\n      sub\n      swap1\n      revert\n    tag_61:\n        /* \"contracts/subasta.sol\":5348:6317  {... */\n      pop\n        /* \"contracts/subasta.sol\":6493:6498  false */\n      0x00\n        /* \"contracts/subasta.sol\":6481:6490  bloqueado */\n      0x06\n      0x00\n        /* \"contracts/subasta.sol\":6481:6498  bloqueado = false */\n      0x0100\n      exp\n      dup2\n      sload\n      dup2\n      0xff\n      mul\n      not\n      and\n      swap1\n      dup4\n      iszero\n      iszero\n      mul\n      or\n      swap1\n      sstore\n      pop\n        /* \"contracts/subasta.sol\":5300:6317  function ownerWithdraw () external noReentrancy {... */\n      jump\t// out\n        /* \"contracts/subasta.sol\":4000:5164  function refund () external noReentrancy {... */\n    tag_22:\n        /* \"contracts/subasta.sol\":6415:6424  bloqueado */\n      0x06\n      0x00\n      swap1\n      sload\n      swap1\n      0x0100\n      exp\n      swap1\n      div\n      0xff\n      and\n        /* \"contracts/subasta.sol\":6411:6434  if (bloqueado) revert() */\n      iszero\n      tag_65\n      jumpi\n        /* \"contracts/subasta.sol\":6426:6434  revert() */\n      revert(0x00, 0x00)\n        /* \"contracts/subasta.sol\":6411:6434  if (bloqueado) revert() */\n    tag_65:\n        /* \"contracts/subasta.sol\":6456:6460  true */\n      0x01\n        /* \"contracts/subasta.sol\":6444:6453  bloqueado */\n      0x06\n      0x00\n        /* \"contracts/subasta.sol\":6444:6460  bloqueado = true */\n      0x0100\n      exp\n      dup2\n      sload\n      dup2\n      0xff\n      mul\n      not\n      and\n      swap1\n      dup4\n      iszero\n      iszero\n      mul\n      or\n      swap1\n      sstore\n      pop\n        /* \"contracts/subasta.sol\":4123:4131  deadLine */\n      sload(0x05)\n        /* \"contracts/subasta.sol\":4105:4120  block.timestamp */\n      timestamp\n        /* \"contracts/subasta.sol\":4105:4131  block.timestamp > deadLine */\n      gt\n        /* \"contracts/subasta.sol\":4097:4167  require(block.timestamp > deadLine, \"La subasta todavia esta abierta\") */\n      tag_67\n      jumpi\n      mload(0x40)\n      0x08c379a000000000000000000000000000000000000000000000000000000000\n      dup2\n      mstore\n      0x04\n      add\n      tag_68\n      swap1\n      tag_69\n      jump\t// in\n    tag_68:\n      mload(0x40)\n      dup1\n      swap2\n      sub\n      swap1\n      revert\n    tag_67:\n        /* \"contracts/subasta.sol\":4421:4431  msg.sender */\n      caller\n        /* \"contracts/subasta.sol\":4404:4431  addressMaxBid != msg.sender */\n      0xffffffffffffffffffffffffffffffffffffffff\n      and\n        /* \"contracts/subasta.sol\":4404:4417  addressMaxBid */\n      0x04\n      0x00\n      swap1\n      sload\n      swap1\n      0x0100\n      exp\n      swap1\n      div\n      0xffffffffffffffffffffffffffffffffffffffff\n      and\n        /* \"contracts/subasta.sol\":4404:4431  addressMaxBid != msg.sender */\n      0xffffffffffffffffffffffffffffffffffffffff\n      and\n      sub\n        /* \"contracts/subasta.sol\":4396:4481  require(addressMaxBid != msg.sender, \"Tu puja es la ganadora. No puedes recuperarla\") */\n      tag_70\n      jumpi\n      mload(0x40)\n      0x08c379a000000000000000000000000000000000000000000000000000000000\n      dup2\n      mstore\n      0x04\n      add\n      tag_71\n      swap1\n      tag_72\n      jump\t// in\n    tag_71:\n      mload(0x40)\n      dup1\n      swap2\n      sub\n      swap1\n      revert\n    tag_70:\n        /* \"contracts/subasta.sol\":4664:4665  0 */\n      0x00\n        /* \"contracts/subasta.sol\":4644:4648  bids */\n      0x07\n        /* \"contracts/subasta.sol\":4644:4660  bids[msg.sender] */\n      0x00\n        /* \"contracts/subasta.sol\":4649:4659  msg.sender */\n      caller\n        /* \"contracts/subasta.sol\":4644:4660  bids[msg.sender] */\n      0xffffffffffffffffffffffffffffffffffffffff\n      and\n      0xffffffffffffffffffffffffffffffffffffffff\n      and\n      dup2\n      mstore\n      0x20\n      add\n      swap1\n      dup2\n      mstore\n      0x20\n      add\n      0x00\n      keccak256\n      sload\n        /* \"contracts/subasta.sol\":4644:4665  bids[msg.sender] != 0 */\n      sub\n        /* \"contracts/subasta.sol\":4636:4698  require(bids[msg.sender] != 0, \"No pujaste por este articulo\") */\n      tag_73\n      jumpi\n      mload(0x40)\n      0x08c379a000000000000000000000000000000000000000000000000000000000\n      dup2\n      mstore\n      0x04\n      add\n      tag_74\n      swap1\n      tag_75\n      jump\t// in\n    tag_74:\n      mload(0x40)\n      dup1\n      swap2\n      sub\n      swap1\n      revert\n    tag_73:\n        /* \"contracts/subasta.sol\":4850:4851  0 */\n      0x00\n        /* \"contracts/subasta.sol\":4831:4835  bids */\n      0x07\n        /* \"contracts/subasta.sol\":4831:4847  bids[msg.sender] */\n      0x00\n        /* \"contracts/subasta.sol\":4836:4846  msg.sender */\n      caller\n        /* \"contracts/subasta.sol\":4831:4847  bids[msg.sender] */\n      0xffffffffffffffffffffffffffffffffffffffff\n      and\n      0xffffffffffffffffffffffffffffffffffffffff\n      and\n      dup2\n      mstore\n      0x20\n      add\n      swap1\n      dup2\n      mstore\n      0x20\n      add\n      0x00\n      keccak256\n        /* \"contracts/subasta.sol\":4831:4851  bids[msg.sender] = 0 */\n      dup2\n      swap1\n      sstore\n      pop\n        /* \"contracts/subasta.sol\":4887:4894  bool ok */\n      0x00\n        /* \"contracts/subasta.sol\":4908:4918  msg.sender */\n      caller\n        /* \"contracts/subasta.sol\":4900:4924  payable(msg.sender).call */\n      0xffffffffffffffffffffffffffffffffffffffff\n      and\n        /* \"contracts/subasta.sol\":4931:4935  bids */\n      0x07\n        /* \"contracts/subasta.sol\":4931:4947  bids[msg.sender] */\n      0x00\n        /* \"contracts/subasta.sol\":4936:4946  msg.sender */\n      caller\n        /* \"contracts/subasta.sol\":4931:4947  bids[msg.sender] */\n      0xffffffffffffffffffffffffffffffffffffffff\n      and\n      0xffffffffffffffffffffffffffffffffffffffff\n      and\n      dup2\n      mstore\n      0x20\n      add\n      swap1\n      dup2\n      mstore\n      0x20\n      add\n      0x00\n      keccak256\n      sload\n        /* \"contracts/subasta.sol\":4900:4952  payable(msg.sender).call{value:bids[msg.sender]}(\"\") */\n      mload(0x40)\n      tag_76\n      swap1\n      tag_57\n      jump\t// in\n    tag_76:\n      0x00\n      mload(0x40)\n      dup1\n      dup4\n      sub\n      dup2\n      dup6\n      dup8\n      gas\n      call\n      swap3\n      pop\n      pop\n      pop\n      returndatasize\n      dup1\n      0x00\n      dup2\n      eq\n      tag_79\n      jumpi\n      mload(0x40)\n      swap2\n      pop\n      and(add(returndatasize, 0x3f), not(0x1f))\n      dup3\n      add\n      0x40\n      mstore\n      returndatasize\n      dup3\n      mstore\n      returndatasize\n      0x00\n      0x20\n      dup5\n      add\n      returndatacopy\n      jump(tag_78)\n    tag_79:\n      0x60\n      swap2\n      pop\n    tag_78:\n      pop\n        /* \"contracts/subasta.sol\":4886:4952  (bool ok, ) = payable(msg.sender).call{value:bids[msg.sender]}(\"\") */\n      pop\n      swap1\n      pop\n        /* \"contracts/subasta.sol\":4970:4972  ok */\n      dup1\n        /* \"contracts/subasta.sol\":4962:4999  require(ok, \"Fallo al enviar fondos\") */\n      tag_80\n      jumpi\n      mload(0x40)\n      0x08c379a000000000000000000000000000000000000000000000000000000000\n      dup2\n      mstore\n      0x04\n      add\n      tag_81\n      swap1\n      tag_63\n      jump\t// in\n    tag_81:\n      mload(0x40)\n      dup1\n      swap2\n      sub\n      swap1\n      revert\n    tag_80:\n        /* \"contracts/subasta.sol\":4041:5164  {... */\n      pop\n        /* \"contracts/subasta.sol\":6493:6498  false */\n      0x00\n        /* \"contracts/subasta.sol\":6481:6490  bloqueado */\n      0x06\n      0x00\n        /* \"contracts/subasta.sol\":6481:6498  bloqueado = false */\n      0x0100\n      exp\n      dup2\n      sload\n      dup2\n      0xff\n      mul\n      not\n      and\n      swap1\n      dup4\n      iszero\n      iszero\n      mul\n      or\n      swap1\n      sstore\n      pop\n        /* \"contracts/subasta.sol\":4000:5164  function refund () external noReentrancy {... */\n      jump\t// out\n        /* \"contracts/subasta.sol\":342:371  address public  addressMaxBid */\n    tag_25:\n      0x04\n      0x00\n      swap1\n      sload\n      swap1\n      0x0100\n      exp\n      swap1\n      div\n      0xffffffffffffffffffffffffffffffffffffffff\n      and\n      dup2\n      jump\t// out\n        /* \"contracts/subasta.sol\":253:280  string  public  description */\n    tag_30:\n      0x01\n      dup1\n      sload\n      tag_82\n      swap1\n      tag_83\n      jump\t// in\n    tag_82:\n      dup1\n      0x1f\n      add\n      0x20\n      dup1\n      swap2\n      div\n      mul\n      0x20\n      add\n      mload(0x40)\n      swap1\n      dup2\n      add\n      0x40\n      mstore\n      dup1\n      swap3\n      swap2\n      swap1\n      dup2\n      dup2\n      mstore\n      0x20\n      add\n      dup3\n      dup1\n      sload\n      tag_84\n      swap1\n      tag_83\n      jump\t// in\n    tag_84:\n      dup1\n      iszero\n      tag_85\n      jumpi\n      dup1\n      0x1f\n      lt\n      tag_86\n      jumpi\n      0x0100\n      dup1\n      dup4\n      sload\n      div\n      mul\n      dup4\n      mstore\n      swap2\n      0x20\n      add\n      swap2\n      jump(tag_85)\n    tag_86:\n      dup3\n      add\n      swap2\n      swap1\n      0x00\n      mstore\n      keccak256(0x00, 0x20)\n      swap1\n    tag_87:\n      dup2\n      sload\n      dup2\n      mstore\n      swap1\n      0x01\n      add\n      swap1\n      0x20\n      add\n      dup1\n      dup4\n      gt\n      tag_87\n      jumpi\n      dup3\n      swap1\n      sub\n      0x1f\n      and\n      dup3\n      add\n      swap2\n    tag_85:\n      pop\n      pop\n      pop\n      pop\n      pop\n      dup2\n      jump\t// out\n        /* \"contracts/subasta.sol\":314:336  uint256 public  maxBid */\n    tag_35:\n      sload(0x03)\n      dup2\n      jump\t// out\n        /* \"contracts/subasta.sol\":181:247  address public  owner = 0xF55301514c27489Fde7C9cd9A3EA8044E7E04579 */\n    tag_39:\n      0x00\n      0x00\n      swap1\n      sload\n      swap1\n      0x0100\n      exp\n      swap1\n      div\n      0xffffffffffffffffffffffffffffffffffffffff\n      and\n      dup2\n      jump\t// out\n        /* \"contracts/subasta.sol\":377:401  uint256 public  deadLine */\n    tag_43:\n      sload(0x05)\n      dup2\n      jump\t// out\n        /* \"contracts/subasta.sol\":1850:3863  function makeBid () external payable {... */\n    tag_46:\n        /* \"contracts/subasta.sol\":1978:1986  deadLine */\n      sload(0x05)\n        /* \"contracts/subasta.sol\":1960:1975  block.timestamp */\n      timestamp\n        /* \"contracts/subasta.sol\":1960:1986  block.timestamp < deadLine */\n      lt\n        /* \"contracts/subasta.sol\":1952:2006  require(block.timestamp < deadLine, \"Subasta cerrada\") */\n      tag_89\n      jumpi\n      mload(0x40)\n      0x08c379a000000000000000000000000000000000000000000000000000000000\n      dup2\n      mstore\n      0x04\n      add\n      tag_90\n      swap1\n      tag_91\n      jump\t// in\n    tag_90:\n      mload(0x40)\n      dup1\n      swap2\n      sub\n      swap1\n      revert\n    tag_89:\n        /* \"contracts/subasta.sol\":2245:2246  0 */\n      0x00\n        /* \"contracts/subasta.sol\":2233:2242  msg.value */\n      callvalue\n        /* \"contracts/subasta.sol\":2233:2246  msg.value > 0 */\n      gt\n        /* \"contracts/subasta.sol\":2225:2268  require(msg.value > 0, \"Sin envio de bTNB\") */\n      tag_92\n      jumpi\n      mload(0x40)\n      0x08c379a000000000000000000000000000000000000000000000000000000000\n      dup2\n      mstore\n      0x04\n      add\n      tag_93\n      swap1\n      tag_94\n      jump\t// in\n    tag_93:\n      mload(0x40)\n      dup1\n      swap2\n      sub\n      swap1\n      revert\n    tag_92:\n        /* \"contracts/subasta.sol\":2363:2368  owner */\n      0x00\n      0x00\n      swap1\n      sload\n      swap1\n      0x0100\n      exp\n      swap1\n      div\n      0xffffffffffffffffffffffffffffffffffffffff\n      and\n        /* \"contracts/subasta.sol\":2349:2368  msg.sender != owner */\n      0xffffffffffffffffffffffffffffffffffffffff\n      and\n        /* \"contracts/subasta.sol\":2349:2359  msg.sender */\n      caller\n        /* \"contracts/subasta.sol\":2349:2368  msg.sender != owner */\n      0xffffffffffffffffffffffffffffffffffffffff\n      and\n      sub\n        /* \"contracts/subasta.sol\":2341:2402  require(msg.sender != owner, \"El propietario no puede pujar\") */\n      tag_95\n      jumpi\n      mload(0x40)\n      0x08c379a000000000000000000000000000000000000000000000000000000000\n      dup2\n      mstore\n      0x04\n      add\n      tag_96\n      swap1\n      tag_97\n      jump\t// in\n    tag_96:\n      mload(0x40)\n      dup1\n      swap2\n      sub\n      swap1\n      revert\n    tag_95:\n        /* \"contracts/subasta.sol\":2595:2596  0 */\n      0x00\n        /* \"contracts/subasta.sol\":2575:2579  bids */\n      0x07\n        /* \"contracts/subasta.sol\":2575:2591  bids[msg.sender] */\n      0x00\n        /* \"contracts/subasta.sol\":2580:2590  msg.sender */\n      caller\n        /* \"contracts/subasta.sol\":2575:2591  bids[msg.sender] */\n      0xffffffffffffffffffffffffffffffffffffffff\n      and\n      0xffffffffffffffffffffffffffffffffffffffff\n      and\n      dup2\n      mstore\n      0x20\n      add\n      swap1\n      dup2\n      mstore\n      0x20\n      add\n      0x00\n      keccak256\n      sload\n        /* \"contracts/subasta.sol\":2575:2596  bids[msg.sender] == 0 */\n      eq\n        /* \"contracts/subasta.sol\":2567:2623  require(bids[msg.sender] == 0, \"Ya realizaste una puja\") */\n      tag_98\n      jumpi\n      mload(0x40)\n      0x08c379a000000000000000000000000000000000000000000000000000000000\n      dup2\n      mstore\n      0x04\n      add\n      tag_99\n      swap1\n      tag_100\n      jump\t// in\n    tag_99:\n      mload(0x40)\n      dup1\n      swap2\n      sub\n      swap1\n      revert\n    tag_98:\n        /* \"contracts/subasta.sol\":2826:2832  minBid */\n      sload(0x02)\n        /* \"contracts/subasta.sol\":2814:2823  msg.value */\n      callvalue\n        /* \"contracts/subasta.sol\":2814:2832  msg.value > minBid */\n      gt\n        /* \"contracts/subasta.sol\":2806:2880  require(msg.value > minBid, \"La puja debe ser mas ata que la puja minima\") */\n      tag_101\n      jumpi\n      mload(0x40)\n      0x08c379a000000000000000000000000000000000000000000000000000000000\n      dup2\n      mstore\n      0x04\n      add\n      tag_102\n      swap1\n      tag_103\n      jump\t// in\n    tag_102:\n      mload(0x40)\n      dup1\n      swap2\n      sub\n      swap1\n      revert\n    tag_101:\n        /* \"contracts/subasta.sol\":3078:3084  maxBid */\n      sload(0x03)\n        /* \"contracts/subasta.sol\":3066:3075  msg.value */\n      callvalue\n        /* \"contracts/subasta.sol\":3066:3084  msg.value > maxBid */\n      gt\n        /* \"contracts/subasta.sol\":3058:3114  require(msg.value > maxBid, \"La puja debe ser mas alta\") */\n      tag_104\n      jumpi\n      mload(0x40)\n      0x08c379a000000000000000000000000000000000000000000000000000000000\n      dup2\n      mstore\n      0x04\n      add\n      tag_105\n      swap1\n      tag_106\n      jump\t// in\n    tag_105:\n      mload(0x40)\n      dup1\n      swap2\n      sub\n      swap1\n      revert\n    tag_104:\n        /* \"contracts/subasta.sol\":3345:3361  uint256 required */\n      0x00\n        /* \"contracts/subasta.sol\":3377:3386  msg.value */\n      callvalue\n        /* \"contracts/subasta.sol\":3364:3374  0.01 ether */\n      0x2386f26fc10000\n        /* \"contracts/subasta.sol\":3364:3386  0.01 ether + msg.value */\n      tag_107\n      swap2\n      swap1\n      tag_108\n      jump\t// in\n    tag_107:\n        /* \"contracts/subasta.sol\":3345:3386  uint256 required = 0.01 ether + msg.value */\n      swap1\n      pop\n        /* \"contracts/subasta.sol\":3416:3426  msg.sender */\n      caller\n        /* \"contracts/subasta.sol\":3416:3434  msg.sender.balance */\n      0xffffffffffffffffffffffffffffffffffffffff\n      and\n      balance\n        /* \"contracts/subasta.sol\":3404:3412  required */\n      dup2\n        /* \"contracts/subasta.sol\":3404:3434  required >= msg.sender.balance */\n      lt\n      iszero\n        /* \"contracts/subasta.sol\":3396:3465  require(required >= msg.sender.balance, \"No tienes saldo suficiente\") */\n      tag_109\n      jumpi\n      mload(0x40)\n      0x08c379a000000000000000000000000000000000000000000000000000000000\n      dup2\n      mstore\n      0x04\n      add\n      tag_110\n      swap1\n      tag_111\n      jump\t// in\n    tag_110:\n      mload(0x40)\n      dup1\n      swap2\n      sub\n      swap1\n      revert\n    tag_109:\n        /* \"contracts/subasta.sol\":3721:3730  msg.value */\n      callvalue\n        /* \"contracts/subasta.sol\":3702:3706  bids */\n      0x07\n        /* \"contracts/subasta.sol\":3702:3718  bids[msg.sender] */\n      0x00\n        /* \"contracts/subasta.sol\":3707:3717  msg.sender */\n      caller\n        /* \"contracts/subasta.sol\":3702:3718  bids[msg.sender] */\n      0xffffffffffffffffffffffffffffffffffffffff\n      and\n      0xffffffffffffffffffffffffffffffffffffffff\n      and\n      dup2\n      mstore\n      0x20\n      add\n      swap1\n      dup2\n      mstore\n      0x20\n      add\n      0x00\n      keccak256\n        /* \"contracts/subasta.sol\":3702:3730  bids[msg.sender] = msg.value */\n      dup2\n      swap1\n      sstore\n      pop\n        /* \"contracts/subasta.sol\":3749:3758  msg.value */\n      callvalue\n        /* \"contracts/subasta.sol\":3740:3746  maxBid */\n      0x03\n        /* \"contracts/subasta.sol\":3740:3758  maxBid = msg.value */\n      dup2\n      swap1\n      sstore\n      pop\n        /* \"contracts/subasta.sol\":3784:3794  msg.sender */\n      caller\n        /* \"contracts/subasta.sol\":3768:3781  addressMaxBid */\n      0x04\n      0x00\n        /* \"contracts/subasta.sol\":3768:3794  addressMaxBid = msg.sender */\n      0x0100\n      exp\n      dup2\n      sload\n      dup2\n      0xffffffffffffffffffffffffffffffffffffffff\n      mul\n      not\n      and\n      swap1\n      dup4\n      0xffffffffffffffffffffffffffffffffffffffff\n      and\n      mul\n      or\n      swap1\n      sstore\n      pop\n        /* \"contracts/subasta.sol\":3830:3856  Bid(msg.sender, msg.value) */\n      0xe684a55f31b79eca403df938249029212a5925ec6be8012e099b45bc1019e5d2\n        /* \"contracts/subasta.sol\":3834:3844  msg.sender */\n      caller\n        /* \"contracts/subasta.sol\":3846:3855  msg.value */\n      callvalue\n        /* \"contracts/subasta.sol\":3830:3856  Bid(msg.sender, msg.value) */\n      mload(0x40)\n      tag_112\n      swap3\n      swap2\n      swap1\n      tag_113\n      jump\t// in\n    tag_112:\n      mload(0x40)\n      dup1\n      swap2\n      sub\n      swap1\n      log1\n        /* \"contracts/subasta.sol\":1887:3863  {... */\n      pop\n        /* \"contracts/subasta.sol\":1850:3863  function makeBid () external payable {... */\n      jump\t// out\n        /* \"#utility.yul\":7:84   */\n    tag_114:\n        /* \"#utility.yul\":44:51   */\n      0x00\n        /* \"#utility.yul\":73:78   */\n      dup2\n        /* \"#utility.yul\":62:78   */\n      swap1\n      pop\n        /* \"#utility.yul\":7:84   */\n      swap2\n      swap1\n      pop\n      jump\t// out\n        /* \"#utility.yul\":90:208   */\n    tag_115:\n        /* \"#utility.yul\":177:201   */\n      tag_158\n        /* \"#utility.yul\":195:200   */\n      dup2\n        /* \"#utility.yul\":177:201   */\n      tag_114\n      jump\t// in\n    tag_158:\n        /* \"#utility.yul\":172:175   */\n      dup3\n        /* \"#utility.yul\":165:202   */\n      mstore\n        /* \"#utility.yul\":90:208   */\n      pop\n      pop\n      jump\t// out\n        /* \"#utility.yul\":214:436   */\n    tag_16:\n        /* \"#utility.yul\":307:311   */\n      0x00\n        /* \"#utility.yul\":345:347   */\n      0x20\n        /* \"#utility.yul\":334:343   */\n      dup3\n        /* \"#utility.yul\":330:348   */\n      add\n        /* \"#utility.yul\":322:348   */\n      swap1\n      pop\n        /* \"#utility.yul\":358:429   */\n      tag_160\n        /* \"#utility.yul\":426:427   */\n      0x00\n        /* \"#utility.yul\":415:424   */\n      dup4\n        /* \"#utility.yul\":411:428   */\n      add\n        /* \"#utility.yul\":402:408   */\n      dup5\n        /* \"#utility.yul\":358:429   */\n      tag_115\n      jump\t// in\n    tag_160:\n        /* \"#utility.yul\":214:436   */\n      swap3\n      swap2\n      pop\n      pop\n      jump\t// out\n        /* \"#utility.yul\":442:568   */\n    tag_116:\n        /* \"#utility.yul\":479:486   */\n      0x00\n        /* \"#utility.yul\":519:561   */\n      0xffffffffffffffffffffffffffffffffffffffff\n        /* \"#utility.yul\":512:517   */\n      dup3\n        /* \"#utility.yul\":508:562   */\n      and\n        /* \"#utility.yul\":497:562   */\n      swap1\n      pop\n        /* \"#utility.yul\":442:568   */\n      swap2\n      swap1\n      pop\n      jump\t// out\n        /* \"#utility.yul\":574:670   */\n    tag_117:\n        /* \"#utility.yul\":611:618   */\n      0x00\n        /* \"#utility.yul\":640:664   */\n      tag_163\n        /* \"#utility.yul\":658:663   */\n      dup3\n        /* \"#utility.yul\":640:664   */\n      tag_116\n      jump\t// in\n    tag_163:\n        /* \"#utility.yul\":629:664   */\n      swap1\n      pop\n        /* \"#utility.yul\":574:670   */\n      swap2\n      swap1\n      pop\n      jump\t// out\n        /* \"#utility.yul\":676:794   */\n    tag_118:\n        /* \"#utility.yul\":763:787   */\n      tag_165\n        /* \"#utility.yul\":781:786   */\n      dup2\n        /* \"#utility.yul\":763:787   */\n      tag_117\n      jump\t// in\n    tag_165:\n        /* \"#utility.yul\":758:761   */\n      dup3\n        /* \"#utility.yul\":751:788   */\n      mstore\n        /* \"#utility.yul\":676:794   */\n      pop\n      pop\n      jump\t// out\n        /* \"#utility.yul\":800:1022   */\n    tag_27:\n        /* \"#utility.yul\":893:897   */\n      0x00\n        /* \"#utility.yul\":931:933   */\n      0x20\n        /* \"#utility.yul\":920:929   */\n      dup3\n        /* \"#utility.yul\":916:934   */\n      add\n        /* \"#utility.yul\":908:934   */\n      swap1\n      pop\n        /* \"#utility.yul\":944:1015   */\n      tag_167\n        /* \"#utility.yul\":1012:1013   */\n      0x00\n        /* \"#utility.yul\":1001:1010   */\n      dup4\n        /* \"#utility.yul\":997:1014   */\n      add\n        /* \"#utility.yul\":988:994   */\n      dup5\n        /* \"#utility.yul\":944:1015   */\n      tag_118\n      jump\t// in\n    tag_167:\n        /* \"#utility.yul\":800:1022   */\n      swap3\n      swap2\n      pop\n      pop\n      jump\t// out\n        /* \"#utility.yul\":1028:1127   */\n    tag_119:\n        /* \"#utility.yul\":1080:1086   */\n      0x00\n        /* \"#utility.yul\":1114:1119   */\n      dup2\n        /* \"#utility.yul\":1108:1120   */\n      mload\n        /* \"#utility.yul\":1098:1120   */\n      swap1\n      pop\n        /* \"#utility.yul\":1028:1127   */\n      swap2\n      swap1\n      pop\n      jump\t// out\n        /* \"#utility.yul\":1133:1302   */\n    tag_120:\n        /* \"#utility.yul\":1217:1228   */\n      0x00\n        /* \"#utility.yul\":1251:1257   */\n      dup3\n        /* \"#utility.yul\":1246:1249   */\n      dup3\n        /* \"#utility.yul\":1239:1258   */\n      mstore\n        /* \"#utility.yul\":1291:1295   */\n      0x20\n        /* \"#utility.yul\":1286:1289   */\n      dup3\n        /* \"#utility.yul\":1282:1296   */\n      add\n        /* \"#utility.yul\":1267:1296   */\n      swap1\n      pop\n        /* \"#utility.yul\":1133:1302   */\n      swap3\n      swap2\n      pop\n      pop\n      jump\t// out\n        /* \"#utility.yul\":1308:1447   */\n    tag_121:\n        /* \"#utility.yul\":1397:1403   */\n      dup3\n        /* \"#utility.yul\":1392:1395   */\n      dup2\n        /* \"#utility.yul\":1387:1390   */\n      dup4\n        /* \"#utility.yul\":1381:1404   */\n      mcopy\n        /* \"#utility.yul\":1438:1439   */\n      0x00\n        /* \"#utility.yul\":1429:1435   */\n      dup4\n        /* \"#utility.yul\":1424:1427   */\n      dup4\n        /* \"#utility.yul\":1420:1436   */\n      add\n        /* \"#utility.yul\":1413:1440   */\n      mstore\n        /* \"#utility.yul\":1308:1447   */\n      pop\n      pop\n      pop\n      jump\t// out\n        /* \"#utility.yul\":1453:1555   */\n    tag_122:\n        /* \"#utility.yul\":1494:1500   */\n      0x00\n        /* \"#utility.yul\":1545:1547   */\n      0x1f\n        /* \"#utility.yul\":1541:1548   */\n      not\n        /* \"#utility.yul\":1536:1538   */\n      0x1f\n        /* \"#utility.yul\":1529:1534   */\n      dup4\n        /* \"#utility.yul\":1525:1539   */\n      add\n        /* \"#utility.yul\":1521:1549   */\n      and\n        /* \"#utility.yul\":1511:1549   */\n      swap1\n      pop\n        /* \"#utility.yul\":1453:1555   */\n      swap2\n      swap1\n      pop\n      jump\t// out\n        /* \"#utility.yul\":1561:1938   */\n    tag_123:\n        /* \"#utility.yul\":1649:1652   */\n      0x00\n        /* \"#utility.yul\":1677:1716   */\n      tag_173\n        /* \"#utility.yul\":1710:1715   */\n      dup3\n        /* \"#utility.yul\":1677:1716   */\n      tag_119\n      jump\t// in\n    tag_173:\n        /* \"#utility.yul\":1732:1803   */\n      tag_174\n        /* \"#utility.yul\":1796:1802   */\n      dup2\n        /* \"#utility.yul\":1791:1794   */\n      dup6\n        /* \"#utility.yul\":1732:1803   */\n      tag_120\n      jump\t// in\n    tag_174:\n        /* \"#utility.yul\":1725:1803   */\n      swap4\n      pop\n        /* \"#utility.yul\":1812:1877   */\n      tag_175\n        /* \"#utility.yul\":1870:1876   */\n      dup2\n        /* \"#utility.yul\":1865:1868   */\n      dup6\n        /* \"#utility.yul\":1858:1862   */\n      0x20\n        /* \"#utility.yul\":1851:1856   */\n      dup7\n        /* \"#utility.yul\":1847:1863   */\n      add\n        /* \"#utility.yul\":1812:1877   */\n      tag_121\n      jump\t// in\n    tag_175:\n        /* \"#utility.yul\":1902:1931   */\n      tag_176\n        /* \"#utility.yul\":1924:1930   */\n      dup2\n        /* \"#utility.yul\":1902:1931   */\n      tag_122\n      jump\t// in\n    tag_176:\n        /* \"#utility.yul\":1897:1900   */\n      dup5\n        /* \"#utility.yul\":1893:1932   */\n      add\n        /* \"#utility.yul\":1886:1932   */\n      swap2\n      pop\n        /* \"#utility.yul\":1653:1938   */\n      pop\n        /* \"#utility.yul\":1561:1938   */\n      swap3\n      swap2\n      pop\n      pop\n      jump\t// out\n        /* \"#utility.yul\":1944:2257   */\n    tag_32:\n        /* \"#utility.yul\":2057:2061   */\n      0x00\n        /* \"#utility.yul\":2095:2097   */\n      0x20\n        /* \"#utility.yul\":2084:2093   */\n      dup3\n        /* \"#utility.yul\":2080:2098   */\n      add\n        /* \"#utility.yul\":2072:2098   */\n      swap1\n      pop\n        /* \"#utility.yul\":2144:2153   */\n      dup2\n        /* \"#utility.yul\":2138:2142   */\n      dup2\n        /* \"#utility.yul\":2134:2154   */\n      sub\n        /* \"#utility.yul\":2130:2131   */\n      0x00\n        /* \"#utility.yul\":2119:2128   */\n      dup4\n        /* \"#utility.yul\":2115:2132   */\n      add\n        /* \"#utility.yul\":2108:2155   */\n      mstore\n        /* \"#utility.yul\":2172:2250   */\n      tag_178\n        /* \"#utility.yul\":2245:2249   */\n      dup2\n        /* \"#utility.yul\":2236:2242   */\n      dup5\n        /* \"#utility.yul\":2172:2250   */\n      tag_123\n      jump\t// in\n    tag_178:\n        /* \"#utility.yul\":2164:2250   */\n      swap1\n      pop\n        /* \"#utility.yul\":1944:2257   */\n      swap3\n      swap2\n      pop\n      pop\n      jump\t// out\n        /* \"#utility.yul\":2263:2485   */\n    tag_124:\n        /* \"#utility.yul\":2403:2437   */\n      0x4e6f206572657320656c2070726f706965746172696f2064656c206172746963\n        /* \"#utility.yul\":2399:2400   */\n      0x00\n        /* \"#utility.yul\":2391:2397   */\n      dup3\n        /* \"#utility.yul\":2387:2401   */\n      add\n        /* \"#utility.yul\":2380:2438   */\n      mstore\n        /* \"#utility.yul\":2472:2477   */\n      0x756c6f0000000000000000000000000000000000000000000000000000000000\n        /* \"#utility.yul\":2467:2469   */\n      0x20\n        /* \"#utility.yul\":2459:2465   */\n      dup3\n        /* \"#utility.yul\":2455:2470   */\n      add\n        /* \"#utility.yul\":2448:2478   */\n      mstore\n        /* \"#utility.yul\":2263:2485   */\n      pop\n      jump\t// out\n        /* \"#utility.yul\":2491:2857   */\n    tag_125:\n        /* \"#utility.yul\":2633:2636   */\n      0x00\n        /* \"#utility.yul\":2654:2721   */\n      tag_181\n        /* \"#utility.yul\":2718:2720   */\n      0x23\n        /* \"#utility.yul\":2713:2716   */\n      dup4\n        /* \"#utility.yul\":2654:2721   */\n      tag_120\n      jump\t// in\n    tag_181:\n        /* \"#utility.yul\":2647:2721   */\n      swap2\n      pop\n        /* \"#utility.yul\":2730:2823   */\n      tag_182\n        /* \"#utility.yul\":2819:2822   */\n      dup3\n        /* \"#utility.yul\":2730:2823   */\n      tag_124\n      jump\t// in\n    tag_182:\n        /* \"#utility.yul\":2848:2850   */\n      0x40\n        /* \"#utility.yul\":2843:2846   */\n      dup3\n        /* \"#utility.yul\":2839:2851   */\n      add\n        /* \"#utility.yul\":2832:2851   */\n      swap1\n      pop\n        /* \"#utility.yul\":2491:2857   */\n      swap2\n      swap1\n      pop\n      jump\t// out\n        /* \"#utility.yul\":2863:3282   */\n    tag_52:\n        /* \"#utility.yul\":3029:3033   */\n      0x00\n        /* \"#utility.yul\":3067:3069   */\n      0x20\n        /* \"#utility.yul\":3056:3065   */\n      dup3\n        /* \"#utility.yul\":3052:3070   */\n      add\n        /* \"#utility.yul\":3044:3070   */\n      swap1\n      pop\n        /* \"#utility.yul\":3116:3125   */\n      dup2\n        /* \"#utility.yul\":3110:3114   */\n      dup2\n        /* \"#utility.yul\":3106:3126   */\n      sub\n        /* \"#utility.yul\":3102:3103   */\n      0x00\n        /* \"#utility.yul\":3091:3100   */\n      dup4\n        /* \"#utility.yul\":3087:3104   */\n      add\n        /* \"#utility.yul\":3080:3127   */\n      mstore\n        /* \"#utility.yul\":3144:3275   */\n      tag_184\n        /* \"#utility.yul\":3270:3274   */\n      dup2\n        /* \"#utility.yul\":3144:3275   */\n      tag_125\n      jump\t// in\n    tag_184:\n        /* \"#utility.yul\":3136:3275   */\n      swap1\n      pop\n        /* \"#utility.yul\":2863:3282   */\n      swap2\n      swap1\n      pop\n      jump\t// out\n        /* \"#utility.yul\":3288:3509   */\n    tag_126:\n        /* \"#utility.yul\":3428:3462   */\n      0x4c612073756261737461206e6f2065737461206365727261646120746f646176\n        /* \"#utility.yul\":3424:3425   */\n      0x00\n        /* \"#utility.yul\":3416:3422   */\n      dup3\n        /* \"#utility.yul\":3412:3426   */\n      add\n        /* \"#utility.yul\":3405:3463   */\n      mstore\n        /* \"#utility.yul\":3497:3501   */\n      0x6961000000000000000000000000000000000000000000000000000000000000\n        /* \"#utility.yul\":3492:3494   */\n      0x20\n        /* \"#utility.yul\":3484:3490   */\n      dup3\n        /* \"#utility.yul\":3480:3495   */\n      add\n        /* \"#utility.yul\":3473:3502   */\n      mstore\n        /* \"#utility.yul\":3288:3509   */\n      pop\n      jump\t// out\n        /* \"#utility.yul\":3515:3881   */\n    tag_127:\n        /* \"#utility.yul\":3657:3660   */\n      0x00\n        /* \"#utility.yul\":3678:3745   */\n      tag_187\n        /* \"#utility.yul\":3742:3744   */\n      0x22\n        /* \"#utility.yul\":3737:3740   */\n      dup4\n        /* \"#utility.yul\":3678:3745   */\n      tag_120\n      jump\t// in\n    tag_187:\n        /* \"#utility.yul\":3671:3745   */\n      swap2\n      pop\n        /* \"#utility.yul\":3754:3847   */\n      tag_188\n        /* \"#utility.yul\":3843:3846   */\n      dup3\n        /* \"#utility.yul\":3754:3847   */\n      tag_126\n      jump\t// in\n    tag_188:\n        /* \"#utility.yul\":3872:3874   */\n      0x40\n        /* \"#utility.yul\":3867:3870   */\n      dup3\n        /* \"#utility.yul\":3863:3875   */\n      add\n        /* \"#utility.yul\":3856:3875   */\n      swap1\n      pop\n        /* \"#utility.yul\":3515:3881   */\n      swap2\n      swap1\n      pop\n      jump\t// out\n        /* \"#utility.yul\":3887:4306   */\n    tag_55:\n        /* \"#utility.yul\":4053:4057   */\n      0x00\n        /* \"#utility.yul\":4091:4093   */\n      0x20\n        /* \"#utility.yul\":4080:4089   */\n      dup3\n        /* \"#utility.yul\":4076:4094   */\n      add\n        /* \"#utility.yul\":4068:4094   */\n      swap1\n      pop\n        /* \"#utility.yul\":4140:4149   */\n      dup2\n        /* \"#utility.yul\":4134:4138   */\n      dup2\n        /* \"#utility.yul\":4130:4150   */\n      sub\n        /* \"#utility.yul\":4126:4127   */\n      0x00\n        /* \"#utility.yul\":4115:4124   */\n      dup4\n        /* \"#utility.yul\":4111:4128   */\n      add\n        /* \"#utility.yul\":4104:4151   */\n      mstore\n        /* \"#utility.yul\":4168:4299   */\n      tag_190\n        /* \"#utility.yul\":4294:4298   */\n      dup2\n        /* \"#utility.yul\":4168:4299   */\n      tag_127\n      jump\t// in\n    tag_190:\n        /* \"#utility.yul\":4160:4299   */\n      swap1\n      pop\n        /* \"#utility.yul\":3887:4306   */\n      swap2\n      swap1\n      pop\n      jump\t// out\n        /* \"#utility.yul\":4312:4459   */\n    tag_128:\n        /* \"#utility.yul\":4413:4424   */\n      0x00\n        /* \"#utility.yul\":4450:4453   */\n      dup2\n        /* \"#utility.yul\":4435:4453   */\n      swap1\n      pop\n        /* \"#utility.yul\":4312:4459   */\n      swap3\n      swap2\n      pop\n      pop\n      jump\t// out\n        /* \"#utility.yul\":4465:4579   */\n    tag_129:\n      pop\n      jump\t// out\n        /* \"#utility.yul\":4585:4983   */\n    tag_130:\n        /* \"#utility.yul\":4744:4747   */\n      0x00\n        /* \"#utility.yul\":4765:4848   */\n      tag_194\n        /* \"#utility.yul\":4846:4847   */\n      0x00\n        /* \"#utility.yul\":4841:4844   */\n      dup4\n        /* \"#utility.yul\":4765:4848   */\n      tag_128\n      jump\t// in\n    tag_194:\n        /* \"#utility.yul\":4758:4848   */\n      swap2\n      pop\n        /* \"#utility.yul\":4857:4950   */\n      tag_195\n        /* \"#utility.yul\":4946:4949   */\n      dup3\n        /* \"#utility.yul\":4857:4950   */\n      tag_129\n      jump\t// in\n    tag_195:\n        /* \"#utility.yul\":4975:4976   */\n      0x00\n        /* \"#utility.yul\":4970:4973   */\n      dup3\n        /* \"#utility.yul\":4966:4977   */\n      add\n        /* \"#utility.yul\":4959:4977   */\n      swap1\n      pop\n        /* \"#utility.yul\":4585:4983   */\n      swap2\n      swap1\n      pop\n      jump\t// out\n        /* \"#utility.yul\":4989:5368   */\n    tag_57:\n        /* \"#utility.yul\":5173:5176   */\n      0x00\n        /* \"#utility.yul\":5195:5342   */\n      tag_197\n        /* \"#utility.yul\":5338:5341   */\n      dup3\n        /* \"#utility.yul\":5195:5342   */\n      tag_130\n      jump\t// in\n    tag_197:\n        /* \"#utility.yul\":5188:5342   */\n      swap2\n      pop\n        /* \"#utility.yul\":5359:5362   */\n      dup2\n        /* \"#utility.yul\":5352:5362   */\n      swap1\n      pop\n        /* \"#utility.yul\":4989:5368   */\n      swap2\n      swap1\n      pop\n      jump\t// out\n        /* \"#utility.yul\":5374:5546   */\n    tag_131:\n        /* \"#utility.yul\":5514:5538   */\n      0x46616c6c6f20616c20656e7669617220666f6e646f7300000000000000000000\n        /* \"#utility.yul\":5510:5511   */\n      0x00\n        /* \"#utility.yul\":5502:5508   */\n      dup3\n        /* \"#utility.yul\":5498:5512   */\n      add\n        /* \"#utility.yul\":5491:5539   */\n      mstore\n        /* \"#utility.yul\":5374:5546   */\n      pop\n      jump\t// out\n        /* \"#utility.yul\":5552:5918   */\n    tag_132:\n        /* \"#utility.yul\":5694:5697   */\n      0x00\n        /* \"#utility.yul\":5715:5782   */\n      tag_200\n        /* \"#utility.yul\":5779:5781   */\n      0x16\n        /* \"#utility.yul\":5774:5777   */\n      dup4\n        /* \"#utility.yul\":5715:5782   */\n      tag_120\n      jump\t// in\n    tag_200:\n        /* \"#utility.yul\":5708:5782   */\n      swap2\n      pop\n        /* \"#utility.yul\":5791:5884   */\n      tag_201\n        /* \"#utility.yul\":5880:5883   */\n      dup3\n        /* \"#utility.yul\":5791:5884   */\n      tag_131\n      jump\t// in\n    tag_201:\n        /* \"#utility.yul\":5909:5911   */\n      0x20\n        /* \"#utility.yul\":5904:5907   */\n      dup3\n        /* \"#utility.yul\":5900:5912   */\n      add\n        /* \"#utility.yul\":5893:5912   */\n      swap1\n      pop\n        /* \"#utility.yul\":5552:5918   */\n      swap2\n      swap1\n      pop\n      jump\t// out\n        /* \"#utility.yul\":5924:6343   */\n    tag_63:\n        /* \"#utility.yul\":6090:6094   */\n      0x00\n        /* \"#utility.yul\":6128:6130   */\n      0x20\n        /* \"#utility.yul\":6117:6126   */\n      dup3\n        /* \"#utility.yul\":6113:6131   */\n      add\n        /* \"#utility.yul\":6105:6131   */\n      swap1\n      pop\n        /* \"#utility.yul\":6177:6186   */\n      dup2\n        /* \"#utility.yul\":6171:6175   */\n      dup2\n        /* \"#utility.yul\":6167:6187   */\n      sub\n        /* \"#utility.yul\":6163:6164   */\n      0x00\n        /* \"#utility.yul\":6152:6161   */\n      dup4\n        /* \"#utility.yul\":6148:6165   */\n      add\n        /* \"#utility.yul\":6141:6188   */\n      mstore\n        /* \"#utility.yul\":6205:6336   */\n      tag_203\n        /* \"#utility.yul\":6331:6335   */\n      dup2\n        /* \"#utility.yul\":6205:6336   */\n      tag_132\n      jump\t// in\n    tag_203:\n        /* \"#utility.yul\":6197:6336   */\n      swap1\n      pop\n        /* \"#utility.yul\":5924:6343   */\n      swap2\n      swap1\n      pop\n      jump\t// out\n        /* \"#utility.yul\":6349:6530   */\n    tag_133:\n        /* \"#utility.yul\":6489:6522   */\n      0x4c61207375626173746120746f64617669612065737461206162696572746100\n        /* \"#utility.yul\":6485:6486   */\n      0x00\n        /* \"#utility.yul\":6477:6483   */\n      dup3\n        /* \"#utility.yul\":6473:6487   */\n      add\n        /* \"#utility.yul\":6466:6523   */\n      mstore\n        /* \"#utility.yul\":6349:6530   */\n      pop\n      jump\t// out\n        /* \"#utility.yul\":6536:6902   */\n    tag_134:\n        /* \"#utility.yul\":6678:6681   */\n      0x00\n        /* \"#utility.yul\":6699:6766   */\n      tag_206\n        /* \"#utility.yul\":6763:6765   */\n      0x1f\n        /* \"#utility.yul\":6758:6761   */\n      dup4\n        /* \"#utility.yul\":6699:6766   */\n      tag_120\n      jump\t// in\n    tag_206:\n        /* \"#utility.yul\":6692:6766   */\n      swap2\n      pop\n        /* \"#utility.yul\":6775:6868   */\n      tag_207\n        /* \"#utility.yul\":6864:6867   */\n      dup3\n        /* \"#utility.yul\":6775:6868   */\n      tag_133\n      jump\t// in\n    tag_207:\n        /* \"#utility.yul\":6893:6895   */\n      0x20\n        /* \"#utility.yul\":6888:6891   */\n      dup3\n        /* \"#utility.yul\":6884:6896   */\n      add\n        /* \"#utility.yul\":6877:6896   */\n      swap1\n      pop\n        /* \"#utility.yul\":6536:6902   */\n      swap2\n      swap1\n      pop\n      jump\t// out\n        /* \"#utility.yul\":6908:7327   */\n    tag_69:\n        /* \"#utility.yul\":7074:7078   */\n      0x00\n        /* \"#utility.yul\":7112:7114   */\n      0x20\n        /* \"#utility.yul\":7101:7110   */\n      dup3\n        /* \"#utility.yul\":7097:7115   */\n      add\n        /* \"#utility.yul\":7089:7115   */\n      swap1\n      pop\n        /* \"#utility.yul\":7161:7170   */\n      dup2\n        /* \"#utility.yul\":7155:7159   */\n      dup2\n        /* \"#utility.yul\":7151:7171   */\n      sub\n        /* \"#utility.yul\":7147:7148   */\n      0x00\n        /* \"#utility.yul\":7136:7145   */\n      dup4\n        /* \"#utility.yul\":7132:7149   */\n      add\n        /* \"#utility.yul\":7125:7172   */\n      mstore\n        /* \"#utility.yul\":7189:7320   */\n      tag_209\n        /* \"#utility.yul\":7315:7319   */\n      dup2\n        /* \"#utility.yul\":7189:7320   */\n      tag_134\n      jump\t// in\n    tag_209:\n        /* \"#utility.yul\":7181:7320   */\n      swap1\n      pop\n        /* \"#utility.yul\":6908:7327   */\n      swap2\n      swap1\n      pop\n      jump\t// out\n        /* \"#utility.yul\":7333:7565   */\n    tag_135:\n        /* \"#utility.yul\":7473:7507   */\n      0x54752070756a61206573206c612067616e61646f72612e204e6f207075656465\n        /* \"#utility.yul\":7469:7470   */\n      0x00\n        /* \"#utility.yul\":7461:7467   */\n      dup3\n        /* \"#utility.yul\":7457:7471   */\n      add\n        /* \"#utility.yul\":7450:7508   */\n      mstore\n        /* \"#utility.yul\":7542:7557   */\n      0x73207265637570657261726c6100000000000000000000000000000000000000\n        /* \"#utility.yul\":7537:7539   */\n      0x20\n        /* \"#utility.yul\":7529:7535   */\n      dup3\n        /* \"#utility.yul\":7525:7540   */\n      add\n        /* \"#utility.yul\":7518:7558   */\n      mstore\n        /* \"#utility.yul\":7333:7565   */\n      pop\n      jump\t// out\n        /* \"#utility.yul\":7571:7937   */\n    tag_136:\n        /* \"#utility.yul\":7713:7716   */\n      0x00\n        /* \"#utility.yul\":7734:7801   */\n      tag_212\n        /* \"#utility.yul\":7798:7800   */\n      0x2d\n        /* \"#utility.yul\":7793:7796   */\n      dup4\n        /* \"#utility.yul\":7734:7801   */\n      tag_120\n      jump\t// in\n    tag_212:\n        /* \"#utility.yul\":7727:7801   */\n      swap2\n      pop\n        /* \"#utility.yul\":7810:7903   */\n      tag_213\n        /* \"#utility.yul\":7899:7902   */\n      dup3\n        /* \"#utility.yul\":7810:7903   */\n      tag_135\n      jump\t// in\n    tag_213:\n        /* \"#utility.yul\":7928:7930   */\n      0x40\n        /* \"#utility.yul\":7923:7926   */\n      dup3\n        /* \"#utility.yul\":7919:7931   */\n      add\n        /* \"#utility.yul\":7912:7931   */\n      swap1\n      pop\n        /* \"#utility.yul\":7571:7937   */\n      swap2\n      swap1\n      pop\n      jump\t// out\n        /* \"#utility.yul\":7943:8362   */\n    tag_72:\n        /* \"#utility.yul\":8109:8113   */\n      0x00\n        /* \"#utility.yul\":8147:8149   */\n      0x20\n        /* \"#utility.yul\":8136:8145   */\n      dup3\n        /* \"#utility.yul\":8132:8150   */\n      add\n        /* \"#utility.yul\":8124:8150   */\n      swap1\n      pop\n        /* \"#utility.yul\":8196:8205   */\n      dup2\n        /* \"#utility.yul\":8190:8194   */\n      dup2\n        /* \"#utility.yul\":8186:8206   */\n      sub\n        /* \"#utility.yul\":8182:8183   */\n      0x00\n        /* \"#utility.yul\":8171:8180   */\n      dup4\n        /* \"#utility.yul\":8167:8184   */\n      add\n        /* \"#utility.yul\":8160:8207   */\n      mstore\n        /* \"#utility.yul\":8224:8355   */\n      tag_215\n        /* \"#utility.yul\":8350:8354   */\n      dup2\n        /* \"#utility.yul\":8224:8355   */\n      tag_136\n      jump\t// in\n    tag_215:\n        /* \"#utility.yul\":8216:8355   */\n      swap1\n      pop\n        /* \"#utility.yul\":7943:8362   */\n      swap2\n      swap1\n      pop\n      jump\t// out\n        /* \"#utility.yul\":8368:8546   */\n    tag_137:\n        /* \"#utility.yul\":8508:8538   */\n      0x4e6f2070756a6173746520706f722065737465206172746963756c6f00000000\n        /* \"#utility.yul\":8504:8505   */\n      0x00\n        /* \"#utility.yul\":8496:8502   */\n      dup3\n        /* \"#utility.yul\":8492:8506   */\n      add\n        /* \"#utility.yul\":8485:8539   */\n      mstore\n        /* \"#utility.yul\":8368:8546   */\n      pop\n      jump\t// out\n        /* \"#utility.yul\":8552:8918   */\n    tag_138:\n        /* \"#utility.yul\":8694:8697   */\n      0x00\n        /* \"#utility.yul\":8715:8782   */\n      tag_218\n        /* \"#utility.yul\":8779:8781   */\n      0x1c\n        /* \"#utility.yul\":8774:8777   */\n      dup4\n        /* \"#utility.yul\":8715:8782   */\n      tag_120\n      jump\t// in\n    tag_218:\n        /* \"#utility.yul\":8708:8782   */\n      swap2\n      pop\n        /* \"#utility.yul\":8791:8884   */\n      tag_219\n        /* \"#utility.yul\":8880:8883   */\n      dup3\n        /* \"#utility.yul\":8791:8884   */\n      tag_137\n      jump\t// in\n    tag_219:\n        /* \"#utility.yul\":8909:8911   */\n      0x20\n        /* \"#utility.yul\":8904:8907   */\n      dup3\n        /* \"#utility.yul\":8900:8912   */\n      add\n        /* \"#utility.yul\":8893:8912   */\n      swap1\n      pop\n        /* \"#utility.yul\":8552:8918   */\n      swap2\n      swap1\n      pop\n      jump\t// out\n        /* \"#utility.yul\":8924:9343   */\n    tag_75:\n        /* \"#utility.yul\":9090:9094   */\n      0x00\n        /* \"#utility.yul\":9128:9130   */\n      0x20\n        /* \"#utility.yul\":9117:9126   */\n      dup3\n        /* \"#utility.yul\":9113:9131   */\n      add\n        /* \"#utility.yul\":9105:9131   */\n      swap1\n      pop\n        /* \"#utility.yul\":9177:9186   */\n      dup2\n        /* \"#utility.yul\":9171:9175   */\n      dup2\n        /* \"#utility.yul\":9167:9187   */\n      sub\n        /* \"#utility.yul\":9163:9164   */\n      0x00\n        /* \"#utility.yul\":9152:9161   */\n      dup4\n        /* \"#utility.yul\":9148:9165   */\n      add\n        /* \"#utility.yul\":9141:9188   */\n      mstore\n        /* \"#utility.yul\":9205:9336   */\n      tag_221\n        /* \"#utility.yul\":9331:9335   */\n      dup2\n        /* \"#utility.yul\":9205:9336   */\n      tag_138\n      jump\t// in\n    tag_221:\n        /* \"#utility.yul\":9197:9336   */\n      swap1\n      pop\n        /* \"#utility.yul\":8924:9343   */\n      swap2\n      swap1\n      pop\n      jump\t// out\n        /* \"#utility.yul\":9349:9529   */\n    tag_139:\n        /* \"#utility.yul\":9397:9474   */\n      0x4e487b7100000000000000000000000000000000000000000000000000000000\n        /* \"#utility.yul\":9394:9395   */\n      0x00\n        /* \"#utility.yul\":9387:9475   */\n      mstore\n        /* \"#utility.yul\":9494:9498   */\n      0x22\n        /* \"#utility.yul\":9491:9492   */\n      0x04\n        /* \"#utility.yul\":9484:9499   */\n      mstore\n        /* \"#utility.yul\":9518:9522   */\n      0x24\n        /* \"#utility.yul\":9515:9516   */\n      0x00\n        /* \"#utility.yul\":9508:9523   */\n      revert\n        /* \"#utility.yul\":9535:9855   */\n    tag_83:\n        /* \"#utility.yul\":9579:9585   */\n      0x00\n        /* \"#utility.yul\":9616:9617   */\n      0x02\n        /* \"#utility.yul\":9610:9614   */\n      dup3\n        /* \"#utility.yul\":9606:9618   */\n      div\n        /* \"#utility.yul\":9596:9618   */\n      swap1\n      pop\n        /* \"#utility.yul\":9663:9664   */\n      0x01\n        /* \"#utility.yul\":9657:9661   */\n      dup3\n        /* \"#utility.yul\":9653:9665   */\n      and\n        /* \"#utility.yul\":9684:9702   */\n      dup1\n        /* \"#utility.yul\":9674:9755   */\n      tag_224\n      jumpi\n        /* \"#utility.yul\":9740:9744   */\n      0x7f\n        /* \"#utility.yul\":9732:9738   */\n      dup3\n        /* \"#utility.yul\":9728:9745   */\n      and\n        /* \"#utility.yul\":9718:9745   */\n      swap2\n      pop\n        /* \"#utility.yul\":9674:9755   */\n    tag_224:\n        /* \"#utility.yul\":9802:9804   */\n      0x20\n        /* \"#utility.yul\":9794:9800   */\n      dup3\n        /* \"#utility.yul\":9791:9805   */\n      lt\n        /* \"#utility.yul\":9771:9789   */\n      dup2\n        /* \"#utility.yul\":9768:9806   */\n      sub\n        /* \"#utility.yul\":9765:9849   */\n      tag_225\n      jumpi\n        /* \"#utility.yul\":9821:9839   */\n      tag_226\n      tag_139\n      jump\t// in\n    tag_226:\n        /* \"#utility.yul\":9765:9849   */\n    tag_225:\n        /* \"#utility.yul\":9586:9855   */\n      pop\n        /* \"#utility.yul\":9535:9855   */\n      swap2\n      swap1\n      pop\n      jump\t// out\n        /* \"#utility.yul\":9861:10026   */\n    tag_140:\n        /* \"#utility.yul\":10001:10018   */\n      0x5375626173746120636572726164610000000000000000000000000000000000\n        /* \"#utility.yul\":9997:9998   */\n      0x00\n        /* \"#utility.yul\":9989:9995   */\n      dup3\n        /* \"#utility.yul\":9985:9999   */\n      add\n        /* \"#utility.yul\":9978:10019   */\n      mstore\n        /* \"#utility.yul\":9861:10026   */\n      pop\n      jump\t// out\n        /* \"#utility.yul\":10032:10398   */\n    tag_141:\n        /* \"#utility.yul\":10174:10177   */\n      0x00\n        /* \"#utility.yul\":10195:10262   */\n      tag_229\n        /* \"#utility.yul\":10259:10261   */\n      0x0f\n        /* \"#utility.yul\":10254:10257   */\n      dup4\n        /* \"#utility.yul\":10195:10262   */\n      tag_120\n      jump\t// in\n    tag_229:\n        /* \"#utility.yul\":10188:10262   */\n      swap2\n      pop\n        /* \"#utility.yul\":10271:10364   */\n      tag_230\n        /* \"#utility.yul\":10360:10363   */\n      dup3\n        /* \"#utility.yul\":10271:10364   */\n      tag_140\n      jump\t// in\n    tag_230:\n        /* \"#utility.yul\":10389:10391   */\n      0x20\n        /* \"#utility.yul\":10384:10387   */\n      dup3\n        /* \"#utility.yul\":10380:10392   */\n      add\n        /* \"#utility.yul\":10373:10392   */\n      swap1\n      pop\n        /* \"#utility.yul\":10032:10398   */\n      swap2\n      swap1\n      pop\n      jump\t// out\n        /* \"#utility.yul\":10404:10823   */\n    tag_91:\n        /* \"#utility.yul\":10570:10574   */\n      0x00\n        /* \"#utility.yul\":10608:10610   */\n      0x20\n        /* \"#utility.yul\":10597:10606   */\n      dup3\n        /* \"#utility.yul\":10593:10611   */\n      add\n        /* \"#utility.yul\":10585:10611   */\n      swap1\n      pop\n        /* \"#utility.yul\":10657:10666   */\n      dup2\n        /* \"#utility.yul\":10651:10655   */\n      dup2\n        /* \"#utility.yul\":10647:10667   */\n      sub\n        /* \"#utility.yul\":10643:10644   */\n      0x00\n        /* \"#utility.yul\":10632:10641   */\n      dup4\n        /* \"#utility.yul\":10628:10645   */\n      add\n        /* \"#utility.yul\":10621:10668   */\n      mstore\n        /* \"#utility.yul\":10685:10816   */\n      tag_232\n        /* \"#utility.yul\":10811:10815   */\n      dup2\n        /* \"#utility.yul\":10685:10816   */\n      tag_141\n      jump\t// in\n    tag_232:\n        /* \"#utility.yul\":10677:10816   */\n      swap1\n      pop\n        /* \"#utility.yul\":10404:10823   */\n      swap2\n      swap1\n      pop\n      jump\t// out\n        /* \"#utility.yul\":10829:10996   */\n    tag_142:\n        /* \"#utility.yul\":10969:10988   */\n      0x53696e20656e76696f2064652062544e42000000000000000000000000000000\n        /* \"#utility.yul\":10965:10966   */\n      0x00\n        /* \"#utility.yul\":10957:10963   */\n      dup3\n        /* \"#utility.yul\":10953:10967   */\n      add\n        /* \"#utility.yul\":10946:10989   */\n      mstore\n        /* \"#utility.yul\":10829:10996   */\n      pop\n      jump\t// out\n        /* \"#utility.yul\":11002:11368   */\n    tag_143:\n        /* \"#utility.yul\":11144:11147   */\n      0x00\n        /* \"#utility.yul\":11165:11232   */\n      tag_235\n        /* \"#utility.yul\":11229:11231   */\n      0x11\n        /* \"#utility.yul\":11224:11227   */\n      dup4\n        /* \"#utility.yul\":11165:11232   */\n      tag_120\n      jump\t// in\n    tag_235:\n        /* \"#utility.yul\":11158:11232   */\n      swap2\n      pop\n        /* \"#utility.yul\":11241:11334   */\n      tag_236\n        /* \"#utility.yul\":11330:11333   */\n      dup3\n        /* \"#utility.yul\":11241:11334   */\n      tag_142\n      jump\t// in\n    tag_236:\n        /* \"#utility.yul\":11359:11361   */\n      0x20\n        /* \"#utility.yul\":11354:11357   */\n      dup3\n        /* \"#utility.yul\":11350:11362   */\n      add\n        /* \"#utility.yul\":11343:11362   */\n      swap1\n      pop\n        /* \"#utility.yul\":11002:11368   */\n      swap2\n      swap1\n      pop\n      jump\t// out\n        /* \"#utility.yul\":11374:11793   */\n    tag_94:\n        /* \"#utility.yul\":11540:11544   */\n      0x00\n        /* \"#utility.yul\":11578:11580   */\n      0x20\n        /* \"#utility.yul\":11567:11576   */\n      dup3\n        /* \"#utility.yul\":11563:11581   */\n      add\n        /* \"#utility.yul\":11555:11581   */\n      swap1\n      pop\n        /* \"#utility.yul\":11627:11636   */\n      dup2\n        /* \"#utility.yul\":11621:11625   */\n      dup2\n        /* \"#utility.yul\":11617:11637   */\n      sub\n        /* \"#utility.yul\":11613:11614   */\n      0x00\n        /* \"#utility.yul\":11602:11611   */\n      dup4\n        /* \"#utility.yul\":11598:11615   */\n      add\n        /* \"#utility.yul\":11591:11638   */\n      mstore\n        /* \"#utility.yul\":11655:11786   */\n      tag_238\n        /* \"#utility.yul\":11781:11785   */\n      dup2\n        /* \"#utility.yul\":11655:11786   */\n      tag_143\n      jump\t// in\n    tag_238:\n        /* \"#utility.yul\":11647:11786   */\n      swap1\n      pop\n        /* \"#utility.yul\":11374:11793   */\n      swap2\n      swap1\n      pop\n      jump\t// out\n        /* \"#utility.yul\":11799:11978   */\n    tag_144:\n        /* \"#utility.yul\":11939:11970   */\n      0x456c2070726f706965746172696f206e6f2070756564652070756a6172000000\n        /* \"#utility.yul\":11935:11936   */\n      0x00\n        /* \"#utility.yul\":11927:11933   */\n      dup3\n        /* \"#utility.yul\":11923:11937   */\n      add\n        /* \"#utility.yul\":11916:11971   */\n      mstore\n        /* \"#utility.yul\":11799:11978   */\n      pop\n      jump\t// out\n        /* \"#utility.yul\":11984:12350   */\n    tag_145:\n        /* \"#utility.yul\":12126:12129   */\n      0x00\n        /* \"#utility.yul\":12147:12214   */\n      tag_241\n        /* \"#utility.yul\":12211:12213   */\n      0x1d\n        /* \"#utility.yul\":12206:12209   */\n      dup4\n        /* \"#utility.yul\":12147:12214   */\n      tag_120\n      jump\t// in\n    tag_241:\n        /* \"#utility.yul\":12140:12214   */\n      swap2\n      pop\n        /* \"#utility.yul\":12223:12316   */\n      tag_242\n        /* \"#utility.yul\":12312:12315   */\n      dup3\n        /* \"#utility.yul\":12223:12316   */\n      tag_144\n      jump\t// in\n    tag_242:\n        /* \"#utility.yul\":12341:12343   */\n      0x20\n        /* \"#utility.yul\":12336:12339   */\n      dup3\n        /* \"#utility.yul\":12332:12344   */\n      add\n        /* \"#utility.yul\":12325:12344   */\n      swap1\n      pop\n        /* \"#utility.yul\":11984:12350   */\n      swap2\n      swap1\n      pop\n      jump\t// out\n        /* \"#utility.yul\":12356:12775   */\n    tag_97:\n        /* \"#utility.yul\":12522:12526   */\n      0x00\n        /* \"#utility.yul\":12560:12562   */\n      0x20\n        /* \"#utility.yul\":12549:12558   */\n      dup3\n        /* \"#utility.yul\":12545:12563   */\n      add\n        /* \"#utility.yul\":12537:12563   */\n      swap1\n      pop\n        /* \"#utility.yul\":12609:12618   */\n      dup2\n        /* \"#utility.yul\":12603:12607   */\n      dup2\n        /* \"#utility.yul\":12599:12619   */\n      sub\n        /* \"#utility.yul\":12595:12596   */\n      0x00\n        /* \"#utility.yul\":12584:12593   */\n      dup4\n        /* \"#utility.yul\":12580:12597   */\n      add\n        /* \"#utility.yul\":12573:12620   */\n      mstore\n        /* \"#utility.yul\":12637:12768   */\n      tag_244\n        /* \"#utility.yul\":12763:12767   */\n      dup2\n        /* \"#utility.yul\":12637:12768   */\n      tag_145\n      jump\t// in\n    tag_244:\n        /* \"#utility.yul\":12629:12768   */\n      swap1\n      pop\n        /* \"#utility.yul\":12356:12775   */\n      swap2\n      swap1\n      pop\n      jump\t// out\n        /* \"#utility.yul\":12781:12953   */\n    tag_146:\n        /* \"#utility.yul\":12921:12945   */\n      0x5961207265616c697a6173746520756e612070756a6100000000000000000000\n        /* \"#utility.yul\":12917:12918   */\n      0x00\n        /* \"#utility.yul\":12909:12915   */\n      dup3\n        /* \"#utility.yul\":12905:12919   */\n      add\n        /* \"#utility.yul\":12898:12946   */\n      mstore\n        /* \"#utility.yul\":12781:12953   */\n      pop\n      jump\t// out\n        /* \"#utility.yul\":12959:13325   */\n    tag_147:\n        /* \"#utility.yul\":13101:13104   */\n      0x00\n        /* \"#utility.yul\":13122:13189   */\n      tag_247\n        /* \"#utility.yul\":13186:13188   */\n      0x16\n        /* \"#utility.yul\":13181:13184   */\n      dup4\n        /* \"#utility.yul\":13122:13189   */\n      tag_120\n      jump\t// in\n    tag_247:\n        /* \"#utility.yul\":13115:13189   */\n      swap2\n      pop\n        /* \"#utility.yul\":13198:13291   */\n      tag_248\n        /* \"#utility.yul\":13287:13290   */\n      dup3\n        /* \"#utility.yul\":13198:13291   */\n      tag_146\n      jump\t// in\n    tag_248:\n        /* \"#utility.yul\":13316:13318   */\n      0x20\n        /* \"#utility.yul\":13311:13314   */\n      dup3\n        /* \"#utility.yul\":13307:13319   */\n      add\n        /* \"#utility.yul\":13300:13319   */\n      swap1\n      pop\n        /* \"#utility.yul\":12959:13325   */\n      swap2\n      swap1\n      pop\n      jump\t// out\n        /* \"#utility.yul\":13331:13750   */\n    tag_100:\n        /* \"#utility.yul\":13497:13501   */\n      0x00\n        /* \"#utility.yul\":13535:13537   */\n      0x20\n        /* \"#utility.yul\":13524:13533   */\n      dup3\n        /* \"#utility.yul\":13520:13538   */\n      add\n        /* \"#utility.yul\":13512:13538   */\n      swap1\n      pop\n        /* \"#utility.yul\":13584:13593   */\n      dup2\n        /* \"#utility.yul\":13578:13582   */\n      dup2\n        /* \"#utility.yul\":13574:13594   */\n      sub\n        /* \"#utility.yul\":13570:13571   */\n      0x00\n        /* \"#utility.yul\":13559:13568   */\n      dup4\n        /* \"#utility.yul\":13555:13572   */\n      add\n        /* \"#utility.yul\":13548:13595   */\n      mstore\n        /* \"#utility.yul\":13612:13743   */\n      tag_250\n        /* \"#utility.yul\":13738:13742   */\n      dup2\n        /* \"#utility.yul\":13612:13743   */\n      tag_147\n      jump\t// in\n    tag_250:\n        /* \"#utility.yul\":13604:13743   */\n      swap1\n      pop\n        /* \"#utility.yul\":13331:13750   */\n      swap2\n      swap1\n      pop\n      jump\t// out\n        /* \"#utility.yul\":13756:13986   */\n    tag_148:\n        /* \"#utility.yul\":13896:13930   */\n      0x4c612070756a61206465626520736572206d61732061746120717565206c6120\n        /* \"#utility.yul\":13892:13893   */\n      0x00\n        /* \"#utility.yul\":13884:13890   */\n      dup3\n        /* \"#utility.yul\":13880:13894   */\n      add\n        /* \"#utility.yul\":13873:13931   */\n      mstore\n        /* \"#utility.yul\":13965:13978   */\n      0x70756a61206d696e696d61000000000000000000000000000000000000000000\n        /* \"#utility.yul\":13960:13962   */\n      0x20\n        /* \"#utility.yul\":13952:13958   */\n      dup3\n        /* \"#utility.yul\":13948:13963   */\n      add\n        /* \"#utility.yul\":13941:13979   */\n      mstore\n        /* \"#utility.yul\":13756:13986   */\n      pop\n      jump\t// out\n        /* \"#utility.yul\":13992:14358   */\n    tag_149:\n        /* \"#utility.yul\":14134:14137   */\n      0x00\n        /* \"#utility.yul\":14155:14222   */\n      tag_253\n        /* \"#utility.yul\":14219:14221   */\n      0x2b\n        /* \"#utility.yul\":14214:14217   */\n      dup4\n        /* \"#utility.yul\":14155:14222   */\n      tag_120\n      jump\t// in\n    tag_253:\n        /* \"#utility.yul\":14148:14222   */\n      swap2\n      pop\n        /* \"#utility.yul\":14231:14324   */\n      tag_254\n        /* \"#utility.yul\":14320:14323   */\n      dup3\n        /* \"#utility.yul\":14231:14324   */\n      tag_148\n      jump\t// in\n    tag_254:\n        /* \"#utility.yul\":14349:14351   */\n      0x40\n        /* \"#utility.yul\":14344:14347   */\n      dup3\n        /* \"#utility.yul\":14340:14352   */\n      add\n        /* \"#utility.yul\":14333:14352   */\n      swap1\n      pop\n        /* \"#utility.yul\":13992:14358   */\n      swap2\n      swap1\n      pop\n      jump\t// out\n        /* \"#utility.yul\":14364:14783   */\n    tag_103:\n        /* \"#utility.yul\":14530:14534   */\n      0x00\n        /* \"#utility.yul\":14568:14570   */\n      0x20\n        /* \"#utility.yul\":14557:14566   */\n      dup3\n        /* \"#utility.yul\":14553:14571   */\n      add\n        /* \"#utility.yul\":14545:14571   */\n      swap1\n      pop\n        /* \"#utility.yul\":14617:14626   */\n      dup2\n        /* \"#utility.yul\":14611:14615   */\n      dup2\n        /* \"#utility.yul\":14607:14627   */\n      sub\n        /* \"#utility.yul\":14603:14604   */\n      0x00\n        /* \"#utility.yul\":14592:14601   */\n      dup4\n        /* \"#utility.yul\":14588:14605   */\n      add\n        /* \"#utility.yul\":14581:14628   */\n      mstore\n        /* \"#utility.yul\":14645:14776   */\n      tag_256\n        /* \"#utility.yul\":14771:14775   */\n      dup2\n        /* \"#utility.yul\":14645:14776   */\n      tag_149\n      jump\t// in\n    tag_256:\n        /* \"#utility.yul\":14637:14776   */\n      swap1\n      pop\n        /* \"#utility.yul\":14364:14783   */\n      swap2\n      swap1\n      pop\n      jump\t// out\n        /* \"#utility.yul\":14789:14964   */\n    tag_150:\n        /* \"#utility.yul\":14929:14956   */\n      0x4c612070756a61206465626520736572206d617320616c746100000000000000\n        /* \"#utility.yul\":14925:14926   */\n      0x00\n        /* \"#utility.yul\":14917:14923   */\n      dup3\n        /* \"#utility.yul\":14913:14927   */\n      add\n        /* \"#utility.yul\":14906:14957   */\n      mstore\n        /* \"#utility.yul\":14789:14964   */\n      pop\n      jump\t// out\n        /* \"#utility.yul\":14970:15336   */\n    tag_151:\n        /* \"#utility.yul\":15112:15115   */\n      0x00\n        /* \"#utility.yul\":15133:15200   */\n      tag_259\n        /* \"#utility.yul\":15197:15199   */\n      0x19\n        /* \"#utility.yul\":15192:15195   */\n      dup4\n        /* \"#utility.yul\":15133:15200   */\n      tag_120\n      jump\t// in\n    tag_259:\n        /* \"#utility.yul\":15126:15200   */\n      swap2\n      pop\n        /* \"#utility.yul\":15209:15302   */\n      tag_260\n        /* \"#utility.yul\":15298:15301   */\n      dup3\n        /* \"#utility.yul\":15209:15302   */\n      tag_150\n      jump\t// in\n    tag_260:\n        /* \"#utility.yul\":15327:15329   */\n      0x20\n        /* \"#utility.yul\":15322:15325   */\n      dup3\n        /* \"#utility.yul\":15318:15330   */\n      add\n        /* \"#utility.yul\":15311:15330   */\n      swap1\n      pop\n        /* \"#utility.yul\":14970:15336   */\n      swap2\n      swap1\n      pop\n      jump\t// out\n        /* \"#utility.yul\":15342:15761   */\n    tag_106:\n        /* \"#utility.yul\":15508:15512   */\n      0x00\n        /* \"#utility.yul\":15546:15548   */\n      0x20\n        /* \"#utility.yul\":15535:15544   */\n      dup3\n        /* \"#utility.yul\":15531:15549   */\n      add\n        /* \"#utility.yul\":15523:15549   */\n      swap1\n      pop\n        /* \"#utility.yul\":15595:15604   */\n      dup2\n        /* \"#utility.yul\":15589:15593   */\n      dup2\n        /* \"#utility.yul\":15585:15605   */\n      sub\n        /* \"#utility.yul\":15581:15582   */\n      0x00\n        /* \"#utility.yul\":15570:15579   */\n      dup4\n        /* \"#utility.yul\":15566:15583   */\n      add\n        /* \"#utility.yul\":15559:15606   */\n      mstore\n        /* \"#utility.yul\":15623:15754   */\n      tag_262\n        /* \"#utility.yul\":15749:15753   */\n      dup2\n        /* \"#utility.yul\":15623:15754   */\n      tag_151\n      jump\t// in\n    tag_262:\n        /* \"#utility.yul\":15615:15754   */\n      swap1\n      pop\n        /* \"#utility.yul\":15342:15761   */\n      swap2\n      swap1\n      pop\n      jump\t// out\n        /* \"#utility.yul\":15767:15947   */\n    tag_152:\n        /* \"#utility.yul\":15815:15892   */\n      0x4e487b7100000000000000000000000000000000000000000000000000000000\n        /* \"#utility.yul\":15812:15813   */\n      0x00\n        /* \"#utility.yul\":15805:15893   */\n      mstore\n        /* \"#utility.yul\":15912:15916   */\n      0x11\n        /* \"#utility.yul\":15909:15910   */\n      0x04\n        /* \"#utility.yul\":15902:15917   */\n      mstore\n        /* \"#utility.yul\":15936:15940   */\n      0x24\n        /* \"#utility.yul\":15933:15934   */\n      0x00\n        /* \"#utility.yul\":15926:15941   */\n      revert\n        /* \"#utility.yul\":15953:16144   */\n    tag_108:\n        /* \"#utility.yul\":15993:15996   */\n      0x00\n        /* \"#utility.yul\":16012:16032   */\n      tag_265\n        /* \"#utility.yul\":16030:16031   */\n      dup3\n        /* \"#utility.yul\":16012:16032   */\n      tag_114\n      jump\t// in\n    tag_265:\n        /* \"#utility.yul\":16007:16032   */\n      swap2\n      pop\n        /* \"#utility.yul\":16046:16066   */\n      tag_266\n        /* \"#utility.yul\":16064:16065   */\n      dup4\n        /* \"#utility.yul\":16046:16066   */\n      tag_114\n      jump\t// in\n    tag_266:\n        /* \"#utility.yul\":16041:16066   */\n      swap3\n      pop\n        /* \"#utility.yul\":16089:16090   */\n      dup3\n        /* \"#utility.yul\":16086:16087   */\n      dup3\n        /* \"#utility.yul\":16082:16091   */\n      add\n        /* \"#utility.yul\":16075:16091   */\n      swap1\n      pop\n        /* \"#utility.yul\":16110:16113   */\n      dup1\n        /* \"#utility.yul\":16107:16108   */\n      dup3\n        /* \"#utility.yul\":16104:16114   */\n      gt\n        /* \"#utility.yul\":16101:16137   */\n      iszero\n      tag_267\n      jumpi\n        /* \"#utility.yul\":16117:16135   */\n      tag_268\n      tag_152\n      jump\t// in\n    tag_268:\n        /* \"#utility.yul\":16101:16137   */\n    tag_267:\n        /* \"#utility.yul\":15953:16144   */\n      swap3\n      swap2\n      pop\n      pop\n      jump\t// out\n        /* \"#utility.yul\":16150:16326   */\n    tag_153:\n        /* \"#utility.yul\":16290:16318   */\n      0x4e6f207469656e65732073616c646f20737566696369656e7465000000000000\n        /* \"#utility.yul\":16286:16287   */\n      0x00\n        /* \"#utility.yul\":16278:16284   */\n      dup3\n        /* \"#utility.yul\":16274:16288   */\n      add\n        /* \"#utility.yul\":16267:16319   */\n      mstore\n        /* \"#utility.yul\":16150:16326   */\n      pop\n      jump\t// out\n        /* \"#utility.yul\":16332:16698   */\n    tag_154:\n        /* \"#utility.yul\":16474:16477   */\n      0x00\n        /* \"#utility.yul\":16495:16562   */\n      tag_271\n        /* \"#utility.yul\":16559:16561   */\n      0x1a\n        /* \"#utility.yul\":16554:16557   */\n      dup4\n        /* \"#utility.yul\":16495:16562   */\n      tag_120\n      jump\t// in\n    tag_271:\n        /* \"#utility.yul\":16488:16562   */\n      swap2\n      pop\n        /* \"#utility.yul\":16571:16664   */\n      tag_272\n        /* \"#utility.yul\":16660:16663   */\n      dup3\n        /* \"#utility.yul\":16571:16664   */\n      tag_153\n      jump\t// in\n    tag_272:\n        /* \"#utility.yul\":16689:16691   */\n      0x20\n        /* \"#utility.yul\":16684:16687   */\n      dup3\n        /* \"#utility.yul\":16680:16692   */\n      add\n        /* \"#utility.yul\":16673:16692   */\n      swap1\n      pop\n        /* \"#utility.yul\":16332:16698   */\n      swap2\n      swap1\n      pop\n      jump\t// out\n        /* \"#utility.yul\":16704:17123   */\n    tag_111:\n        /* \"#utility.yul\":16870:16874   */\n      0x00\n        /* \"#utility.yul\":16908:16910   */\n      0x20\n        /* \"#utility.yul\":16897:16906   */\n      dup3\n        /* \"#utility.yul\":16893:16911   */\n      add\n        /* \"#utility.yul\":16885:16911   */\n      swap1\n      pop\n        /* \"#utility.yul\":16957:16966   */\n      dup2\n        /* \"#utility.yul\":16951:16955   */\n      dup2\n        /* \"#utility.yul\":16947:16967   */\n      sub\n        /* \"#utility.yul\":16943:16944   */\n      0x00\n        /* \"#utility.yul\":16932:16941   */\n      dup4\n        /* \"#utility.yul\":16928:16945   */\n      add\n        /* \"#utility.yul\":16921:16968   */\n      mstore\n        /* \"#utility.yul\":16985:17116   */\n      tag_274\n        /* \"#utility.yul\":17111:17115   */\n      dup2\n        /* \"#utility.yul\":16985:17116   */\n      tag_154\n      jump\t// in\n    tag_274:\n        /* \"#utility.yul\":16977:17116   */\n      swap1\n      pop\n        /* \"#utility.yul\":16704:17123   */\n      swap2\n      swap1\n      pop\n      jump\t// out\n        /* \"#utility.yul\":17129:17461   */\n    tag_113:\n        /* \"#utility.yul\":17250:17254   */\n      0x00\n        /* \"#utility.yul\":17288:17290   */\n      0x40\n        /* \"#utility.yul\":17277:17286   */\n      dup3\n        /* \"#utility.yul\":17273:17291   */\n      add\n        /* \"#utility.yul\":17265:17291   */\n      swap1\n      pop\n        /* \"#utility.yul\":17301:17372   */\n      tag_276\n        /* \"#utility.yul\":17369:17370   */\n      0x00\n        /* \"#utility.yul\":17358:17367   */\n      dup4\n        /* \"#utility.yul\":17354:17371   */\n      add\n        /* \"#utility.yul\":17345:17351   */\n      dup6\n        /* \"#utility.yul\":17301:17372   */\n      tag_118\n      jump\t// in\n    tag_276:\n        /* \"#utility.yul\":17382:17454   */\n      tag_277\n        /* \"#utility.yul\":17450:17452   */\n      0x20\n        /* \"#utility.yul\":17439:17448   */\n      dup4\n        /* \"#utility.yul\":17435:17453   */\n      add\n        /* \"#utility.yul\":17426:17432   */\n      dup5\n        /* \"#utility.yul\":17382:17454   */\n      tag_115\n      jump\t// in\n    tag_277:\n        /* \"#utility.yul\":17129:17461   */\n      swap4\n      swap3\n      pop\n      pop\n      pop\n      jump\t// out\n\n    auxdata: 0xa2646970667358221220cac8623f2d7bfd0a72335858efc5f2229267e9b883f97a0eaca90e74127f27e064736f6c634300081e0033\n}\n",
				"bytecode": {
					"linkReferences": {},
					"object": "608060405273f55301514c27489fde7c9cd9a3ea8044e7e045795f5f6101000a81548173ffffffffffffffffffffffffffffffffffffffff021916908373ffffffffffffffffffffffffffffffffffffffff160217905550348015610062575f5ffd5b5060405161199238038061199283398181016040528101906100849190610248565b826001908161009391906104bb565b50816002819055505f600381905550603c816100af91906105b7565b426100ba91906105f8565b60058190555050505061062b565b5f604051905090565b5f5ffd5b5f5ffd5b5f5ffd5b5f5ffd5b5f601f19601f8301169050919050565b7f4e487b71000000000000000000000000000000000000000000000000000000005f52604160045260245ffd5b610127826100e1565b810181811067ffffffffffffffff82111715610146576101456100f1565b5b80604052505050565b5f6101586100c8565b9050610164828261011e565b919050565b5f67ffffffffffffffff821115610183576101826100f1565b5b61018c826100e1565b9050602081019050919050565b8281835e5f83830152505050565b5f6101b96101b484610169565b61014f565b9050828152602081018484840111156101d5576101d46100dd565b5b6101e0848285610199565b509392505050565b5f82601f8301126101fc576101fb6100d9565b5b815161020c8482602086016101a7565b91505092915050565b5f819050919050565b61022781610215565b8114610231575f5ffd5b50565b5f815190506102428161021e565b92915050565b5f5f5f6060848603121561025f5761025e6100d1565b5b5f84015167ffffffffffffffff81111561027c5761027b6100d5565b5b610288868287016101e8565b935050602061029986828701610234565b92505060406102aa86828701610234565b9150509250925092565b5f81519050919050565b7f4e487b71000000000000000000000000000000000000000000000000000000005f52602260045260245ffd5b5f600282049050600182168061030257607f821691505b602082108103610315576103146102be565b5b50919050565b5f819050815f5260205f209050919050565b5f6020601f8301049050919050565b5f82821b905092915050565b5f600883026103777fffffffffffffffffffffffffffffffffffffffffffffffffffffffffffffffff8261033c565b610381868361033c565b95508019841693508086168417925050509392505050565b5f819050919050565b5f6103bc6103b76103b284610215565b610399565b610215565b9050919050565b5f819050919050565b6103d5836103a2565b6103e96103e1826103c3565b848454610348565b825550505050565b5f5f905090565b6104006103f1565b61040b8184846103cc565b505050565b5b8181101561042e576104235f826103f8565b600181019050610411565b5050565b601f821115610473576104448161031b565b61044d8461032d565b8101602085101561045c578190505b6104706104688561032d565b830182610410565b50505b505050565b5f82821c905092915050565b5f6104935f1984600802610478565b1980831691505092915050565b5f6104ab8383610484565b9150826002028217905092915050565b6104c4826102b4565b67ffffffffffffffff8111156104dd576104dc6100f1565b5b6104e782546102eb565b6104f2828285610432565b5f60209050601f831160018114610523575f8415610511578287015190505b61051b85826104a0565b865550610582565b601f1984166105318661031b565b5f5b8281101561055857848901518255600182019150602085019450602081019050610533565b868310156105755784890151610571601f891682610484565b8355505b6001600288020188555050505b505050505050565b7f4e487b71000000000000000000000000000000000000000000000000000000005f52601160045260245ffd5b5f6105c182610215565b91506105cc83610215565b92508282026105da81610215565b915082820484148315176105f1576105f061058a565b5b5092915050565b5f61060282610215565b915061060d83610215565b92508282019050808211156106255761062461058a565b5b92915050565b61135a806106385f395ff3fe608060405260043610610085575f3560e01c80637284e416116100585780637284e4161461010957806374b11d8a146101335780638da5cb5b1461015d578063bef3a08314610187578063f30e3658146101b157610085565b80633e109a19146100895780634311de8f146100b3578063590e1ae3146100c95780636569ddf5146100df575b5f5ffd5b348015610094575f5ffd5b5061009d6101bb565b6040516100aa9190610b1e565b60405180910390f35b3480156100be575f5ffd5b506100c76101c1565b005b3480156100d4575f5ffd5b506100dd61040e565b005b3480156100ea575f5ffd5b506100f36106d5565b6040516101009190610b76565b60405180910390f35b348015610114575f5ffd5b5061011d6106fa565b60405161012a9190610bff565b60405180910390f35b34801561013e575f5ffd5b50610147610786565b6040516101549190610b1e565b60405180910390f35b348015610168575f5ffd5b5061017161078c565b60405161017e9190610b76565b60405180910390f35b348015610192575f5ffd5b5061019b6107b0565b6040516101a89190610b1e565b60405180910390f35b6101b96107b6565b005b60025481565b60065f9054906101000a900460ff16156101d9575f5ffd5b600160065f6101000a81548160ff0219169083151502179055505f5f9054906101000a900473ffffffffffffffffffffffffffffffffffffffff1673ffffffffffffffffffffffffffffffffffffffff163373ffffffffffffffffffffffffffffffffffffffff1614610281576040517f08c379a000000000000000000000000000000000000000000000000000000000815260040161027890610c8f565b60405180910390fd5b60055442116102c5576040517f08c379a00000000000000000000000000000000000000000000000000000000081526004016102bc90610d1d565b60405180910390fd5b5f60075f60045f9054906101000a900473ffffffffffffffffffffffffffffffffffffffff1673ffffffffffffffffffffffffffffffffffffffff1673ffffffffffffffffffffffffffffffffffffffff1681526020019081526020015f20819055505f5f5f9054906101000a900473ffffffffffffffffffffffffffffffffffffffff1673ffffffffffffffffffffffffffffffffffffffff1660035460405161036f90610d68565b5f6040518083038185875af1925050503d805f81146103a9576040519150601f19603f3d011682016040523d82523d5f602084013e6103ae565b606091505b50509050806103f2576040517f08c379a00000000000000000000000000000000000000000000000000000000081526004016103e990610dc6565b60405180910390fd5b505f60065f6101000a81548160ff021916908315150217905550565b60065f9054906101000a900460ff1615610426575f5ffd5b600160065f6101000a81548160ff0219169083151502179055506005544211610484576040517f08c379a000000000000000000000000000000000000000000000000000000000815260040161047b90610e2e565b60405180910390fd5b3373ffffffffffffffffffffffffffffffffffffffff1660045f9054906101000a900473ffffffffffffffffffffffffffffffffffffffff1673ffffffffffffffffffffffffffffffffffffffff1603610513576040517f08c379a000000000000000000000000000000000000000000000000000000000815260040161050a90610ebc565b60405180910390fd5b5f60075f3373ffffffffffffffffffffffffffffffffffffffff1673ffffffffffffffffffffffffffffffffffffffff1681526020019081526020015f205403610592576040517f08c379a000000000000000000000000000000000000000000000000000000000815260040161058990610f24565b60405180910390fd5b5f60075f3373ffffffffffffffffffffffffffffffffffffffff1673ffffffffffffffffffffffffffffffffffffffff1681526020019081526020015f20819055505f3373ffffffffffffffffffffffffffffffffffffffff1660075f3373ffffffffffffffffffffffffffffffffffffffff1673ffffffffffffffffffffffffffffffffffffffff1681526020019081526020015f205460405161063690610d68565b5f6040518083038185875af1925050503d805f8114610670576040519150601f19603f3d011682016040523d82523d5f602084013e610675565b606091505b50509050806106b9576040517f08c379a00000000000000000000000000000000000000000000000000000000081526004016106b090610dc6565b60405180910390fd5b505f60065f6101000a81548160ff021916908315150217905550565b60045f9054906101000a900473ffffffffffffffffffffffffffffffffffffffff1681565b6001805461070790610f6f565b80601f016020809104026020016040519081016040528092919081815260200182805461073390610f6f565b801561077e5780601f106107555761010080835404028352916020019161077e565b820191905f5260205f20905b81548152906001019060200180831161076157829003601f168201915b505050505081565b60035481565b5f5f9054906101000a900473ffffffffffffffffffffffffffffffffffffffff1681565b60055481565b60055442106107fa576040517f08c379a00000000000000000000000000000000000000000000000000000000081526004016107f190610fe9565b60405180910390fd5b5f341161083c576040517f08c379a000000000000000000000000000000000000000000000000000000000815260040161083390611051565b60405180910390fd5b5f5f9054906101000a900473ffffffffffffffffffffffffffffffffffffffff1673ffffffffffffffffffffffffffffffffffffffff163373ffffffffffffffffffffffffffffffffffffffff16036108ca576040517f08c379a00000000000000000000000000000000000000000000000000000000081526004016108c1906110b9565b60405180910390fd5b5f60075f3373ffffffffffffffffffffffffffffffffffffffff1673ffffffffffffffffffffffffffffffffffffffff1681526020019081526020015f205414610949576040517f08c379a000000000000000000000000000000000000000000000000000000000815260040161094090611121565b60405180910390fd5b600254341161098d576040517f08c379a0000000000000000000000000000000000000000000000000000000008152600401610984906111af565b60405180910390fd5b60035434116109d1576040517f08c379a00000000000000000000000000000000000000000000000000000000081526004016109c890611217565b60405180910390fd5b5f34662386f26fc100006109e59190611262565b90503373ffffffffffffffffffffffffffffffffffffffff1631811015610a41576040517f08c379a0000000000000000000000000000000000000000000000000000000008152600401610a38906112df565b60405180910390fd5b3460075f3373ffffffffffffffffffffffffffffffffffffffff1673ffffffffffffffffffffffffffffffffffffffff1681526020019081526020015f2081905550346003819055503360045f6101000a81548173ffffffffffffffffffffffffffffffffffffffff021916908373ffffffffffffffffffffffffffffffffffffffff1602179055507fe684a55f31b79eca403df938249029212a5925ec6be8012e099b45bc1019e5d23334604051610afb9291906112fd565b60405180910390a150565b5f819050919050565b610b1881610b06565b82525050565b5f602082019050610b315f830184610b0f565b92915050565b5f73ffffffffffffffffffffffffffffffffffffffff82169050919050565b5f610b6082610b37565b9050919050565b610b7081610b56565b82525050565b5f602082019050610b895f830184610b67565b92915050565b5f81519050919050565b5f82825260208201905092915050565b8281835e5f83830152505050565b5f601f19601f8301169050919050565b5f610bd182610b8f565b610bdb8185610b99565b9350610beb818560208601610ba9565b610bf481610bb7565b840191505092915050565b5f6020820190508181035f830152610c178184610bc7565b905092915050565b7f4e6f206572657320656c2070726f706965746172696f2064656c2061727469635f8201527f756c6f0000000000000000000000000000000000000000000000000000000000602082015250565b5f610c79602383610b99565b9150610c8482610c1f565b604082019050919050565b5f6020820190508181035f830152610ca681610c6d565b9050919050565b7f4c612073756261737461206e6f2065737461206365727261646120746f6461765f8201527f6961000000000000000000000000000000000000000000000000000000000000602082015250565b5f610d07602283610b99565b9150610d1282610cad565b604082019050919050565b5f6020820190508181035f830152610d3481610cfb565b9050919050565b5f81905092915050565b50565b5f610d535f83610d3b565b9150610d5e82610d45565b5f82019050919050565b5f610d7282610d48565b9150819050919050565b7f46616c6c6f20616c20656e7669617220666f6e646f73000000000000000000005f82015250565b5f610db0601683610b99565b9150610dbb82610d7c565b602082019050919050565b5f6020820190508181035f830152610ddd81610da4565b9050919050565b7f4c61207375626173746120746f646176696120657374612061626965727461005f82015250565b5f610e18601f83610b99565b9150610e2382610de4565b602082019050919050565b5f6020820190508181035f830152610e4581610e0c565b9050919050565b7f54752070756a61206573206c612067616e61646f72612e204e6f2070756564655f8201527f73207265637570657261726c6100000000000000000000000000000000000000602082015250565b5f610ea6602d83610b99565b9150610eb182610e4c565b604082019050919050565b5f6020820190508181035f830152610ed381610e9a565b9050919050565b7f4e6f2070756a6173746520706f722065737465206172746963756c6f000000005f82015250565b5f610f0e601c83610b99565b9150610f1982610eda565b602082019050919050565b5f6020820190508181035f830152610f3b81610f02565b9050919050565b7f4e487b71000000000000000000000000000000000000000000000000000000005f52602260045260245ffd5b5f6002820490506001821680610f8657607f821691505b602082108103610f9957610f98610f42565b5b50919050565b7f53756261737461206365727261646100000000000000000000000000000000005f82015250565b5f610fd3600f83610b99565b9150610fde82610f9f565b602082019050919050565b5f6020820190508181035f83015261100081610fc7565b9050919050565b7f53696e20656e76696f2064652062544e420000000000000000000000000000005f82015250565b5f61103b601183610b99565b915061104682611007565b602082019050919050565b5f6020820190508181035f8301526110688161102f565b9050919050565b7f456c2070726f706965746172696f206e6f2070756564652070756a61720000005f82015250565b5f6110a3601d83610b99565b91506110ae8261106f565b602082019050919050565b5f6020820190508181035f8301526110d081611097565b9050919050565b7f5961207265616c697a6173746520756e612070756a61000000000000000000005f82015250565b5f61110b601683610b99565b9150611116826110d7565b602082019050919050565b5f6020820190508181035f830152611138816110ff565b9050919050565b7f4c612070756a61206465626520736572206d61732061746120717565206c61205f8201527f70756a61206d696e696d61000000000000000000000000000000000000000000602082015250565b5f611199602b83610b99565b91506111a48261113f565b604082019050919050565b5f6020820190508181035f8301526111c68161118d565b9050919050565b7f4c612070756a61206465626520736572206d617320616c7461000000000000005f82015250565b5f611201601983610b99565b915061120c826111cd565b602082019050919050565b5f6020820190508181035f83015261122e816111f5565b9050919050565b7f4e487b71000000000000000000000000000000000000000000000000000000005f52601160045260245ffd5b5f61126c82610b06565b915061127783610b06565b925082820190508082111561128f5761128e611235565b5b92915050565b7f4e6f207469656e65732073616c646f20737566696369656e74650000000000005f82015250565b5f6112c9601a83610b99565b91506112d482611295565b602082019050919050565b5f6020820190508181035f8301526112f6816112bd565b9050919050565b5f6040820190506113105f830185610b67565b61131d6020830184610b0f565b939250505056fea2646970667358221220cac8623f2d7bfd0a72335858efc5f2229267e9b883f97a0eaca90e74127f27e064736f6c634300081e0033",
					"opcodes": "PUSH1 0x80 PUSH1 0x40 MSTORE PUSH20 0xF55301514C27489FDE7C9CD9A3EA8044E7E04579 PUSH0 PUSH0 PUSH2 0x100 EXP DUP2 SLOAD DUP2 PUSH20 0xFFFFFFFFFFFFFFFFFFFFFFFFFFFFFFFFFFFFFFFF MUL NOT AND SWAP1 DUP4 PUSH20 0xFFFFFFFFFFFFFFFFFFFFFFFFFFFFFFFFFFFFFFFF AND MUL OR SWAP1 SSTORE POP CALLVALUE DUP1 ISZERO PUSH2 0x62 JUMPI PUSH0 PUSH0 REVERT JUMPDEST POP PUSH1 0x40 MLOAD PUSH2 0x1992 CODESIZE SUB DUP1 PUSH2 0x1992 DUP4 CODECOPY DUP2 DUP2 ADD PUSH1 0x40 MSTORE DUP2 ADD SWAP1 PUSH2 0x84 SWAP2 SWAP1 PUSH2 0x248 JUMP JUMPDEST DUP3 PUSH1 0x1 SWAP1 DUP2 PUSH2 0x93 SWAP2 SWAP1 PUSH2 0x4BB JUMP JUMPDEST POP DUP2 PUSH1 0x2 DUP2 SWAP1 SSTORE POP PUSH0 PUSH1 0x3 DUP2 SWAP1 SSTORE POP PUSH1 0x3C DUP2 PUSH2 0xAF SWAP2 SWAP1 PUSH2 0x5B7 JUMP JUMPDEST TIMESTAMP PUSH2 0xBA SWAP2 SWAP1 PUSH2 0x5F8 JUMP JUMPDEST PUSH1 0x5 DUP2 SWAP1 SSTORE POP POP POP POP PUSH2 0x62B JUMP JUMPDEST PUSH0 PUSH1 0x40 MLOAD SWAP1 POP SWAP1 JUMP JUMPDEST PUSH0 PUSH0 REVERT JUMPDEST PUSH0 PUSH0 REVERT JUMPDEST PUSH0 PUSH0 REVERT JUMPDEST PUSH0 PUSH0 REVERT JUMPDEST PUSH0 PUSH1 0x1F NOT PUSH1 0x1F DUP4 ADD AND SWAP1 POP SWAP2 SWAP1 POP JUMP JUMPDEST PUSH32 0x4E487B7100000000000000000000000000000000000000000000000000000000 PUSH0 MSTORE PUSH1 0x41 PUSH1 0x4 MSTORE PUSH1 0x24 PUSH0 REVERT JUMPDEST PUSH2 0x127 DUP3 PUSH2 0xE1 JUMP JUMPDEST DUP2 ADD DUP2 DUP2 LT PUSH8 0xFFFFFFFFFFFFFFFF DUP3 GT OR ISZERO PUSH2 0x146 JUMPI PUSH2 0x145 PUSH2 0xF1 JUMP JUMPDEST JUMPDEST DUP1 PUSH1 0x40 MSTORE POP POP POP JUMP JUMPDEST PUSH0 PUSH2 0x158 PUSH2 0xC8 JUMP JUMPDEST SWAP1 POP PUSH2 0x164 DUP3 DUP3 PUSH2 0x11E JUMP JUMPDEST SWAP2 SWAP1 POP JUMP JUMPDEST PUSH0 PUSH8 0xFFFFFFFFFFFFFFFF DUP3 GT ISZERO PUSH2 0x183 JUMPI PUSH2 0x182 PUSH2 0xF1 JUMP JUMPDEST JUMPDEST PUSH2 0x18C DUP3 PUSH2 0xE1 JUMP JUMPDEST SWAP1 POP PUSH1 0x20 DUP2 ADD SWAP1 POP SWAP2 SWAP1 POP JUMP JUMPDEST DUP3 DUP2 DUP4 MCOPY PUSH0 DUP4 DUP4 ADD MSTORE POP POP POP JUMP JUMPDEST PUSH0 PUSH2 0x1B9 PUSH2 0x1B4 DUP5 PUSH2 0x169 JUMP JUMPDEST PUSH2 0x14F JUMP JUMPDEST SWAP1 POP DUP3 DUP2 MSTORE PUSH1 0x20 DUP2 ADD DUP5 DUP5 DUP5 ADD GT ISZERO PUSH2 0x1D5 JUMPI PUSH2 0x1D4 PUSH2 0xDD JUMP JUMPDEST JUMPDEST PUSH2 0x1E0 DUP5 DUP3 DUP6 PUSH2 0x199 JUMP JUMPDEST POP SWAP4 SWAP3 POP POP POP JUMP JUMPDEST PUSH0 DUP3 PUSH1 0x1F DUP4 ADD SLT PUSH2 0x1FC JUMPI PUSH2 0x1FB PUSH2 0xD9 JUMP JUMPDEST JUMPDEST DUP2 MLOAD PUSH2 0x20C DUP5 DUP3 PUSH1 0x20 DUP7 ADD PUSH2 0x1A7 JUMP JUMPDEST SWAP2 POP POP SWAP3 SWAP2 POP POP JUMP JUMPDEST PUSH0 DUP2 SWAP1 POP SWAP2 SWAP1 POP JUMP JUMPDEST PUSH2 0x227 DUP2 PUSH2 0x215 JUMP JUMPDEST DUP2 EQ PUSH2 0x231 JUMPI PUSH0 PUSH0 REVERT JUMPDEST POP JUMP JUMPDEST PUSH0 DUP2 MLOAD SWAP1 POP PUSH2 0x242 DUP2 PUSH2 0x21E JUMP JUMPDEST SWAP3 SWAP2 POP POP JUMP JUMPDEST PUSH0 PUSH0 PUSH0 PUSH1 0x60 DUP5 DUP7 SUB SLT ISZERO PUSH2 0x25F JUMPI PUSH2 0x25E PUSH2 0xD1 JUMP JUMPDEST JUMPDEST PUSH0 DUP5 ADD MLOAD PUSH8 0xFFFFFFFFFFFFFFFF DUP2 GT ISZERO PUSH2 0x27C JUMPI PUSH2 0x27B PUSH2 0xD5 JUMP JUMPDEST JUMPDEST PUSH2 0x288 DUP7 DUP3 DUP8 ADD PUSH2 0x1E8 JUMP JUMPDEST SWAP4 POP POP PUSH1 0x20 PUSH2 0x299 DUP7 DUP3 DUP8 ADD PUSH2 0x234 JUMP JUMPDEST SWAP3 POP POP PUSH1 0x40 PUSH2 0x2AA DUP7 DUP3 DUP8 ADD PUSH2 0x234 JUMP JUMPDEST SWAP2 POP POP SWAP3 POP SWAP3 POP SWAP3 JUMP JUMPDEST PUSH0 DUP2 MLOAD SWAP1 POP SWAP2 SWAP1 POP JUMP JUMPDEST PUSH32 0x4E487B7100000000000000000000000000000000000000000000000000000000 PUSH0 MSTORE PUSH1 0x22 PUSH1 0x4 MSTORE PUSH1 0x24 PUSH0 REVERT JUMPDEST PUSH0 PUSH1 0x2 DUP3 DIV SWAP1 POP PUSH1 0x1 DUP3 AND DUP1 PUSH2 0x302 JUMPI PUSH1 0x7F DUP3 AND SWAP2 POP JUMPDEST PUSH1 0x20 DUP3 LT DUP2 SUB PUSH2 0x315 JUMPI PUSH2 0x314 PUSH2 0x2BE JUMP JUMPDEST JUMPDEST POP SWAP2 SWAP1 POP JUMP JUMPDEST PUSH0 DUP2 SWAP1 POP DUP2 PUSH0 MSTORE PUSH1 0x20 PUSH0 KECCAK256 SWAP1 POP SWAP2 SWAP1 POP JUMP JUMPDEST PUSH0 PUSH1 0x20 PUSH1 0x1F DUP4 ADD DIV SWAP1 POP SWAP2 SWAP1 POP JUMP JUMPDEST PUSH0 DUP3 DUP3 SHL SWAP1 POP SWAP3 SWAP2 POP POP JUMP JUMPDEST PUSH0 PUSH1 0x8 DUP4 MUL PUSH2 0x377 PUSH32 0xFFFFFFFFFFFFFFFFFFFFFFFFFFFFFFFFFFFFFFFFFFFFFFFFFFFFFFFFFFFFFFFF DUP3 PUSH2 0x33C JUMP JUMPDEST PUSH2 0x381 DUP7 DUP4 PUSH2 0x33C JUMP JUMPDEST SWAP6 POP DUP1 NOT DUP5 AND SWAP4 POP DUP1 DUP7 AND DUP5 OR SWAP3 POP POP POP SWAP4 SWAP3 POP POP POP JUMP JUMPDEST PUSH0 DUP2 SWAP1 POP SWAP2 SWAP1 POP JUMP JUMPDEST PUSH0 PUSH2 0x3BC PUSH2 0x3B7 PUSH2 0x3B2 DUP5 PUSH2 0x215 JUMP JUMPDEST PUSH2 0x399 JUMP JUMPDEST PUSH2 0x215 JUMP JUMPDEST SWAP1 POP SWAP2 SWAP1 POP JUMP JUMPDEST PUSH0 DUP2 SWAP1 POP SWAP2 SWAP1 POP JUMP JUMPDEST PUSH2 0x3D5 DUP4 PUSH2 0x3A2 JUMP JUMPDEST PUSH2 0x3E9 PUSH2 0x3E1 DUP3 PUSH2 0x3C3 JUMP JUMPDEST DUP5 DUP5 SLOAD PUSH2 0x348 JUMP JUMPDEST DUP3 SSTORE POP POP POP POP JUMP JUMPDEST PUSH0 PUSH0 SWAP1 POP SWAP1 JUMP JUMPDEST PUSH2 0x400 PUSH2 0x3F1 JUMP JUMPDEST PUSH2 0x40B DUP2 DUP5 DUP5 PUSH2 0x3CC JUMP JUMPDEST POP POP POP JUMP JUMPDEST JUMPDEST DUP2 DUP2 LT ISZERO PUSH2 0x42E JUMPI PUSH2 0x423 PUSH0 DUP3 PUSH2 0x3F8 JUMP JUMPDEST PUSH1 0x1 DUP2 ADD SWAP1 POP PUSH2 0x411 JUMP JUMPDEST POP POP JUMP JUMPDEST PUSH1 0x1F DUP3 GT ISZERO PUSH2 0x473 JUMPI PUSH2 0x444 DUP2 PUSH2 0x31B JUMP JUMPDEST PUSH2 0x44D DUP5 PUSH2 0x32D JUMP JUMPDEST DUP2 ADD PUSH1 0x20 DUP6 LT ISZERO PUSH2 0x45C JUMPI DUP2 SWAP1 POP JUMPDEST PUSH2 0x470 PUSH2 0x468 DUP6 PUSH2 0x32D JUMP JUMPDEST DUP4 ADD DUP3 PUSH2 0x410 JUMP JUMPDEST POP POP JUMPDEST POP POP POP JUMP JUMPDEST PUSH0 DUP3 DUP3 SHR SWAP1 POP SWAP3 SWAP2 POP POP JUMP JUMPDEST PUSH0 PUSH2 0x493 PUSH0 NOT DUP5 PUSH1 0x8 MUL PUSH2 0x478 JUMP JUMPDEST NOT DUP1 DUP4 AND SWAP2 POP POP SWAP3 SWAP2 POP POP JUMP JUMPDEST PUSH0 PUSH2 0x4AB DUP4 DUP4 PUSH2 0x484 JUMP JUMPDEST SWAP2 POP DUP3 PUSH1 0x2 MUL DUP3 OR SWAP1 POP SWAP3 SWAP2 POP POP JUMP JUMPDEST PUSH2 0x4C4 DUP3 PUSH2 0x2B4 JUMP JUMPDEST PUSH8 0xFFFFFFFFFFFFFFFF DUP2 GT ISZERO PUSH2 0x4DD JUMPI PUSH2 0x4DC PUSH2 0xF1 JUMP JUMPDEST JUMPDEST PUSH2 0x4E7 DUP3 SLOAD PUSH2 0x2EB JUMP JUMPDEST PUSH2 0x4F2 DUP3 DUP3 DUP6 PUSH2 0x432 JUMP JUMPDEST PUSH0 PUSH1 0x20 SWAP1 POP PUSH1 0x1F DUP4 GT PUSH1 0x1 DUP2 EQ PUSH2 0x523 JUMPI PUSH0 DUP5 ISZERO PUSH2 0x511 JUMPI DUP3 DUP8 ADD MLOAD SWAP1 POP JUMPDEST PUSH2 0x51B DUP6 DUP3 PUSH2 0x4A0 JUMP JUMPDEST DUP7 SSTORE POP PUSH2 0x582 JUMP JUMPDEST PUSH1 0x1F NOT DUP5 AND PUSH2 0x531 DUP7 PUSH2 0x31B JUMP JUMPDEST PUSH0 JUMPDEST DUP3 DUP2 LT ISZERO PUSH2 0x558 JUMPI DUP5 DUP10 ADD MLOAD DUP3 SSTORE PUSH1 0x1 DUP3 ADD SWAP2 POP PUSH1 0x20 DUP6 ADD SWAP5 POP PUSH1 0x20 DUP2 ADD SWAP1 POP PUSH2 0x533 JUMP JUMPDEST DUP7 DUP4 LT ISZERO PUSH2 0x575 JUMPI DUP5 DUP10 ADD MLOAD PUSH2 0x571 PUSH1 0x1F DUP10 AND DUP3 PUSH2 0x484 JUMP JUMPDEST DUP4 SSTORE POP JUMPDEST PUSH1 0x1 PUSH1 0x2 DUP9 MUL ADD DUP9 SSTORE POP POP POP JUMPDEST POP POP POP POP POP POP JUMP JUMPDEST PUSH32 0x4E487B7100000000000000000000000000000000000000000000000000000000 PUSH0 MSTORE PUSH1 0x11 PUSH1 0x4 MSTORE PUSH1 0x24 PUSH0 REVERT JUMPDEST PUSH0 PUSH2 0x5C1 DUP3 PUSH2 0x215 JUMP JUMPDEST SWAP2 POP PUSH2 0x5CC DUP4 PUSH2 0x215 JUMP JUMPDEST SWAP3 POP DUP3 DUP3 MUL PUSH2 0x5DA DUP2 PUSH2 0x215 JUMP JUMPDEST SWAP2 POP DUP3 DUP3 DIV DUP5 EQ DUP4 ISZERO OR PUSH2 0x5F1 JUMPI PUSH2 0x5F0 PUSH2 0x58A JUMP JUMPDEST JUMPDEST POP SWAP3 SWAP2 POP POP JUMP JUMPDEST PUSH0 PUSH2 0x602 DUP3 PUSH2 0x215 JUMP JUMPDEST SWAP2 POP PUSH2 0x60D DUP4 PUSH2 0x215 JUMP JUMPDEST SWAP3 POP DUP3 DUP3 ADD SWAP1 POP DUP1 DUP3 GT ISZERO PUSH2 0x625 JUMPI PUSH2 0x624 PUSH2 0x58A JUMP JUMPDEST JUMPDEST SWAP3 SWAP2 POP POP JUMP JUMPDEST PUSH2 0x135A DUP1 PUSH2 0x638 PUSH0 CODECOPY PUSH0 RETURN INVALID PUSH1 0x80 PUSH1 0x40 MSTORE PUSH1 0x4 CALLDATASIZE LT PUSH2 0x85 JUMPI PUSH0 CALLDATALOAD PUSH1 0xE0 SHR DUP1 PUSH4 0x7284E416 GT PUSH2 0x58 JUMPI DUP1 PUSH4 0x7284E416 EQ PUSH2 0x109 JUMPI DUP1 PUSH4 0x74B11D8A EQ PUSH2 0x133 JUMPI DUP1 PUSH4 0x8DA5CB5B EQ PUSH2 0x15D JUMPI DUP1 PUSH4 0xBEF3A083 EQ PUSH2 0x187 JUMPI DUP1 PUSH4 0xF30E3658 EQ PUSH2 0x1B1 JUMPI PUSH2 0x85 JUMP JUMPDEST DUP1 PUSH4 0x3E109A19 EQ PUSH2 0x89 JUMPI DUP1 PUSH4 0x4311DE8F EQ PUSH2 0xB3 JUMPI DUP1 PUSH4 0x590E1AE3 EQ PUSH2 0xC9 JUMPI DUP1 PUSH4 0x6569DDF5 EQ PUSH2 0xDF JUMPI JUMPDEST PUSH0 PUSH0 REVERT JUMPDEST CALLVALUE DUP1 ISZERO PUSH2 0x94 JUMPI PUSH0 PUSH0 REVERT JUMPDEST POP PUSH2 0x9D PUSH2 0x1BB JUMP JUMPDEST PUSH1 0x40 MLOAD PUSH2 0xAA SWAP2 SWAP1 PUSH2 0xB1E JUMP JUMPDEST PUSH1 0x40 MLOAD DUP1 SWAP2 SUB SWAP1 RETURN JUMPDEST CALLVALUE DUP1 ISZERO PUSH2 0xBE JUMPI PUSH0 PUSH0 REVERT JUMPDEST POP PUSH2 0xC7 PUSH2 0x1C1 JUMP JUMPDEST STOP JUMPDEST CALLVALUE DUP1 ISZERO PUSH2 0xD4 JUMPI PUSH0 PUSH0 REVERT JUMPDEST POP PUSH2 0xDD PUSH2 0x40E JUMP JUMPDEST STOP JUMPDEST CALLVALUE DUP1 ISZERO PUSH2 0xEA JUMPI PUSH0 PUSH0 REVERT JUMPDEST POP PUSH2 0xF3 PUSH2 0x6D5 JUMP JUMPDEST PUSH1 0x40 MLOAD PUSH2 0x100 SWAP2 SWAP1 PUSH2 0xB76 JUMP JUMPDEST PUSH1 0x40 MLOAD DUP1 SWAP2 SUB SWAP1 RETURN JUMPDEST CALLVALUE DUP1 ISZERO PUSH2 0x114 JUMPI PUSH0 PUSH0 REVERT JUMPDEST POP PUSH2 0x11D PUSH2 0x6FA JUMP JUMPDEST PUSH1 0x40 MLOAD PUSH2 0x12A SWAP2 SWAP1 PUSH2 0xBFF JUMP JUMPDEST PUSH1 0x40 MLOAD DUP1 SWAP2 SUB SWAP1 RETURN JUMPDEST CALLVALUE DUP1 ISZERO PUSH2 0x13E JUMPI PUSH0 PUSH0 REVERT JUMPDEST POP PUSH2 0x147 PUSH2 0x786 JUMP JUMPDEST PUSH1 0x40 MLOAD PUSH2 0x154 SWAP2 SWAP1 PUSH2 0xB1E JUMP JUMPDEST PUSH1 0x40 MLOAD DUP1 SWAP2 SUB SWAP1 RETURN JUMPDEST CALLVALUE DUP1 ISZERO PUSH2 0x168 JUMPI PUSH0 PUSH0 REVERT JUMPDEST POP PUSH2 0x171 PUSH2 0x78C JUMP JUMPDEST PUSH1 0x40 MLOAD PUSH2 0x17E SWAP2 SWAP1 PUSH2 0xB76 JUMP JUMPDEST PUSH1 0x40 MLOAD DUP1 SWAP2 SUB SWAP1 RETURN JUMPDEST CALLVALUE DUP1 ISZERO PUSH2 0x192 JUMPI PUSH0 PUSH0 REVERT JUMPDEST POP PUSH2 0x19B PUSH2 0x7B0 JUMP JUMPDEST PUSH1 0x40 MLOAD PUSH2 0x1A8 SWAP2 SWAP1 PUSH2 0xB1E JUMP JUMPDEST PUSH1 0x40 MLOAD DUP1 SWAP2 SUB SWAP1 RETURN JUMPDEST PUSH2 0x1B9 PUSH2 0x7B6 JUMP JUMPDEST STOP JUMPDEST PUSH1 0x2 SLOAD DUP2 JUMP JUMPDEST PUSH1 0x6 PUSH0 SWAP1 SLOAD SWAP1 PUSH2 0x100 EXP SWAP1 DIV PUSH1 0xFF AND ISZERO PUSH2 0x1D9 JUMPI PUSH0 PUSH0 REVERT JUMPDEST PUSH1 0x1 PUSH1 0x6 PUSH0 PUSH2 0x100 EXP DUP2 SLOAD DUP2 PUSH1 0xFF MUL NOT AND SWAP1 DUP4 ISZERO ISZERO MUL OR SWAP1 SSTORE POP PUSH0 PUSH0 SWAP1 SLOAD SWAP1 PUSH2 0x100 EXP SWAP1 DIV PUSH20 0xFFFFFFFFFFFFFFFFFFFFFFFFFFFFFFFFFFFFFFFF AND PUSH20 0xFFFFFFFFFFFFFFFFFFFFFFFFFFFFFFFFFFFFFFFF AND CALLER PUSH20 0xFFFFFFFFFFFFFFFFFFFFFFFFFFFFFFFFFFFFFFFF AND EQ PUSH2 0x281 JUMPI PUSH1 0x40 MLOAD PUSH32 0x8C379A000000000000000000000000000000000000000000000000000000000 DUP2 MSTORE PUSH1 0x4 ADD PUSH2 0x278 SWAP1 PUSH2 0xC8F JUMP JUMPDEST PUSH1 0x40 MLOAD DUP1 SWAP2 SUB SWAP1 REVERT JUMPDEST PUSH1 0x5 SLOAD TIMESTAMP GT PUSH2 0x2C5 JUMPI PUSH1 0x40 MLOAD PUSH32 0x8C379A000000000000000000000000000000000000000000000000000000000 DUP2 MSTORE PUSH1 0x4 ADD PUSH2 0x2BC SWAP1 PUSH2 0xD1D JUMP JUMPDEST PUSH1 0x40 MLOAD DUP1 SWAP2 SUB SWAP1 REVERT JUMPDEST PUSH0 PUSH1 0x7 PUSH0 PUSH1 0x4 PUSH0 SWAP1 SLOAD SWAP1 PUSH2 0x100 EXP SWAP1 DIV PUSH20 0xFFFFFFFFFFFFFFFFFFFFFFFFFFFFFFFFFFFFFFFF AND PUSH20 0xFFFFFFFFFFFFFFFFFFFFFFFFFFFFFFFFFFFFFFFF AND PUSH20 0xFFFFFFFFFFFFFFFFFFFFFFFFFFFFFFFFFFFFFFFF AND DUP2 MSTORE PUSH1 0x20 ADD SWAP1 DUP2 MSTORE PUSH1 0x20 ADD PUSH0 KECCAK256 DUP2 SWAP1 SSTORE POP PUSH0 PUSH0 PUSH0 SWAP1 SLOAD SWAP1 PUSH2 0x100 EXP SWAP1 DIV PUSH20 0xFFFFFFFFFFFFFFFFFFFFFFFFFFFFFFFFFFFFFFFF AND PUSH20 0xFFFFFFFFFFFFFFFFFFFFFFFFFFFFFFFFFFFFFFFF AND PUSH1 0x3 SLOAD PUSH1 0x40 MLOAD PUSH2 0x36F SWAP1 PUSH2 0xD68 JUMP JUMPDEST PUSH0 PUSH1 0x40 MLOAD DUP1 DUP4 SUB DUP2 DUP6 DUP8 GAS CALL SWAP3 POP POP POP RETURNDATASIZE DUP1 PUSH0 DUP2 EQ PUSH2 0x3A9 JUMPI PUSH1 0x40 MLOAD SWAP2 POP PUSH1 0x1F NOT PUSH1 0x3F RETURNDATASIZE ADD AND DUP3 ADD PUSH1 0x40 MSTORE RETURNDATASIZE DUP3 MSTORE RETURNDATASIZE PUSH0 PUSH1 0x20 DUP5 ADD RETURNDATACOPY PUSH2 0x3AE JUMP JUMPDEST PUSH1 0x60 SWAP2 POP JUMPDEST POP POP SWAP1 POP DUP1 PUSH2 0x3F2 JUMPI PUSH1 0x40 MLOAD PUSH32 0x8C379A000000000000000000000000000000000000000000000000000000000 DUP2 MSTORE PUSH1 0x4 ADD PUSH2 0x3E9 SWAP1 PUSH2 0xDC6 JUMP JUMPDEST PUSH1 0x40 MLOAD DUP1 SWAP2 SUB SWAP1 REVERT JUMPDEST POP PUSH0 PUSH1 0x6 PUSH0 PUSH2 0x100 EXP DUP2 SLOAD DUP2 PUSH1 0xFF MUL NOT AND SWAP1 DUP4 ISZERO ISZERO MUL OR SWAP1 SSTORE POP JUMP JUMPDEST PUSH1 0x6 PUSH0 SWAP1 SLOAD SWAP1 PUSH2 0x100 EXP SWAP1 DIV PUSH1 0xFF AND ISZERO PUSH2 0x426 JUMPI PUSH0 PUSH0 REVERT JUMPDEST PUSH1 0x1 PUSH1 0x6 PUSH0 PUSH2 0x100 EXP DUP2 SLOAD DUP2 PUSH1 0xFF MUL NOT AND SWAP1 DUP4 ISZERO ISZERO MUL OR SWAP1 SSTORE POP PUSH1 0x5 SLOAD TIMESTAMP GT PUSH2 0x484 JUMPI PUSH1 0x40 MLOAD PUSH32 0x8C379A000000000000000000000000000000000000000000000000000000000 DUP2 MSTORE PUSH1 0x4 ADD PUSH2 0x47B SWAP1 PUSH2 0xE2E JUMP JUMPDEST PUSH1 0x40 MLOAD DUP1 SWAP2 SUB SWAP1 REVERT JUMPDEST CALLER PUSH20 0xFFFFFFFFFFFFFFFFFFFFFFFFFFFFFFFFFFFFFFFF AND PUSH1 0x4 PUSH0 SWAP1 SLOAD SWAP1 PUSH2 0x100 EXP SWAP1 DIV PUSH20 0xFFFFFFFFFFFFFFFFFFFFFFFFFFFFFFFFFFFFFFFF AND PUSH20 0xFFFFFFFFFFFFFFFFFFFFFFFFFFFFFFFFFFFFFFFF AND SUB PUSH2 0x513 JUMPI PUSH1 0x40 MLOAD PUSH32 0x8C379A000000000000000000000000000000000000000000000000000000000 DUP2 MSTORE PUSH1 0x4 ADD PUSH2 0x50A SWAP1 PUSH2 0xEBC JUMP JUMPDEST PUSH1 0x40 MLOAD DUP1 SWAP2 SUB SWAP1 REVERT JUMPDEST PUSH0 PUSH1 0x7 PUSH0 CALLER PUSH20 0xFFFFFFFFFFFFFFFFFFFFFFFFFFFFFFFFFFFFFFFF AND PUSH20 0xFFFFFFFFFFFFFFFFFFFFFFFFFFFFFFFFFFFFFFFF AND DUP2 MSTORE PUSH1 0x20 ADD SWAP1 DUP2 MSTORE PUSH1 0x20 ADD PUSH0 KECCAK256 SLOAD SUB PUSH2 0x592 JUMPI PUSH1 0x40 MLOAD PUSH32 0x8C379A000000000000000000000000000000000000000000000000000000000 DUP2 MSTORE PUSH1 0x4 ADD PUSH2 0x589 SWAP1 PUSH2 0xF24 JUMP JUMPDEST PUSH1 0x40 MLOAD DUP1 SWAP2 SUB SWAP1 REVERT JUMPDEST PUSH0 PUSH1 0x7 PUSH0 CALLER PUSH20 0xFFFFFFFFFFFFFFFFFFFFFFFFFFFFFFFFFFFFFFFF AND PUSH20 0xFFFFFFFFFFFFFFFFFFFFFFFFFFFFFFFFFFFFFFFF AND DUP2 MSTORE PUSH1 0x20 ADD SWAP1 DUP2 MSTORE PUSH1 0x20 ADD PUSH0 KECCAK256 DUP2 SWAP1 SSTORE POP PUSH0 CALLER PUSH20 0xFFFFFFFFFFFFFFFFFFFFFFFFFFFFFFFFFFFFFFFF AND PUSH1 0x7 PUSH0 CALLER PUSH20 0xFFFFFFFFFFFFFFFFFFFFFFFFFFFFFFFFFFFFFFFF AND PUSH20 0xFFFFFFFFFFFFFFFFFFFFFFFFFFFFFFFFFFFFFFFF AND DUP2 MSTORE PUSH1 0x20 ADD SWAP1 DUP2 MSTORE PUSH1 0x20 ADD PUSH0 KECCAK256 SLOAD PUSH1 0x40 MLOAD PUSH2 0x636 SWAP1 PUSH2 0xD68 JUMP JUMPDEST PUSH0 PUSH1 0x40 MLOAD DUP1 DUP4 SUB DUP2 DUP6 DUP8 GAS CALL SWAP3 POP POP POP RETURNDATASIZE DUP1 PUSH0 DUP2 EQ PUSH2 0x670 JUMPI PUSH1 0x40 MLOAD SWAP2 POP PUSH1 0x1F NOT PUSH1 0x3F RETURNDATASIZE ADD AND DUP3 ADD PUSH1 0x40 MSTORE RETURNDATASIZE DUP3 MSTORE RETURNDATASIZE PUSH0 PUSH1 0x20 DUP5 ADD RETURNDATACOPY PUSH2 0x675 JUMP JUMPDEST PUSH1 0x60 SWAP2 POP JUMPDEST POP POP SWAP1 POP DUP1 PUSH2 0x6B9 JUMPI PUSH1 0x40 MLOAD PUSH32 0x8C379A000000000000000000000000000000000000000000000000000000000 DUP2 MSTORE PUSH1 0x4 ADD PUSH2 0x6B0 SWAP1 PUSH2 0xDC6 JUMP JUMPDEST PUSH1 0x40 MLOAD DUP1 SWAP2 SUB SWAP1 REVERT JUMPDEST POP PUSH0 PUSH1 0x6 PUSH0 PUSH2 0x100 EXP DUP2 SLOAD DUP2 PUSH1 0xFF MUL NOT AND SWAP1 DUP4 ISZERO ISZERO MUL OR SWAP1 SSTORE POP JUMP JUMPDEST PUSH1 0x4 PUSH0 SWAP1 SLOAD SWAP1 PUSH2 0x100 EXP SWAP1 DIV PUSH20 0xFFFFFFFFFFFFFFFFFFFFFFFFFFFFFFFFFFFFFFFF AND DUP2 JUMP JUMPDEST PUSH1 0x1 DUP1 SLOAD PUSH2 0x707 SWAP1 PUSH2 0xF6F JUMP JUMPDEST DUP1 PUSH1 0x1F ADD PUSH1 0x20 DUP1 SWAP2 DIV MUL PUSH1 0x20 ADD PUSH1 0x40 MLOAD SWAP1 DUP2 ADD PUSH1 0x40 MSTORE DUP1 SWAP3 SWAP2 SWAP1 DUP2 DUP2 MSTORE PUSH1 0x20 ADD DUP3 DUP1 SLOAD PUSH2 0x733 SWAP1 PUSH2 0xF6F JUMP JUMPDEST DUP1 ISZERO PUSH2 0x77E JUMPI DUP1 PUSH1 0x1F LT PUSH2 0x755 JUMPI PUSH2 0x100 DUP1 DUP4 SLOAD DIV MUL DUP4 MSTORE SWAP2 PUSH1 0x20 ADD SWAP2 PUSH2 0x77E JUMP JUMPDEST DUP3 ADD SWAP2 SWAP1 PUSH0 MSTORE PUSH1 0x20 PUSH0 KECCAK256 SWAP1 JUMPDEST DUP2 SLOAD DUP2 MSTORE SWAP1 PUSH1 0x1 ADD SWAP1 PUSH1 0x20 ADD DUP1 DUP4 GT PUSH2 0x761 JUMPI DUP3 SWAP1 SUB PUSH1 0x1F AND DUP3 ADD SWAP2 JUMPDEST POP POP POP POP POP DUP2 JUMP JUMPDEST PUSH1 0x3 SLOAD DUP2 JUMP JUMPDEST PUSH0 PUSH0 SWAP1 SLOAD SWAP1 PUSH2 0x100 EXP SWAP1 DIV PUSH20 0xFFFFFFFFFFFFFFFFFFFFFFFFFFFFFFFFFFFFFFFF AND DUP2 JUMP JUMPDEST PUSH1 0x5 SLOAD DUP2 JUMP JUMPDEST PUSH1 0x5 SLOAD TIMESTAMP LT PUSH2 0x7FA JUMPI PUSH1 0x40 MLOAD PUSH32 0x8C379A000000000000000000000000000000000000000000000000000000000 DUP2 MSTORE PUSH1 0x4 ADD PUSH2 0x7F1 SWAP1 PUSH2 0xFE9 JUMP JUMPDEST PUSH1 0x40 MLOAD DUP1 SWAP2 SUB SWAP1 REVERT JUMPDEST PUSH0 CALLVALUE GT PUSH2 0x83C JUMPI PUSH1 0x40 MLOAD PUSH32 0x8C379A000000000000000000000000000000000000000000000000000000000 DUP2 MSTORE PUSH1 0x4 ADD PUSH2 0x833 SWAP1 PUSH2 0x1051 JUMP JUMPDEST PUSH1 0x40 MLOAD DUP1 SWAP2 SUB SWAP1 REVERT JUMPDEST PUSH0 PUSH0 SWAP1 SLOAD SWAP1 PUSH2 0x100 EXP SWAP1 DIV PUSH20 0xFFFFFFFFFFFFFFFFFFFFFFFFFFFFFFFFFFFFFFFF AND PUSH20 0xFFFFFFFFFFFFFFFFFFFFFFFFFFFFFFFFFFFFFFFF AND CALLER PUSH20 0xFFFFFFFFFFFFFFFFFFFFFFFFFFFFFFFFFFFFFFFF AND SUB PUSH2 0x8CA JUMPI PUSH1 0x40 MLOAD PUSH32 0x8C379A000000000000000000000000000000000000000000000000000000000 DUP2 MSTORE PUSH1 0x4 ADD PUSH2 0x8C1 SWAP1 PUSH2 0x10B9 JUMP JUMPDEST PUSH1 0x40 MLOAD DUP1 SWAP2 SUB SWAP1 REVERT JUMPDEST PUSH0 PUSH1 0x7 PUSH0 CALLER PUSH20 0xFFFFFFFFFFFFFFFFFFFFFFFFFFFFFFFFFFFFFFFF AND PUSH20 0xFFFFFFFFFFFFFFFFFFFFFFFFFFFFFFFFFFFFFFFF AND DUP2 MSTORE PUSH1 0x20 ADD SWAP1 DUP2 MSTORE PUSH1 0x20 ADD PUSH0 KECCAK256 SLOAD EQ PUSH2 0x949 JUMPI PUSH1 0x40 MLOAD PUSH32 0x8C379A000000000000000000000000000000000000000000000000000000000 DUP2 MSTORE PUSH1 0x4 ADD PUSH2 0x940 SWAP1 PUSH2 0x1121 JUMP JUMPDEST PUSH1 0x40 MLOAD DUP1 SWAP2 SUB SWAP1 REVERT JUMPDEST PUSH1 0x2 SLOAD CALLVALUE GT PUSH2 0x98D JUMPI PUSH1 0x40 MLOAD PUSH32 0x8C379A000000000000000000000000000000000000000000000000000000000 DUP2 MSTORE PUSH1 0x4 ADD PUSH2 0x984 SWAP1 PUSH2 0x11AF JUMP JUMPDEST PUSH1 0x40 MLOAD DUP1 SWAP2 SUB SWAP1 REVERT JUMPDEST PUSH1 0x3 SLOAD CALLVALUE GT PUSH2 0x9D1 JUMPI PUSH1 0x40 MLOAD PUSH32 0x8C379A000000000000000000000000000000000000000000000000000000000 DUP2 MSTORE PUSH1 0x4 ADD PUSH2 0x9C8 SWAP1 PUSH2 0x1217 JUMP JUMPDEST PUSH1 0x40 MLOAD DUP1 SWAP2 SUB SWAP1 REVERT JUMPDEST PUSH0 CALLVALUE PUSH7 0x2386F26FC10000 PUSH2 0x9E5 SWAP2 SWAP1 PUSH2 0x1262 JUMP JUMPDEST SWAP1 POP CALLER PUSH20 0xFFFFFFFFFFFFFFFFFFFFFFFFFFFFFFFFFFFFFFFF AND BALANCE DUP2 LT ISZERO PUSH2 0xA41 JUMPI PUSH1 0x40 MLOAD PUSH32 0x8C379A000000000000000000000000000000000000000000000000000000000 DUP2 MSTORE PUSH1 0x4 ADD PUSH2 0xA38 SWAP1 PUSH2 0x12DF JUMP JUMPDEST PUSH1 0x40 MLOAD DUP1 SWAP2 SUB SWAP1 REVERT JUMPDEST CALLVALUE PUSH1 0x7 PUSH0 CALLER PUSH20 0xFFFFFFFFFFFFFFFFFFFFFFFFFFFFFFFFFFFFFFFF AND PUSH20 0xFFFFFFFFFFFFFFFFFFFFFFFFFFFFFFFFFFFFFFFF AND DUP2 MSTORE PUSH1 0x20 ADD SWAP1 DUP2 MSTORE PUSH1 0x20 ADD PUSH0 KECCAK256 DUP2 SWAP1 SSTORE POP CALLVALUE PUSH1 0x3 DUP2 SWAP1 SSTORE POP CALLER PUSH1 0x4 PUSH0 PUSH2 0x100 EXP DUP2 SLOAD DUP2 PUSH20 0xFFFFFFFFFFFFFFFFFFFFFFFFFFFFFFFFFFFFFFFF MUL NOT AND SWAP1 DUP4 PUSH20 0xFFFFFFFFFFFFFFFFFFFFFFFFFFFFFFFFFFFFFFFF AND MUL OR SWAP1 SSTORE POP PUSH32 0xE684A55F31B79ECA403DF938249029212A5925EC6BE8012E099B45BC1019E5D2 CALLER CALLVALUE PUSH1 0x40 MLOAD PUSH2 0xAFB SWAP3 SWAP2 SWAP1 PUSH2 0x12FD JUMP JUMPDEST PUSH1 0x40 MLOAD DUP1 SWAP2 SUB SWAP1 LOG1 POP JUMP JUMPDEST PUSH0 DUP2 SWAP1 POP SWAP2 SWAP1 POP JUMP JUMPDEST PUSH2 0xB18 DUP2 PUSH2 0xB06 JUMP JUMPDEST DUP3 MSTORE POP POP JUMP JUMPDEST PUSH0 PUSH1 0x20 DUP3 ADD SWAP1 POP PUSH2 0xB31 PUSH0 DUP4 ADD DUP5 PUSH2 0xB0F JUMP JUMPDEST SWAP3 SWAP2 POP POP JUMP JUMPDEST PUSH0 PUSH20 0xFFFFFFFFFFFFFFFFFFFFFFFFFFFFFFFFFFFFFFFF DUP3 AND SWAP1 POP SWAP2 SWAP1 POP JUMP JUMPDEST PUSH0 PUSH2 0xB60 DUP3 PUSH2 0xB37 JUMP JUMPDEST SWAP1 POP SWAP2 SWAP1 POP JUMP JUMPDEST PUSH2 0xB70 DUP2 PUSH2 0xB56 JUMP JUMPDEST DUP3 MSTORE POP POP JUMP JUMPDEST PUSH0 PUSH1 0x20 DUP3 ADD SWAP1 POP PUSH2 0xB89 PUSH0 DUP4 ADD DUP5 PUSH2 0xB67 JUMP JUMPDEST SWAP3 SWAP2 POP POP JUMP JUMPDEST PUSH0 DUP2 MLOAD SWAP1 POP SWAP2 SWAP1 POP JUMP JUMPDEST PUSH0 DUP3 DUP3 MSTORE PUSH1 0x20 DUP3 ADD SWAP1 POP SWAP3 SWAP2 POP POP JUMP JUMPDEST DUP3 DUP2 DUP4 MCOPY PUSH0 DUP4 DUP4 ADD MSTORE POP POP POP JUMP JUMPDEST PUSH0 PUSH1 0x1F NOT PUSH1 0x1F DUP4 ADD AND SWAP1 POP SWAP2 SWAP1 POP JUMP JUMPDEST PUSH0 PUSH2 0xBD1 DUP3 PUSH2 0xB8F JUMP JUMPDEST PUSH2 0xBDB DUP2 DUP6 PUSH2 0xB99 JUMP JUMPDEST SWAP4 POP PUSH2 0xBEB DUP2 DUP6 PUSH1 0x20 DUP7 ADD PUSH2 0xBA9 JUMP JUMPDEST PUSH2 0xBF4 DUP2 PUSH2 0xBB7 JUMP JUMPDEST DUP5 ADD SWAP2 POP POP SWAP3 SWAP2 POP POP JUMP JUMPDEST PUSH0 PUSH1 0x20 DUP3 ADD SWAP1 POP DUP2 DUP2 SUB PUSH0 DUP4 ADD MSTORE PUSH2 0xC17 DUP2 DUP5 PUSH2 0xBC7 JUMP JUMPDEST SWAP1 POP SWAP3 SWAP2 POP POP JUMP JUMPDEST PUSH32 0x4E6F206572657320656C2070726F706965746172696F2064656C206172746963 PUSH0 DUP3 ADD MSTORE PUSH32 0x756C6F0000000000000000000000000000000000000000000000000000000000 PUSH1 0x20 DUP3 ADD MSTORE POP JUMP JUMPDEST PUSH0 PUSH2 0xC79 PUSH1 0x23 DUP4 PUSH2 0xB99 JUMP JUMPDEST SWAP2 POP PUSH2 0xC84 DUP3 PUSH2 0xC1F JUMP JUMPDEST PUSH1 0x40 DUP3 ADD SWAP1 POP SWAP2 SWAP1 POP JUMP JUMPDEST PUSH0 PUSH1 0x20 DUP3 ADD SWAP1 POP DUP2 DUP2 SUB PUSH0 DUP4 ADD MSTORE PUSH2 0xCA6 DUP2 PUSH2 0xC6D JUMP JUMPDEST SWAP1 POP SWAP2 SWAP1 POP JUMP JUMPDEST PUSH32 0x4C612073756261737461206E6F2065737461206365727261646120746F646176 PUSH0 DUP3 ADD MSTORE PUSH32 0x6961000000000000000000000000000000000000000000000000000000000000 PUSH1 0x20 DUP3 ADD MSTORE POP JUMP JUMPDEST PUSH0 PUSH2 0xD07 PUSH1 0x22 DUP4 PUSH2 0xB99 JUMP JUMPDEST SWAP2 POP PUSH2 0xD12 DUP3 PUSH2 0xCAD JUMP JUMPDEST PUSH1 0x40 DUP3 ADD SWAP1 POP SWAP2 SWAP1 POP JUMP JUMPDEST PUSH0 PUSH1 0x20 DUP3 ADD SWAP1 POP DUP2 DUP2 SUB PUSH0 DUP4 ADD MSTORE PUSH2 0xD34 DUP2 PUSH2 0xCFB JUMP JUMPDEST SWAP1 POP SWAP2 SWAP1 POP JUMP JUMPDEST PUSH0 DUP2 SWAP1 POP SWAP3 SWAP2 POP POP JUMP JUMPDEST POP JUMP JUMPDEST PUSH0 PUSH2 0xD53 PUSH0 DUP4 PUSH2 0xD3B JUMP JUMPDEST SWAP2 POP PUSH2 0xD5E DUP3 PUSH2 0xD45 JUMP JUMPDEST PUSH0 DUP3 ADD SWAP1 POP SWAP2 SWAP1 POP JUMP JUMPDEST PUSH0 PUSH2 0xD72 DUP3 PUSH2 0xD48 JUMP JUMPDEST SWAP2 POP DUP2 SWAP1 POP SWAP2 SWAP1 POP JUMP JUMPDEST PUSH32 0x46616C6C6F20616C20656E7669617220666F6E646F7300000000000000000000 PUSH0 DUP3 ADD MSTORE POP JUMP JUMPDEST PUSH0 PUSH2 0xDB0 PUSH1 0x16 DUP4 PUSH2 0xB99 JUMP JUMPDEST SWAP2 POP PUSH2 0xDBB DUP3 PUSH2 0xD7C JUMP JUMPDEST PUSH1 0x20 DUP3 ADD SWAP1 POP SWAP2 SWAP1 POP JUMP JUMPDEST PUSH0 PUSH1 0x20 DUP3 ADD SWAP1 POP DUP2 DUP2 SUB PUSH0 DUP4 ADD MSTORE PUSH2 0xDDD DUP2 PUSH2 0xDA4 JUMP JUMPDEST SWAP1 POP SWAP2 SWAP1 POP JUMP JUMPDEST PUSH32 0x4C61207375626173746120746F64617669612065737461206162696572746100 PUSH0 DUP3 ADD MSTORE POP JUMP JUMPDEST PUSH0 PUSH2 0xE18 PUSH1 0x1F DUP4 PUSH2 0xB99 JUMP JUMPDEST SWAP2 POP PUSH2 0xE23 DUP3 PUSH2 0xDE4 JUMP JUMPDEST PUSH1 0x20 DUP3 ADD SWAP1 POP SWAP2 SWAP1 POP JUMP JUMPDEST PUSH0 PUSH1 0x20 DUP3 ADD SWAP1 POP DUP2 DUP2 SUB PUSH0 DUP4 ADD MSTORE PUSH2 0xE45 DUP2 PUSH2 0xE0C JUMP JUMPDEST SWAP1 POP SWAP2 SWAP1 POP JUMP JUMPDEST PUSH32 0x54752070756A61206573206C612067616E61646F72612E204E6F207075656465 PUSH0 DUP3 ADD MSTORE PUSH32 0x73207265637570657261726C6100000000000000000000000000000000000000 PUSH1 0x20 DUP3 ADD MSTORE POP JUMP JUMPDEST PUSH0 PUSH2 0xEA6 PUSH1 0x2D DUP4 PUSH2 0xB99 JUMP JUMPDEST SWAP2 POP PUSH2 0xEB1 DUP3 PUSH2 0xE4C JUMP JUMPDEST PUSH1 0x40 DUP3 ADD SWAP1 POP SWAP2 SWAP1 POP JUMP JUMPDEST PUSH0 PUSH1 0x20 DUP3 ADD SWAP1 POP DUP2 DUP2 SUB PUSH0 DUP4 ADD MSTORE PUSH2 0xED3 DUP2 PUSH2 0xE9A JUMP JUMPDEST SWAP1 POP SWAP2 SWAP1 POP JUMP JUMPDEST PUSH32 0x4E6F2070756A6173746520706F722065737465206172746963756C6F00000000 PUSH0 DUP3 ADD MSTORE POP JUMP JUMPDEST PUSH0 PUSH2 0xF0E PUSH1 0x1C DUP4 PUSH2 0xB99 JUMP JUMPDEST SWAP2 POP PUSH2 0xF19 DUP3 PUSH2 0xEDA JUMP JUMPDEST PUSH1 0x20 DUP3 ADD SWAP1 POP SWAP2 SWAP1 POP JUMP JUMPDEST PUSH0 PUSH1 0x20 DUP3 ADD SWAP1 POP DUP2 DUP2 SUB PUSH0 DUP4 ADD MSTORE PUSH2 0xF3B DUP2 PUSH2 0xF02 JUMP JUMPDEST SWAP1 POP SWAP2 SWAP1 POP JUMP JUMPDEST PUSH32 0x4E487B7100000000000000000000000000000000000000000000000000000000 PUSH0 MSTORE PUSH1 0x22 PUSH1 0x4 MSTORE PUSH1 0x24 PUSH0 REVERT JUMPDEST PUSH0 PUSH1 0x2 DUP3 DIV SWAP1 POP PUSH1 0x1 DUP3 AND DUP1 PUSH2 0xF86 JUMPI PUSH1 0x7F DUP3 AND SWAP2 POP JUMPDEST PUSH1 0x20 DUP3 LT DUP2 SUB PUSH2 0xF99 JUMPI PUSH2 0xF98 PUSH2 0xF42 JUMP JUMPDEST JUMPDEST POP SWAP2 SWAP1 POP JUMP JUMPDEST PUSH32 0x5375626173746120636572726164610000000000000000000000000000000000 PUSH0 DUP3 ADD MSTORE POP JUMP JUMPDEST PUSH0 PUSH2 0xFD3 PUSH1 0xF DUP4 PUSH2 0xB99 JUMP JUMPDEST SWAP2 POP PUSH2 0xFDE DUP3 PUSH2 0xF9F JUMP JUMPDEST PUSH1 0x20 DUP3 ADD SWAP1 POP SWAP2 SWAP1 POP JUMP JUMPDEST PUSH0 PUSH1 0x20 DUP3 ADD SWAP1 POP DUP2 DUP2 SUB PUSH0 DUP4 ADD MSTORE PUSH2 0x1000 DUP2 PUSH2 0xFC7 JUMP JUMPDEST SWAP1 POP SWAP2 SWAP1 POP JUMP JUMPDEST PUSH32 0x53696E20656E76696F2064652062544E42000000000000000000000000000000 PUSH0 DUP3 ADD MSTORE POP JUMP JUMPDEST PUSH0 PUSH2 0x103B PUSH1 0x11 DUP4 PUSH2 0xB99 JUMP JUMPDEST SWAP2 POP PUSH2 0x1046 DUP3 PUSH2 0x1007 JUMP JUMPDEST PUSH1 0x20 DUP3 ADD SWAP1 POP SWAP2 SWAP1 POP JUMP JUMPDEST PUSH0 PUSH1 0x20 DUP3 ADD SWAP1 POP DUP2 DUP2 SUB PUSH0 DUP4 ADD MSTORE PUSH2 0x1068 DUP2 PUSH2 0x102F JUMP JUMPDEST SWAP1 POP SWAP2 SWAP1 POP JUMP JUMPDEST PUSH32 0x456C2070726F706965746172696F206E6F2070756564652070756A6172000000 PUSH0 DUP3 ADD MSTORE POP JUMP JUMPDEST PUSH0 PUSH2 0x10A3 PUSH1 0x1D DUP4 PUSH2 0xB99 JUMP JUMPDEST SWAP2 POP PUSH2 0x10AE DUP3 PUSH2 0x106F JUMP JUMPDEST PUSH1 0x20 DUP3 ADD SWAP1 POP SWAP2 SWAP1 POP JUMP JUMPDEST PUSH0 PUSH1 0x20 DUP3 ADD SWAP1 POP DUP2 DUP2 SUB PUSH0 DUP4 ADD MSTORE PUSH2 0x10D0 DUP2 PUSH2 0x1097 JUMP JUMPDEST SWAP1 POP SWAP2 SWAP1 POP JUMP JUMPDEST PUSH32 0x5961207265616C697A6173746520756E612070756A6100000000000000000000 PUSH0 DUP3 ADD MSTORE POP JUMP JUMPDEST PUSH0 PUSH2 0x110B PUSH1 0x16 DUP4 PUSH2 0xB99 JUMP JUMPDEST SWAP2 POP PUSH2 0x1116 DUP3 PUSH2 0x10D7 JUMP JUMPDEST PUSH1 0x20 DUP3 ADD SWAP1 POP SWAP2 SWAP1 POP JUMP JUMPDEST PUSH0 PUSH1 0x20 DUP3 ADD SWAP1 POP DUP2 DUP2 SUB PUSH0 DUP4 ADD MSTORE PUSH2 0x1138 DUP2 PUSH2 0x10FF JUMP JUMPDEST SWAP1 POP SWAP2 SWAP1 POP JUMP JUMPDEST PUSH32 0x4C612070756A61206465626520736572206D61732061746120717565206C6120 PUSH0 DUP3 ADD MSTORE PUSH32 0x70756A61206D696E696D61000000000000000000000000000000000000000000 PUSH1 0x20 DUP3 ADD MSTORE POP JUMP JUMPDEST PUSH0 PUSH2 0x1199 PUSH1 0x2B DUP4 PUSH2 0xB99 JUMP JUMPDEST SWAP2 POP PUSH2 0x11A4 DUP3 PUSH2 0x113F JUMP JUMPDEST PUSH1 0x40 DUP3 ADD SWAP1 POP SWAP2 SWAP1 POP JUMP JUMPDEST PUSH0 PUSH1 0x20 DUP3 ADD SWAP1 POP DUP2 DUP2 SUB PUSH0 DUP4 ADD MSTORE PUSH2 0x11C6 DUP2 PUSH2 0x118D JUMP JUMPDEST SWAP1 POP SWAP2 SWAP1 POP JUMP JUMPDEST PUSH32 0x4C612070756A61206465626520736572206D617320616C746100000000000000 PUSH0 DUP3 ADD MSTORE POP JUMP JUMPDEST PUSH0 PUSH2 0x1201 PUSH1 0x19 DUP4 PUSH2 0xB99 JUMP JUMPDEST SWAP2 POP PUSH2 0x120C DUP3 PUSH2 0x11CD JUMP JUMPDEST PUSH1 0x20 DUP3 ADD SWAP1 POP SWAP2 SWAP1 POP JUMP JUMPDEST PUSH0 PUSH1 0x20 DUP3 ADD SWAP1 POP DUP2 DUP2 SUB PUSH0 DUP4 ADD MSTORE PUSH2 0x122E DUP2 PUSH2 0x11F5 JUMP JUMPDEST SWAP1 POP SWAP2 SWAP1 POP JUMP JUMPDEST PUSH32 0x4E487B7100000000000000000000000000000000000000000000000000000000 PUSH0 MSTORE PUSH1 0x11 PUSH1 0x4 MSTORE PUSH1 0x24 PUSH0 REVERT JUMPDEST PUSH0 PUSH2 0x126C DUP3 PUSH2 0xB06 JUMP JUMPDEST SWAP2 POP PUSH2 0x1277 DUP4 PUSH2 0xB06 JUMP JUMPDEST SWAP3 POP DUP3 DUP3 ADD SWAP1 POP DUP1 DUP3 GT ISZERO PUSH2 0x128F JUMPI PUSH2 0x128E PUSH2 0x1235 JUMP JUMPDEST JUMPDEST SWAP3 SWAP2 POP POP JUMP JUMPDEST PUSH32 0x4E6F207469656E65732073616C646F20737566696369656E7465000000000000 PUSH0 DUP3 ADD MSTORE POP JUMP JUMPDEST PUSH0 PUSH2 0x12C9 PUSH1 0x1A DUP4 PUSH2 0xB99 JUMP JUMPDEST SWAP2 POP PUSH2 0x12D4 DUP3 PUSH2 0x1295 JUMP JUMPDEST PUSH1 0x20 DUP3 ADD SWAP1 POP SWAP2 SWAP1 POP JUMP JUMPDEST PUSH0 PUSH1 0x20 DUP3 ADD SWAP1 POP DUP2 DUP2 SUB PUSH0 DUP4 ADD MSTORE PUSH2 0x12F6 DUP2 PUSH2 0x12BD JUMP JUMPDEST SWAP1 POP SWAP2 SWAP1 POP JUMP JUMPDEST PUSH0 PUSH1 0x40 DUP3 ADD SWAP1 POP PUSH2 0x1310 PUSH0 DUP4 ADD DUP6 PUSH2 0xB67 JUMP JUMPDEST PUSH2 0x131D PUSH1 0x20 DUP4 ADD DUP5 PUSH2 0xB0F JUMP JUMPDEST SWAP4 SWAP3 POP POP POP JUMP INVALID LOG2 PUSH5 0x6970667358 0x22 SLT KECCAK256 0xCA 0xC8 PUSH3 0x3F2D7B REVERT EXP PUSH19 0x335858EFC5F2229267E9B883F97A0EACA90E74 SLT PUSH32 0x27E064736F6C634300081E003300000000000000000000000000000000000000 "
				},
				"gasEstimates": {
					"creation": {
						"codeDepositCost": "990800",
						"executionCost": "infinite",
						"totalCost": "infinite"
					},
					"external": {
						"addressMaxBid()": "2575",
						"deadLine()": "2491",
						"description()": "infinite",
						"makeBid()": "infinite",
						"maxBid()": "2447",
						"minBid()": "2426",
						"owner()": "2551",
						"ownerWithdraw()": "infinite",
						"refund()": "infinite"
					}
				},
				"methodIdentifiers": {
					"addressMaxBid()": "6569ddf5",
					"deadLine()": "bef3a083",
					"description()": "7284e416",
					"makeBid()": "f30e3658",
					"maxBid()": "74b11d8a",
					"minBid()": "3e109a19",
					"owner()": "8da5cb5b",
					"ownerWithdraw()": "4311de8f",
					"refund()": "590e1ae3"
				}
			},
			"storageLayout": {
				"storage": [
					{
						"astId": 5,
						"contract": "contracts/subasta.sol:Subasta",
						"label": "owner",
						"offset": 0,
						"slot": "0",
						"type": "t_address"
					},
					{
						"astId": 7,
						"contract": "contracts/subasta.sol:Subasta",
						"label": "description",
						"offset": 0,
						"slot": "1",
						"type": "t_string_storage"
					},
					{
						"astId": 9,
						"contract": "contracts/subasta.sol:Subasta",
						"label": "minBid",
						"offset": 0,
						"slot": "2",
						"type": "t_uint256"
					},
					{
						"astId": 11,
						"contract": "contracts/subasta.sol:Subasta",
						"label": "maxBid",
						"offset": 0,
						"slot": "3",
						"type": "t_uint256"
					},
					{
						"astId": 13,
						"contract": "contracts/subasta.sol:Subasta",
						"label": "addressMaxBid",
						"offset": 0,
						"slot": "4",
						"type": "t_address"
					},
					{
						"astId": 15,
						"contract": "contracts/subasta.sol:Subasta",
						"label": "deadLine",
						"offset": 0,
						"slot": "5",
						"type": "t_uint256"
					},
					{
						"astId": 17,
						"contract": "contracts/subasta.sol:Subasta",
						"label": "bloqueado",
						"offset": 0,
						"slot": "6",
						"type": "t_bool"
					},
					{
						"astId": 21,
						"contract": "contracts/subasta.sol:Subasta",
						"label": "bids",
						"offset": 0,
						"slot": "7",
						"type": "t_mapping(t_address,t_uint256)"
					}
				],
				"types": {
					"t_address": {
						"encoding": "inplace",
						"label": "address",
						"numberOfBytes": "20"
					},
					"t_bool": {
						"encoding": "inplace",
						"label": "bool",
						"numberOfBytes": "1"
					},
					"t_mapping(t_address,t_uint256)": {
						"encoding": "mapping",
						"key": "t_address",
						"label": "mapping(address => uint256)",
						"numberOfBytes": "32",
						"value": "t_uint256"
					},
					"t_string_storage": {
						"encoding": "bytes",
						"label": "string",
						"numberOfBytes": "32"
					},
					"t_uint256": {
						"encoding": "inplace",
						"label": "uint256",
						"numberOfBytes": "32"
					}
				}
			},
			"userdoc": {
				"kind": "user",
				"methods": {
					"constructor": {
						"notice": "Crea la subasta"
					},
					"makeBid()": {
						"notice": "Realiza una puja"
					},
					"ownerWithdraw()": {
						"notice": "Recupera importe puja ganadora"
					},
					"refund()": {
						"notice": "Recupera la puja realizada"
					}
				},
				"version": 1
			}
		}
	}
}