{
	"contracts/subasta.sol": {
		"Subasta": {
			"abi": [
				{
					"inputs": [
						{
							"internalType": "string",
							"name": "_description",
							"type": "string"
						},
						{
							"internalType": "uint256",
							"name": "_minBid",
							"type": "uint256"
						},
						{
							"internalType": "uint256",
							"name": "_minutes",
							"type": "uint256"
						}
					],
					"stateMutability": "nonpayable",
					"type": "constructor"
				},
				{
					"inputs": [
						{
							"internalType": "address",
							"name": "bidder",
							"type": "address"
						}
					],
					"name": "AlreadyBid",
					"type": "error"
				},
				{
					"inputs": [
						{
							"internalType": "uint256",
							"name": "currentTime",
							"type": "uint256"
						},
						{
							"internalType": "uint256",
							"name": "deadline",
							"type": "uint256"
						}
					],
					"name": "AuctionEnded",
					"type": "error"
				},
				{
					"inputs": [
						{
							"internalType": "uint256",
							"name": "currentTime",
							"type": "uint256"
						},
						{
							"internalType": "uint256",
							"name": "deadline",
							"type": "uint256"
						}
					],
					"name": "AuctionNotEnded",
					"type": "error"
				},
				{
					"inputs": [
						{
							"internalType": "uint256",
							"name": "sent",
							"type": "uint256"
						},
						{
							"internalType": "uint256",
							"name": "minBid",
							"type": "uint256"
						}
					],
					"name": "BidTooLow",
					"type": "error"
				},
				{
					"inputs": [
						{
							"internalType": "uint256",
							"name": "senderBalance",
							"type": "uint256"
						},
						{
							"internalType": "uint256",
							"name": "required",
							"type": "uint256"
						}
					],
					"name": "InsufficientBalance",
					"type": "error"
				},
				{
					"inputs": [
						{
							"internalType": "address",
							"name": "maxBidder",
							"type": "address"
						}
					],
					"name": "MaxBidNotRefund",
					"type": "error"
				},
				{
					"inputs": [
						{
							"internalType": "address",
							"name": "bidder",
							"type": "address"
						}
					],
					"name": "NotBid",
					"type": "error"
				},
				{
					"inputs": [
						{
							"internalType": "uint256",
							"name": "sent",
							"type": "uint256"
						},
						{
							"internalType": "uint256",
							"name": "currentMax",
							"type": "uint256"
						}
					],
					"name": "NotHighestBid",
					"type": "error"
				},
				{
					"inputs": [
						{
							"internalType": "address",
							"name": "bidder",
							"type": "address"
						}
					],
					"name": "NotOwner",
					"type": "error"
				},
				{
					"inputs": [
						{
							"internalType": "address",
							"name": "bidder",
							"type": "address"
						},
						{
							"internalType": "uint256",
							"name": "amount",
							"type": "uint256"
						}
					],
					"name": "NotRefund",
					"type": "error"
				},
				{
					"inputs": [
						{
							"internalType": "address",
							"name": "bidder",
							"type": "address"
						},
						{
							"internalType": "uint256",
							"name": "amount",
							"type": "uint256"
						}
					],
					"name": "NotWithdraw",
					"type": "error"
				},
				{
					"inputs": [
						{
							"internalType": "address",
							"name": "owner",
							"type": "address"
						}
					],
					"name": "OwnerCannotBid",
					"type": "error"
				},
				{
					"anonymous": false,
					"inputs": [
						{
							"indexed": false,
							"internalType": "address",
							"name": "bidder",
							"type": "address"
						},
						{
							"indexed": false,
							"internalType": "uint256",
							"name": "amount",
							"type": "uint256"
						}
					],
					"name": "Bid",
					"type": "event"
				},
				{
					"inputs": [],
					"name": "addressMaxBid",
					"outputs": [
						{
							"internalType": "address",
							"name": "",
							"type": "address"
						}
					],
					"stateMutability": "view",
					"type": "function"
				},
				{
					"inputs": [],
					"name": "deadLine",
					"outputs": [
						{
							"internalType": "uint256",
							"name": "",
							"type": "uint256"
						}
					],
					"stateMutability": "view",
					"type": "function"
				},
				{
					"inputs": [],
					"name": "description",
					"outputs": [
						{
							"internalType": "string",
							"name": "",
							"type": "string"
						}
					],
					"stateMutability": "view",
					"type": "function"
				},
				{
					"inputs": [],
					"name": "isActive",
					"outputs": [
						{
							"internalType": "bool",
							"name": "",
							"type": "bool"
						}
					],
					"stateMutability": "view",
					"type": "function"
				},
				{
					"inputs": [],
					"name": "makeBid",
					"outputs": [],
					"stateMutability": "payable",
					"type": "function"
				},
				{
					"inputs": [],
					"name": "maxBid",
					"outputs": [
						{
							"internalType": "uint256",
							"name": "",
							"type": "uint256"
						}
					],
					"stateMutability": "view",
					"type": "function"
				},
				{
					"inputs": [],
					"name": "minBid",
					"outputs": [
						{
							"internalType": "uint256",
							"name": "",
							"type": "uint256"
						}
					],
					"stateMutability": "view",
					"type": "function"
				},
				{
					"inputs": [],
					"name": "numBids",
					"outputs": [
						{
							"internalType": "uint256",
							"name": "",
							"type": "uint256"
						}
					],
					"stateMutability": "view",
					"type": "function"
				},
				{
					"inputs": [],
					"name": "owner",
					"outputs": [
						{
							"internalType": "address",
							"name": "",
							"type": "address"
						}
					],
					"stateMutability": "view",
					"type": "function"
				},
				{
					"inputs": [],
					"name": "ownerWithdraw",
					"outputs": [],
					"stateMutability": "nonpayable",
					"type": "function"
				},
				{
					"inputs": [],
					"name": "refund",
					"outputs": [],
					"stateMutability": "nonpayable",
					"type": "function"
				}
			],
			"devdoc": {
				"details": "Permite pujar por un artículo durante un tiempo limitado.",
				"kind": "dev",
				"methods": {
					"constructor": {
						"params": {
							"_description": "Artículo a subastar.",
							"_minBid": "Monto de la puja mínima inicial en wei.",
							"_minutes": "Duración de la subasta en minutos."
						}
					},
					"makeBid()": {
						"details": "La puja debe ser mayor que la actual."
					},
					"ownerWithdraw()": {
						"details": "Solo si la subasta está terminada y es el propietario."
					},
					"refund()": {
						"details": "Solo si la subasta está terminada y no es la puja ganadora."
					}
				},
				"title": "Subasta simple",
				"version": 1
			},
			"evm": {
				"assembly": "    /* \"contracts/subasta.sol\":158:5549  contract Subasta {... */\n  mstore(0x40, 0x80)\n    /* \"contracts/subasta.sol\":205:247  0xF55301514c27489Fde7C9cd9A3EA8044E7E04579 */\n  0xf55301514c27489fde7c9cd9a3ea8044e7e04579\n    /* \"contracts/subasta.sol\":181:247  address public  owner = 0xF55301514c27489Fde7C9cd9A3EA8044E7E04579 */\n  0x00\n  exp(0x0100, 0x00)\n  dup2\n  sload\n  dup2\n  0xffffffffffffffffffffffffffffffffffffffff\n  mul\n  not\n  and\n  swap1\n  dup4\n  0xffffffffffffffffffffffffffffffffffffffff\n  and\n  mul\n  or\n  swap1\n  sstore\n  pop\n    /* \"contracts/subasta.sol\":1487:1738  constructor (string memory _description, uint256 _minBid, uint256 _minutes) {... */\n  callvalue\n  dup1\n  iszero\n  tag_1\n  jumpi\n  revert(0x00, 0x00)\ntag_1:\n  pop\n  mload(0x40)\n  sub(codesize, bytecodeSize)\n  dup1\n  bytecodeSize\n  dup4\n  codecopy\n  dup2\n  dup2\n  add\n  0x40\n  mstore\n  dup2\n  add\n  swap1\n  tag_2\n  swap2\n  swap1\n  tag_3\n  jump\t// in\ntag_2:\n    /* \"contracts/subasta.sol\":1587:1599  _description */\n  dup3\n    /* \"contracts/subasta.sol\":1573:1584  description */\n  0x01\n    /* \"contracts/subasta.sol\":1573:1599  description = _description */\n  swap1\n  dup2\n  tag_6\n  swap2\n  swap1\n  tag_7\n  jump\t// in\ntag_6:\n  pop\n    /* \"contracts/subasta.sol\":1618:1625  _minBid */\n  dup2\n    /* \"contracts/subasta.sol\":1609:1615  minBid */\n  0x02\n    /* \"contracts/subasta.sol\":1609:1625  minBid = _minBid */\n  dup2\n  swap1\n  sstore\n  pop\n    /* \"contracts/subasta.sol\":1644:1651  _minBid */\n  dup2\n    /* \"contracts/subasta.sol\":1635:1641  maxBid */\n  0x03\n    /* \"contracts/subasta.sol\":1635:1651  maxBid = _minBid */\n  dup2\n  swap1\n  sstore\n  pop\n    /* \"contracts/subasta.sol\":1701:1710  1 minutes */\n  0x3c\n    /* \"contracts/subasta.sol\":1690:1698  _minutes */\n  dup2\n    /* \"contracts/subasta.sol\":1690:1710  _minutes * 1 minutes */\n  tag_8\n  swap2\n  swap1\n  tag_9\n  jump\t// in\ntag_8:\n    /* \"contracts/subasta.sol\":1672:1687  block.timestamp */\n  timestamp\n    /* \"contracts/subasta.sol\":1672:1710  block.timestamp + _minutes * 1 minutes */\n  tag_10\n  swap2\n  swap1\n  tag_11\n  jump\t// in\ntag_10:\n    /* \"contracts/subasta.sol\":1661:1669  deadLine */\n  0x05\n    /* \"contracts/subasta.sol\":1661:1710  deadLine = block.timestamp + _minutes * 1 minutes */\n  dup2\n  swap1\n  sstore\n  pop\n    /* \"contracts/subasta.sol\":1730:1731  0 */\n  0x00\n    /* \"contracts/subasta.sol\":1720:1727  numBids */\n  0x06\n    /* \"contracts/subasta.sol\":1720:1731  numBids = 0 */\n  dup2\n  swap1\n  sstore\n  pop\n    /* \"contracts/subasta.sol\":1487:1738  constructor (string memory _description, uint256 _minBid, uint256 _minutes) {... */\n  pop\n  pop\n  pop\n    /* \"contracts/subasta.sol\":158:5549  contract Subasta {... */\n  jump(tag_12)\n    /* \"#utility.yul\":7:82   */\ntag_13:\n    /* \"#utility.yul\":40:46   */\n  0x00\n    /* \"#utility.yul\":73:75   */\n  0x40\n    /* \"#utility.yul\":67:76   */\n  mload\n    /* \"#utility.yul\":57:76   */\n  swap1\n  pop\n    /* \"#utility.yul\":7:82   */\n  swap1\n  jump\t// out\n    /* \"#utility.yul\":88:205   */\ntag_14:\n    /* \"#utility.yul\":197:198   */\n  0x00\n    /* \"#utility.yul\":194:195   */\n  0x00\n    /* \"#utility.yul\":187:199   */\n  revert\n    /* \"#utility.yul\":211:328   */\ntag_15:\n    /* \"#utility.yul\":320:321   */\n  0x00\n    /* \"#utility.yul\":317:318   */\n  0x00\n    /* \"#utility.yul\":310:322   */\n  revert\n    /* \"#utility.yul\":334:451   */\ntag_16:\n    /* \"#utility.yul\":443:444   */\n  0x00\n    /* \"#utility.yul\":440:441   */\n  0x00\n    /* \"#utility.yul\":433:445   */\n  revert\n    /* \"#utility.yul\":457:574   */\ntag_17:\n    /* \"#utility.yul\":566:567   */\n  0x00\n    /* \"#utility.yul\":563:564   */\n  0x00\n    /* \"#utility.yul\":556:568   */\n  revert\n    /* \"#utility.yul\":580:682   */\ntag_18:\n    /* \"#utility.yul\":621:627   */\n  0x00\n    /* \"#utility.yul\":672:674   */\n  0x1f\n    /* \"#utility.yul\":668:675   */\n  not\n    /* \"#utility.yul\":663:665   */\n  0x1f\n    /* \"#utility.yul\":656:661   */\n  dup4\n    /* \"#utility.yul\":652:666   */\n  add\n    /* \"#utility.yul\":648:676   */\n  and\n    /* \"#utility.yul\":638:676   */\n  swap1\n  pop\n    /* \"#utility.yul\":580:682   */\n  swap2\n  swap1\n  pop\n  jump\t// out\n    /* \"#utility.yul\":688:868   */\ntag_19:\n    /* \"#utility.yul\":736:813   */\n  0x4e487b7100000000000000000000000000000000000000000000000000000000\n    /* \"#utility.yul\":733:734   */\n  0x00\n    /* \"#utility.yul\":726:814   */\n  mstore\n    /* \"#utility.yul\":833:837   */\n  0x41\n    /* \"#utility.yul\":830:831   */\n  0x04\n    /* \"#utility.yul\":823:838   */\n  mstore\n    /* \"#utility.yul\":857:861   */\n  0x24\n    /* \"#utility.yul\":854:855   */\n  0x00\n    /* \"#utility.yul\":847:862   */\n  revert\n    /* \"#utility.yul\":874:1155   */\ntag_20:\n    /* \"#utility.yul\":957:984   */\n  tag_57\n    /* \"#utility.yul\":979:983   */\n  dup3\n    /* \"#utility.yul\":957:984   */\n  tag_18\n  jump\t// in\ntag_57:\n    /* \"#utility.yul\":949:955   */\n  dup2\n    /* \"#utility.yul\":945:985   */\n  add\n    /* \"#utility.yul\":1087:1093   */\n  dup2\n    /* \"#utility.yul\":1075:1085   */\n  dup2\n    /* \"#utility.yul\":1072:1094   */\n  lt\n    /* \"#utility.yul\":1051:1069   */\n  0xffffffffffffffff\n    /* \"#utility.yul\":1039:1049   */\n  dup3\n    /* \"#utility.yul\":1036:1070   */\n  gt\n    /* \"#utility.yul\":1033:1095   */\n  or\n    /* \"#utility.yul\":1030:1118   */\n  iszero\n  tag_58\n  jumpi\n    /* \"#utility.yul\":1098:1116   */\n  tag_59\n  tag_19\n  jump\t// in\ntag_59:\n    /* \"#utility.yul\":1030:1118   */\ntag_58:\n    /* \"#utility.yul\":1138:1148   */\n  dup1\n    /* \"#utility.yul\":1134:1136   */\n  0x40\n    /* \"#utility.yul\":1127:1149   */\n  mstore\n    /* \"#utility.yul\":917:1155   */\n  pop\n    /* \"#utility.yul\":874:1155   */\n  pop\n  pop\n  jump\t// out\n    /* \"#utility.yul\":1161:1290   */\ntag_21:\n    /* \"#utility.yul\":1195:1201   */\n  0x00\n    /* \"#utility.yul\":1222:1242   */\n  tag_61\n  tag_13\n  jump\t// in\ntag_61:\n    /* \"#utility.yul\":1212:1242   */\n  swap1\n  pop\n    /* \"#utility.yul\":1251:1284   */\n  tag_62\n    /* \"#utility.yul\":1279:1283   */\n  dup3\n    /* \"#utility.yul\":1271:1277   */\n  dup3\n    /* \"#utility.yul\":1251:1284   */\n  tag_20\n  jump\t// in\ntag_62:\n    /* \"#utility.yul\":1161:1290   */\n  swap2\n  swap1\n  pop\n  jump\t// out\n    /* \"#utility.yul\":1296:1604   */\ntag_22:\n    /* \"#utility.yul\":1358:1362   */\n  0x00\n    /* \"#utility.yul\":1448:1466   */\n  0xffffffffffffffff\n    /* \"#utility.yul\":1440:1446   */\n  dup3\n    /* \"#utility.yul\":1437:1467   */\n  gt\n    /* \"#utility.yul\":1434:1490   */\n  iszero\n  tag_64\n  jumpi\n    /* \"#utility.yul\":1470:1488   */\n  tag_65\n  tag_19\n  jump\t// in\ntag_65:\n    /* \"#utility.yul\":1434:1490   */\ntag_64:\n    /* \"#utility.yul\":1508:1537   */\n  tag_66\n    /* \"#utility.yul\":1530:1536   */\n  dup3\n    /* \"#utility.yul\":1508:1537   */\n  tag_18\n  jump\t// in\ntag_66:\n    /* \"#utility.yul\":1500:1537   */\n  swap1\n  pop\n    /* \"#utility.yul\":1592:1596   */\n  0x20\n    /* \"#utility.yul\":1586:1590   */\n  dup2\n    /* \"#utility.yul\":1582:1597   */\n  add\n    /* \"#utility.yul\":1574:1597   */\n  swap1\n  pop\n    /* \"#utility.yul\":1296:1604   */\n  swap2\n  swap1\n  pop\n  jump\t// out\n    /* \"#utility.yul\":1610:1749   */\ntag_23:\n    /* \"#utility.yul\":1699:1705   */\n  dup3\n    /* \"#utility.yul\":1694:1697   */\n  dup2\n    /* \"#utility.yul\":1689:1692   */\n  dup4\n    /* \"#utility.yul\":1683:1706   */\n  mcopy\n    /* \"#utility.yul\":1740:1741   */\n  0x00\n    /* \"#utility.yul\":1731:1737   */\n  dup4\n    /* \"#utility.yul\":1726:1729   */\n  dup4\n    /* \"#utility.yul\":1722:1738   */\n  add\n    /* \"#utility.yul\":1715:1742   */\n  mstore\n    /* \"#utility.yul\":1610:1749   */\n  pop\n  pop\n  pop\n  jump\t// out\n    /* \"#utility.yul\":1755:2189   */\ntag_24:\n    /* \"#utility.yul\":1844:1849   */\n  0x00\n    /* \"#utility.yul\":1869:1935   */\n  tag_69\n    /* \"#utility.yul\":1885:1934   */\n  tag_70\n    /* \"#utility.yul\":1927:1933   */\n  dup5\n    /* \"#utility.yul\":1885:1934   */\n  tag_22\n  jump\t// in\ntag_70:\n    /* \"#utility.yul\":1869:1935   */\n  tag_21\n  jump\t// in\ntag_69:\n    /* \"#utility.yul\":1860:1935   */\n  swap1\n  pop\n    /* \"#utility.yul\":1958:1964   */\n  dup3\n    /* \"#utility.yul\":1951:1956   */\n  dup2\n    /* \"#utility.yul\":1944:1965   */\n  mstore\n    /* \"#utility.yul\":1996:2000   */\n  0x20\n    /* \"#utility.yul\":1989:1994   */\n  dup2\n    /* \"#utility.yul\":1985:2001   */\n  add\n    /* \"#utility.yul\":2034:2037   */\n  dup5\n    /* \"#utility.yul\":2025:2031   */\n  dup5\n    /* \"#utility.yul\":2020:2023   */\n  dup5\n    /* \"#utility.yul\":2016:2032   */\n  add\n    /* \"#utility.yul\":2013:2038   */\n  gt\n    /* \"#utility.yul\":2010:2122   */\n  iszero\n  tag_71\n  jumpi\n    /* \"#utility.yul\":2041:2120   */\n  tag_72\n  tag_17\n  jump\t// in\ntag_72:\n    /* \"#utility.yul\":2010:2122   */\ntag_71:\n    /* \"#utility.yul\":2131:2183   */\n  tag_73\n    /* \"#utility.yul\":2176:2182   */\n  dup5\n    /* \"#utility.yul\":2171:2174   */\n  dup3\n    /* \"#utility.yul\":2166:2169   */\n  dup6\n    /* \"#utility.yul\":2131:2183   */\n  tag_23\n  jump\t// in\ntag_73:\n    /* \"#utility.yul\":1850:2189   */\n  pop\n    /* \"#utility.yul\":1755:2189   */\n  swap4\n  swap3\n  pop\n  pop\n  pop\n  jump\t// out\n    /* \"#utility.yul\":2209:2564   */\ntag_25:\n    /* \"#utility.yul\":2276:2281   */\n  0x00\n    /* \"#utility.yul\":2325:2328   */\n  dup3\n    /* \"#utility.yul\":2318:2322   */\n  0x1f\n    /* \"#utility.yul\":2310:2316   */\n  dup4\n    /* \"#utility.yul\":2306:2323   */\n  add\n    /* \"#utility.yul\":2302:2329   */\n  slt\n    /* \"#utility.yul\":2292:2414   */\n  tag_75\n  jumpi\n    /* \"#utility.yul\":2333:2412   */\n  tag_76\n  tag_16\n  jump\t// in\ntag_76:\n    /* \"#utility.yul\":2292:2414   */\ntag_75:\n    /* \"#utility.yul\":2443:2449   */\n  dup2\n    /* \"#utility.yul\":2437:2450   */\n  mload\n    /* \"#utility.yul\":2468:2558   */\n  tag_77\n    /* \"#utility.yul\":2554:2557   */\n  dup5\n    /* \"#utility.yul\":2546:2552   */\n  dup3\n    /* \"#utility.yul\":2539:2543   */\n  0x20\n    /* \"#utility.yul\":2531:2537   */\n  dup7\n    /* \"#utility.yul\":2527:2544   */\n  add\n    /* \"#utility.yul\":2468:2558   */\n  tag_24\n  jump\t// in\ntag_77:\n    /* \"#utility.yul\":2459:2558   */\n  swap2\n  pop\n    /* \"#utility.yul\":2282:2564   */\n  pop\n    /* \"#utility.yul\":2209:2564   */\n  swap3\n  swap2\n  pop\n  pop\n  jump\t// out\n    /* \"#utility.yul\":2570:2647   */\ntag_26:\n    /* \"#utility.yul\":2607:2614   */\n  0x00\n    /* \"#utility.yul\":2636:2641   */\n  dup2\n    /* \"#utility.yul\":2625:2641   */\n  swap1\n  pop\n    /* \"#utility.yul\":2570:2647   */\n  swap2\n  swap1\n  pop\n  jump\t// out\n    /* \"#utility.yul\":2653:2775   */\ntag_27:\n    /* \"#utility.yul\":2726:2750   */\n  tag_80\n    /* \"#utility.yul\":2744:2749   */\n  dup2\n    /* \"#utility.yul\":2726:2750   */\n  tag_26\n  jump\t// in\ntag_80:\n    /* \"#utility.yul\":2719:2724   */\n  dup2\n    /* \"#utility.yul\":2716:2751   */\n  eq\n    /* \"#utility.yul\":2706:2769   */\n  tag_81\n  jumpi\n    /* \"#utility.yul\":2765:2766   */\n  0x00\n    /* \"#utility.yul\":2762:2763   */\n  0x00\n    /* \"#utility.yul\":2755:2767   */\n  revert\n    /* \"#utility.yul\":2706:2769   */\ntag_81:\n    /* \"#utility.yul\":2653:2775   */\n  pop\n  jump\t// out\n    /* \"#utility.yul\":2781:2924   */\ntag_28:\n    /* \"#utility.yul\":2838:2843   */\n  0x00\n    /* \"#utility.yul\":2869:2875   */\n  dup2\n    /* \"#utility.yul\":2863:2876   */\n  mload\n    /* \"#utility.yul\":2854:2876   */\n  swap1\n  pop\n    /* \"#utility.yul\":2885:2918   */\n  tag_83\n    /* \"#utility.yul\":2912:2917   */\n  dup2\n    /* \"#utility.yul\":2885:2918   */\n  tag_27\n  jump\t// in\ntag_83:\n    /* \"#utility.yul\":2781:2924   */\n  swap3\n  swap2\n  pop\n  pop\n  jump\t// out\n    /* \"#utility.yul\":2930:3766   */\ntag_3:\n    /* \"#utility.yul\":3028:3034   */\n  0x00\n    /* \"#utility.yul\":3036:3042   */\n  0x00\n    /* \"#utility.yul\":3044:3050   */\n  0x00\n    /* \"#utility.yul\":3093:3095   */\n  0x60\n    /* \"#utility.yul\":3081:3090   */\n  dup5\n    /* \"#utility.yul\":3072:3079   */\n  dup7\n    /* \"#utility.yul\":3068:3091   */\n  sub\n    /* \"#utility.yul\":3064:3096   */\n  slt\n    /* \"#utility.yul\":3061:3180   */\n  iszero\n  tag_85\n  jumpi\n    /* \"#utility.yul\":3099:3178   */\n  tag_86\n  tag_14\n  jump\t// in\ntag_86:\n    /* \"#utility.yul\":3061:3180   */\ntag_85:\n    /* \"#utility.yul\":3240:3241   */\n  0x00\n    /* \"#utility.yul\":3229:3238   */\n  dup5\n    /* \"#utility.yul\":3225:3242   */\n  add\n    /* \"#utility.yul\":3219:3243   */\n  mload\n    /* \"#utility.yul\":3270:3288   */\n  0xffffffffffffffff\n    /* \"#utility.yul\":3262:3268   */\n  dup2\n    /* \"#utility.yul\":3259:3289   */\n  gt\n    /* \"#utility.yul\":3256:3373   */\n  iszero\n  tag_87\n  jumpi\n    /* \"#utility.yul\":3292:3371   */\n  tag_88\n  tag_15\n  jump\t// in\ntag_88:\n    /* \"#utility.yul\":3256:3373   */\ntag_87:\n    /* \"#utility.yul\":3397:3471   */\n  tag_89\n    /* \"#utility.yul\":3463:3470   */\n  dup7\n    /* \"#utility.yul\":3454:3460   */\n  dup3\n    /* \"#utility.yul\":3443:3452   */\n  dup8\n    /* \"#utility.yul\":3439:3461   */\n  add\n    /* \"#utility.yul\":3397:3471   */\n  tag_25\n  jump\t// in\ntag_89:\n    /* \"#utility.yul\":3387:3471   */\n  swap4\n  pop\n    /* \"#utility.yul\":3190:3481   */\n  pop\n    /* \"#utility.yul\":3520:3522   */\n  0x20\n    /* \"#utility.yul\":3546:3610   */\n  tag_90\n    /* \"#utility.yul\":3602:3609   */\n  dup7\n    /* \"#utility.yul\":3593:3599   */\n  dup3\n    /* \"#utility.yul\":3582:3591   */\n  dup8\n    /* \"#utility.yul\":3578:3600   */\n  add\n    /* \"#utility.yul\":3546:3610   */\n  tag_28\n  jump\t// in\ntag_90:\n    /* \"#utility.yul\":3536:3610   */\n  swap3\n  pop\n    /* \"#utility.yul\":3491:3620   */\n  pop\n    /* \"#utility.yul\":3659:3661   */\n  0x40\n    /* \"#utility.yul\":3685:3749   */\n  tag_91\n    /* \"#utility.yul\":3741:3748   */\n  dup7\n    /* \"#utility.yul\":3732:3738   */\n  dup3\n    /* \"#utility.yul\":3721:3730   */\n  dup8\n    /* \"#utility.yul\":3717:3739   */\n  add\n    /* \"#utility.yul\":3685:3749   */\n  tag_28\n  jump\t// in\ntag_91:\n    /* \"#utility.yul\":3675:3749   */\n  swap2\n  pop\n    /* \"#utility.yul\":3630:3759   */\n  pop\n    /* \"#utility.yul\":2930:3766   */\n  swap3\n  pop\n  swap3\n  pop\n  swap3\n  jump\t// out\n    /* \"#utility.yul\":3772:3871   */\ntag_29:\n    /* \"#utility.yul\":3824:3830   */\n  0x00\n    /* \"#utility.yul\":3858:3863   */\n  dup2\n    /* \"#utility.yul\":3852:3864   */\n  mload\n    /* \"#utility.yul\":3842:3864   */\n  swap1\n  pop\n    /* \"#utility.yul\":3772:3871   */\n  swap2\n  swap1\n  pop\n  jump\t// out\n    /* \"#utility.yul\":3877:4057   */\ntag_30:\n    /* \"#utility.yul\":3925:4002   */\n  0x4e487b7100000000000000000000000000000000000000000000000000000000\n    /* \"#utility.yul\":3922:3923   */\n  0x00\n    /* \"#utility.yul\":3915:4003   */\n  mstore\n    /* \"#utility.yul\":4022:4026   */\n  0x22\n    /* \"#utility.yul\":4019:4020   */\n  0x04\n    /* \"#utility.yul\":4012:4027   */\n  mstore\n    /* \"#utility.yul\":4046:4050   */\n  0x24\n    /* \"#utility.yul\":4043:4044   */\n  0x00\n    /* \"#utility.yul\":4036:4051   */\n  revert\n    /* \"#utility.yul\":4063:4383   */\ntag_31:\n    /* \"#utility.yul\":4107:4113   */\n  0x00\n    /* \"#utility.yul\":4144:4145   */\n  0x02\n    /* \"#utility.yul\":4138:4142   */\n  dup3\n    /* \"#utility.yul\":4134:4146   */\n  div\n    /* \"#utility.yul\":4124:4146   */\n  swap1\n  pop\n    /* \"#utility.yul\":4191:4192   */\n  0x01\n    /* \"#utility.yul\":4185:4189   */\n  dup3\n    /* \"#utility.yul\":4181:4193   */\n  and\n    /* \"#utility.yul\":4212:4230   */\n  dup1\n    /* \"#utility.yul\":4202:4283   */\n  tag_95\n  jumpi\n    /* \"#utility.yul\":4268:4272   */\n  0x7f\n    /* \"#utility.yul\":4260:4266   */\n  dup3\n    /* \"#utility.yul\":4256:4273   */\n  and\n    /* \"#utility.yul\":4246:4273   */\n  swap2\n  pop\n    /* \"#utility.yul\":4202:4283   */\ntag_95:\n    /* \"#utility.yul\":4330:4332   */\n  0x20\n    /* \"#utility.yul\":4322:4328   */\n  dup3\n    /* \"#utility.yul\":4319:4333   */\n  lt\n    /* \"#utility.yul\":4299:4317   */\n  dup2\n    /* \"#utility.yul\":4296:4334   */\n  sub\n    /* \"#utility.yul\":4293:4377   */\n  tag_96\n  jumpi\n    /* \"#utility.yul\":4349:4367   */\n  tag_97\n  tag_30\n  jump\t// in\ntag_97:\n    /* \"#utility.yul\":4293:4377   */\ntag_96:\n    /* \"#utility.yul\":4114:4383   */\n  pop\n    /* \"#utility.yul\":4063:4383   */\n  swap2\n  swap1\n  pop\n  jump\t// out\n    /* \"#utility.yul\":4389:4530   */\ntag_32:\n    /* \"#utility.yul\":4438:4442   */\n  0x00\n    /* \"#utility.yul\":4461:4464   */\n  dup2\n    /* \"#utility.yul\":4453:4464   */\n  swap1\n  pop\n    /* \"#utility.yul\":4484:4487   */\n  dup2\n    /* \"#utility.yul\":4481:4482   */\n  0x00\n    /* \"#utility.yul\":4474:4488   */\n  mstore\n    /* \"#utility.yul\":4518:4522   */\n  0x20\n    /* \"#utility.yul\":4515:4516   */\n  0x00\n    /* \"#utility.yul\":4505:4523   */\n  keccak256\n    /* \"#utility.yul\":4497:4523   */\n  swap1\n  pop\n    /* \"#utility.yul\":4389:4530   */\n  swap2\n  swap1\n  pop\n  jump\t// out\n    /* \"#utility.yul\":4536:4629   */\ntag_33:\n    /* \"#utility.yul\":4573:4579   */\n  0x00\n    /* \"#utility.yul\":4620:4622   */\n  0x20\n    /* \"#utility.yul\":4615:4617   */\n  0x1f\n    /* \"#utility.yul\":4608:4613   */\n  dup4\n    /* \"#utility.yul\":4604:4618   */\n  add\n    /* \"#utility.yul\":4600:4623   */\n  div\n    /* \"#utility.yul\":4590:4623   */\n  swap1\n  pop\n    /* \"#utility.yul\":4536:4629   */\n  swap2\n  swap1\n  pop\n  jump\t// out\n    /* \"#utility.yul\":4635:4742   */\ntag_34:\n    /* \"#utility.yul\":4679:4687   */\n  0x00\n    /* \"#utility.yul\":4729:4734   */\n  dup3\n    /* \"#utility.yul\":4723:4727   */\n  dup3\n    /* \"#utility.yul\":4719:4735   */\n  shl\n    /* \"#utility.yul\":4698:4735   */\n  swap1\n  pop\n    /* \"#utility.yul\":4635:4742   */\n  swap3\n  swap2\n  pop\n  pop\n  jump\t// out\n    /* \"#utility.yul\":4748:5141   */\ntag_35:\n    /* \"#utility.yul\":4817:4823   */\n  0x00\n    /* \"#utility.yul\":4867:4868   */\n  0x08\n    /* \"#utility.yul\":4855:4865   */\n  dup4\n    /* \"#utility.yul\":4851:4869   */\n  mul\n    /* \"#utility.yul\":4890:4987   */\n  tag_102\n    /* \"#utility.yul\":4920:4986   */\n  0xffffffffffffffffffffffffffffffffffffffffffffffffffffffffffffffff\n    /* \"#utility.yul\":4909:4918   */\n  dup3\n    /* \"#utility.yul\":4890:4987   */\n  tag_34\n  jump\t// in\ntag_102:\n    /* \"#utility.yul\":5008:5047   */\n  tag_103\n    /* \"#utility.yul\":5038:5046   */\n  dup7\n    /* \"#utility.yul\":5027:5036   */\n  dup4\n    /* \"#utility.yul\":5008:5047   */\n  tag_34\n  jump\t// in\ntag_103:\n    /* \"#utility.yul\":4996:5047   */\n  swap6\n  pop\n    /* \"#utility.yul\":5080:5084   */\n  dup1\n    /* \"#utility.yul\":5076:5085   */\n  not\n    /* \"#utility.yul\":5069:5074   */\n  dup5\n    /* \"#utility.yul\":5065:5086   */\n  and\n    /* \"#utility.yul\":5056:5086   */\n  swap4\n  pop\n    /* \"#utility.yul\":5129:5133   */\n  dup1\n    /* \"#utility.yul\":5119:5127   */\n  dup7\n    /* \"#utility.yul\":5115:5134   */\n  and\n    /* \"#utility.yul\":5108:5113   */\n  dup5\n    /* \"#utility.yul\":5105:5135   */\n  or\n    /* \"#utility.yul\":5095:5135   */\n  swap3\n  pop\n    /* \"#utility.yul\":4824:5141   */\n  pop\n  pop\n    /* \"#utility.yul\":4748:5141   */\n  swap4\n  swap3\n  pop\n  pop\n  pop\n  jump\t// out\n    /* \"#utility.yul\":5147:5207   */\ntag_36:\n    /* \"#utility.yul\":5175:5178   */\n  0x00\n    /* \"#utility.yul\":5196:5201   */\n  dup2\n    /* \"#utility.yul\":5189:5201   */\n  swap1\n  pop\n    /* \"#utility.yul\":5147:5207   */\n  swap2\n  swap1\n  pop\n  jump\t// out\n    /* \"#utility.yul\":5213:5355   */\ntag_37:\n    /* \"#utility.yul\":5263:5272   */\n  0x00\n    /* \"#utility.yul\":5296:5349   */\n  tag_106\n    /* \"#utility.yul\":5314:5348   */\n  tag_107\n    /* \"#utility.yul\":5323:5347   */\n  tag_108\n    /* \"#utility.yul\":5341:5346   */\n  dup5\n    /* \"#utility.yul\":5323:5347   */\n  tag_26\n  jump\t// in\ntag_108:\n    /* \"#utility.yul\":5314:5348   */\n  tag_36\n  jump\t// in\ntag_107:\n    /* \"#utility.yul\":5296:5349   */\n  tag_26\n  jump\t// in\ntag_106:\n    /* \"#utility.yul\":5283:5349   */\n  swap1\n  pop\n    /* \"#utility.yul\":5213:5355   */\n  swap2\n  swap1\n  pop\n  jump\t// out\n    /* \"#utility.yul\":5361:5436   */\ntag_38:\n    /* \"#utility.yul\":5404:5407   */\n  0x00\n    /* \"#utility.yul\":5425:5430   */\n  dup2\n    /* \"#utility.yul\":5418:5430   */\n  swap1\n  pop\n    /* \"#utility.yul\":5361:5436   */\n  swap2\n  swap1\n  pop\n  jump\t// out\n    /* \"#utility.yul\":5442:5711   */\ntag_39:\n    /* \"#utility.yul\":5552:5591   */\n  tag_111\n    /* \"#utility.yul\":5583:5590   */\n  dup4\n    /* \"#utility.yul\":5552:5591   */\n  tag_37\n  jump\t// in\ntag_111:\n    /* \"#utility.yul\":5613:5704   */\n  tag_112\n    /* \"#utility.yul\":5662:5703   */\n  tag_113\n    /* \"#utility.yul\":5686:5702   */\n  dup3\n    /* \"#utility.yul\":5662:5703   */\n  tag_38\n  jump\t// in\ntag_113:\n    /* \"#utility.yul\":5654:5660   */\n  dup5\n    /* \"#utility.yul\":5647:5651   */\n  dup5\n    /* \"#utility.yul\":5641:5652   */\n  sload\n    /* \"#utility.yul\":5613:5704   */\n  tag_35\n  jump\t// in\ntag_112:\n    /* \"#utility.yul\":5607:5611   */\n  dup3\n    /* \"#utility.yul\":5600:5705   */\n  sstore\n    /* \"#utility.yul\":5518:5711   */\n  pop\n    /* \"#utility.yul\":5442:5711   */\n  pop\n  pop\n  pop\n  jump\t// out\n    /* \"#utility.yul\":5717:5790   */\ntag_40:\n    /* \"#utility.yul\":5762:5765   */\n  0x00\n    /* \"#utility.yul\":5783:5784   */\n  0x00\n    /* \"#utility.yul\":5776:5784   */\n  swap1\n  pop\n    /* \"#utility.yul\":5717:5790   */\n  swap1\n  jump\t// out\n    /* \"#utility.yul\":5796:5985   */\ntag_41:\n    /* \"#utility.yul\":5873:5905   */\n  tag_116\n  tag_40\n  jump\t// in\ntag_116:\n    /* \"#utility.yul\":5914:5979   */\n  tag_117\n    /* \"#utility.yul\":5972:5978   */\n  dup2\n    /* \"#utility.yul\":5964:5970   */\n  dup5\n    /* \"#utility.yul\":5958:5962   */\n  dup5\n    /* \"#utility.yul\":5914:5979   */\n  tag_39\n  jump\t// in\ntag_117:\n    /* \"#utility.yul\":5849:5985   */\n  pop\n    /* \"#utility.yul\":5796:5985   */\n  pop\n  pop\n  jump\t// out\n    /* \"#utility.yul\":5991:6177   */\ntag_42:\n    /* \"#utility.yul\":6051:6171   */\ntag_119:\n    /* \"#utility.yul\":6068:6071   */\n  dup2\n    /* \"#utility.yul\":6061:6066   */\n  dup2\n    /* \"#utility.yul\":6058:6072   */\n  lt\n    /* \"#utility.yul\":6051:6171   */\n  iszero\n  tag_121\n  jumpi\n    /* \"#utility.yul\":6122:6161   */\n  tag_122\n    /* \"#utility.yul\":6159:6160   */\n  0x00\n    /* \"#utility.yul\":6152:6157   */\n  dup3\n    /* \"#utility.yul\":6122:6161   */\n  tag_41\n  jump\t// in\ntag_122:\n    /* \"#utility.yul\":6095:6096   */\n  0x01\n    /* \"#utility.yul\":6088:6093   */\n  dup2\n    /* \"#utility.yul\":6084:6097   */\n  add\n    /* \"#utility.yul\":6075:6097   */\n  swap1\n  pop\n    /* \"#utility.yul\":6051:6171   */\n  jump(tag_119)\ntag_121:\n    /* \"#utility.yul\":5991:6177   */\n  pop\n  pop\n  jump\t// out\n    /* \"#utility.yul\":6183:6726   */\ntag_43:\n    /* \"#utility.yul\":6284:6286   */\n  0x1f\n    /* \"#utility.yul\":6279:6282   */\n  dup3\n    /* \"#utility.yul\":6276:6287   */\n  gt\n    /* \"#utility.yul\":6273:6719   */\n  iszero\n  tag_124\n  jumpi\n    /* \"#utility.yul\":6318:6356   */\n  tag_125\n    /* \"#utility.yul\":6350:6355   */\n  dup2\n    /* \"#utility.yul\":6318:6356   */\n  tag_32\n  jump\t// in\ntag_125:\n    /* \"#utility.yul\":6402:6431   */\n  tag_126\n    /* \"#utility.yul\":6420:6430   */\n  dup5\n    /* \"#utility.yul\":6402:6431   */\n  tag_33\n  jump\t// in\ntag_126:\n    /* \"#utility.yul\":6392:6400   */\n  dup2\n    /* \"#utility.yul\":6388:6432   */\n  add\n    /* \"#utility.yul\":6585:6587   */\n  0x20\n    /* \"#utility.yul\":6573:6583   */\n  dup6\n    /* \"#utility.yul\":6570:6588   */\n  lt\n    /* \"#utility.yul\":6567:6616   */\n  iszero\n  tag_127\n  jumpi\n    /* \"#utility.yul\":6606:6614   */\n  dup2\n    /* \"#utility.yul\":6591:6614   */\n  swap1\n  pop\n    /* \"#utility.yul\":6567:6616   */\ntag_127:\n    /* \"#utility.yul\":6629:6709   */\n  tag_128\n    /* \"#utility.yul\":6685:6707   */\n  tag_129\n    /* \"#utility.yul\":6703:6706   */\n  dup6\n    /* \"#utility.yul\":6685:6707   */\n  tag_33\n  jump\t// in\ntag_129:\n    /* \"#utility.yul\":6675:6683   */\n  dup4\n    /* \"#utility.yul\":6671:6708   */\n  add\n    /* \"#utility.yul\":6658:6669   */\n  dup3\n    /* \"#utility.yul\":6629:6709   */\n  tag_42\n  jump\t// in\ntag_128:\n    /* \"#utility.yul\":6288:6719   */\n  pop\n  pop\n    /* \"#utility.yul\":6273:6719   */\ntag_124:\n    /* \"#utility.yul\":6183:6726   */\n  pop\n  pop\n  pop\n  jump\t// out\n    /* \"#utility.yul\":6732:6849   */\ntag_44:\n    /* \"#utility.yul\":6786:6794   */\n  0x00\n    /* \"#utility.yul\":6836:6841   */\n  dup3\n    /* \"#utility.yul\":6830:6834   */\n  dup3\n    /* \"#utility.yul\":6826:6842   */\n  shr\n    /* \"#utility.yul\":6805:6842   */\n  swap1\n  pop\n    /* \"#utility.yul\":6732:6849   */\n  swap3\n  swap2\n  pop\n  pop\n  jump\t// out\n    /* \"#utility.yul\":6855:7024   */\ntag_45:\n    /* \"#utility.yul\":6899:6905   */\n  0x00\n    /* \"#utility.yul\":6932:6983   */\n  tag_132\n    /* \"#utility.yul\":6980:6981   */\n  0x00\n    /* \"#utility.yul\":6976:6982   */\n  not\n    /* \"#utility.yul\":6968:6973   */\n  dup5\n    /* \"#utility.yul\":6965:6966   */\n  0x08\n    /* \"#utility.yul\":6961:6974   */\n  mul\n    /* \"#utility.yul\":6932:6983   */\n  tag_44\n  jump\t// in\ntag_132:\n    /* \"#utility.yul\":6928:6984   */\n  not\n    /* \"#utility.yul\":7013:7017   */\n  dup1\n    /* \"#utility.yul\":7007:7011   */\n  dup4\n    /* \"#utility.yul\":7003:7018   */\n  and\n    /* \"#utility.yul\":6993:7018   */\n  swap2\n  pop\n    /* \"#utility.yul\":6906:7024   */\n  pop\n    /* \"#utility.yul\":6855:7024   */\n  swap3\n  swap2\n  pop\n  pop\n  jump\t// out\n    /* \"#utility.yul\":7029:7324   */\ntag_46:\n    /* \"#utility.yul\":7105:7109   */\n  0x00\n    /* \"#utility.yul\":7251:7280   */\n  tag_134\n    /* \"#utility.yul\":7276:7279   */\n  dup4\n    /* \"#utility.yul\":7270:7274   */\n  dup4\n    /* \"#utility.yul\":7251:7280   */\n  tag_45\n  jump\t// in\ntag_134:\n    /* \"#utility.yul\":7243:7280   */\n  swap2\n  pop\n    /* \"#utility.yul\":7313:7316   */\n  dup3\n    /* \"#utility.yul\":7310:7311   */\n  0x02\n    /* \"#utility.yul\":7306:7317   */\n  mul\n    /* \"#utility.yul\":7300:7304   */\n  dup3\n    /* \"#utility.yul\":7297:7318   */\n  or\n    /* \"#utility.yul\":7289:7318   */\n  swap1\n  pop\n    /* \"#utility.yul\":7029:7324   */\n  swap3\n  swap2\n  pop\n  pop\n  jump\t// out\n    /* \"#utility.yul\":7329:8724   */\ntag_7:\n    /* \"#utility.yul\":7446:7483   */\n  tag_136\n    /* \"#utility.yul\":7479:7482   */\n  dup3\n    /* \"#utility.yul\":7446:7483   */\n  tag_29\n  jump\t// in\ntag_136:\n    /* \"#utility.yul\":7548:7566   */\n  0xffffffffffffffff\n    /* \"#utility.yul\":7540:7546   */\n  dup2\n    /* \"#utility.yul\":7537:7567   */\n  gt\n    /* \"#utility.yul\":7534:7590   */\n  iszero\n  tag_137\n  jumpi\n    /* \"#utility.yul\":7570:7588   */\n  tag_138\n  tag_19\n  jump\t// in\ntag_138:\n    /* \"#utility.yul\":7534:7590   */\ntag_137:\n    /* \"#utility.yul\":7614:7652   */\n  tag_139\n    /* \"#utility.yul\":7646:7650   */\n  dup3\n    /* \"#utility.yul\":7640:7651   */\n  sload\n    /* \"#utility.yul\":7614:7652   */\n  tag_31\n  jump\t// in\ntag_139:\n    /* \"#utility.yul\":7699:7766   */\n  tag_140\n    /* \"#utility.yul\":7759:7765   */\n  dup3\n    /* \"#utility.yul\":7751:7757   */\n  dup3\n    /* \"#utility.yul\":7745:7749   */\n  dup6\n    /* \"#utility.yul\":7699:7766   */\n  tag_43\n  jump\t// in\ntag_140:\n    /* \"#utility.yul\":7793:7794   */\n  0x00\n    /* \"#utility.yul\":7817:7821   */\n  0x20\n    /* \"#utility.yul\":7804:7821   */\n  swap1\n  pop\n    /* \"#utility.yul\":7849:7851   */\n  0x1f\n    /* \"#utility.yul\":7841:7847   */\n  dup4\n    /* \"#utility.yul\":7838:7852   */\n  gt\n    /* \"#utility.yul\":7866:7867   */\n  0x01\n    /* \"#utility.yul\":7861:8479   */\n  dup2\n  eq\n  tag_142\n  jumpi\n    /* \"#utility.yul\":8523:8524   */\n  0x00\n    /* \"#utility.yul\":8540:8546   */\n  dup5\n    /* \"#utility.yul\":8537:8614   */\n  iszero\n  tag_143\n  jumpi\n    /* \"#utility.yul\":8589:8598   */\n  dup3\n    /* \"#utility.yul\":8584:8587   */\n  dup8\n    /* \"#utility.yul\":8580:8599   */\n  add\n    /* \"#utility.yul\":8574:8600   */\n  mload\n    /* \"#utility.yul\":8565:8600   */\n  swap1\n  pop\n    /* \"#utility.yul\":8537:8614   */\ntag_143:\n    /* \"#utility.yul\":8640:8707   */\n  tag_144\n    /* \"#utility.yul\":8700:8706   */\n  dup6\n    /* \"#utility.yul\":8693:8698   */\n  dup3\n    /* \"#utility.yul\":8640:8707   */\n  tag_46\n  jump\t// in\ntag_144:\n    /* \"#utility.yul\":8634:8638   */\n  dup7\n    /* \"#utility.yul\":8627:8708   */\n  sstore\n    /* \"#utility.yul\":8496:8718   */\n  pop\n    /* \"#utility.yul\":7831:8718   */\n  jump(tag_141)\n    /* \"#utility.yul\":7861:8479   */\ntag_142:\n    /* \"#utility.yul\":7913:7917   */\n  0x1f\n    /* \"#utility.yul\":7909:7918   */\n  not\n    /* \"#utility.yul\":7901:7907   */\n  dup5\n    /* \"#utility.yul\":7897:7919   */\n  and\n    /* \"#utility.yul\":7947:7984   */\n  tag_145\n    /* \"#utility.yul\":7979:7983   */\n  dup7\n    /* \"#utility.yul\":7947:7984   */\n  tag_32\n  jump\t// in\ntag_145:\n    /* \"#utility.yul\":8006:8007   */\n  0x00\n    /* \"#utility.yul\":8020:8228   */\ntag_146:\n    /* \"#utility.yul\":8034:8041   */\n  dup3\n    /* \"#utility.yul\":8031:8032   */\n  dup2\n    /* \"#utility.yul\":8028:8042   */\n  lt\n    /* \"#utility.yul\":8020:8228   */\n  iszero\n  tag_148\n  jumpi\n    /* \"#utility.yul\":8113:8122   */\n  dup5\n    /* \"#utility.yul\":8108:8111   */\n  dup10\n    /* \"#utility.yul\":8104:8123   */\n  add\n    /* \"#utility.yul\":8098:8124   */\n  mload\n    /* \"#utility.yul\":8090:8096   */\n  dup3\n    /* \"#utility.yul\":8083:8125   */\n  sstore\n    /* \"#utility.yul\":8164:8165   */\n  0x01\n    /* \"#utility.yul\":8156:8162   */\n  dup3\n    /* \"#utility.yul\":8152:8166   */\n  add\n    /* \"#utility.yul\":8142:8166   */\n  swap2\n  pop\n    /* \"#utility.yul\":8211:8213   */\n  0x20\n    /* \"#utility.yul\":8200:8209   */\n  dup6\n    /* \"#utility.yul\":8196:8214   */\n  add\n    /* \"#utility.yul\":8183:8214   */\n  swap5\n  pop\n    /* \"#utility.yul\":8057:8061   */\n  0x20\n    /* \"#utility.yul\":8054:8055   */\n  dup2\n    /* \"#utility.yul\":8050:8062   */\n  add\n    /* \"#utility.yul\":8045:8062   */\n  swap1\n  pop\n    /* \"#utility.yul\":8020:8228   */\n  jump(tag_146)\ntag_148:\n    /* \"#utility.yul\":8256:8262   */\n  dup7\n    /* \"#utility.yul\":8247:8254   */\n  dup4\n    /* \"#utility.yul\":8244:8263   */\n  lt\n    /* \"#utility.yul\":8241:8420   */\n  iszero\n  tag_149\n  jumpi\n    /* \"#utility.yul\":8314:8323   */\n  dup5\n    /* \"#utility.yul\":8309:8312   */\n  dup10\n    /* \"#utility.yul\":8305:8324   */\n  add\n    /* \"#utility.yul\":8299:8325   */\n  mload\n    /* \"#utility.yul\":8357:8405   */\n  tag_150\n    /* \"#utility.yul\":8399:8403   */\n  0x1f\n    /* \"#utility.yul\":8391:8397   */\n  dup10\n    /* \"#utility.yul\":8387:8404   */\n  and\n    /* \"#utility.yul\":8376:8385   */\n  dup3\n    /* \"#utility.yul\":8357:8405   */\n  tag_45\n  jump\t// in\ntag_150:\n    /* \"#utility.yul\":8349:8355   */\n  dup4\n    /* \"#utility.yul\":8342:8406   */\n  sstore\n    /* \"#utility.yul\":8264:8420   */\n  pop\n    /* \"#utility.yul\":8241:8420   */\ntag_149:\n    /* \"#utility.yul\":8466:8467   */\n  0x01\n    /* \"#utility.yul\":8462:8463   */\n  0x02\n    /* \"#utility.yul\":8454:8460   */\n  dup9\n    /* \"#utility.yul\":8450:8464   */\n  mul\n    /* \"#utility.yul\":8446:8468   */\n  add\n    /* \"#utility.yul\":8440:8444   */\n  dup9\n    /* \"#utility.yul\":8433:8469   */\n  sstore\n    /* \"#utility.yul\":7868:8479   */\n  pop\n  pop\n  pop\n    /* \"#utility.yul\":7831:8718   */\ntag_141:\n  pop\n    /* \"#utility.yul\":7421:8724   */\n  pop\n  pop\n  pop\n    /* \"#utility.yul\":7329:8724   */\n  pop\n  pop\n  jump\t// out\n    /* \"#utility.yul\":8730:8910   */\ntag_47:\n    /* \"#utility.yul\":8778:8855   */\n  0x4e487b7100000000000000000000000000000000000000000000000000000000\n    /* \"#utility.yul\":8775:8776   */\n  0x00\n    /* \"#utility.yul\":8768:8856   */\n  mstore\n    /* \"#utility.yul\":8875:8879   */\n  0x11\n    /* \"#utility.yul\":8872:8873   */\n  0x04\n    /* \"#utility.yul\":8865:8880   */\n  mstore\n    /* \"#utility.yul\":8899:8903   */\n  0x24\n    /* \"#utility.yul\":8896:8897   */\n  0x00\n    /* \"#utility.yul\":8889:8904   */\n  revert\n    /* \"#utility.yul\":8916:9326   */\ntag_9:\n    /* \"#utility.yul\":8956:8963   */\n  0x00\n    /* \"#utility.yul\":8979:8999   */\n  tag_153\n    /* \"#utility.yul\":8997:8998   */\n  dup3\n    /* \"#utility.yul\":8979:8999   */\n  tag_26\n  jump\t// in\ntag_153:\n    /* \"#utility.yul\":8974:8999   */\n  swap2\n  pop\n    /* \"#utility.yul\":9013:9033   */\n  tag_154\n    /* \"#utility.yul\":9031:9032   */\n  dup4\n    /* \"#utility.yul\":9013:9033   */\n  tag_26\n  jump\t// in\ntag_154:\n    /* \"#utility.yul\":9008:9033   */\n  swap3\n  pop\n    /* \"#utility.yul\":9068:9069   */\n  dup3\n    /* \"#utility.yul\":9065:9066   */\n  dup3\n    /* \"#utility.yul\":9061:9070   */\n  mul\n    /* \"#utility.yul\":9090:9120   */\n  tag_155\n    /* \"#utility.yul\":9108:9119   */\n  dup2\n    /* \"#utility.yul\":9090:9120   */\n  tag_26\n  jump\t// in\ntag_155:\n    /* \"#utility.yul\":9079:9120   */\n  swap2\n  pop\n    /* \"#utility.yul\":9269:9270   */\n  dup3\n    /* \"#utility.yul\":9260:9267   */\n  dup3\n    /* \"#utility.yul\":9256:9271   */\n  div\n    /* \"#utility.yul\":9253:9254   */\n  dup5\n    /* \"#utility.yul\":9250:9272   */\n  eq\n    /* \"#utility.yul\":9230:9231   */\n  dup4\n    /* \"#utility.yul\":9223:9232   */\n  iszero\n    /* \"#utility.yul\":9203:9286   */\n  or\n    /* \"#utility.yul\":9180:9319   */\n  tag_156\n  jumpi\n    /* \"#utility.yul\":9299:9317   */\n  tag_157\n  tag_47\n  jump\t// in\ntag_157:\n    /* \"#utility.yul\":9180:9319   */\ntag_156:\n    /* \"#utility.yul\":8964:9326   */\n  pop\n    /* \"#utility.yul\":8916:9326   */\n  swap3\n  swap2\n  pop\n  pop\n  jump\t// out\n    /* \"#utility.yul\":9332:9523   */\ntag_11:\n    /* \"#utility.yul\":9372:9375   */\n  0x00\n    /* \"#utility.yul\":9391:9411   */\n  tag_159\n    /* \"#utility.yul\":9409:9410   */\n  dup3\n    /* \"#utility.yul\":9391:9411   */\n  tag_26\n  jump\t// in\ntag_159:\n    /* \"#utility.yul\":9386:9411   */\n  swap2\n  pop\n    /* \"#utility.yul\":9425:9445   */\n  tag_160\n    /* \"#utility.yul\":9443:9444   */\n  dup4\n    /* \"#utility.yul\":9425:9445   */\n  tag_26\n  jump\t// in\ntag_160:\n    /* \"#utility.yul\":9420:9445   */\n  swap3\n  pop\n    /* \"#utility.yul\":9468:9469   */\n  dup3\n    /* \"#utility.yul\":9465:9466   */\n  dup3\n    /* \"#utility.yul\":9461:9470   */\n  add\n    /* \"#utility.yul\":9454:9470   */\n  swap1\n  pop\n    /* \"#utility.yul\":9489:9492   */\n  dup1\n    /* \"#utility.yul\":9486:9487   */\n  dup3\n    /* \"#utility.yul\":9483:9493   */\n  gt\n    /* \"#utility.yul\":9480:9516   */\n  iszero\n  tag_161\n  jumpi\n    /* \"#utility.yul\":9496:9514   */\n  tag_162\n  tag_47\n  jump\t// in\ntag_162:\n    /* \"#utility.yul\":9480:9516   */\ntag_161:\n    /* \"#utility.yul\":9332:9523   */\n  swap3\n  swap2\n  pop\n  pop\n  jump\t// out\n    /* \"contracts/subasta.sol\":158:5549  contract Subasta {... */\ntag_12:\n  dataSize(sub_0)\n  dup1\n  dataOffset(sub_0)\n  0x00\n  codecopy\n  0x00\n  return\nstop\n\nsub_0: assembly {\n        /* \"contracts/subasta.sol\":158:5549  contract Subasta {... */\n      mstore(0x40, 0x80)\n      jumpi(tag_1, lt(calldatasize, 0x04))\n      shr(0xe0, calldataload(0x00))\n      dup1\n      0x7284e416\n      gt\n      tag_13\n      jumpi\n      dup1\n      0x7284e416\n      eq\n      tag_7\n      jumpi\n      dup1\n      0x74b11d8a\n      eq\n      tag_8\n      jumpi\n      dup1\n      0x8da5cb5b\n      eq\n      tag_9\n      jumpi\n      dup1\n      0xbef3a083\n      eq\n      tag_10\n      jumpi\n      dup1\n      0xce9ec0a6\n      eq\n      tag_11\n      jumpi\n      dup1\n      0xf30e3658\n      eq\n      tag_12\n      jumpi\n      jump(tag_1)\n    tag_13:\n      dup1\n      0x22f3e2d4\n      eq\n      tag_2\n      jumpi\n      dup1\n      0x3e109a19\n      eq\n      tag_3\n      jumpi\n      dup1\n      0x4311de8f\n      eq\n      tag_4\n      jumpi\n      dup1\n      0x590e1ae3\n      eq\n      tag_5\n      jumpi\n      dup1\n      0x6569ddf5\n      eq\n      tag_6\n      jumpi\n    tag_1:\n      revert(0x00, 0x00)\n        /* \"contracts/subasta.sol\":5260:5359  function isActive() external view returns (bool) {... */\n    tag_2:\n      callvalue\n      dup1\n      iszero\n      tag_14\n      jumpi\n      revert(0x00, 0x00)\n    tag_14:\n      pop\n      tag_15\n      tag_16\n      jump\t// in\n    tag_15:\n      mload(0x40)\n      tag_17\n      swap2\n      swap1\n      tag_18\n      jump\t// in\n    tag_17:\n      mload(0x40)\n      dup1\n      swap2\n      sub\n      swap1\n      return\n        /* \"contracts/subasta.sol\":286:308  uint256 public  minBid */\n    tag_3:\n      callvalue\n      dup1\n      iszero\n      tag_19\n      jumpi\n      revert(0x00, 0x00)\n    tag_19:\n      pop\n      tag_20\n      tag_21\n      jump\t// in\n    tag_20:\n      mload(0x40)\n      tag_22\n      swap2\n      swap1\n      tag_23\n      jump\t// in\n    tag_22:\n      mload(0x40)\n      dup1\n      swap2\n      sub\n      swap1\n      return\n        /* \"contracts/subasta.sol\":4476:5186  function ownerWithdraw () external noReentrancy {... */\n    tag_4:\n      callvalue\n      dup1\n      iszero\n      tag_24\n      jumpi\n      revert(0x00, 0x00)\n    tag_24:\n      pop\n      tag_25\n      tag_26\n      jump\t// in\n    tag_25:\n      stop\n        /* \"contracts/subasta.sol\":3486:4340  function refund () external noReentrancy {... */\n    tag_5:\n      callvalue\n      dup1\n      iszero\n      tag_27\n      jumpi\n      revert(0x00, 0x00)\n    tag_27:\n      pop\n      tag_28\n      tag_29\n      jump\t// in\n    tag_28:\n      stop\n        /* \"contracts/subasta.sol\":342:371  address public  addressMaxBid */\n    tag_6:\n      callvalue\n      dup1\n      iszero\n      tag_30\n      jumpi\n      revert(0x00, 0x00)\n    tag_30:\n      pop\n      tag_31\n      tag_32\n      jump\t// in\n    tag_31:\n      mload(0x40)\n      tag_33\n      swap2\n      swap1\n      tag_34\n      jump\t// in\n    tag_33:\n      mload(0x40)\n      dup1\n      swap2\n      sub\n      swap1\n      return\n        /* \"contracts/subasta.sol\":253:280  string  public  description */\n    tag_7:\n      callvalue\n      dup1\n      iszero\n      tag_35\n      jumpi\n      revert(0x00, 0x00)\n    tag_35:\n      pop\n      tag_36\n      tag_37\n      jump\t// in\n    tag_36:\n      mload(0x40)\n      tag_38\n      swap2\n      swap1\n      tag_39\n      jump\t// in\n    tag_38:\n      mload(0x40)\n      dup1\n      swap2\n      sub\n      swap1\n      return\n        /* \"contracts/subasta.sol\":314:336  uint256 public  maxBid */\n    tag_8:\n      callvalue\n      dup1\n      iszero\n      tag_40\n      jumpi\n      revert(0x00, 0x00)\n    tag_40:\n      pop\n      tag_41\n      tag_42\n      jump\t// in\n    tag_41:\n      mload(0x40)\n      tag_43\n      swap2\n      swap1\n      tag_23\n      jump\t// in\n    tag_43:\n      mload(0x40)\n      dup1\n      swap2\n      sub\n      swap1\n      return\n        /* \"contracts/subasta.sol\":181:247  address public  owner = 0xF55301514c27489Fde7C9cd9A3EA8044E7E04579 */\n    tag_9:\n      callvalue\n      dup1\n      iszero\n      tag_44\n      jumpi\n      revert(0x00, 0x00)\n    tag_44:\n      pop\n      tag_45\n      tag_46\n      jump\t// in\n    tag_45:\n      mload(0x40)\n      tag_47\n      swap2\n      swap1\n      tag_34\n      jump\t// in\n    tag_47:\n      mload(0x40)\n      dup1\n      swap2\n      sub\n      swap1\n      return\n        /* \"contracts/subasta.sol\":377:401  uint256 public  deadLine */\n    tag_10:\n      callvalue\n      dup1\n      iszero\n      tag_48\n      jumpi\n      revert(0x00, 0x00)\n    tag_48:\n      pop\n      tag_49\n      tag_50\n      jump\t// in\n    tag_49:\n      mload(0x40)\n      tag_51\n      swap2\n      swap1\n      tag_23\n      jump\t// in\n    tag_51:\n      mload(0x40)\n      dup1\n      swap2\n      sub\n      swap1\n      return\n        /* \"contracts/subasta.sol\":407:430  uint256 public  numBids */\n    tag_11:\n      callvalue\n      dup1\n      iszero\n      tag_52\n      jumpi\n      revert(0x00, 0x00)\n    tag_52:\n      pop\n      tag_53\n      tag_54\n      jump\t// in\n    tag_53:\n      mload(0x40)\n      tag_55\n      swap2\n      swap1\n      tag_23\n      jump\t// in\n    tag_55:\n      mload(0x40)\n      dup1\n      swap2\n      sub\n      swap1\n      return\n        /* \"contracts/subasta.sol\":1846:3349  function makeBid () external payable {... */\n    tag_12:\n      tag_56\n      tag_57\n      jump\t// in\n    tag_56:\n      stop\n        /* \"contracts/subasta.sol\":5260:5359  function isActive() external view returns (bool) {... */\n    tag_16:\n        /* \"contracts/subasta.sol\":5303:5307  bool */\n      0x00\n        /* \"contracts/subasta.sol\":5344:5352  deadLine */\n      sload(0x05)\n        /* \"contracts/subasta.sol\":5326:5341  block.timestamp */\n      timestamp\n        /* \"contracts/subasta.sol\":5326:5352  block.timestamp < deadLine */\n      lt\n        /* \"contracts/subasta.sol\":5319:5352  return block.timestamp < deadLine */\n      swap1\n      pop\n        /* \"contracts/subasta.sol\":5260:5359  function isActive() external view returns (bool) {... */\n      swap1\n      jump\t// out\n        /* \"contracts/subasta.sol\":286:308  uint256 public  minBid */\n    tag_21:\n      sload(0x02)\n      dup2\n      jump\t// out\n        /* \"contracts/subasta.sol\":4476:5186  function ownerWithdraw () external noReentrancy {... */\n    tag_26:\n        /* \"contracts/subasta.sol\":5457:5466  bloqueado */\n      0x07\n      0x00\n      swap1\n      sload\n      swap1\n      0x0100\n      exp\n      swap1\n      div\n      0xff\n      and\n        /* \"contracts/subasta.sol\":5453:5476  if (bloqueado) revert() */\n      iszero\n      tag_60\n      jumpi\n        /* \"contracts/subasta.sol\":5468:5476  revert() */\n      revert(0x00, 0x00)\n        /* \"contracts/subasta.sol\":5453:5476  if (bloqueado) revert() */\n    tag_60:\n        /* \"contracts/subasta.sol\":5498:5502  true */\n      0x01\n        /* \"contracts/subasta.sol\":5486:5495  bloqueado */\n      0x07\n      0x00\n        /* \"contracts/subasta.sol\":5486:5502  bloqueado = true */\n      0x0100\n      exp\n      dup2\n      sload\n      dup2\n      0xff\n      mul\n      not\n      and\n      swap1\n      dup4\n      iszero\n      iszero\n      mul\n      or\n      swap1\n      sstore\n      pop\n        /* \"contracts/subasta.sol\":4600:4605  owner */\n      0x00\n      0x00\n      swap1\n      sload\n      swap1\n      0x0100\n      exp\n      swap1\n      div\n      0xffffffffffffffffffffffffffffffffffffffff\n      and\n        /* \"contracts/subasta.sol\":4586:4605  msg.sender != owner */\n      0xffffffffffffffffffffffffffffffffffffffff\n      and\n        /* \"contracts/subasta.sol\":4586:4596  msg.sender */\n      caller\n        /* \"contracts/subasta.sol\":4586:4605  msg.sender != owner */\n      0xffffffffffffffffffffffffffffffffffffffff\n      and\n      eq\n        /* \"contracts/subasta.sol\":4582:4671  if (msg.sender != owner) {... */\n      tag_62\n      jumpi\n        /* \"contracts/subasta.sol\":4647:4657  msg.sender */\n      caller\n        /* \"contracts/subasta.sol\":4628:4660  NotOwner( {bidder: msg.sender} ) */\n      mload(0x40)\n      0x245aecd300000000000000000000000000000000000000000000000000000000\n      dup2\n      mstore\n      0x04\n      add\n      tag_63\n      swap2\n      swap1\n      tag_34\n      jump\t// in\n    tag_63:\n      mload(0x40)\n      dup1\n      swap2\n      sub\n      swap1\n      revert\n        /* \"contracts/subasta.sol\":4582:4671  if (msg.sender != owner) {... */\n    tag_62:\n        /* \"contracts/subasta.sol\":4730:4738  deadLine */\n      sload(0x05)\n        /* \"contracts/subasta.sol\":4712:4727  block.timestamp */\n      timestamp\n        /* \"contracts/subasta.sol\":4712:4738  block.timestamp < deadLine */\n      lt\n        /* \"contracts/subasta.sol\":4708:4888  if (block.timestamp < deadLine) {... */\n      iszero\n      tag_64\n      jumpi\n        /* \"contracts/subasta.sol\":4808:4823  block.timestamp */\n      timestamp\n        /* \"contracts/subasta.sol\":4854:4862  deadLine */\n      sload(0x05)\n        /* \"contracts/subasta.sol\":4761:4877  AuctionNotEnded({... */\n      mload(0x40)\n      0xf7d22c9400000000000000000000000000000000000000000000000000000000\n      dup2\n      mstore\n      0x04\n      add\n      tag_65\n      swap3\n      swap2\n      swap1\n      tag_66\n      jump\t// in\n    tag_65:\n      mload(0x40)\n      dup1\n      swap2\n      sub\n      swap1\n      revert\n        /* \"contracts/subasta.sol\":4708:4888  if (block.timestamp < deadLine) {... */\n    tag_64:\n        /* \"contracts/subasta.sol\":4947:4948  0 */\n      0x00\n        /* \"contracts/subasta.sol\":4925:4929  bids */\n      0x08\n        /* \"contracts/subasta.sol\":4925:4944  bids[addressMaxBid] */\n      0x00\n        /* \"contracts/subasta.sol\":4930:4943  addressMaxBid */\n      0x04\n      0x00\n      swap1\n      sload\n      swap1\n      0x0100\n      exp\n      swap1\n      div\n      0xffffffffffffffffffffffffffffffffffffffff\n      and\n        /* \"contracts/subasta.sol\":4925:4944  bids[addressMaxBid] */\n      0xffffffffffffffffffffffffffffffffffffffff\n      and\n      0xffffffffffffffffffffffffffffffffffffffff\n      and\n      dup2\n      mstore\n      0x20\n      add\n      swap1\n      dup2\n      mstore\n      0x20\n      add\n      0x00\n      keccak256\n        /* \"contracts/subasta.sol\":4925:4948  bids[addressMaxBid] = 0 */\n      dup2\n      swap1\n      sstore\n      pop\n        /* \"contracts/subasta.sol\":4984:4991  bool ok */\n      0x00\n        /* \"contracts/subasta.sol\":5005:5010  owner */\n      0x00\n      0x00\n      swap1\n      sload\n      swap1\n      0x0100\n      exp\n      swap1\n      div\n      0xffffffffffffffffffffffffffffffffffffffff\n      and\n        /* \"contracts/subasta.sol\":4997:5016  payable(owner).call */\n      0xffffffffffffffffffffffffffffffffffffffff\n      and\n        /* \"contracts/subasta.sol\":5023:5029  maxBid */\n      sload(0x03)\n        /* \"contracts/subasta.sol\":4997:5034  payable(owner).call{value:maxBid}(\"\") */\n      mload(0x40)\n      tag_67\n      swap1\n      tag_68\n      jump\t// in\n    tag_67:\n      0x00\n      mload(0x40)\n      dup1\n      dup4\n      sub\n      dup2\n      dup6\n      dup8\n      gas\n      call\n      swap3\n      pop\n      pop\n      pop\n      returndatasize\n      dup1\n      0x00\n      dup2\n      eq\n      tag_71\n      jumpi\n      mload(0x40)\n      swap2\n      pop\n      and(add(returndatasize, 0x3f), not(0x1f))\n      dup3\n      add\n      0x40\n      mstore\n      returndatasize\n      dup3\n      mstore\n      returndatasize\n      0x00\n      0x20\n      dup5\n      add\n      returndatacopy\n      jump(tag_70)\n    tag_71:\n      0x60\n      swap2\n      pop\n    tag_70:\n      pop\n        /* \"contracts/subasta.sol\":4983:5034  (bool ok, ) = payable(owner).call{value:maxBid}(\"\") */\n      pop\n      swap1\n      pop\n        /* \"contracts/subasta.sol\":5049:5051  ok */\n      dup1\n        /* \"contracts/subasta.sol\":5044:5180  if (!ok) {... */\n      tag_72\n      jumpi\n        /* \"contracts/subasta.sol\":5112:5122  msg.sender */\n      caller\n        /* \"contracts/subasta.sol\":5148:5154  maxBid */\n      sload(0x03)\n        /* \"contracts/subasta.sol\":5074:5169  NotWithdraw({... */\n      mload(0x40)\n      0x6bd13a7000000000000000000000000000000000000000000000000000000000\n      dup2\n      mstore\n      0x04\n      add\n      tag_73\n      swap3\n      swap2\n      swap1\n      tag_74\n      jump\t// in\n    tag_73:\n      mload(0x40)\n      dup1\n      swap2\n      sub\n      swap1\n      revert\n        /* \"contracts/subasta.sol\":5044:5180  if (!ok) {... */\n    tag_72:\n        /* \"contracts/subasta.sol\":4524:5186  {... */\n      pop\n        /* \"contracts/subasta.sol\":5535:5540  false */\n      0x00\n        /* \"contracts/subasta.sol\":5523:5532  bloqueado */\n      0x07\n      0x00\n        /* \"contracts/subasta.sol\":5523:5540  bloqueado = false */\n      0x0100\n      exp\n      dup2\n      sload\n      dup2\n      0xff\n      mul\n      not\n      and\n      swap1\n      dup4\n      iszero\n      iszero\n      mul\n      or\n      swap1\n      sstore\n      pop\n        /* \"contracts/subasta.sol\":4476:5186  function ownerWithdraw () external noReentrancy {... */\n      jump\t// out\n        /* \"contracts/subasta.sol\":3486:4340  function refund () external noReentrancy {... */\n    tag_29:\n        /* \"contracts/subasta.sol\":5457:5466  bloqueado */\n      0x07\n      0x00\n      swap1\n      sload\n      swap1\n      0x0100\n      exp\n      swap1\n      div\n      0xff\n      and\n        /* \"contracts/subasta.sol\":5453:5476  if (bloqueado) revert() */\n      iszero\n      tag_76\n      jumpi\n        /* \"contracts/subasta.sol\":5468:5476  revert() */\n      revert(0x00, 0x00)\n        /* \"contracts/subasta.sol\":5453:5476  if (bloqueado) revert() */\n    tag_76:\n        /* \"contracts/subasta.sol\":5498:5502  true */\n      0x01\n        /* \"contracts/subasta.sol\":5486:5495  bloqueado */\n      0x07\n      0x00\n        /* \"contracts/subasta.sol\":5486:5502  bloqueado = true */\n      0x0100\n      exp\n      dup2\n      sload\n      dup2\n      0xff\n      mul\n      not\n      and\n      swap1\n      dup4\n      iszero\n      iszero\n      mul\n      or\n      swap1\n      sstore\n      pop\n        /* \"contracts/subasta.sol\":3605:3613  deadLine */\n      sload(0x05)\n        /* \"contracts/subasta.sol\":3587:3602  block.timestamp */\n      timestamp\n        /* \"contracts/subasta.sol\":3587:3613  block.timestamp < deadLine */\n      lt\n        /* \"contracts/subasta.sol\":3583:3763  if (block.timestamp < deadLine) {... */\n      iszero\n      tag_78\n      jumpi\n        /* \"contracts/subasta.sol\":3683:3698  block.timestamp */\n      timestamp\n        /* \"contracts/subasta.sol\":3729:3737  deadLine */\n      sload(0x05)\n        /* \"contracts/subasta.sol\":3636:3752  AuctionNotEnded({... */\n      mload(0x40)\n      0xf7d22c9400000000000000000000000000000000000000000000000000000000\n      dup2\n      mstore\n      0x04\n      add\n      tag_79\n      swap3\n      swap2\n      swap1\n      tag_66\n      jump\t// in\n    tag_79:\n      mload(0x40)\n      dup1\n      swap2\n      sub\n      swap1\n      revert\n        /* \"contracts/subasta.sol\":3583:3763  if (block.timestamp < deadLine) {... */\n    tag_78:\n        /* \"contracts/subasta.sol\":3819:3829  msg.sender */\n      caller\n        /* \"contracts/subasta.sol\":3802:3829  addressMaxBid == msg.sender */\n      0xffffffffffffffffffffffffffffffffffffffff\n      and\n        /* \"contracts/subasta.sol\":3802:3815  addressMaxBid */\n      0x04\n      0x00\n      swap1\n      sload\n      swap1\n      0x0100\n      exp\n      swap1\n      div\n      0xffffffffffffffffffffffffffffffffffffffff\n      and\n        /* \"contracts/subasta.sol\":3802:3829  addressMaxBid == msg.sender */\n      0xffffffffffffffffffffffffffffffffffffffff\n      and\n      sub\n        /* \"contracts/subasta.sol\":3798:3905  if (addressMaxBid == msg.sender) {... */\n      tag_80\n      jumpi\n        /* \"contracts/subasta.sol\":3881:3891  msg.sender */\n      caller\n        /* \"contracts/subasta.sol\":3852:3894  MaxBidNotRefund( {maxBidder: msg.sender} ) */\n      mload(0x40)\n      0xbfbd9bb000000000000000000000000000000000000000000000000000000000\n      dup2\n      mstore\n      0x04\n      add\n      tag_81\n      swap2\n      swap1\n      tag_34\n      jump\t// in\n    tag_81:\n      mload(0x40)\n      dup1\n      swap2\n      sub\n      swap1\n      revert\n        /* \"contracts/subasta.sol\":3798:3905  if (addressMaxBid == msg.sender) {... */\n    tag_80:\n        /* \"contracts/subasta.sol\":3963:3964  0 */\n      0x00\n        /* \"contracts/subasta.sol\":3943:3947  bids */\n      0x08\n        /* \"contracts/subasta.sol\":3943:3959  bids[msg.sender] */\n      0x00\n        /* \"contracts/subasta.sol\":3948:3958  msg.sender */\n      caller\n        /* \"contracts/subasta.sol\":3943:3959  bids[msg.sender] */\n      0xffffffffffffffffffffffffffffffffffffffff\n      and\n      0xffffffffffffffffffffffffffffffffffffffff\n      and\n      dup2\n      mstore\n      0x20\n      add\n      swap1\n      dup2\n      mstore\n      0x20\n      add\n      0x00\n      keccak256\n      sload\n        /* \"contracts/subasta.sol\":3943:3964  bids[msg.sender] == 0 */\n      sub\n        /* \"contracts/subasta.sol\":3939:4028  if (bids[msg.sender] == 0) {... */\n      tag_82\n      jumpi\n        /* \"contracts/subasta.sol\":4004:4014  msg.sender */\n      caller\n        /* \"contracts/subasta.sol\":3987:4017  NotBid( {bidder: msg.sender} ) */\n      mload(0x40)\n      0x3fb1b34100000000000000000000000000000000000000000000000000000000\n      dup2\n      mstore\n      0x04\n      add\n      tag_83\n      swap2\n      swap1\n      tag_34\n      jump\t// in\n    tag_83:\n      mload(0x40)\n      dup1\n      swap2\n      sub\n      swap1\n      revert\n        /* \"contracts/subasta.sol\":3939:4028  if (bids[msg.sender] == 0) {... */\n    tag_82:\n        /* \"contracts/subasta.sol\":4077:4078  0 */\n      0x00\n        /* \"contracts/subasta.sol\":4058:4062  bids */\n      0x08\n        /* \"contracts/subasta.sol\":4058:4074  bids[msg.sender] */\n      0x00\n        /* \"contracts/subasta.sol\":4063:4073  msg.sender */\n      caller\n        /* \"contracts/subasta.sol\":4058:4074  bids[msg.sender] */\n      0xffffffffffffffffffffffffffffffffffffffff\n      and\n      0xffffffffffffffffffffffffffffffffffffffff\n      and\n      dup2\n      mstore\n      0x20\n      add\n      swap1\n      dup2\n      mstore\n      0x20\n      add\n      0x00\n      keccak256\n        /* \"contracts/subasta.sol\":4058:4078  bids[msg.sender] = 0 */\n      dup2\n      swap1\n      sstore\n      pop\n        /* \"contracts/subasta.sol\":4114:4121  bool ok */\n      0x00\n        /* \"contracts/subasta.sol\":4135:4145  msg.sender */\n      caller\n        /* \"contracts/subasta.sol\":4127:4151  payable(msg.sender).call */\n      0xffffffffffffffffffffffffffffffffffffffff\n      and\n        /* \"contracts/subasta.sol\":4158:4162  bids */\n      0x08\n        /* \"contracts/subasta.sol\":4158:4174  bids[msg.sender] */\n      0x00\n        /* \"contracts/subasta.sol\":4163:4173  msg.sender */\n      caller\n        /* \"contracts/subasta.sol\":4158:4174  bids[msg.sender] */\n      0xffffffffffffffffffffffffffffffffffffffff\n      and\n      0xffffffffffffffffffffffffffffffffffffffff\n      and\n      dup2\n      mstore\n      0x20\n      add\n      swap1\n      dup2\n      mstore\n      0x20\n      add\n      0x00\n      keccak256\n      sload\n        /* \"contracts/subasta.sol\":4127:4179  payable(msg.sender).call{value:bids[msg.sender]}(\"\") */\n      mload(0x40)\n      tag_84\n      swap1\n      tag_68\n      jump\t// in\n    tag_84:\n      0x00\n      mload(0x40)\n      dup1\n      dup4\n      sub\n      dup2\n      dup6\n      dup8\n      gas\n      call\n      swap3\n      pop\n      pop\n      pop\n      returndatasize\n      dup1\n      0x00\n      dup2\n      eq\n      tag_87\n      jumpi\n      mload(0x40)\n      swap2\n      pop\n      and(add(returndatasize, 0x3f), not(0x1f))\n      dup3\n      add\n      0x40\n      mstore\n      returndatasize\n      dup3\n      mstore\n      returndatasize\n      0x00\n      0x20\n      dup5\n      add\n      returndatacopy\n      jump(tag_86)\n    tag_87:\n      0x60\n      swap2\n      pop\n    tag_86:\n      pop\n        /* \"contracts/subasta.sol\":4113:4179  (bool ok, ) = payable(msg.sender).call{value:bids[msg.sender]}(\"\") */\n      pop\n      swap1\n      pop\n        /* \"contracts/subasta.sol\":4194:4196  ok */\n      dup1\n        /* \"contracts/subasta.sol\":4189:4334  if (!ok) {... */\n      tag_88\n      jumpi\n        /* \"contracts/subasta.sol\":4256:4266  msg.sender */\n      caller\n        /* \"contracts/subasta.sol\":4292:4296  bids */\n      0x08\n        /* \"contracts/subasta.sol\":4292:4308  bids[msg.sender] */\n      0x00\n        /* \"contracts/subasta.sol\":4297:4307  msg.sender */\n      caller\n        /* \"contracts/subasta.sol\":4292:4308  bids[msg.sender] */\n      0xffffffffffffffffffffffffffffffffffffffff\n      and\n      0xffffffffffffffffffffffffffffffffffffffff\n      and\n      dup2\n      mstore\n      0x20\n      add\n      swap1\n      dup2\n      mstore\n      0x20\n      add\n      0x00\n      keccak256\n      sload\n        /* \"contracts/subasta.sol\":4219:4323  NotRefund( {... */\n      mload(0x40)\n      0x0be0d09700000000000000000000000000000000000000000000000000000000\n      dup2\n      mstore\n      0x04\n      add\n      tag_89\n      swap3\n      swap2\n      swap1\n      tag_74\n      jump\t// in\n    tag_89:\n      mload(0x40)\n      dup1\n      swap2\n      sub\n      swap1\n      revert\n        /* \"contracts/subasta.sol\":4189:4334  if (!ok) {... */\n    tag_88:\n        /* \"contracts/subasta.sol\":3527:4340  {... */\n      pop\n        /* \"contracts/subasta.sol\":5535:5540  false */\n      0x00\n        /* \"contracts/subasta.sol\":5523:5532  bloqueado */\n      0x07\n      0x00\n        /* \"contracts/subasta.sol\":5523:5540  bloqueado = false */\n      0x0100\n      exp\n      dup2\n      sload\n      dup2\n      0xff\n      mul\n      not\n      and\n      swap1\n      dup4\n      iszero\n      iszero\n      mul\n      or\n      swap1\n      sstore\n      pop\n        /* \"contracts/subasta.sol\":3486:4340  function refund () external noReentrancy {... */\n      jump\t// out\n        /* \"contracts/subasta.sol\":342:371  address public  addressMaxBid */\n    tag_32:\n      0x04\n      0x00\n      swap1\n      sload\n      swap1\n      0x0100\n      exp\n      swap1\n      div\n      0xffffffffffffffffffffffffffffffffffffffff\n      and\n      dup2\n      jump\t// out\n        /* \"contracts/subasta.sol\":253:280  string  public  description */\n    tag_37:\n      0x01\n      dup1\n      sload\n      tag_90\n      swap1\n      tag_91\n      jump\t// in\n    tag_90:\n      dup1\n      0x1f\n      add\n      0x20\n      dup1\n      swap2\n      div\n      mul\n      0x20\n      add\n      mload(0x40)\n      swap1\n      dup2\n      add\n      0x40\n      mstore\n      dup1\n      swap3\n      swap2\n      swap1\n      dup2\n      dup2\n      mstore\n      0x20\n      add\n      dup3\n      dup1\n      sload\n      tag_92\n      swap1\n      tag_91\n      jump\t// in\n    tag_92:\n      dup1\n      iszero\n      tag_93\n      jumpi\n      dup1\n      0x1f\n      lt\n      tag_94\n      jumpi\n      0x0100\n      dup1\n      dup4\n      sload\n      div\n      mul\n      dup4\n      mstore\n      swap2\n      0x20\n      add\n      swap2\n      jump(tag_93)\n    tag_94:\n      dup3\n      add\n      swap2\n      swap1\n      0x00\n      mstore\n      keccak256(0x00, 0x20)\n      swap1\n    tag_95:\n      dup2\n      sload\n      dup2\n      mstore\n      swap1\n      0x01\n      add\n      swap1\n      0x20\n      add\n      dup1\n      dup4\n      gt\n      tag_95\n      jumpi\n      dup3\n      swap1\n      sub\n      0x1f\n      and\n      dup3\n      add\n      swap2\n    tag_93:\n      pop\n      pop\n      pop\n      pop\n      pop\n      dup2\n      jump\t// out\n        /* \"contracts/subasta.sol\":314:336  uint256 public  maxBid */\n    tag_42:\n      sload(0x03)\n      dup2\n      jump\t// out\n        /* \"contracts/subasta.sol\":181:247  address public  owner = 0xF55301514c27489Fde7C9cd9A3EA8044E7E04579 */\n    tag_46:\n      0x00\n      0x00\n      swap1\n      sload\n      swap1\n      0x0100\n      exp\n      swap1\n      div\n      0xffffffffffffffffffffffffffffffffffffffff\n      and\n      dup2\n      jump\t// out\n        /* \"contracts/subasta.sol\":377:401  uint256 public  deadLine */\n    tag_50:\n      sload(0x05)\n      dup2\n      jump\t// out\n        /* \"contracts/subasta.sol\":407:430  uint256 public  numBids */\n    tag_54:\n      sload(0x06)\n      dup2\n      jump\t// out\n        /* \"contracts/subasta.sol\":1846:3349  function makeBid () external payable {... */\n    tag_57:\n        /* \"contracts/subasta.sol\":1972:1980  deadLine */\n      sload(0x05)\n        /* \"contracts/subasta.sol\":1953:1968  block.timestamp */\n      timestamp\n        /* \"contracts/subasta.sol\":1953:1980  block.timestamp >= deadLine */\n      lt\n        /* \"contracts/subasta.sol\":1948:2143  if  (block.timestamp >= deadLine) {... */\n      tag_97\n      jumpi\n        /* \"contracts/subasta.sol\":2055:2070  block.timestamp */\n      timestamp\n        /* \"contracts/subasta.sol\":2105:2113  deadLine */\n      sload(0x05)\n        /* \"contracts/subasta.sol\":2007:2132  AuctionEnded({... */\n      mload(0x40)\n      0xe536ac5400000000000000000000000000000000000000000000000000000000\n      dup2\n      mstore\n      0x04\n      add\n      tag_98\n      swap3\n      swap2\n      swap1\n      tag_66\n      jump\t// in\n    tag_98:\n      mload(0x40)\n      dup1\n      swap2\n      sub\n      swap1\n      revert\n        /* \"contracts/subasta.sol\":1948:2143  if  (block.timestamp >= deadLine) {... */\n    tag_97:\n        /* \"contracts/subasta.sol\":2233:2238  owner */\n      0x00\n      0x00\n      swap1\n      sload\n      swap1\n      0x0100\n      exp\n      swap1\n      div\n      0xffffffffffffffffffffffffffffffffffffffff\n      and\n        /* \"contracts/subasta.sol\":2219:2238  msg.sender == owner */\n      0xffffffffffffffffffffffffffffffffffffffff\n      and\n        /* \"contracts/subasta.sol\":2219:2229  msg.sender */\n      caller\n        /* \"contracts/subasta.sol\":2219:2238  msg.sender == owner */\n      0xffffffffffffffffffffffffffffffffffffffff\n      and\n      sub\n        /* \"contracts/subasta.sol\":2215:2304  if (msg.sender == owner) {... */\n      tag_99\n      jumpi\n        /* \"contracts/subasta.sol\":2285:2290  owner */\n      0x00\n      0x00\n      swap1\n      sload\n      swap1\n      0x0100\n      exp\n      swap1\n      div\n      0xffffffffffffffffffffffffffffffffffffffff\n      and\n        /* \"contracts/subasta.sol\":2261:2293  OwnerCannotBid({ owner: owner }) */\n      mload(0x40)\n      0x196a9d9700000000000000000000000000000000000000000000000000000000\n      dup2\n      mstore\n      0x04\n      add\n      tag_100\n      swap2\n      swap1\n      tag_34\n      jump\t// in\n    tag_100:\n      mload(0x40)\n      dup1\n      swap2\n      sub\n      swap1\n      revert\n        /* \"contracts/subasta.sol\":2215:2304  if (msg.sender == owner) {... */\n    tag_99:\n        /* \"contracts/subasta.sol\":2390:2391  0 */\n      0x00\n        /* \"contracts/subasta.sol\":2370:2374  bids */\n      0x08\n        /* \"contracts/subasta.sol\":2370:2386  bids[msg.sender] */\n      0x00\n        /* \"contracts/subasta.sol\":2375:2385  msg.sender */\n      caller\n        /* \"contracts/subasta.sol\":2370:2386  bids[msg.sender] */\n      0xffffffffffffffffffffffffffffffffffffffff\n      and\n      0xffffffffffffffffffffffffffffffffffffffff\n      and\n      dup2\n      mstore\n      0x20\n      add\n      swap1\n      dup2\n      mstore\n      0x20\n      add\n      0x00\n      keccak256\n      sload\n        /* \"contracts/subasta.sol\":2370:2391  bids[msg.sender] != 0 */\n      eq\n        /* \"contracts/subasta.sol\":2366:2459  if (bids[msg.sender] != 0) {... */\n      tag_101\n      jumpi\n        /* \"contracts/subasta.sol\":2435:2445  msg.sender */\n      caller\n        /* \"contracts/subasta.sol\":2414:2448  AlreadyBid({ bidder: msg.sender }) */\n      mload(0x40)\n      0x18bdc38e00000000000000000000000000000000000000000000000000000000\n      dup2\n      mstore\n      0x04\n      add\n      tag_102\n      swap2\n      swap1\n      tag_34\n      jump\t// in\n    tag_102:\n      mload(0x40)\n      dup1\n      swap2\n      sub\n      swap1\n      revert\n        /* \"contracts/subasta.sol\":2366:2459  if (bids[msg.sender] != 0) {... */\n    tag_101:\n        /* \"contracts/subasta.sol\":2551:2557  minBid */\n      sload(0x02)\n        /* \"contracts/subasta.sol\":2539:2548  msg.value */\n      callvalue\n        /* \"contracts/subasta.sol\":2539:2557  msg.value < minBid */\n      lt\n        /* \"contracts/subasta.sol\":2535:2637  if (msg.value < minBid) {... */\n      iszero\n      tag_103\n      jumpi\n        /* \"contracts/subasta.sol\":2598:2607  msg.value */\n      callvalue\n        /* \"contracts/subasta.sol\":2617:2623  minBid */\n      sload(0x02)\n        /* \"contracts/subasta.sol\":2580:2626  BidTooLow({ sent: msg.value, minBid: minBid }) */\n      mload(0x40)\n      0xf0defc6100000000000000000000000000000000000000000000000000000000\n      dup2\n      mstore\n      0x04\n      add\n      tag_104\n      swap3\n      swap2\n      swap1\n      tag_66\n      jump\t// in\n    tag_104:\n      mload(0x40)\n      dup1\n      swap2\n      sub\n      swap1\n      revert\n        /* \"contracts/subasta.sol\":2535:2637  if (msg.value < minBid) {... */\n    tag_103:\n        /* \"contracts/subasta.sol\":2713:2722  msg.value */\n      callvalue\n        /* \"contracts/subasta.sol\":2703:2709  maxBid */\n      sload(0x03)\n        /* \"contracts/subasta.sol\":2703:2722  maxBid >= msg.value */\n      lt\n        /* \"contracts/subasta.sol\":2699:2810  if (maxBid >= msg.value) {... */\n      tag_105\n      jumpi\n        /* \"contracts/subasta.sol\":2767:2776  msg.value */\n      callvalue\n        /* \"contracts/subasta.sol\":2790:2796  maxBid */\n      sload(0x03)\n        /* \"contracts/subasta.sol\":2745:2799  NotHighestBid({ sent: msg.value, currentMax: maxBid }) */\n      mload(0x40)\n      0x4e8661ba00000000000000000000000000000000000000000000000000000000\n      dup2\n      mstore\n      0x04\n      add\n      tag_106\n      swap3\n      swap2\n      swap1\n      tag_66\n      jump\t// in\n    tag_106:\n      mload(0x40)\n      dup1\n      swap2\n      sub\n      swap1\n      revert\n        /* \"contracts/subasta.sol\":2699:2810  if (maxBid >= msg.value) {... */\n    tag_105:\n        /* \"contracts/subasta.sol\":2916:2932  uint256 required */\n      0x00\n        /* \"contracts/subasta.sol\":2948:2957  msg.value */\n      callvalue\n        /* \"contracts/subasta.sol\":2935:2945  0.01 ether */\n      0x2386f26fc10000\n        /* \"contracts/subasta.sol\":2935:2957  0.01 ether + msg.value */\n      tag_107\n      swap2\n      swap1\n      tag_108\n      jump\t// in\n    tag_107:\n        /* \"contracts/subasta.sol\":2916:2957  uint256 required = 0.01 ether + msg.value */\n      swap1\n      pop\n        /* \"contracts/subasta.sol\":2992:3000  required */\n      dup1\n        /* \"contracts/subasta.sol\":2971:2981  msg.sender */\n      caller\n        /* \"contracts/subasta.sol\":2971:2989  msg.sender.balance */\n      0xffffffffffffffffffffffffffffffffffffffff\n      and\n      balance\n        /* \"contracts/subasta.sol\":2971:3000  msg.sender.balance < required */\n      lt\n        /* \"contracts/subasta.sol\":2967:3161  if (msg.sender.balance < required) {... */\n      iszero\n      tag_109\n      jumpi\n        /* \"contracts/subasta.sol\":3076:3086  msg.sender */\n      caller\n        /* \"contracts/subasta.sol\":3076:3094  msg.sender.balance */\n      0xffffffffffffffffffffffffffffffffffffffff\n      and\n      balance\n        /* \"contracts/subasta.sol\":3127:3135  required */\n      dup2\n        /* \"contracts/subasta.sol\":3023:3150  InsufficientBalance({... */\n      mload(0x40)\n      0xcf47918100000000000000000000000000000000000000000000000000000000\n      dup2\n      mstore\n      0x04\n      add\n      tag_110\n      swap3\n      swap2\n      swap1\n      tag_66\n      jump\t// in\n    tag_110:\n      mload(0x40)\n      dup1\n      swap2\n      sub\n      swap1\n      revert\n        /* \"contracts/subasta.sol\":2967:3161  if (msg.sender.balance < required) {... */\n    tag_109:\n        /* \"contracts/subasta.sol\":3209:3218  msg.value */\n      callvalue\n        /* \"contracts/subasta.sol\":3190:3194  bids */\n      0x08\n        /* \"contracts/subasta.sol\":3190:3206  bids[msg.sender] */\n      0x00\n        /* \"contracts/subasta.sol\":3195:3205  msg.sender */\n      caller\n        /* \"contracts/subasta.sol\":3190:3206  bids[msg.sender] */\n      0xffffffffffffffffffffffffffffffffffffffff\n      and\n      0xffffffffffffffffffffffffffffffffffffffff\n      and\n      dup2\n      mstore\n      0x20\n      add\n      swap1\n      dup2\n      mstore\n      0x20\n      add\n      0x00\n      keccak256\n        /* \"contracts/subasta.sol\":3190:3218  bids[msg.sender] = msg.value */\n      dup2\n      swap1\n      sstore\n      pop\n        /* \"contracts/subasta.sol\":3237:3246  msg.value */\n      callvalue\n        /* \"contracts/subasta.sol\":3228:3234  maxBid */\n      0x03\n        /* \"contracts/subasta.sol\":3228:3246  maxBid = msg.value */\n      dup2\n      swap1\n      sstore\n      pop\n        /* \"contracts/subasta.sol\":3272:3282  msg.sender */\n      caller\n        /* \"contracts/subasta.sol\":3256:3269  addressMaxBid */\n      0x04\n      0x00\n        /* \"contracts/subasta.sol\":3256:3282  addressMaxBid = msg.sender */\n      0x0100\n      exp\n      dup2\n      sload\n      dup2\n      0xffffffffffffffffffffffffffffffffffffffff\n      mul\n      not\n      and\n      swap1\n      dup4\n      0xffffffffffffffffffffffffffffffffffffffff\n      and\n      mul\n      or\n      swap1\n      sstore\n      pop\n        /* \"contracts/subasta.sol\":3292:3299  numBids */\n      0x06\n      0x00\n        /* \"contracts/subasta.sol\":3292:3301  numBids++ */\n      dup2\n      sload\n      dup1\n      swap3\n      swap2\n      swap1\n      tag_111\n      swap1\n      tag_112\n      jump\t// in\n    tag_111:\n      swap2\n      swap1\n      pop\n      sstore\n      pop\n        /* \"contracts/subasta.sol\":3316:3342  Bid(msg.sender, msg.value) */\n      0xe684a55f31b79eca403df938249029212a5925ec6be8012e099b45bc1019e5d2\n        /* \"contracts/subasta.sol\":3320:3330  msg.sender */\n      caller\n        /* \"contracts/subasta.sol\":3332:3341  msg.value */\n      callvalue\n        /* \"contracts/subasta.sol\":3316:3342  Bid(msg.sender, msg.value) */\n      mload(0x40)\n      tag_113\n      swap3\n      swap2\n      swap1\n      tag_74\n      jump\t// in\n    tag_113:\n      mload(0x40)\n      dup1\n      swap2\n      sub\n      swap1\n      log1\n        /* \"contracts/subasta.sol\":1883:3349  {... */\n      pop\n        /* \"contracts/subasta.sol\":1846:3349  function makeBid () external payable {... */\n      jump\t// out\n        /* \"#utility.yul\":7:97   */\n    tag_114:\n        /* \"#utility.yul\":41:48   */\n      0x00\n        /* \"#utility.yul\":84:89   */\n      dup2\n        /* \"#utility.yul\":77:90   */\n      iszero\n        /* \"#utility.yul\":70:91   */\n      iszero\n        /* \"#utility.yul\":59:91   */\n      swap1\n      pop\n        /* \"#utility.yul\":7:97   */\n      swap2\n      swap1\n      pop\n      jump\t// out\n        /* \"#utility.yul\":103:212   */\n    tag_115:\n        /* \"#utility.yul\":184:205   */\n      tag_134\n        /* \"#utility.yul\":199:204   */\n      dup2\n        /* \"#utility.yul\":184:205   */\n      tag_114\n      jump\t// in\n    tag_134:\n        /* \"#utility.yul\":179:182   */\n      dup3\n        /* \"#utility.yul\":172:206   */\n      mstore\n        /* \"#utility.yul\":103:212   */\n      pop\n      pop\n      jump\t// out\n        /* \"#utility.yul\":218:428   */\n    tag_18:\n        /* \"#utility.yul\":305:309   */\n      0x00\n        /* \"#utility.yul\":343:345   */\n      0x20\n        /* \"#utility.yul\":332:341   */\n      dup3\n        /* \"#utility.yul\":328:346   */\n      add\n        /* \"#utility.yul\":320:346   */\n      swap1\n      pop\n        /* \"#utility.yul\":356:421   */\n      tag_136\n        /* \"#utility.yul\":418:419   */\n      0x00\n        /* \"#utility.yul\":407:416   */\n      dup4\n        /* \"#utility.yul\":403:420   */\n      add\n        /* \"#utility.yul\":394:400   */\n      dup5\n        /* \"#utility.yul\":356:421   */\n      tag_115\n      jump\t// in\n    tag_136:\n        /* \"#utility.yul\":218:428   */\n      swap3\n      swap2\n      pop\n      pop\n      jump\t// out\n        /* \"#utility.yul\":434:511   */\n    tag_116:\n        /* \"#utility.yul\":471:478   */\n      0x00\n        /* \"#utility.yul\":500:505   */\n      dup2\n        /* \"#utility.yul\":489:505   */\n      swap1\n      pop\n        /* \"#utility.yul\":434:511   */\n      swap2\n      swap1\n      pop\n      jump\t// out\n        /* \"#utility.yul\":517:635   */\n    tag_117:\n        /* \"#utility.yul\":604:628   */\n      tag_139\n        /* \"#utility.yul\":622:627   */\n      dup2\n        /* \"#utility.yul\":604:628   */\n      tag_116\n      jump\t// in\n    tag_139:\n        /* \"#utility.yul\":599:602   */\n      dup3\n        /* \"#utility.yul\":592:629   */\n      mstore\n        /* \"#utility.yul\":517:635   */\n      pop\n      pop\n      jump\t// out\n        /* \"#utility.yul\":641:863   */\n    tag_23:\n        /* \"#utility.yul\":734:738   */\n      0x00\n        /* \"#utility.yul\":772:774   */\n      0x20\n        /* \"#utility.yul\":761:770   */\n      dup3\n        /* \"#utility.yul\":757:775   */\n      add\n        /* \"#utility.yul\":749:775   */\n      swap1\n      pop\n        /* \"#utility.yul\":785:856   */\n      tag_141\n        /* \"#utility.yul\":853:854   */\n      0x00\n        /* \"#utility.yul\":842:851   */\n      dup4\n        /* \"#utility.yul\":838:855   */\n      add\n        /* \"#utility.yul\":829:835   */\n      dup5\n        /* \"#utility.yul\":785:856   */\n      tag_117\n      jump\t// in\n    tag_141:\n        /* \"#utility.yul\":641:863   */\n      swap3\n      swap2\n      pop\n      pop\n      jump\t// out\n        /* \"#utility.yul\":869:995   */\n    tag_118:\n        /* \"#utility.yul\":906:913   */\n      0x00\n        /* \"#utility.yul\":946:988   */\n      0xffffffffffffffffffffffffffffffffffffffff\n        /* \"#utility.yul\":939:944   */\n      dup3\n        /* \"#utility.yul\":935:989   */\n      and\n        /* \"#utility.yul\":924:989   */\n      swap1\n      pop\n        /* \"#utility.yul\":869:995   */\n      swap2\n      swap1\n      pop\n      jump\t// out\n        /* \"#utility.yul\":1001:1097   */\n    tag_119:\n        /* \"#utility.yul\":1038:1045   */\n      0x00\n        /* \"#utility.yul\":1067:1091   */\n      tag_144\n        /* \"#utility.yul\":1085:1090   */\n      dup3\n        /* \"#utility.yul\":1067:1091   */\n      tag_118\n      jump\t// in\n    tag_144:\n        /* \"#utility.yul\":1056:1091   */\n      swap1\n      pop\n        /* \"#utility.yul\":1001:1097   */\n      swap2\n      swap1\n      pop\n      jump\t// out\n        /* \"#utility.yul\":1103:1221   */\n    tag_120:\n        /* \"#utility.yul\":1190:1214   */\n      tag_146\n        /* \"#utility.yul\":1208:1213   */\n      dup2\n        /* \"#utility.yul\":1190:1214   */\n      tag_119\n      jump\t// in\n    tag_146:\n        /* \"#utility.yul\":1185:1188   */\n      dup3\n        /* \"#utility.yul\":1178:1215   */\n      mstore\n        /* \"#utility.yul\":1103:1221   */\n      pop\n      pop\n      jump\t// out\n        /* \"#utility.yul\":1227:1449   */\n    tag_34:\n        /* \"#utility.yul\":1320:1324   */\n      0x00\n        /* \"#utility.yul\":1358:1360   */\n      0x20\n        /* \"#utility.yul\":1347:1356   */\n      dup3\n        /* \"#utility.yul\":1343:1361   */\n      add\n        /* \"#utility.yul\":1335:1361   */\n      swap1\n      pop\n        /* \"#utility.yul\":1371:1442   */\n      tag_148\n        /* \"#utility.yul\":1439:1440   */\n      0x00\n        /* \"#utility.yul\":1428:1437   */\n      dup4\n        /* \"#utility.yul\":1424:1441   */\n      add\n        /* \"#utility.yul\":1415:1421   */\n      dup5\n        /* \"#utility.yul\":1371:1442   */\n      tag_120\n      jump\t// in\n    tag_148:\n        /* \"#utility.yul\":1227:1449   */\n      swap3\n      swap2\n      pop\n      pop\n      jump\t// out\n        /* \"#utility.yul\":1455:1554   */\n    tag_121:\n        /* \"#utility.yul\":1507:1513   */\n      0x00\n        /* \"#utility.yul\":1541:1546   */\n      dup2\n        /* \"#utility.yul\":1535:1547   */\n      mload\n        /* \"#utility.yul\":1525:1547   */\n      swap1\n      pop\n        /* \"#utility.yul\":1455:1554   */\n      swap2\n      swap1\n      pop\n      jump\t// out\n        /* \"#utility.yul\":1560:1729   */\n    tag_122:\n        /* \"#utility.yul\":1644:1655   */\n      0x00\n        /* \"#utility.yul\":1678:1684   */\n      dup3\n        /* \"#utility.yul\":1673:1676   */\n      dup3\n        /* \"#utility.yul\":1666:1685   */\n      mstore\n        /* \"#utility.yul\":1718:1722   */\n      0x20\n        /* \"#utility.yul\":1713:1716   */\n      dup3\n        /* \"#utility.yul\":1709:1723   */\n      add\n        /* \"#utility.yul\":1694:1723   */\n      swap1\n      pop\n        /* \"#utility.yul\":1560:1729   */\n      swap3\n      swap2\n      pop\n      pop\n      jump\t// out\n        /* \"#utility.yul\":1735:1874   */\n    tag_123:\n        /* \"#utility.yul\":1824:1830   */\n      dup3\n        /* \"#utility.yul\":1819:1822   */\n      dup2\n        /* \"#utility.yul\":1814:1817   */\n      dup4\n        /* \"#utility.yul\":1808:1831   */\n      mcopy\n        /* \"#utility.yul\":1865:1866   */\n      0x00\n        /* \"#utility.yul\":1856:1862   */\n      dup4\n        /* \"#utility.yul\":1851:1854   */\n      dup4\n        /* \"#utility.yul\":1847:1863   */\n      add\n        /* \"#utility.yul\":1840:1867   */\n      mstore\n        /* \"#utility.yul\":1735:1874   */\n      pop\n      pop\n      pop\n      jump\t// out\n        /* \"#utility.yul\":1880:1982   */\n    tag_124:\n        /* \"#utility.yul\":1921:1927   */\n      0x00\n        /* \"#utility.yul\":1972:1974   */\n      0x1f\n        /* \"#utility.yul\":1968:1975   */\n      not\n        /* \"#utility.yul\":1963:1965   */\n      0x1f\n        /* \"#utility.yul\":1956:1961   */\n      dup4\n        /* \"#utility.yul\":1952:1966   */\n      add\n        /* \"#utility.yul\":1948:1976   */\n      and\n        /* \"#utility.yul\":1938:1976   */\n      swap1\n      pop\n        /* \"#utility.yul\":1880:1982   */\n      swap2\n      swap1\n      pop\n      jump\t// out\n        /* \"#utility.yul\":1988:2365   */\n    tag_125:\n        /* \"#utility.yul\":2076:2079   */\n      0x00\n        /* \"#utility.yul\":2104:2143   */\n      tag_154\n        /* \"#utility.yul\":2137:2142   */\n      dup3\n        /* \"#utility.yul\":2104:2143   */\n      tag_121\n      jump\t// in\n    tag_154:\n        /* \"#utility.yul\":2159:2230   */\n      tag_155\n        /* \"#utility.yul\":2223:2229   */\n      dup2\n        /* \"#utility.yul\":2218:2221   */\n      dup6\n        /* \"#utility.yul\":2159:2230   */\n      tag_122\n      jump\t// in\n    tag_155:\n        /* \"#utility.yul\":2152:2230   */\n      swap4\n      pop\n        /* \"#utility.yul\":2239:2304   */\n      tag_156\n        /* \"#utility.yul\":2297:2303   */\n      dup2\n        /* \"#utility.yul\":2292:2295   */\n      dup6\n        /* \"#utility.yul\":2285:2289   */\n      0x20\n        /* \"#utility.yul\":2278:2283   */\n      dup7\n        /* \"#utility.yul\":2274:2290   */\n      add\n        /* \"#utility.yul\":2239:2304   */\n      tag_123\n      jump\t// in\n    tag_156:\n        /* \"#utility.yul\":2329:2358   */\n      tag_157\n        /* \"#utility.yul\":2351:2357   */\n      dup2\n        /* \"#utility.yul\":2329:2358   */\n      tag_124\n      jump\t// in\n    tag_157:\n        /* \"#utility.yul\":2324:2327   */\n      dup5\n        /* \"#utility.yul\":2320:2359   */\n      add\n        /* \"#utility.yul\":2313:2359   */\n      swap2\n      pop\n        /* \"#utility.yul\":2080:2365   */\n      pop\n        /* \"#utility.yul\":1988:2365   */\n      swap3\n      swap2\n      pop\n      pop\n      jump\t// out\n        /* \"#utility.yul\":2371:2684   */\n    tag_39:\n        /* \"#utility.yul\":2484:2488   */\n      0x00\n        /* \"#utility.yul\":2522:2524   */\n      0x20\n        /* \"#utility.yul\":2511:2520   */\n      dup3\n        /* \"#utility.yul\":2507:2525   */\n      add\n        /* \"#utility.yul\":2499:2525   */\n      swap1\n      pop\n        /* \"#utility.yul\":2571:2580   */\n      dup2\n        /* \"#utility.yul\":2565:2569   */\n      dup2\n        /* \"#utility.yul\":2561:2581   */\n      sub\n        /* \"#utility.yul\":2557:2558   */\n      0x00\n        /* \"#utility.yul\":2546:2555   */\n      dup4\n        /* \"#utility.yul\":2542:2559   */\n      add\n        /* \"#utility.yul\":2535:2582   */\n      mstore\n        /* \"#utility.yul\":2599:2677   */\n      tag_159\n        /* \"#utility.yul\":2672:2676   */\n      dup2\n        /* \"#utility.yul\":2663:2669   */\n      dup5\n        /* \"#utility.yul\":2599:2677   */\n      tag_125\n      jump\t// in\n    tag_159:\n        /* \"#utility.yul\":2591:2677   */\n      swap1\n      pop\n        /* \"#utility.yul\":2371:2684   */\n      swap3\n      swap2\n      pop\n      pop\n      jump\t// out\n        /* \"#utility.yul\":2690:3022   */\n    tag_66:\n        /* \"#utility.yul\":2811:2815   */\n      0x00\n        /* \"#utility.yul\":2849:2851   */\n      0x40\n        /* \"#utility.yul\":2838:2847   */\n      dup3\n        /* \"#utility.yul\":2834:2852   */\n      add\n        /* \"#utility.yul\":2826:2852   */\n      swap1\n      pop\n        /* \"#utility.yul\":2862:2933   */\n      tag_161\n        /* \"#utility.yul\":2930:2931   */\n      0x00\n        /* \"#utility.yul\":2919:2928   */\n      dup4\n        /* \"#utility.yul\":2915:2932   */\n      add\n        /* \"#utility.yul\":2906:2912   */\n      dup6\n        /* \"#utility.yul\":2862:2933   */\n      tag_117\n      jump\t// in\n    tag_161:\n        /* \"#utility.yul\":2943:3015   */\n      tag_162\n        /* \"#utility.yul\":3011:3013   */\n      0x20\n        /* \"#utility.yul\":3000:3009   */\n      dup4\n        /* \"#utility.yul\":2996:3014   */\n      add\n        /* \"#utility.yul\":2987:2993   */\n      dup5\n        /* \"#utility.yul\":2943:3015   */\n      tag_117\n      jump\t// in\n    tag_162:\n        /* \"#utility.yul\":2690:3022   */\n      swap4\n      swap3\n      pop\n      pop\n      pop\n      jump\t// out\n        /* \"#utility.yul\":3028:3175   */\n    tag_126:\n        /* \"#utility.yul\":3129:3140   */\n      0x00\n        /* \"#utility.yul\":3166:3169   */\n      dup2\n        /* \"#utility.yul\":3151:3169   */\n      swap1\n      pop\n        /* \"#utility.yul\":3028:3175   */\n      swap3\n      swap2\n      pop\n      pop\n      jump\t// out\n        /* \"#utility.yul\":3181:3295   */\n    tag_127:\n      pop\n      jump\t// out\n        /* \"#utility.yul\":3301:3699   */\n    tag_128:\n        /* \"#utility.yul\":3460:3463   */\n      0x00\n        /* \"#utility.yul\":3481:3564   */\n      tag_166\n        /* \"#utility.yul\":3562:3563   */\n      0x00\n        /* \"#utility.yul\":3557:3560   */\n      dup4\n        /* \"#utility.yul\":3481:3564   */\n      tag_126\n      jump\t// in\n    tag_166:\n        /* \"#utility.yul\":3474:3564   */\n      swap2\n      pop\n        /* \"#utility.yul\":3573:3666   */\n      tag_167\n        /* \"#utility.yul\":3662:3665   */\n      dup3\n        /* \"#utility.yul\":3573:3666   */\n      tag_127\n      jump\t// in\n    tag_167:\n        /* \"#utility.yul\":3691:3692   */\n      0x00\n        /* \"#utility.yul\":3686:3689   */\n      dup3\n        /* \"#utility.yul\":3682:3693   */\n      add\n        /* \"#utility.yul\":3675:3693   */\n      swap1\n      pop\n        /* \"#utility.yul\":3301:3699   */\n      swap2\n      swap1\n      pop\n      jump\t// out\n        /* \"#utility.yul\":3705:4084   */\n    tag_68:\n        /* \"#utility.yul\":3889:3892   */\n      0x00\n        /* \"#utility.yul\":3911:4058   */\n      tag_169\n        /* \"#utility.yul\":4054:4057   */\n      dup3\n        /* \"#utility.yul\":3911:4058   */\n      tag_128\n      jump\t// in\n    tag_169:\n        /* \"#utility.yul\":3904:4058   */\n      swap2\n      pop\n        /* \"#utility.yul\":4075:4078   */\n      dup2\n        /* \"#utility.yul\":4068:4078   */\n      swap1\n      pop\n        /* \"#utility.yul\":3705:4084   */\n      swap2\n      swap1\n      pop\n      jump\t// out\n        /* \"#utility.yul\":4090:4422   */\n    tag_74:\n        /* \"#utility.yul\":4211:4215   */\n      0x00\n        /* \"#utility.yul\":4249:4251   */\n      0x40\n        /* \"#utility.yul\":4238:4247   */\n      dup3\n        /* \"#utility.yul\":4234:4252   */\n      add\n        /* \"#utility.yul\":4226:4252   */\n      swap1\n      pop\n        /* \"#utility.yul\":4262:4333   */\n      tag_171\n        /* \"#utility.yul\":4330:4331   */\n      0x00\n        /* \"#utility.yul\":4319:4328   */\n      dup4\n        /* \"#utility.yul\":4315:4332   */\n      add\n        /* \"#utility.yul\":4306:4312   */\n      dup6\n        /* \"#utility.yul\":4262:4333   */\n      tag_120\n      jump\t// in\n    tag_171:\n        /* \"#utility.yul\":4343:4415   */\n      tag_172\n        /* \"#utility.yul\":4411:4413   */\n      0x20\n        /* \"#utility.yul\":4400:4409   */\n      dup4\n        /* \"#utility.yul\":4396:4414   */\n      add\n        /* \"#utility.yul\":4387:4393   */\n      dup5\n        /* \"#utility.yul\":4343:4415   */\n      tag_117\n      jump\t// in\n    tag_172:\n        /* \"#utility.yul\":4090:4422   */\n      swap4\n      swap3\n      pop\n      pop\n      pop\n      jump\t// out\n        /* \"#utility.yul\":4428:4608   */\n    tag_129:\n        /* \"#utility.yul\":4476:4553   */\n      0x4e487b7100000000000000000000000000000000000000000000000000000000\n        /* \"#utility.yul\":4473:4474   */\n      0x00\n        /* \"#utility.yul\":4466:4554   */\n      mstore\n        /* \"#utility.yul\":4573:4577   */\n      0x22\n        /* \"#utility.yul\":4570:4571   */\n      0x04\n        /* \"#utility.yul\":4563:4578   */\n      mstore\n        /* \"#utility.yul\":4597:4601   */\n      0x24\n        /* \"#utility.yul\":4594:4595   */\n      0x00\n        /* \"#utility.yul\":4587:4602   */\n      revert\n        /* \"#utility.yul\":4614:4934   */\n    tag_91:\n        /* \"#utility.yul\":4658:4664   */\n      0x00\n        /* \"#utility.yul\":4695:4696   */\n      0x02\n        /* \"#utility.yul\":4689:4693   */\n      dup3\n        /* \"#utility.yul\":4685:4697   */\n      div\n        /* \"#utility.yul\":4675:4697   */\n      swap1\n      pop\n        /* \"#utility.yul\":4742:4743   */\n      0x01\n        /* \"#utility.yul\":4736:4740   */\n      dup3\n        /* \"#utility.yul\":4732:4744   */\n      and\n        /* \"#utility.yul\":4763:4781   */\n      dup1\n        /* \"#utility.yul\":4753:4834   */\n      tag_175\n      jumpi\n        /* \"#utility.yul\":4819:4823   */\n      0x7f\n        /* \"#utility.yul\":4811:4817   */\n      dup3\n        /* \"#utility.yul\":4807:4824   */\n      and\n        /* \"#utility.yul\":4797:4824   */\n      swap2\n      pop\n        /* \"#utility.yul\":4753:4834   */\n    tag_175:\n        /* \"#utility.yul\":4881:4883   */\n      0x20\n        /* \"#utility.yul\":4873:4879   */\n      dup3\n        /* \"#utility.yul\":4870:4884   */\n      lt\n        /* \"#utility.yul\":4850:4868   */\n      dup2\n        /* \"#utility.yul\":4847:4885   */\n      sub\n        /* \"#utility.yul\":4844:4928   */\n      tag_176\n      jumpi\n        /* \"#utility.yul\":4900:4918   */\n      tag_177\n      tag_129\n      jump\t// in\n    tag_177:\n        /* \"#utility.yul\":4844:4928   */\n    tag_176:\n        /* \"#utility.yul\":4665:4934   */\n      pop\n        /* \"#utility.yul\":4614:4934   */\n      swap2\n      swap1\n      pop\n      jump\t// out\n        /* \"#utility.yul\":4940:5120   */\n    tag_130:\n        /* \"#utility.yul\":4988:5065   */\n      0x4e487b7100000000000000000000000000000000000000000000000000000000\n        /* \"#utility.yul\":4985:4986   */\n      0x00\n        /* \"#utility.yul\":4978:5066   */\n      mstore\n        /* \"#utility.yul\":5085:5089   */\n      0x11\n        /* \"#utility.yul\":5082:5083   */\n      0x04\n        /* \"#utility.yul\":5075:5090   */\n      mstore\n        /* \"#utility.yul\":5109:5113   */\n      0x24\n        /* \"#utility.yul\":5106:5107   */\n      0x00\n        /* \"#utility.yul\":5099:5114   */\n      revert\n        /* \"#utility.yul\":5126:5317   */\n    tag_108:\n        /* \"#utility.yul\":5166:5169   */\n      0x00\n        /* \"#utility.yul\":5185:5205   */\n      tag_180\n        /* \"#utility.yul\":5203:5204   */\n      dup3\n        /* \"#utility.yul\":5185:5205   */\n      tag_116\n      jump\t// in\n    tag_180:\n        /* \"#utility.yul\":5180:5205   */\n      swap2\n      pop\n        /* \"#utility.yul\":5219:5239   */\n      tag_181\n        /* \"#utility.yul\":5237:5238   */\n      dup4\n        /* \"#utility.yul\":5219:5239   */\n      tag_116\n      jump\t// in\n    tag_181:\n        /* \"#utility.yul\":5214:5239   */\n      swap3\n      pop\n        /* \"#utility.yul\":5262:5263   */\n      dup3\n        /* \"#utility.yul\":5259:5260   */\n      dup3\n        /* \"#utility.yul\":5255:5264   */\n      add\n        /* \"#utility.yul\":5248:5264   */\n      swap1\n      pop\n        /* \"#utility.yul\":5283:5286   */\n      dup1\n        /* \"#utility.yul\":5280:5281   */\n      dup3\n        /* \"#utility.yul\":5277:5287   */\n      gt\n        /* \"#utility.yul\":5274:5310   */\n      iszero\n      tag_182\n      jumpi\n        /* \"#utility.yul\":5290:5308   */\n      tag_183\n      tag_130\n      jump\t// in\n    tag_183:\n        /* \"#utility.yul\":5274:5310   */\n    tag_182:\n        /* \"#utility.yul\":5126:5317   */\n      swap3\n      swap2\n      pop\n      pop\n      jump\t// out\n        /* \"#utility.yul\":5323:5556   */\n    tag_112:\n        /* \"#utility.yul\":5362:5365   */\n      0x00\n        /* \"#utility.yul\":5385:5409   */\n      tag_185\n        /* \"#utility.yul\":5403:5408   */\n      dup3\n        /* \"#utility.yul\":5385:5409   */\n      tag_116\n      jump\t// in\n    tag_185:\n        /* \"#utility.yul\":5376:5409   */\n      swap2\n      pop\n        /* \"#utility.yul\":5431:5497   */\n      0xffffffffffffffffffffffffffffffffffffffffffffffffffffffffffffffff\n        /* \"#utility.yul\":5424:5429   */\n      dup3\n        /* \"#utility.yul\":5421:5498   */\n      sub\n        /* \"#utility.yul\":5418:5521   */\n      tag_186\n      jumpi\n        /* \"#utility.yul\":5501:5519   */\n      tag_187\n      tag_130\n      jump\t// in\n    tag_187:\n        /* \"#utility.yul\":5418:5521   */\n    tag_186:\n        /* \"#utility.yul\":5548:5549   */\n      0x01\n        /* \"#utility.yul\":5541:5546   */\n      dup3\n        /* \"#utility.yul\":5537:5550   */\n      add\n        /* \"#utility.yul\":5530:5550   */\n      swap1\n      pop\n        /* \"#utility.yul\":5323:5556   */\n      swap2\n      swap1\n      pop\n      jump\t// out\n\n    auxdata: 0xa2646970667358221220ff1ec4cf0a24d6b88f2a1f572650fd5643e087c3a513233f8ae21f493854881c64736f6c634300081e0033\n}\n",
				"bytecode": {
					"linkReferences": {},
					"object": "608060405273f55301514c27489fde7c9cd9a3ea8044e7e045795f5f6101000a81548173ffffffffffffffffffffffffffffffffffffffff021916908373ffffffffffffffffffffffffffffffffffffffff160217905550348015610062575f5ffd5b506040516115573803806115578339818101604052810190610084919061024f565b826001908161009391906104c2565b508160028190555081600381905550603c816100af91906105be565b426100ba91906105ff565b6005819055505f600681905550505050610632565b5f604051905090565b5f5ffd5b5f5ffd5b5f5ffd5b5f5ffd5b5f601f19601f8301169050919050565b7f4e487b71000000000000000000000000000000000000000000000000000000005f52604160045260245ffd5b61012e826100e8565b810181811067ffffffffffffffff8211171561014d5761014c6100f8565b5b80604052505050565b5f61015f6100cf565b905061016b8282610125565b919050565b5f67ffffffffffffffff82111561018a576101896100f8565b5b610193826100e8565b9050602081019050919050565b8281835e5f83830152505050565b5f6101c06101bb84610170565b610156565b9050828152602081018484840111156101dc576101db6100e4565b5b6101e78482856101a0565b509392505050565b5f82601f830112610203576102026100e0565b5b81516102138482602086016101ae565b91505092915050565b5f819050919050565b61022e8161021c565b8114610238575f5ffd5b50565b5f8151905061024981610225565b92915050565b5f5f5f60608486031215610266576102656100d8565b5b5f84015167ffffffffffffffff811115610283576102826100dc565b5b61028f868287016101ef565b93505060206102a08682870161023b565b92505060406102b18682870161023b565b9150509250925092565b5f81519050919050565b7f4e487b71000000000000000000000000000000000000000000000000000000005f52602260045260245ffd5b5f600282049050600182168061030957607f821691505b60208210810361031c5761031b6102c5565b5b50919050565b5f819050815f5260205f209050919050565b5f6020601f8301049050919050565b5f82821b905092915050565b5f6008830261037e7fffffffffffffffffffffffffffffffffffffffffffffffffffffffffffffffff82610343565b6103888683610343565b95508019841693508086168417925050509392505050565b5f819050919050565b5f6103c36103be6103b98461021c565b6103a0565b61021c565b9050919050565b5f819050919050565b6103dc836103a9565b6103f06103e8826103ca565b84845461034f565b825550505050565b5f5f905090565b6104076103f8565b6104128184846103d3565b505050565b5b818110156104355761042a5f826103ff565b600181019050610418565b5050565b601f82111561047a5761044b81610322565b61045484610334565b81016020851015610463578190505b61047761046f85610334565b830182610417565b50505b505050565b5f82821c905092915050565b5f61049a5f198460080261047f565b1980831691505092915050565b5f6104b2838361048b565b9150826002028217905092915050565b6104cb826102bb565b67ffffffffffffffff8111156104e4576104e36100f8565b5b6104ee82546102f2565b6104f9828285610439565b5f60209050601f83116001811461052a575f8415610518578287015190505b61052285826104a7565b865550610589565b601f19841661053886610322565b5f5b8281101561055f5784890151825560018201915060208501945060208101905061053a565b8683101561057c5784890151610578601f89168261048b565b8355505b6001600288020188555050505b505050505050565b7f4e487b71000000000000000000000000000000000000000000000000000000005f52601160045260245ffd5b5f6105c88261021c565b91506105d38361021c565b92508282026105e18161021c565b915082820484148315176105f8576105f7610591565b5b5092915050565b5f6106098261021c565b91506106148361021c565b925082820190508082111561062c5761062b610591565b5b92915050565b610f188061063f5f395ff3fe60806040526004361061009b575f3560e01c80637284e416116100635780637284e4161461014957806374b11d8a146101735780638da5cb5b1461019d578063bef3a083146101c7578063ce9ec0a6146101f1578063f30e36581461021b5761009b565b806322f3e2d41461009f5780633e109a19146100c95780634311de8f146100f3578063590e1ae3146101095780636569ddf51461011f575b5f5ffd5b3480156100aa575f5ffd5b506100b3610225565b6040516100c09190610c1d565b60405180910390f35b3480156100d4575f5ffd5b506100dd610230565b6040516100ea9190610c4e565b60405180910390f35b3480156100fe575f5ffd5b50610107610236565b005b348015610114575f5ffd5b5061011d610492565b005b34801561012a575f5ffd5b506101336107a5565b6040516101409190610ca6565b60405180910390f35b348015610154575f5ffd5b5061015d6107ca565b60405161016a9190610d2f565b60405180910390f35b34801561017e575f5ffd5b50610187610856565b6040516101949190610c4e565b60405180910390f35b3480156101a8575f5ffd5b506101b161085c565b6040516101be9190610ca6565b60405180910390f35b3480156101d2575f5ffd5b506101db610880565b6040516101e89190610c4e565b60405180910390f35b3480156101fc575f5ffd5b50610205610886565b6040516102129190610c4e565b60405180910390f35b61022361088c565b005b5f6005544210905090565b60025481565b60075f9054906101000a900460ff161561024e575f5ffd5b600160075f6101000a81548160ff0219169083151502179055505f5f9054906101000a900473ffffffffffffffffffffffffffffffffffffffff1673ffffffffffffffffffffffffffffffffffffffff163373ffffffffffffffffffffffffffffffffffffffff16146102f857336040517f245aecd30000000000000000000000000000000000000000000000000000000081526004016102ef9190610ca6565b60405180910390fd5b60055442101561034357426005546040517ff7d22c9400000000000000000000000000000000000000000000000000000000815260040161033a929190610d4f565b60405180910390fd5b5f60085f60045f9054906101000a900473ffffffffffffffffffffffffffffffffffffffff1673ffffffffffffffffffffffffffffffffffffffff1673ffffffffffffffffffffffffffffffffffffffff1681526020019081526020015f20819055505f5f5f9054906101000a900473ffffffffffffffffffffffffffffffffffffffff1673ffffffffffffffffffffffffffffffffffffffff166003546040516103ed90610da3565b5f6040518083038185875af1925050503d805f8114610427576040519150601f19603f3d011682016040523d82523d5f602084013e61042c565b606091505b505090508061047657336003546040517f6bd13a7000000000000000000000000000000000000000000000000000000000815260040161046d929190610db7565b60405180910390fd5b505f60075f6101000a81548160ff021916908315150217905550565b60075f9054906101000a900460ff16156104aa575f5ffd5b600160075f6101000a81548160ff02191690831515021790555060055442101561050f57426005546040517ff7d22c94000000000000000000000000000000000000000000000000000000008152600401610506929190610d4f565b60405180910390fd5b3373ffffffffffffffffffffffffffffffffffffffff1660045f9054906101000a900473ffffffffffffffffffffffffffffffffffffffff1673ffffffffffffffffffffffffffffffffffffffff16036105a057336040517fbfbd9bb00000000000000000000000000000000000000000000000000000000081526004016105979190610ca6565b60405180910390fd5b5f60085f3373ffffffffffffffffffffffffffffffffffffffff1673ffffffffffffffffffffffffffffffffffffffff1681526020019081526020015f20540361062157336040517f3fb1b3410000000000000000000000000000000000000000000000000000000081526004016106189190610ca6565b60405180910390fd5b5f60085f3373ffffffffffffffffffffffffffffffffffffffff1673ffffffffffffffffffffffffffffffffffffffff1681526020019081526020015f20819055505f3373ffffffffffffffffffffffffffffffffffffffff1660085f3373ffffffffffffffffffffffffffffffffffffffff1673ffffffffffffffffffffffffffffffffffffffff1681526020019081526020015f20546040516106c590610da3565b5f6040518083038185875af1925050503d805f81146106ff576040519150601f19603f3d011682016040523d82523d5f602084013e610704565b606091505b5050905080610789573360085f3373ffffffffffffffffffffffffffffffffffffffff1673ffffffffffffffffffffffffffffffffffffffff1681526020019081526020015f20546040517f0be0d097000000000000000000000000000000000000000000000000000000008152600401610780929190610db7565b60405180910390fd5b505f60075f6101000a81548160ff021916908315150217905550565b60045f9054906101000a900473ffffffffffffffffffffffffffffffffffffffff1681565b600180546107d790610e0b565b80601f016020809104026020016040519081016040528092919081815260200182805461080390610e0b565b801561084e5780601f106108255761010080835404028352916020019161084e565b820191905f5260205f20905b81548152906001019060200180831161083157829003601f168201915b505050505081565b60035481565b5f5f9054906101000a900473ffffffffffffffffffffffffffffffffffffffff1681565b60055481565b60065481565b60055442106108d657426005546040517fe536ac540000000000000000000000000000000000000000000000000000000081526004016108cd929190610d4f565b60405180910390fd5b5f5f9054906101000a900473ffffffffffffffffffffffffffffffffffffffff1673ffffffffffffffffffffffffffffffffffffffff163373ffffffffffffffffffffffffffffffffffffffff1603610986575f5f9054906101000a900473ffffffffffffffffffffffffffffffffffffffff166040517f196a9d9700000000000000000000000000000000000000000000000000000000815260040161097d9190610ca6565b60405180910390fd5b5f60085f3373ffffffffffffffffffffffffffffffffffffffff1673ffffffffffffffffffffffffffffffffffffffff1681526020019081526020015f205414610a0757336040517f18bdc38e0000000000000000000000000000000000000000000000000000000081526004016109fe9190610ca6565b60405180910390fd5b600254341015610a5257346002546040517ff0defc61000000000000000000000000000000000000000000000000000000008152600401610a49929190610d4f565b60405180910390fd5b3460035410610a9c57346003546040517f4e8661ba000000000000000000000000000000000000000000000000000000008152600401610a93929190610d4f565b60405180910390fd5b5f34662386f26fc10000610ab09190610e68565b9050803373ffffffffffffffffffffffffffffffffffffffff16311015610b27573373ffffffffffffffffffffffffffffffffffffffff1631816040517fcf479181000000000000000000000000000000000000000000000000000000008152600401610b1e929190610d4f565b60405180910390fd5b3460085f3373ffffffffffffffffffffffffffffffffffffffff1673ffffffffffffffffffffffffffffffffffffffff1681526020019081526020015f2081905550346003819055503360045f6101000a81548173ffffffffffffffffffffffffffffffffffffffff021916908373ffffffffffffffffffffffffffffffffffffffff16021790555060065f815480929190610bc290610e9b565b91905055507fe684a55f31b79eca403df938249029212a5925ec6be8012e099b45bc1019e5d23334604051610bf8929190610db7565b60405180910390a150565b5f8115159050919050565b610c1781610c03565b82525050565b5f602082019050610c305f830184610c0e565b92915050565b5f819050919050565b610c4881610c36565b82525050565b5f602082019050610c615f830184610c3f565b92915050565b5f73ffffffffffffffffffffffffffffffffffffffff82169050919050565b5f610c9082610c67565b9050919050565b610ca081610c86565b82525050565b5f602082019050610cb95f830184610c97565b92915050565b5f81519050919050565b5f82825260208201905092915050565b8281835e5f83830152505050565b5f601f19601f8301169050919050565b5f610d0182610cbf565b610d0b8185610cc9565b9350610d1b818560208601610cd9565b610d2481610ce7565b840191505092915050565b5f6020820190508181035f830152610d478184610cf7565b905092915050565b5f604082019050610d625f830185610c3f565b610d6f6020830184610c3f565b9392505050565b5f81905092915050565b50565b5f610d8e5f83610d76565b9150610d9982610d80565b5f82019050919050565b5f610dad82610d83565b9150819050919050565b5f604082019050610dca5f830185610c97565b610dd76020830184610c3f565b9392505050565b7f4e487b71000000000000000000000000000000000000000000000000000000005f52602260045260245ffd5b5f6002820490506001821680610e2257607f821691505b602082108103610e3557610e34610dde565b5b50919050565b7f4e487b71000000000000000000000000000000000000000000000000000000005f52601160045260245ffd5b5f610e7282610c36565b9150610e7d83610c36565b9250828201905080821115610e9557610e94610e3b565b5b92915050565b5f610ea582610c36565b91507fffffffffffffffffffffffffffffffffffffffffffffffffffffffffffffffff8203610ed757610ed6610e3b565b5b60018201905091905056fea2646970667358221220ff1ec4cf0a24d6b88f2a1f572650fd5643e087c3a513233f8ae21f493854881c64736f6c634300081e0033",
					"opcodes": "PUSH1 0x80 PUSH1 0x40 MSTORE PUSH20 0xF55301514C27489FDE7C9CD9A3EA8044E7E04579 PUSH0 PUSH0 PUSH2 0x100 EXP DUP2 SLOAD DUP2 PUSH20 0xFFFFFFFFFFFFFFFFFFFFFFFFFFFFFFFFFFFFFFFF MUL NOT AND SWAP1 DUP4 PUSH20 0xFFFFFFFFFFFFFFFFFFFFFFFFFFFFFFFFFFFFFFFF AND MUL OR SWAP1 SSTORE POP CALLVALUE DUP1 ISZERO PUSH2 0x62 JUMPI PUSH0 PUSH0 REVERT JUMPDEST POP PUSH1 0x40 MLOAD PUSH2 0x1557 CODESIZE SUB DUP1 PUSH2 0x1557 DUP4 CODECOPY DUP2 DUP2 ADD PUSH1 0x40 MSTORE DUP2 ADD SWAP1 PUSH2 0x84 SWAP2 SWAP1 PUSH2 0x24F JUMP JUMPDEST DUP3 PUSH1 0x1 SWAP1 DUP2 PUSH2 0x93 SWAP2 SWAP1 PUSH2 0x4C2 JUMP JUMPDEST POP DUP2 PUSH1 0x2 DUP2 SWAP1 SSTORE POP DUP2 PUSH1 0x3 DUP2 SWAP1 SSTORE POP PUSH1 0x3C DUP2 PUSH2 0xAF SWAP2 SWAP1 PUSH2 0x5BE JUMP JUMPDEST TIMESTAMP PUSH2 0xBA SWAP2 SWAP1 PUSH2 0x5FF JUMP JUMPDEST PUSH1 0x5 DUP2 SWAP1 SSTORE POP PUSH0 PUSH1 0x6 DUP2 SWAP1 SSTORE POP POP POP POP PUSH2 0x632 JUMP JUMPDEST PUSH0 PUSH1 0x40 MLOAD SWAP1 POP SWAP1 JUMP JUMPDEST PUSH0 PUSH0 REVERT JUMPDEST PUSH0 PUSH0 REVERT JUMPDEST PUSH0 PUSH0 REVERT JUMPDEST PUSH0 PUSH0 REVERT JUMPDEST PUSH0 PUSH1 0x1F NOT PUSH1 0x1F DUP4 ADD AND SWAP1 POP SWAP2 SWAP1 POP JUMP JUMPDEST PUSH32 0x4E487B7100000000000000000000000000000000000000000000000000000000 PUSH0 MSTORE PUSH1 0x41 PUSH1 0x4 MSTORE PUSH1 0x24 PUSH0 REVERT JUMPDEST PUSH2 0x12E DUP3 PUSH2 0xE8 JUMP JUMPDEST DUP2 ADD DUP2 DUP2 LT PUSH8 0xFFFFFFFFFFFFFFFF DUP3 GT OR ISZERO PUSH2 0x14D JUMPI PUSH2 0x14C PUSH2 0xF8 JUMP JUMPDEST JUMPDEST DUP1 PUSH1 0x40 MSTORE POP POP POP JUMP JUMPDEST PUSH0 PUSH2 0x15F PUSH2 0xCF JUMP JUMPDEST SWAP1 POP PUSH2 0x16B DUP3 DUP3 PUSH2 0x125 JUMP JUMPDEST SWAP2 SWAP1 POP JUMP JUMPDEST PUSH0 PUSH8 0xFFFFFFFFFFFFFFFF DUP3 GT ISZERO PUSH2 0x18A JUMPI PUSH2 0x189 PUSH2 0xF8 JUMP JUMPDEST JUMPDEST PUSH2 0x193 DUP3 PUSH2 0xE8 JUMP JUMPDEST SWAP1 POP PUSH1 0x20 DUP2 ADD SWAP1 POP SWAP2 SWAP1 POP JUMP JUMPDEST DUP3 DUP2 DUP4 MCOPY PUSH0 DUP4 DUP4 ADD MSTORE POP POP POP JUMP JUMPDEST PUSH0 PUSH2 0x1C0 PUSH2 0x1BB DUP5 PUSH2 0x170 JUMP JUMPDEST PUSH2 0x156 JUMP JUMPDEST SWAP1 POP DUP3 DUP2 MSTORE PUSH1 0x20 DUP2 ADD DUP5 DUP5 DUP5 ADD GT ISZERO PUSH2 0x1DC JUMPI PUSH2 0x1DB PUSH2 0xE4 JUMP JUMPDEST JUMPDEST PUSH2 0x1E7 DUP5 DUP3 DUP6 PUSH2 0x1A0 JUMP JUMPDEST POP SWAP4 SWAP3 POP POP POP JUMP JUMPDEST PUSH0 DUP3 PUSH1 0x1F DUP4 ADD SLT PUSH2 0x203 JUMPI PUSH2 0x202 PUSH2 0xE0 JUMP JUMPDEST JUMPDEST DUP2 MLOAD PUSH2 0x213 DUP5 DUP3 PUSH1 0x20 DUP7 ADD PUSH2 0x1AE JUMP JUMPDEST SWAP2 POP POP SWAP3 SWAP2 POP POP JUMP JUMPDEST PUSH0 DUP2 SWAP1 POP SWAP2 SWAP1 POP JUMP JUMPDEST PUSH2 0x22E DUP2 PUSH2 0x21C JUMP JUMPDEST DUP2 EQ PUSH2 0x238 JUMPI PUSH0 PUSH0 REVERT JUMPDEST POP JUMP JUMPDEST PUSH0 DUP2 MLOAD SWAP1 POP PUSH2 0x249 DUP2 PUSH2 0x225 JUMP JUMPDEST SWAP3 SWAP2 POP POP JUMP JUMPDEST PUSH0 PUSH0 PUSH0 PUSH1 0x60 DUP5 DUP7 SUB SLT ISZERO PUSH2 0x266 JUMPI PUSH2 0x265 PUSH2 0xD8 JUMP JUMPDEST JUMPDEST PUSH0 DUP5 ADD MLOAD PUSH8 0xFFFFFFFFFFFFFFFF DUP2 GT ISZERO PUSH2 0x283 JUMPI PUSH2 0x282 PUSH2 0xDC JUMP JUMPDEST JUMPDEST PUSH2 0x28F DUP7 DUP3 DUP8 ADD PUSH2 0x1EF JUMP JUMPDEST SWAP4 POP POP PUSH1 0x20 PUSH2 0x2A0 DUP7 DUP3 DUP8 ADD PUSH2 0x23B JUMP JUMPDEST SWAP3 POP POP PUSH1 0x40 PUSH2 0x2B1 DUP7 DUP3 DUP8 ADD PUSH2 0x23B JUMP JUMPDEST SWAP2 POP POP SWAP3 POP SWAP3 POP SWAP3 JUMP JUMPDEST PUSH0 DUP2 MLOAD SWAP1 POP SWAP2 SWAP1 POP JUMP JUMPDEST PUSH32 0x4E487B7100000000000000000000000000000000000000000000000000000000 PUSH0 MSTORE PUSH1 0x22 PUSH1 0x4 MSTORE PUSH1 0x24 PUSH0 REVERT JUMPDEST PUSH0 PUSH1 0x2 DUP3 DIV SWAP1 POP PUSH1 0x1 DUP3 AND DUP1 PUSH2 0x309 JUMPI PUSH1 0x7F DUP3 AND SWAP2 POP JUMPDEST PUSH1 0x20 DUP3 LT DUP2 SUB PUSH2 0x31C JUMPI PUSH2 0x31B PUSH2 0x2C5 JUMP JUMPDEST JUMPDEST POP SWAP2 SWAP1 POP JUMP JUMPDEST PUSH0 DUP2 SWAP1 POP DUP2 PUSH0 MSTORE PUSH1 0x20 PUSH0 KECCAK256 SWAP1 POP SWAP2 SWAP1 POP JUMP JUMPDEST PUSH0 PUSH1 0x20 PUSH1 0x1F DUP4 ADD DIV SWAP1 POP SWAP2 SWAP1 POP JUMP JUMPDEST PUSH0 DUP3 DUP3 SHL SWAP1 POP SWAP3 SWAP2 POP POP JUMP JUMPDEST PUSH0 PUSH1 0x8 DUP4 MUL PUSH2 0x37E PUSH32 0xFFFFFFFFFFFFFFFFFFFFFFFFFFFFFFFFFFFFFFFFFFFFFFFFFFFFFFFFFFFFFFFF DUP3 PUSH2 0x343 JUMP JUMPDEST PUSH2 0x388 DUP7 DUP4 PUSH2 0x343 JUMP JUMPDEST SWAP6 POP DUP1 NOT DUP5 AND SWAP4 POP DUP1 DUP7 AND DUP5 OR SWAP3 POP POP POP SWAP4 SWAP3 POP POP POP JUMP JUMPDEST PUSH0 DUP2 SWAP1 POP SWAP2 SWAP1 POP JUMP JUMPDEST PUSH0 PUSH2 0x3C3 PUSH2 0x3BE PUSH2 0x3B9 DUP5 PUSH2 0x21C JUMP JUMPDEST PUSH2 0x3A0 JUMP JUMPDEST PUSH2 0x21C JUMP JUMPDEST SWAP1 POP SWAP2 SWAP1 POP JUMP JUMPDEST PUSH0 DUP2 SWAP1 POP SWAP2 SWAP1 POP JUMP JUMPDEST PUSH2 0x3DC DUP4 PUSH2 0x3A9 JUMP JUMPDEST PUSH2 0x3F0 PUSH2 0x3E8 DUP3 PUSH2 0x3CA JUMP JUMPDEST DUP5 DUP5 SLOAD PUSH2 0x34F JUMP JUMPDEST DUP3 SSTORE POP POP POP POP JUMP JUMPDEST PUSH0 PUSH0 SWAP1 POP SWAP1 JUMP JUMPDEST PUSH2 0x407 PUSH2 0x3F8 JUMP JUMPDEST PUSH2 0x412 DUP2 DUP5 DUP5 PUSH2 0x3D3 JUMP JUMPDEST POP POP POP JUMP JUMPDEST JUMPDEST DUP2 DUP2 LT ISZERO PUSH2 0x435 JUMPI PUSH2 0x42A PUSH0 DUP3 PUSH2 0x3FF JUMP JUMPDEST PUSH1 0x1 DUP2 ADD SWAP1 POP PUSH2 0x418 JUMP JUMPDEST POP POP JUMP JUMPDEST PUSH1 0x1F DUP3 GT ISZERO PUSH2 0x47A JUMPI PUSH2 0x44B DUP2 PUSH2 0x322 JUMP JUMPDEST PUSH2 0x454 DUP5 PUSH2 0x334 JUMP JUMPDEST DUP2 ADD PUSH1 0x20 DUP6 LT ISZERO PUSH2 0x463 JUMPI DUP2 SWAP1 POP JUMPDEST PUSH2 0x477 PUSH2 0x46F DUP6 PUSH2 0x334 JUMP JUMPDEST DUP4 ADD DUP3 PUSH2 0x417 JUMP JUMPDEST POP POP JUMPDEST POP POP POP JUMP JUMPDEST PUSH0 DUP3 DUP3 SHR SWAP1 POP SWAP3 SWAP2 POP POP JUMP JUMPDEST PUSH0 PUSH2 0x49A PUSH0 NOT DUP5 PUSH1 0x8 MUL PUSH2 0x47F JUMP JUMPDEST NOT DUP1 DUP4 AND SWAP2 POP POP SWAP3 SWAP2 POP POP JUMP JUMPDEST PUSH0 PUSH2 0x4B2 DUP4 DUP4 PUSH2 0x48B JUMP JUMPDEST SWAP2 POP DUP3 PUSH1 0x2 MUL DUP3 OR SWAP1 POP SWAP3 SWAP2 POP POP JUMP JUMPDEST PUSH2 0x4CB DUP3 PUSH2 0x2BB JUMP JUMPDEST PUSH8 0xFFFFFFFFFFFFFFFF DUP2 GT ISZERO PUSH2 0x4E4 JUMPI PUSH2 0x4E3 PUSH2 0xF8 JUMP JUMPDEST JUMPDEST PUSH2 0x4EE DUP3 SLOAD PUSH2 0x2F2 JUMP JUMPDEST PUSH2 0x4F9 DUP3 DUP3 DUP6 PUSH2 0x439 JUMP JUMPDEST PUSH0 PUSH1 0x20 SWAP1 POP PUSH1 0x1F DUP4 GT PUSH1 0x1 DUP2 EQ PUSH2 0x52A JUMPI PUSH0 DUP5 ISZERO PUSH2 0x518 JUMPI DUP3 DUP8 ADD MLOAD SWAP1 POP JUMPDEST PUSH2 0x522 DUP6 DUP3 PUSH2 0x4A7 JUMP JUMPDEST DUP7 SSTORE POP PUSH2 0x589 JUMP JUMPDEST PUSH1 0x1F NOT DUP5 AND PUSH2 0x538 DUP7 PUSH2 0x322 JUMP JUMPDEST PUSH0 JUMPDEST DUP3 DUP2 LT ISZERO PUSH2 0x55F JUMPI DUP5 DUP10 ADD MLOAD DUP3 SSTORE PUSH1 0x1 DUP3 ADD SWAP2 POP PUSH1 0x20 DUP6 ADD SWAP5 POP PUSH1 0x20 DUP2 ADD SWAP1 POP PUSH2 0x53A JUMP JUMPDEST DUP7 DUP4 LT ISZERO PUSH2 0x57C JUMPI DUP5 DUP10 ADD MLOAD PUSH2 0x578 PUSH1 0x1F DUP10 AND DUP3 PUSH2 0x48B JUMP JUMPDEST DUP4 SSTORE POP JUMPDEST PUSH1 0x1 PUSH1 0x2 DUP9 MUL ADD DUP9 SSTORE POP POP POP JUMPDEST POP POP POP POP POP POP JUMP JUMPDEST PUSH32 0x4E487B7100000000000000000000000000000000000000000000000000000000 PUSH0 MSTORE PUSH1 0x11 PUSH1 0x4 MSTORE PUSH1 0x24 PUSH0 REVERT JUMPDEST PUSH0 PUSH2 0x5C8 DUP3 PUSH2 0x21C JUMP JUMPDEST SWAP2 POP PUSH2 0x5D3 DUP4 PUSH2 0x21C JUMP JUMPDEST SWAP3 POP DUP3 DUP3 MUL PUSH2 0x5E1 DUP2 PUSH2 0x21C JUMP JUMPDEST SWAP2 POP DUP3 DUP3 DIV DUP5 EQ DUP4 ISZERO OR PUSH2 0x5F8 JUMPI PUSH2 0x5F7 PUSH2 0x591 JUMP JUMPDEST JUMPDEST POP SWAP3 SWAP2 POP POP JUMP JUMPDEST PUSH0 PUSH2 0x609 DUP3 PUSH2 0x21C JUMP JUMPDEST SWAP2 POP PUSH2 0x614 DUP4 PUSH2 0x21C JUMP JUMPDEST SWAP3 POP DUP3 DUP3 ADD SWAP1 POP DUP1 DUP3 GT ISZERO PUSH2 0x62C JUMPI PUSH2 0x62B PUSH2 0x591 JUMP JUMPDEST JUMPDEST SWAP3 SWAP2 POP POP JUMP JUMPDEST PUSH2 0xF18 DUP1 PUSH2 0x63F PUSH0 CODECOPY PUSH0 RETURN INVALID PUSH1 0x80 PUSH1 0x40 MSTORE PUSH1 0x4 CALLDATASIZE LT PUSH2 0x9B JUMPI PUSH0 CALLDATALOAD PUSH1 0xE0 SHR DUP1 PUSH4 0x7284E416 GT PUSH2 0x63 JUMPI DUP1 PUSH4 0x7284E416 EQ PUSH2 0x149 JUMPI DUP1 PUSH4 0x74B11D8A EQ PUSH2 0x173 JUMPI DUP1 PUSH4 0x8DA5CB5B EQ PUSH2 0x19D JUMPI DUP1 PUSH4 0xBEF3A083 EQ PUSH2 0x1C7 JUMPI DUP1 PUSH4 0xCE9EC0A6 EQ PUSH2 0x1F1 JUMPI DUP1 PUSH4 0xF30E3658 EQ PUSH2 0x21B JUMPI PUSH2 0x9B JUMP JUMPDEST DUP1 PUSH4 0x22F3E2D4 EQ PUSH2 0x9F JUMPI DUP1 PUSH4 0x3E109A19 EQ PUSH2 0xC9 JUMPI DUP1 PUSH4 0x4311DE8F EQ PUSH2 0xF3 JUMPI DUP1 PUSH4 0x590E1AE3 EQ PUSH2 0x109 JUMPI DUP1 PUSH4 0x6569DDF5 EQ PUSH2 0x11F JUMPI JUMPDEST PUSH0 PUSH0 REVERT JUMPDEST CALLVALUE DUP1 ISZERO PUSH2 0xAA JUMPI PUSH0 PUSH0 REVERT JUMPDEST POP PUSH2 0xB3 PUSH2 0x225 JUMP JUMPDEST PUSH1 0x40 MLOAD PUSH2 0xC0 SWAP2 SWAP1 PUSH2 0xC1D JUMP JUMPDEST PUSH1 0x40 MLOAD DUP1 SWAP2 SUB SWAP1 RETURN JUMPDEST CALLVALUE DUP1 ISZERO PUSH2 0xD4 JUMPI PUSH0 PUSH0 REVERT JUMPDEST POP PUSH2 0xDD PUSH2 0x230 JUMP JUMPDEST PUSH1 0x40 MLOAD PUSH2 0xEA SWAP2 SWAP1 PUSH2 0xC4E JUMP JUMPDEST PUSH1 0x40 MLOAD DUP1 SWAP2 SUB SWAP1 RETURN JUMPDEST CALLVALUE DUP1 ISZERO PUSH2 0xFE JUMPI PUSH0 PUSH0 REVERT JUMPDEST POP PUSH2 0x107 PUSH2 0x236 JUMP JUMPDEST STOP JUMPDEST CALLVALUE DUP1 ISZERO PUSH2 0x114 JUMPI PUSH0 PUSH0 REVERT JUMPDEST POP PUSH2 0x11D PUSH2 0x492 JUMP JUMPDEST STOP JUMPDEST CALLVALUE DUP1 ISZERO PUSH2 0x12A JUMPI PUSH0 PUSH0 REVERT JUMPDEST POP PUSH2 0x133 PUSH2 0x7A5 JUMP JUMPDEST PUSH1 0x40 MLOAD PUSH2 0x140 SWAP2 SWAP1 PUSH2 0xCA6 JUMP JUMPDEST PUSH1 0x40 MLOAD DUP1 SWAP2 SUB SWAP1 RETURN JUMPDEST CALLVALUE DUP1 ISZERO PUSH2 0x154 JUMPI PUSH0 PUSH0 REVERT JUMPDEST POP PUSH2 0x15D PUSH2 0x7CA JUMP JUMPDEST PUSH1 0x40 MLOAD PUSH2 0x16A SWAP2 SWAP1 PUSH2 0xD2F JUMP JUMPDEST PUSH1 0x40 MLOAD DUP1 SWAP2 SUB SWAP1 RETURN JUMPDEST CALLVALUE DUP1 ISZERO PUSH2 0x17E JUMPI PUSH0 PUSH0 REVERT JUMPDEST POP PUSH2 0x187 PUSH2 0x856 JUMP JUMPDEST PUSH1 0x40 MLOAD PUSH2 0x194 SWAP2 SWAP1 PUSH2 0xC4E JUMP JUMPDEST PUSH1 0x40 MLOAD DUP1 SWAP2 SUB SWAP1 RETURN JUMPDEST CALLVALUE DUP1 ISZERO PUSH2 0x1A8 JUMPI PUSH0 PUSH0 REVERT JUMPDEST POP PUSH2 0x1B1 PUSH2 0x85C JUMP JUMPDEST PUSH1 0x40 MLOAD PUSH2 0x1BE SWAP2 SWAP1 PUSH2 0xCA6 JUMP JUMPDEST PUSH1 0x40 MLOAD DUP1 SWAP2 SUB SWAP1 RETURN JUMPDEST CALLVALUE DUP1 ISZERO PUSH2 0x1D2 JUMPI PUSH0 PUSH0 REVERT JUMPDEST POP PUSH2 0x1DB PUSH2 0x880 JUMP JUMPDEST PUSH1 0x40 MLOAD PUSH2 0x1E8 SWAP2 SWAP1 PUSH2 0xC4E JUMP JUMPDEST PUSH1 0x40 MLOAD DUP1 SWAP2 SUB SWAP1 RETURN JUMPDEST CALLVALUE DUP1 ISZERO PUSH2 0x1FC JUMPI PUSH0 PUSH0 REVERT JUMPDEST POP PUSH2 0x205 PUSH2 0x886 JUMP JUMPDEST PUSH1 0x40 MLOAD PUSH2 0x212 SWAP2 SWAP1 PUSH2 0xC4E JUMP JUMPDEST PUSH1 0x40 MLOAD DUP1 SWAP2 SUB SWAP1 RETURN JUMPDEST PUSH2 0x223 PUSH2 0x88C JUMP JUMPDEST STOP JUMPDEST PUSH0 PUSH1 0x5 SLOAD TIMESTAMP LT SWAP1 POP SWAP1 JUMP JUMPDEST PUSH1 0x2 SLOAD DUP2 JUMP JUMPDEST PUSH1 0x7 PUSH0 SWAP1 SLOAD SWAP1 PUSH2 0x100 EXP SWAP1 DIV PUSH1 0xFF AND ISZERO PUSH2 0x24E JUMPI PUSH0 PUSH0 REVERT JUMPDEST PUSH1 0x1 PUSH1 0x7 PUSH0 PUSH2 0x100 EXP DUP2 SLOAD DUP2 PUSH1 0xFF MUL NOT AND SWAP1 DUP4 ISZERO ISZERO MUL OR SWAP1 SSTORE POP PUSH0 PUSH0 SWAP1 SLOAD SWAP1 PUSH2 0x100 EXP SWAP1 DIV PUSH20 0xFFFFFFFFFFFFFFFFFFFFFFFFFFFFFFFFFFFFFFFF AND PUSH20 0xFFFFFFFFFFFFFFFFFFFFFFFFFFFFFFFFFFFFFFFF AND CALLER PUSH20 0xFFFFFFFFFFFFFFFFFFFFFFFFFFFFFFFFFFFFFFFF AND EQ PUSH2 0x2F8 JUMPI CALLER PUSH1 0x40 MLOAD PUSH32 0x245AECD300000000000000000000000000000000000000000000000000000000 DUP2 MSTORE PUSH1 0x4 ADD PUSH2 0x2EF SWAP2 SWAP1 PUSH2 0xCA6 JUMP JUMPDEST PUSH1 0x40 MLOAD DUP1 SWAP2 SUB SWAP1 REVERT JUMPDEST PUSH1 0x5 SLOAD TIMESTAMP LT ISZERO PUSH2 0x343 JUMPI TIMESTAMP PUSH1 0x5 SLOAD PUSH1 0x40 MLOAD PUSH32 0xF7D22C9400000000000000000000000000000000000000000000000000000000 DUP2 MSTORE PUSH1 0x4 ADD PUSH2 0x33A SWAP3 SWAP2 SWAP1 PUSH2 0xD4F JUMP JUMPDEST PUSH1 0x40 MLOAD DUP1 SWAP2 SUB SWAP1 REVERT JUMPDEST PUSH0 PUSH1 0x8 PUSH0 PUSH1 0x4 PUSH0 SWAP1 SLOAD SWAP1 PUSH2 0x100 EXP SWAP1 DIV PUSH20 0xFFFFFFFFFFFFFFFFFFFFFFFFFFFFFFFFFFFFFFFF AND PUSH20 0xFFFFFFFFFFFFFFFFFFFFFFFFFFFFFFFFFFFFFFFF AND PUSH20 0xFFFFFFFFFFFFFFFFFFFFFFFFFFFFFFFFFFFFFFFF AND DUP2 MSTORE PUSH1 0x20 ADD SWAP1 DUP2 MSTORE PUSH1 0x20 ADD PUSH0 KECCAK256 DUP2 SWAP1 SSTORE POP PUSH0 PUSH0 PUSH0 SWAP1 SLOAD SWAP1 PUSH2 0x100 EXP SWAP1 DIV PUSH20 0xFFFFFFFFFFFFFFFFFFFFFFFFFFFFFFFFFFFFFFFF AND PUSH20 0xFFFFFFFFFFFFFFFFFFFFFFFFFFFFFFFFFFFFFFFF AND PUSH1 0x3 SLOAD PUSH1 0x40 MLOAD PUSH2 0x3ED SWAP1 PUSH2 0xDA3 JUMP JUMPDEST PUSH0 PUSH1 0x40 MLOAD DUP1 DUP4 SUB DUP2 DUP6 DUP8 GAS CALL SWAP3 POP POP POP RETURNDATASIZE DUP1 PUSH0 DUP2 EQ PUSH2 0x427 JUMPI PUSH1 0x40 MLOAD SWAP2 POP PUSH1 0x1F NOT PUSH1 0x3F RETURNDATASIZE ADD AND DUP3 ADD PUSH1 0x40 MSTORE RETURNDATASIZE DUP3 MSTORE RETURNDATASIZE PUSH0 PUSH1 0x20 DUP5 ADD RETURNDATACOPY PUSH2 0x42C JUMP JUMPDEST PUSH1 0x60 SWAP2 POP JUMPDEST POP POP SWAP1 POP DUP1 PUSH2 0x476 JUMPI CALLER PUSH1 0x3 SLOAD PUSH1 0x40 MLOAD PUSH32 0x6BD13A7000000000000000000000000000000000000000000000000000000000 DUP2 MSTORE PUSH1 0x4 ADD PUSH2 0x46D SWAP3 SWAP2 SWAP1 PUSH2 0xDB7 JUMP JUMPDEST PUSH1 0x40 MLOAD DUP1 SWAP2 SUB SWAP1 REVERT JUMPDEST POP PUSH0 PUSH1 0x7 PUSH0 PUSH2 0x100 EXP DUP2 SLOAD DUP2 PUSH1 0xFF MUL NOT AND SWAP1 DUP4 ISZERO ISZERO MUL OR SWAP1 SSTORE POP JUMP JUMPDEST PUSH1 0x7 PUSH0 SWAP1 SLOAD SWAP1 PUSH2 0x100 EXP SWAP1 DIV PUSH1 0xFF AND ISZERO PUSH2 0x4AA JUMPI PUSH0 PUSH0 REVERT JUMPDEST PUSH1 0x1 PUSH1 0x7 PUSH0 PUSH2 0x100 EXP DUP2 SLOAD DUP2 PUSH1 0xFF MUL NOT AND SWAP1 DUP4 ISZERO ISZERO MUL OR SWAP1 SSTORE POP PUSH1 0x5 SLOAD TIMESTAMP LT ISZERO PUSH2 0x50F JUMPI TIMESTAMP PUSH1 0x5 SLOAD PUSH1 0x40 MLOAD PUSH32 0xF7D22C9400000000000000000000000000000000000000000000000000000000 DUP2 MSTORE PUSH1 0x4 ADD PUSH2 0x506 SWAP3 SWAP2 SWAP1 PUSH2 0xD4F JUMP JUMPDEST PUSH1 0x40 MLOAD DUP1 SWAP2 SUB SWAP1 REVERT JUMPDEST CALLER PUSH20 0xFFFFFFFFFFFFFFFFFFFFFFFFFFFFFFFFFFFFFFFF AND PUSH1 0x4 PUSH0 SWAP1 SLOAD SWAP1 PUSH2 0x100 EXP SWAP1 DIV PUSH20 0xFFFFFFFFFFFFFFFFFFFFFFFFFFFFFFFFFFFFFFFF AND PUSH20 0xFFFFFFFFFFFFFFFFFFFFFFFFFFFFFFFFFFFFFFFF AND SUB PUSH2 0x5A0 JUMPI CALLER PUSH1 0x40 MLOAD PUSH32 0xBFBD9BB000000000000000000000000000000000000000000000000000000000 DUP2 MSTORE PUSH1 0x4 ADD PUSH2 0x597 SWAP2 SWAP1 PUSH2 0xCA6 JUMP JUMPDEST PUSH1 0x40 MLOAD DUP1 SWAP2 SUB SWAP1 REVERT JUMPDEST PUSH0 PUSH1 0x8 PUSH0 CALLER PUSH20 0xFFFFFFFFFFFFFFFFFFFFFFFFFFFFFFFFFFFFFFFF AND PUSH20 0xFFFFFFFFFFFFFFFFFFFFFFFFFFFFFFFFFFFFFFFF AND DUP2 MSTORE PUSH1 0x20 ADD SWAP1 DUP2 MSTORE PUSH1 0x20 ADD PUSH0 KECCAK256 SLOAD SUB PUSH2 0x621 JUMPI CALLER PUSH1 0x40 MLOAD PUSH32 0x3FB1B34100000000000000000000000000000000000000000000000000000000 DUP2 MSTORE PUSH1 0x4 ADD PUSH2 0x618 SWAP2 SWAP1 PUSH2 0xCA6 JUMP JUMPDEST PUSH1 0x40 MLOAD DUP1 SWAP2 SUB SWAP1 REVERT JUMPDEST PUSH0 PUSH1 0x8 PUSH0 CALLER PUSH20 0xFFFFFFFFFFFFFFFFFFFFFFFFFFFFFFFFFFFFFFFF AND PUSH20 0xFFFFFFFFFFFFFFFFFFFFFFFFFFFFFFFFFFFFFFFF AND DUP2 MSTORE PUSH1 0x20 ADD SWAP1 DUP2 MSTORE PUSH1 0x20 ADD PUSH0 KECCAK256 DUP2 SWAP1 SSTORE POP PUSH0 CALLER PUSH20 0xFFFFFFFFFFFFFFFFFFFFFFFFFFFFFFFFFFFFFFFF AND PUSH1 0x8 PUSH0 CALLER PUSH20 0xFFFFFFFFFFFFFFFFFFFFFFFFFFFFFFFFFFFFFFFF AND PUSH20 0xFFFFFFFFFFFFFFFFFFFFFFFFFFFFFFFFFFFFFFFF AND DUP2 MSTORE PUSH1 0x20 ADD SWAP1 DUP2 MSTORE PUSH1 0x20 ADD PUSH0 KECCAK256 SLOAD PUSH1 0x40 MLOAD PUSH2 0x6C5 SWAP1 PUSH2 0xDA3 JUMP JUMPDEST PUSH0 PUSH1 0x40 MLOAD DUP1 DUP4 SUB DUP2 DUP6 DUP8 GAS CALL SWAP3 POP POP POP RETURNDATASIZE DUP1 PUSH0 DUP2 EQ PUSH2 0x6FF JUMPI PUSH1 0x40 MLOAD SWAP2 POP PUSH1 0x1F NOT PUSH1 0x3F RETURNDATASIZE ADD AND DUP3 ADD PUSH1 0x40 MSTORE RETURNDATASIZE DUP3 MSTORE RETURNDATASIZE PUSH0 PUSH1 0x20 DUP5 ADD RETURNDATACOPY PUSH2 0x704 JUMP JUMPDEST PUSH1 0x60 SWAP2 POP JUMPDEST POP POP SWAP1 POP DUP1 PUSH2 0x789 JUMPI CALLER PUSH1 0x8 PUSH0 CALLER PUSH20 0xFFFFFFFFFFFFFFFFFFFFFFFFFFFFFFFFFFFFFFFF AND PUSH20 0xFFFFFFFFFFFFFFFFFFFFFFFFFFFFFFFFFFFFFFFF AND DUP2 MSTORE PUSH1 0x20 ADD SWAP1 DUP2 MSTORE PUSH1 0x20 ADD PUSH0 KECCAK256 SLOAD PUSH1 0x40 MLOAD PUSH32 0xBE0D09700000000000000000000000000000000000000000000000000000000 DUP2 MSTORE PUSH1 0x4 ADD PUSH2 0x780 SWAP3 SWAP2 SWAP1 PUSH2 0xDB7 JUMP JUMPDEST PUSH1 0x40 MLOAD DUP1 SWAP2 SUB SWAP1 REVERT JUMPDEST POP PUSH0 PUSH1 0x7 PUSH0 PUSH2 0x100 EXP DUP2 SLOAD DUP2 PUSH1 0xFF MUL NOT AND SWAP1 DUP4 ISZERO ISZERO MUL OR SWAP1 SSTORE POP JUMP JUMPDEST PUSH1 0x4 PUSH0 SWAP1 SLOAD SWAP1 PUSH2 0x100 EXP SWAP1 DIV PUSH20 0xFFFFFFFFFFFFFFFFFFFFFFFFFFFFFFFFFFFFFFFF AND DUP2 JUMP JUMPDEST PUSH1 0x1 DUP1 SLOAD PUSH2 0x7D7 SWAP1 PUSH2 0xE0B JUMP JUMPDEST DUP1 PUSH1 0x1F ADD PUSH1 0x20 DUP1 SWAP2 DIV MUL PUSH1 0x20 ADD PUSH1 0x40 MLOAD SWAP1 DUP2 ADD PUSH1 0x40 MSTORE DUP1 SWAP3 SWAP2 SWAP1 DUP2 DUP2 MSTORE PUSH1 0x20 ADD DUP3 DUP1 SLOAD PUSH2 0x803 SWAP1 PUSH2 0xE0B JUMP JUMPDEST DUP1 ISZERO PUSH2 0x84E JUMPI DUP1 PUSH1 0x1F LT PUSH2 0x825 JUMPI PUSH2 0x100 DUP1 DUP4 SLOAD DIV MUL DUP4 MSTORE SWAP2 PUSH1 0x20 ADD SWAP2 PUSH2 0x84E JUMP JUMPDEST DUP3 ADD SWAP2 SWAP1 PUSH0 MSTORE PUSH1 0x20 PUSH0 KECCAK256 SWAP1 JUMPDEST DUP2 SLOAD DUP2 MSTORE SWAP1 PUSH1 0x1 ADD SWAP1 PUSH1 0x20 ADD DUP1 DUP4 GT PUSH2 0x831 JUMPI DUP3 SWAP1 SUB PUSH1 0x1F AND DUP3 ADD SWAP2 JUMPDEST POP POP POP POP POP DUP2 JUMP JUMPDEST PUSH1 0x3 SLOAD DUP2 JUMP JUMPDEST PUSH0 PUSH0 SWAP1 SLOAD SWAP1 PUSH2 0x100 EXP SWAP1 DIV PUSH20 0xFFFFFFFFFFFFFFFFFFFFFFFFFFFFFFFFFFFFFFFF AND DUP2 JUMP JUMPDEST PUSH1 0x5 SLOAD DUP2 JUMP JUMPDEST PUSH1 0x6 SLOAD DUP2 JUMP JUMPDEST PUSH1 0x5 SLOAD TIMESTAMP LT PUSH2 0x8D6 JUMPI TIMESTAMP PUSH1 0x5 SLOAD PUSH1 0x40 MLOAD PUSH32 0xE536AC5400000000000000000000000000000000000000000000000000000000 DUP2 MSTORE PUSH1 0x4 ADD PUSH2 0x8CD SWAP3 SWAP2 SWAP1 PUSH2 0xD4F JUMP JUMPDEST PUSH1 0x40 MLOAD DUP1 SWAP2 SUB SWAP1 REVERT JUMPDEST PUSH0 PUSH0 SWAP1 SLOAD SWAP1 PUSH2 0x100 EXP SWAP1 DIV PUSH20 0xFFFFFFFFFFFFFFFFFFFFFFFFFFFFFFFFFFFFFFFF AND PUSH20 0xFFFFFFFFFFFFFFFFFFFFFFFFFFFFFFFFFFFFFFFF AND CALLER PUSH20 0xFFFFFFFFFFFFFFFFFFFFFFFFFFFFFFFFFFFFFFFF AND SUB PUSH2 0x986 JUMPI PUSH0 PUSH0 SWAP1 SLOAD SWAP1 PUSH2 0x100 EXP SWAP1 DIV PUSH20 0xFFFFFFFFFFFFFFFFFFFFFFFFFFFFFFFFFFFFFFFF AND PUSH1 0x40 MLOAD PUSH32 0x196A9D9700000000000000000000000000000000000000000000000000000000 DUP2 MSTORE PUSH1 0x4 ADD PUSH2 0x97D SWAP2 SWAP1 PUSH2 0xCA6 JUMP JUMPDEST PUSH1 0x40 MLOAD DUP1 SWAP2 SUB SWAP1 REVERT JUMPDEST PUSH0 PUSH1 0x8 PUSH0 CALLER PUSH20 0xFFFFFFFFFFFFFFFFFFFFFFFFFFFFFFFFFFFFFFFF AND PUSH20 0xFFFFFFFFFFFFFFFFFFFFFFFFFFFFFFFFFFFFFFFF AND DUP2 MSTORE PUSH1 0x20 ADD SWAP1 DUP2 MSTORE PUSH1 0x20 ADD PUSH0 KECCAK256 SLOAD EQ PUSH2 0xA07 JUMPI CALLER PUSH1 0x40 MLOAD PUSH32 0x18BDC38E00000000000000000000000000000000000000000000000000000000 DUP2 MSTORE PUSH1 0x4 ADD PUSH2 0x9FE SWAP2 SWAP1 PUSH2 0xCA6 JUMP JUMPDEST PUSH1 0x40 MLOAD DUP1 SWAP2 SUB SWAP1 REVERT JUMPDEST PUSH1 0x2 SLOAD CALLVALUE LT ISZERO PUSH2 0xA52 JUMPI CALLVALUE PUSH1 0x2 SLOAD PUSH1 0x40 MLOAD PUSH32 0xF0DEFC6100000000000000000000000000000000000000000000000000000000 DUP2 MSTORE PUSH1 0x4 ADD PUSH2 0xA49 SWAP3 SWAP2 SWAP1 PUSH2 0xD4F JUMP JUMPDEST PUSH1 0x40 MLOAD DUP1 SWAP2 SUB SWAP1 REVERT JUMPDEST CALLVALUE PUSH1 0x3 SLOAD LT PUSH2 0xA9C JUMPI CALLVALUE PUSH1 0x3 SLOAD PUSH1 0x40 MLOAD PUSH32 0x4E8661BA00000000000000000000000000000000000000000000000000000000 DUP2 MSTORE PUSH1 0x4 ADD PUSH2 0xA93 SWAP3 SWAP2 SWAP1 PUSH2 0xD4F JUMP JUMPDEST PUSH1 0x40 MLOAD DUP1 SWAP2 SUB SWAP1 REVERT JUMPDEST PUSH0 CALLVALUE PUSH7 0x2386F26FC10000 PUSH2 0xAB0 SWAP2 SWAP1 PUSH2 0xE68 JUMP JUMPDEST SWAP1 POP DUP1 CALLER PUSH20 0xFFFFFFFFFFFFFFFFFFFFFFFFFFFFFFFFFFFFFFFF AND BALANCE LT ISZERO PUSH2 0xB27 JUMPI CALLER PUSH20 0xFFFFFFFFFFFFFFFFFFFFFFFFFFFFFFFFFFFFFFFF AND BALANCE DUP2 PUSH1 0x40 MLOAD PUSH32 0xCF47918100000000000000000000000000000000000000000000000000000000 DUP2 MSTORE PUSH1 0x4 ADD PUSH2 0xB1E SWAP3 SWAP2 SWAP1 PUSH2 0xD4F JUMP JUMPDEST PUSH1 0x40 MLOAD DUP1 SWAP2 SUB SWAP1 REVERT JUMPDEST CALLVALUE PUSH1 0x8 PUSH0 CALLER PUSH20 0xFFFFFFFFFFFFFFFFFFFFFFFFFFFFFFFFFFFFFFFF AND PUSH20 0xFFFFFFFFFFFFFFFFFFFFFFFFFFFFFFFFFFFFFFFF AND DUP2 MSTORE PUSH1 0x20 ADD SWAP1 DUP2 MSTORE PUSH1 0x20 ADD PUSH0 KECCAK256 DUP2 SWAP1 SSTORE POP CALLVALUE PUSH1 0x3 DUP2 SWAP1 SSTORE POP CALLER PUSH1 0x4 PUSH0 PUSH2 0x100 EXP DUP2 SLOAD DUP2 PUSH20 0xFFFFFFFFFFFFFFFFFFFFFFFFFFFFFFFFFFFFFFFF MUL NOT AND SWAP1 DUP4 PUSH20 0xFFFFFFFFFFFFFFFFFFFFFFFFFFFFFFFFFFFFFFFF AND MUL OR SWAP1 SSTORE POP PUSH1 0x6 PUSH0 DUP2 SLOAD DUP1 SWAP3 SWAP2 SWAP1 PUSH2 0xBC2 SWAP1 PUSH2 0xE9B JUMP JUMPDEST SWAP2 SWAP1 POP SSTORE POP PUSH32 0xE684A55F31B79ECA403DF938249029212A5925EC6BE8012E099B45BC1019E5D2 CALLER CALLVALUE PUSH1 0x40 MLOAD PUSH2 0xBF8 SWAP3 SWAP2 SWAP1 PUSH2 0xDB7 JUMP JUMPDEST PUSH1 0x40 MLOAD DUP1 SWAP2 SUB SWAP1 LOG1 POP JUMP JUMPDEST PUSH0 DUP2 ISZERO ISZERO SWAP1 POP SWAP2 SWAP1 POP JUMP JUMPDEST PUSH2 0xC17 DUP2 PUSH2 0xC03 JUMP JUMPDEST DUP3 MSTORE POP POP JUMP JUMPDEST PUSH0 PUSH1 0x20 DUP3 ADD SWAP1 POP PUSH2 0xC30 PUSH0 DUP4 ADD DUP5 PUSH2 0xC0E JUMP JUMPDEST SWAP3 SWAP2 POP POP JUMP JUMPDEST PUSH0 DUP2 SWAP1 POP SWAP2 SWAP1 POP JUMP JUMPDEST PUSH2 0xC48 DUP2 PUSH2 0xC36 JUMP JUMPDEST DUP3 MSTORE POP POP JUMP JUMPDEST PUSH0 PUSH1 0x20 DUP3 ADD SWAP1 POP PUSH2 0xC61 PUSH0 DUP4 ADD DUP5 PUSH2 0xC3F JUMP JUMPDEST SWAP3 SWAP2 POP POP JUMP JUMPDEST PUSH0 PUSH20 0xFFFFFFFFFFFFFFFFFFFFFFFFFFFFFFFFFFFFFFFF DUP3 AND SWAP1 POP SWAP2 SWAP1 POP JUMP JUMPDEST PUSH0 PUSH2 0xC90 DUP3 PUSH2 0xC67 JUMP JUMPDEST SWAP1 POP SWAP2 SWAP1 POP JUMP JUMPDEST PUSH2 0xCA0 DUP2 PUSH2 0xC86 JUMP JUMPDEST DUP3 MSTORE POP POP JUMP JUMPDEST PUSH0 PUSH1 0x20 DUP3 ADD SWAP1 POP PUSH2 0xCB9 PUSH0 DUP4 ADD DUP5 PUSH2 0xC97 JUMP JUMPDEST SWAP3 SWAP2 POP POP JUMP JUMPDEST PUSH0 DUP2 MLOAD SWAP1 POP SWAP2 SWAP1 POP JUMP JUMPDEST PUSH0 DUP3 DUP3 MSTORE PUSH1 0x20 DUP3 ADD SWAP1 POP SWAP3 SWAP2 POP POP JUMP JUMPDEST DUP3 DUP2 DUP4 MCOPY PUSH0 DUP4 DUP4 ADD MSTORE POP POP POP JUMP JUMPDEST PUSH0 PUSH1 0x1F NOT PUSH1 0x1F DUP4 ADD AND SWAP1 POP SWAP2 SWAP1 POP JUMP JUMPDEST PUSH0 PUSH2 0xD01 DUP3 PUSH2 0xCBF JUMP JUMPDEST PUSH2 0xD0B DUP2 DUP6 PUSH2 0xCC9 JUMP JUMPDEST SWAP4 POP PUSH2 0xD1B DUP2 DUP6 PUSH1 0x20 DUP7 ADD PUSH2 0xCD9 JUMP JUMPDEST PUSH2 0xD24 DUP2 PUSH2 0xCE7 JUMP JUMPDEST DUP5 ADD SWAP2 POP POP SWAP3 SWAP2 POP POP JUMP JUMPDEST PUSH0 PUSH1 0x20 DUP3 ADD SWAP1 POP DUP2 DUP2 SUB PUSH0 DUP4 ADD MSTORE PUSH2 0xD47 DUP2 DUP5 PUSH2 0xCF7 JUMP JUMPDEST SWAP1 POP SWAP3 SWAP2 POP POP JUMP JUMPDEST PUSH0 PUSH1 0x40 DUP3 ADD SWAP1 POP PUSH2 0xD62 PUSH0 DUP4 ADD DUP6 PUSH2 0xC3F JUMP JUMPDEST PUSH2 0xD6F PUSH1 0x20 DUP4 ADD DUP5 PUSH2 0xC3F JUMP JUMPDEST SWAP4 SWAP3 POP POP POP JUMP JUMPDEST PUSH0 DUP2 SWAP1 POP SWAP3 SWAP2 POP POP JUMP JUMPDEST POP JUMP JUMPDEST PUSH0 PUSH2 0xD8E PUSH0 DUP4 PUSH2 0xD76 JUMP JUMPDEST SWAP2 POP PUSH2 0xD99 DUP3 PUSH2 0xD80 JUMP JUMPDEST PUSH0 DUP3 ADD SWAP1 POP SWAP2 SWAP1 POP JUMP JUMPDEST PUSH0 PUSH2 0xDAD DUP3 PUSH2 0xD83 JUMP JUMPDEST SWAP2 POP DUP2 SWAP1 POP SWAP2 SWAP1 POP JUMP JUMPDEST PUSH0 PUSH1 0x40 DUP3 ADD SWAP1 POP PUSH2 0xDCA PUSH0 DUP4 ADD DUP6 PUSH2 0xC97 JUMP JUMPDEST PUSH2 0xDD7 PUSH1 0x20 DUP4 ADD DUP5 PUSH2 0xC3F JUMP JUMPDEST SWAP4 SWAP3 POP POP POP JUMP JUMPDEST PUSH32 0x4E487B7100000000000000000000000000000000000000000000000000000000 PUSH0 MSTORE PUSH1 0x22 PUSH1 0x4 MSTORE PUSH1 0x24 PUSH0 REVERT JUMPDEST PUSH0 PUSH1 0x2 DUP3 DIV SWAP1 POP PUSH1 0x1 DUP3 AND DUP1 PUSH2 0xE22 JUMPI PUSH1 0x7F DUP3 AND SWAP2 POP JUMPDEST PUSH1 0x20 DUP3 LT DUP2 SUB PUSH2 0xE35 JUMPI PUSH2 0xE34 PUSH2 0xDDE JUMP JUMPDEST JUMPDEST POP SWAP2 SWAP1 POP JUMP JUMPDEST PUSH32 0x4E487B7100000000000000000000000000000000000000000000000000000000 PUSH0 MSTORE PUSH1 0x11 PUSH1 0x4 MSTORE PUSH1 0x24 PUSH0 REVERT JUMPDEST PUSH0 PUSH2 0xE72 DUP3 PUSH2 0xC36 JUMP JUMPDEST SWAP2 POP PUSH2 0xE7D DUP4 PUSH2 0xC36 JUMP JUMPDEST SWAP3 POP DUP3 DUP3 ADD SWAP1 POP DUP1 DUP3 GT ISZERO PUSH2 0xE95 JUMPI PUSH2 0xE94 PUSH2 0xE3B JUMP JUMPDEST JUMPDEST SWAP3 SWAP2 POP POP JUMP JUMPDEST PUSH0 PUSH2 0xEA5 DUP3 PUSH2 0xC36 JUMP JUMPDEST SWAP2 POP PUSH32 0xFFFFFFFFFFFFFFFFFFFFFFFFFFFFFFFFFFFFFFFFFFFFFFFFFFFFFFFFFFFFFFFF DUP3 SUB PUSH2 0xED7 JUMPI PUSH2 0xED6 PUSH2 0xE3B JUMP JUMPDEST JUMPDEST PUSH1 0x1 DUP3 ADD SWAP1 POP SWAP2 SWAP1 POP JUMP INVALID LOG2 PUSH5 0x6970667358 0x22 SLT KECCAK256 SELFDESTRUCT 0x1E 0xC4 0xCF EXP 0x24 0xD6 0xB8 DUP16 0x2A 0x1F JUMPI 0x26 POP REVERT JUMP NUMBER RJUMP 0x87C3 0xA5 SGT 0x23 EXTCODEHASH DUP11 0xE2 0x1F BLOBHASH CODESIZE SLOAD DUP9 SHR PUSH5 0x736F6C6343 STOP ADDMOD 0x1E STOP CALLER "
				},
				"gasEstimates": {
					"creation": {
						"codeDepositCost": "772800",
						"executionCost": "infinite",
						"totalCost": "infinite"
					},
					"external": {
						"addressMaxBid()": "2597",
						"deadLine()": "2491",
						"description()": "infinite",
						"isActive()": "2444",
						"makeBid()": "infinite",
						"maxBid()": "2447",
						"minBid()": "2448",
						"numBids()": "2513",
						"owner()": "2551",
						"ownerWithdraw()": "infinite",
						"refund()": "infinite"
					}
				},
				"methodIdentifiers": {
					"addressMaxBid()": "6569ddf5",
					"deadLine()": "bef3a083",
					"description()": "7284e416",
					"isActive()": "22f3e2d4",
					"makeBid()": "f30e3658",
					"maxBid()": "74b11d8a",
					"minBid()": "3e109a19",
					"numBids()": "ce9ec0a6",
					"owner()": "8da5cb5b",
					"ownerWithdraw()": "4311de8f",
					"refund()": "590e1ae3"
				}
			},
			"storageLayout": {
				"storage": [
					{
						"astId": 5,
						"contract": "contracts/subasta.sol:Subasta",
						"label": "owner",
						"offset": 0,
						"slot": "0",
						"type": "t_address"
					},
					{
						"astId": 7,
						"contract": "contracts/subasta.sol:Subasta",
						"label": "description",
						"offset": 0,
						"slot": "1",
						"type": "t_string_storage"
					},
					{
						"astId": 9,
						"contract": "contracts/subasta.sol:Subasta",
						"label": "minBid",
						"offset": 0,
						"slot": "2",
						"type": "t_uint256"
					},
					{
						"astId": 11,
						"contract": "contracts/subasta.sol:Subasta",
						"label": "maxBid",
						"offset": 0,
						"slot": "3",
						"type": "t_uint256"
					},
					{
						"astId": 13,
						"contract": "contracts/subasta.sol:Subasta",
						"label": "addressMaxBid",
						"offset": 0,
						"slot": "4",
						"type": "t_address"
					},
					{
						"astId": 15,
						"contract": "contracts/subasta.sol:Subasta",
						"label": "deadLine",
						"offset": 0,
						"slot": "5",
						"type": "t_uint256"
					},
					{
						"astId": 17,
						"contract": "contracts/subasta.sol:Subasta",
						"label": "numBids",
						"offset": 0,
						"slot": "6",
						"type": "t_uint256"
					},
					{
						"astId": 19,
						"contract": "contracts/subasta.sol:Subasta",
						"label": "bloqueado",
						"offset": 0,
						"slot": "7",
						"type": "t_bool"
					},
					{
						"astId": 23,
						"contract": "contracts/subasta.sol:Subasta",
						"label": "bids",
						"offset": 0,
						"slot": "8",
						"type": "t_mapping(t_address,t_uint256)"
					}
				],
				"types": {
					"t_address": {
						"encoding": "inplace",
						"label": "address",
						"numberOfBytes": "20"
					},
					"t_bool": {
						"encoding": "inplace",
						"label": "bool",
						"numberOfBytes": "1"
					},
					"t_mapping(t_address,t_uint256)": {
						"encoding": "mapping",
						"key": "t_address",
						"label": "mapping(address => uint256)",
						"numberOfBytes": "32",
						"value": "t_uint256"
					},
					"t_string_storage": {
						"encoding": "bytes",
						"label": "string",
						"numberOfBytes": "32"
					},
					"t_uint256": {
						"encoding": "inplace",
						"label": "uint256",
						"numberOfBytes": "32"
					}
				}
			},
			"userdoc": {
				"kind": "user",
				"methods": {
					"constructor": {
						"notice": "Crea la subasta"
					},
					"isActive()": {
						"notice": "Comprueba si la subasta sigue activa"
					},
					"makeBid()": {
						"notice": "Realiza una puja"
					},
					"ownerWithdraw()": {
						"notice": "Recupera importe puja ganadora"
					},
					"refund()": {
						"notice": "Recupera la puja realizada"
					}
				},
				"version": 1
			}
		}
	}
}