{
	"contracts/subasta.sol": {
		"Subasta": {
			"abi": [
				{
					"inputs": [
						{
							"internalType": "string",
							"name": "_description",
							"type": "string"
						},
						{
							"internalType": "uint256",
							"name": "_minBid",
							"type": "uint256"
						},
						{
							"internalType": "uint256",
							"name": "_minutes",
							"type": "uint256"
						}
					],
					"stateMutability": "nonpayable",
					"type": "constructor"
				},
				{
					"inputs": [
						{
							"internalType": "address",
							"name": "bidder",
							"type": "address"
						}
					],
					"name": "AlreadyBid",
					"type": "error"
				},
				{
					"inputs": [
						{
							"internalType": "uint256",
							"name": "currentTime",
							"type": "uint256"
						},
						{
							"internalType": "uint256",
							"name": "deadline",
							"type": "uint256"
						}
					],
					"name": "AuctionEnded",
					"type": "error"
				},
				{
					"inputs": [
						{
							"internalType": "uint256",
							"name": "sent",
							"type": "uint256"
						},
						{
							"internalType": "uint256",
							"name": "minBid",
							"type": "uint256"
						}
					],
					"name": "BidTooLow",
					"type": "error"
				},
				{
					"inputs": [
						{
							"internalType": "uint256",
							"name": "senderBalance",
							"type": "uint256"
						},
						{
							"internalType": "uint256",
							"name": "required",
							"type": "uint256"
						}
					],
					"name": "InsufficientBalance",
					"type": "error"
				},
				{
					"inputs": [
						{
							"internalType": "uint256",
							"name": "sent",
							"type": "uint256"
						},
						{
							"internalType": "uint256",
							"name": "currentMax",
							"type": "uint256"
						}
					],
					"name": "NotHighestBid",
					"type": "error"
				},
				{
					"inputs": [
						{
							"internalType": "address",
							"name": "owner",
							"type": "address"
						}
					],
					"name": "OwnerCannotBid",
					"type": "error"
				},
				{
					"inputs": [],
					"name": "addressMaxBid",
					"outputs": [
						{
							"internalType": "address",
							"name": "",
							"type": "address"
						}
					],
					"stateMutability": "view",
					"type": "function"
				},
				{
					"inputs": [],
					"name": "deadLine",
					"outputs": [
						{
							"internalType": "uint256",
							"name": "",
							"type": "uint256"
						}
					],
					"stateMutability": "view",
					"type": "function"
				},
				{
					"inputs": [],
					"name": "description",
					"outputs": [
						{
							"internalType": "string",
							"name": "",
							"type": "string"
						}
					],
					"stateMutability": "view",
					"type": "function"
				},
				{
					"inputs": [],
					"name": "makeBid",
					"outputs": [],
					"stateMutability": "payable",
					"type": "function"
				},
				{
					"inputs": [],
					"name": "maxBid",
					"outputs": [
						{
							"internalType": "uint256",
							"name": "",
							"type": "uint256"
						}
					],
					"stateMutability": "view",
					"type": "function"
				},
				{
					"inputs": [],
					"name": "minBid",
					"outputs": [
						{
							"internalType": "uint256",
							"name": "",
							"type": "uint256"
						}
					],
					"stateMutability": "view",
					"type": "function"
				},
				{
					"inputs": [],
					"name": "owner",
					"outputs": [
						{
							"internalType": "address",
							"name": "",
							"type": "address"
						}
					],
					"stateMutability": "view",
					"type": "function"
				}
			],
			"devdoc": {
				"details": "Permite pujar por un artículo durante un tiempo limitado.",
				"kind": "dev",
				"methods": {
					"constructor": {
						"details": "La puja debe ser mayor que la actual.",
						"params": {
							"_description": "Artículo a subastar.",
							"_minBid": "Monto de la puja mínima inicial en wei.",
							"_minutes": "Duración de la subasta en minutos."
						}
					},
					"makeBid()": {
						"details": "La puja debe ser mayor que la actual."
					}
				},
				"title": "Subasta simple",
				"version": 1
			},
			"evm": {
				"assembly": "    /* \"contracts/subasta.sol\":158:3094  contract Subasta {... */\n  mstore(0x40, 0x80)\n    /* \"contracts/subasta.sol\":205:247  0xF55301514c27489Fde7C9cd9A3EA8044E7E04579 */\n  0xf55301514c27489fde7c9cd9a3ea8044e7e04579\n    /* \"contracts/subasta.sol\":181:247  address public  owner = 0xF55301514c27489Fde7C9cd9A3EA8044E7E04579 */\n  0x00\n  exp(0x0100, 0x00)\n  dup2\n  sload\n  dup2\n  0xffffffffffffffffffffffffffffffffffffffff\n  mul\n  not\n  and\n  swap1\n  dup4\n  0xffffffffffffffffffffffffffffffffffffffff\n  and\n  mul\n  or\n  swap1\n  sstore\n  pop\n    /* \"contracts/subasta.sol\":1140:1370  constructor (string memory _description, uint256 _minBid, uint256 _minutes) {... */\n  callvalue\n  dup1\n  iszero\n  tag_1\n  jumpi\n  revert(0x00, 0x00)\ntag_1:\n  pop\n  mload(0x40)\n  sub(codesize, bytecodeSize)\n  dup1\n  bytecodeSize\n  dup4\n  codecopy\n  dup2\n  dup2\n  add\n  0x40\n  mstore\n  dup2\n  add\n  swap1\n  tag_2\n  swap2\n  swap1\n  tag_3\n  jump\t// in\ntag_2:\n    /* \"contracts/subasta.sol\":1240:1252  _description */\n  dup3\n    /* \"contracts/subasta.sol\":1226:1237  description */\n  0x01\n    /* \"contracts/subasta.sol\":1226:1252  description = _description */\n  swap1\n  dup2\n  tag_6\n  swap2\n  swap1\n  tag_7\n  jump\t// in\ntag_6:\n  pop\n    /* \"contracts/subasta.sol\":1271:1278  _minBid */\n  dup2\n    /* \"contracts/subasta.sol\":1262:1268  minBid */\n  0x02\n    /* \"contracts/subasta.sol\":1262:1278  minBid = _minBid */\n  dup2\n  swap1\n  sstore\n  pop\n    /* \"contracts/subasta.sol\":1297:1304  _minBid */\n  dup2\n    /* \"contracts/subasta.sol\":1288:1294  maxBid */\n  0x03\n    /* \"contracts/subasta.sol\":1288:1304  maxBid = _minBid */\n  dup2\n  swap1\n  sstore\n  pop\n    /* \"contracts/subasta.sol\":1354:1363  1 minutes */\n  0x3c\n    /* \"contracts/subasta.sol\":1343:1351  _minutes */\n  dup2\n    /* \"contracts/subasta.sol\":1343:1363  _minutes * 1 minutes */\n  tag_8\n  swap2\n  swap1\n  tag_9\n  jump\t// in\ntag_8:\n    /* \"contracts/subasta.sol\":1325:1340  block.timestamp */\n  timestamp\n    /* \"contracts/subasta.sol\":1325:1363  block.timestamp + _minutes * 1 minutes */\n  tag_10\n  swap2\n  swap1\n  tag_11\n  jump\t// in\ntag_10:\n    /* \"contracts/subasta.sol\":1314:1322  deadLine */\n  0x05\n    /* \"contracts/subasta.sol\":1314:1363  deadLine = block.timestamp + _minutes * 1 minutes */\n  dup2\n  swap1\n  sstore\n  pop\n    /* \"contracts/subasta.sol\":1140:1370  constructor (string memory _description, uint256 _minBid, uint256 _minutes) {... */\n  pop\n  pop\n  pop\n    /* \"contracts/subasta.sol\":158:3094  contract Subasta {... */\n  jump(tag_12)\n    /* \"#utility.yul\":7:82   */\ntag_13:\n    /* \"#utility.yul\":40:46   */\n  0x00\n    /* \"#utility.yul\":73:75   */\n  0x40\n    /* \"#utility.yul\":67:76   */\n  mload\n    /* \"#utility.yul\":57:76   */\n  swap1\n  pop\n    /* \"#utility.yul\":7:82   */\n  swap1\n  jump\t// out\n    /* \"#utility.yul\":88:205   */\ntag_14:\n    /* \"#utility.yul\":197:198   */\n  0x00\n    /* \"#utility.yul\":194:195   */\n  0x00\n    /* \"#utility.yul\":187:199   */\n  revert\n    /* \"#utility.yul\":211:328   */\ntag_15:\n    /* \"#utility.yul\":320:321   */\n  0x00\n    /* \"#utility.yul\":317:318   */\n  0x00\n    /* \"#utility.yul\":310:322   */\n  revert\n    /* \"#utility.yul\":334:451   */\ntag_16:\n    /* \"#utility.yul\":443:444   */\n  0x00\n    /* \"#utility.yul\":440:441   */\n  0x00\n    /* \"#utility.yul\":433:445   */\n  revert\n    /* \"#utility.yul\":457:574   */\ntag_17:\n    /* \"#utility.yul\":566:567   */\n  0x00\n    /* \"#utility.yul\":563:564   */\n  0x00\n    /* \"#utility.yul\":556:568   */\n  revert\n    /* \"#utility.yul\":580:682   */\ntag_18:\n    /* \"#utility.yul\":621:627   */\n  0x00\n    /* \"#utility.yul\":672:674   */\n  0x1f\n    /* \"#utility.yul\":668:675   */\n  not\n    /* \"#utility.yul\":663:665   */\n  0x1f\n    /* \"#utility.yul\":656:661   */\n  dup4\n    /* \"#utility.yul\":652:666   */\n  add\n    /* \"#utility.yul\":648:676   */\n  and\n    /* \"#utility.yul\":638:676   */\n  swap1\n  pop\n    /* \"#utility.yul\":580:682   */\n  swap2\n  swap1\n  pop\n  jump\t// out\n    /* \"#utility.yul\":688:868   */\ntag_19:\n    /* \"#utility.yul\":736:813   */\n  0x4e487b7100000000000000000000000000000000000000000000000000000000\n    /* \"#utility.yul\":733:734   */\n  0x00\n    /* \"#utility.yul\":726:814   */\n  mstore\n    /* \"#utility.yul\":833:837   */\n  0x41\n    /* \"#utility.yul\":830:831   */\n  0x04\n    /* \"#utility.yul\":823:838   */\n  mstore\n    /* \"#utility.yul\":857:861   */\n  0x24\n    /* \"#utility.yul\":854:855   */\n  0x00\n    /* \"#utility.yul\":847:862   */\n  revert\n    /* \"#utility.yul\":874:1155   */\ntag_20:\n    /* \"#utility.yul\":957:984   */\n  tag_57\n    /* \"#utility.yul\":979:983   */\n  dup3\n    /* \"#utility.yul\":957:984   */\n  tag_18\n  jump\t// in\ntag_57:\n    /* \"#utility.yul\":949:955   */\n  dup2\n    /* \"#utility.yul\":945:985   */\n  add\n    /* \"#utility.yul\":1087:1093   */\n  dup2\n    /* \"#utility.yul\":1075:1085   */\n  dup2\n    /* \"#utility.yul\":1072:1094   */\n  lt\n    /* \"#utility.yul\":1051:1069   */\n  0xffffffffffffffff\n    /* \"#utility.yul\":1039:1049   */\n  dup3\n    /* \"#utility.yul\":1036:1070   */\n  gt\n    /* \"#utility.yul\":1033:1095   */\n  or\n    /* \"#utility.yul\":1030:1118   */\n  iszero\n  tag_58\n  jumpi\n    /* \"#utility.yul\":1098:1116   */\n  tag_59\n  tag_19\n  jump\t// in\ntag_59:\n    /* \"#utility.yul\":1030:1118   */\ntag_58:\n    /* \"#utility.yul\":1138:1148   */\n  dup1\n    /* \"#utility.yul\":1134:1136   */\n  0x40\n    /* \"#utility.yul\":1127:1149   */\n  mstore\n    /* \"#utility.yul\":917:1155   */\n  pop\n    /* \"#utility.yul\":874:1155   */\n  pop\n  pop\n  jump\t// out\n    /* \"#utility.yul\":1161:1290   */\ntag_21:\n    /* \"#utility.yul\":1195:1201   */\n  0x00\n    /* \"#utility.yul\":1222:1242   */\n  tag_61\n  tag_13\n  jump\t// in\ntag_61:\n    /* \"#utility.yul\":1212:1242   */\n  swap1\n  pop\n    /* \"#utility.yul\":1251:1284   */\n  tag_62\n    /* \"#utility.yul\":1279:1283   */\n  dup3\n    /* \"#utility.yul\":1271:1277   */\n  dup3\n    /* \"#utility.yul\":1251:1284   */\n  tag_20\n  jump\t// in\ntag_62:\n    /* \"#utility.yul\":1161:1290   */\n  swap2\n  swap1\n  pop\n  jump\t// out\n    /* \"#utility.yul\":1296:1604   */\ntag_22:\n    /* \"#utility.yul\":1358:1362   */\n  0x00\n    /* \"#utility.yul\":1448:1466   */\n  0xffffffffffffffff\n    /* \"#utility.yul\":1440:1446   */\n  dup3\n    /* \"#utility.yul\":1437:1467   */\n  gt\n    /* \"#utility.yul\":1434:1490   */\n  iszero\n  tag_64\n  jumpi\n    /* \"#utility.yul\":1470:1488   */\n  tag_65\n  tag_19\n  jump\t// in\ntag_65:\n    /* \"#utility.yul\":1434:1490   */\ntag_64:\n    /* \"#utility.yul\":1508:1537   */\n  tag_66\n    /* \"#utility.yul\":1530:1536   */\n  dup3\n    /* \"#utility.yul\":1508:1537   */\n  tag_18\n  jump\t// in\ntag_66:\n    /* \"#utility.yul\":1500:1537   */\n  swap1\n  pop\n    /* \"#utility.yul\":1592:1596   */\n  0x20\n    /* \"#utility.yul\":1586:1590   */\n  dup2\n    /* \"#utility.yul\":1582:1597   */\n  add\n    /* \"#utility.yul\":1574:1597   */\n  swap1\n  pop\n    /* \"#utility.yul\":1296:1604   */\n  swap2\n  swap1\n  pop\n  jump\t// out\n    /* \"#utility.yul\":1610:1749   */\ntag_23:\n    /* \"#utility.yul\":1699:1705   */\n  dup3\n    /* \"#utility.yul\":1694:1697   */\n  dup2\n    /* \"#utility.yul\":1689:1692   */\n  dup4\n    /* \"#utility.yul\":1683:1706   */\n  mcopy\n    /* \"#utility.yul\":1740:1741   */\n  0x00\n    /* \"#utility.yul\":1731:1737   */\n  dup4\n    /* \"#utility.yul\":1726:1729   */\n  dup4\n    /* \"#utility.yul\":1722:1738   */\n  add\n    /* \"#utility.yul\":1715:1742   */\n  mstore\n    /* \"#utility.yul\":1610:1749   */\n  pop\n  pop\n  pop\n  jump\t// out\n    /* \"#utility.yul\":1755:2189   */\ntag_24:\n    /* \"#utility.yul\":1844:1849   */\n  0x00\n    /* \"#utility.yul\":1869:1935   */\n  tag_69\n    /* \"#utility.yul\":1885:1934   */\n  tag_70\n    /* \"#utility.yul\":1927:1933   */\n  dup5\n    /* \"#utility.yul\":1885:1934   */\n  tag_22\n  jump\t// in\ntag_70:\n    /* \"#utility.yul\":1869:1935   */\n  tag_21\n  jump\t// in\ntag_69:\n    /* \"#utility.yul\":1860:1935   */\n  swap1\n  pop\n    /* \"#utility.yul\":1958:1964   */\n  dup3\n    /* \"#utility.yul\":1951:1956   */\n  dup2\n    /* \"#utility.yul\":1944:1965   */\n  mstore\n    /* \"#utility.yul\":1996:2000   */\n  0x20\n    /* \"#utility.yul\":1989:1994   */\n  dup2\n    /* \"#utility.yul\":1985:2001   */\n  add\n    /* \"#utility.yul\":2034:2037   */\n  dup5\n    /* \"#utility.yul\":2025:2031   */\n  dup5\n    /* \"#utility.yul\":2020:2023   */\n  dup5\n    /* \"#utility.yul\":2016:2032   */\n  add\n    /* \"#utility.yul\":2013:2038   */\n  gt\n    /* \"#utility.yul\":2010:2122   */\n  iszero\n  tag_71\n  jumpi\n    /* \"#utility.yul\":2041:2120   */\n  tag_72\n  tag_17\n  jump\t// in\ntag_72:\n    /* \"#utility.yul\":2010:2122   */\ntag_71:\n    /* \"#utility.yul\":2131:2183   */\n  tag_73\n    /* \"#utility.yul\":2176:2182   */\n  dup5\n    /* \"#utility.yul\":2171:2174   */\n  dup3\n    /* \"#utility.yul\":2166:2169   */\n  dup6\n    /* \"#utility.yul\":2131:2183   */\n  tag_23\n  jump\t// in\ntag_73:\n    /* \"#utility.yul\":1850:2189   */\n  pop\n    /* \"#utility.yul\":1755:2189   */\n  swap4\n  swap3\n  pop\n  pop\n  pop\n  jump\t// out\n    /* \"#utility.yul\":2209:2564   */\ntag_25:\n    /* \"#utility.yul\":2276:2281   */\n  0x00\n    /* \"#utility.yul\":2325:2328   */\n  dup3\n    /* \"#utility.yul\":2318:2322   */\n  0x1f\n    /* \"#utility.yul\":2310:2316   */\n  dup4\n    /* \"#utility.yul\":2306:2323   */\n  add\n    /* \"#utility.yul\":2302:2329   */\n  slt\n    /* \"#utility.yul\":2292:2414   */\n  tag_75\n  jumpi\n    /* \"#utility.yul\":2333:2412   */\n  tag_76\n  tag_16\n  jump\t// in\ntag_76:\n    /* \"#utility.yul\":2292:2414   */\ntag_75:\n    /* \"#utility.yul\":2443:2449   */\n  dup2\n    /* \"#utility.yul\":2437:2450   */\n  mload\n    /* \"#utility.yul\":2468:2558   */\n  tag_77\n    /* \"#utility.yul\":2554:2557   */\n  dup5\n    /* \"#utility.yul\":2546:2552   */\n  dup3\n    /* \"#utility.yul\":2539:2543   */\n  0x20\n    /* \"#utility.yul\":2531:2537   */\n  dup7\n    /* \"#utility.yul\":2527:2544   */\n  add\n    /* \"#utility.yul\":2468:2558   */\n  tag_24\n  jump\t// in\ntag_77:\n    /* \"#utility.yul\":2459:2558   */\n  swap2\n  pop\n    /* \"#utility.yul\":2282:2564   */\n  pop\n    /* \"#utility.yul\":2209:2564   */\n  swap3\n  swap2\n  pop\n  pop\n  jump\t// out\n    /* \"#utility.yul\":2570:2647   */\ntag_26:\n    /* \"#utility.yul\":2607:2614   */\n  0x00\n    /* \"#utility.yul\":2636:2641   */\n  dup2\n    /* \"#utility.yul\":2625:2641   */\n  swap1\n  pop\n    /* \"#utility.yul\":2570:2647   */\n  swap2\n  swap1\n  pop\n  jump\t// out\n    /* \"#utility.yul\":2653:2775   */\ntag_27:\n    /* \"#utility.yul\":2726:2750   */\n  tag_80\n    /* \"#utility.yul\":2744:2749   */\n  dup2\n    /* \"#utility.yul\":2726:2750   */\n  tag_26\n  jump\t// in\ntag_80:\n    /* \"#utility.yul\":2719:2724   */\n  dup2\n    /* \"#utility.yul\":2716:2751   */\n  eq\n    /* \"#utility.yul\":2706:2769   */\n  tag_81\n  jumpi\n    /* \"#utility.yul\":2765:2766   */\n  0x00\n    /* \"#utility.yul\":2762:2763   */\n  0x00\n    /* \"#utility.yul\":2755:2767   */\n  revert\n    /* \"#utility.yul\":2706:2769   */\ntag_81:\n    /* \"#utility.yul\":2653:2775   */\n  pop\n  jump\t// out\n    /* \"#utility.yul\":2781:2924   */\ntag_28:\n    /* \"#utility.yul\":2838:2843   */\n  0x00\n    /* \"#utility.yul\":2869:2875   */\n  dup2\n    /* \"#utility.yul\":2863:2876   */\n  mload\n    /* \"#utility.yul\":2854:2876   */\n  swap1\n  pop\n    /* \"#utility.yul\":2885:2918   */\n  tag_83\n    /* \"#utility.yul\":2912:2917   */\n  dup2\n    /* \"#utility.yul\":2885:2918   */\n  tag_27\n  jump\t// in\ntag_83:\n    /* \"#utility.yul\":2781:2924   */\n  swap3\n  swap2\n  pop\n  pop\n  jump\t// out\n    /* \"#utility.yul\":2930:3766   */\ntag_3:\n    /* \"#utility.yul\":3028:3034   */\n  0x00\n    /* \"#utility.yul\":3036:3042   */\n  0x00\n    /* \"#utility.yul\":3044:3050   */\n  0x00\n    /* \"#utility.yul\":3093:3095   */\n  0x60\n    /* \"#utility.yul\":3081:3090   */\n  dup5\n    /* \"#utility.yul\":3072:3079   */\n  dup7\n    /* \"#utility.yul\":3068:3091   */\n  sub\n    /* \"#utility.yul\":3064:3096   */\n  slt\n    /* \"#utility.yul\":3061:3180   */\n  iszero\n  tag_85\n  jumpi\n    /* \"#utility.yul\":3099:3178   */\n  tag_86\n  tag_14\n  jump\t// in\ntag_86:\n    /* \"#utility.yul\":3061:3180   */\ntag_85:\n    /* \"#utility.yul\":3240:3241   */\n  0x00\n    /* \"#utility.yul\":3229:3238   */\n  dup5\n    /* \"#utility.yul\":3225:3242   */\n  add\n    /* \"#utility.yul\":3219:3243   */\n  mload\n    /* \"#utility.yul\":3270:3288   */\n  0xffffffffffffffff\n    /* \"#utility.yul\":3262:3268   */\n  dup2\n    /* \"#utility.yul\":3259:3289   */\n  gt\n    /* \"#utility.yul\":3256:3373   */\n  iszero\n  tag_87\n  jumpi\n    /* \"#utility.yul\":3292:3371   */\n  tag_88\n  tag_15\n  jump\t// in\ntag_88:\n    /* \"#utility.yul\":3256:3373   */\ntag_87:\n    /* \"#utility.yul\":3397:3471   */\n  tag_89\n    /* \"#utility.yul\":3463:3470   */\n  dup7\n    /* \"#utility.yul\":3454:3460   */\n  dup3\n    /* \"#utility.yul\":3443:3452   */\n  dup8\n    /* \"#utility.yul\":3439:3461   */\n  add\n    /* \"#utility.yul\":3397:3471   */\n  tag_25\n  jump\t// in\ntag_89:\n    /* \"#utility.yul\":3387:3471   */\n  swap4\n  pop\n    /* \"#utility.yul\":3190:3481   */\n  pop\n    /* \"#utility.yul\":3520:3522   */\n  0x20\n    /* \"#utility.yul\":3546:3610   */\n  tag_90\n    /* \"#utility.yul\":3602:3609   */\n  dup7\n    /* \"#utility.yul\":3593:3599   */\n  dup3\n    /* \"#utility.yul\":3582:3591   */\n  dup8\n    /* \"#utility.yul\":3578:3600   */\n  add\n    /* \"#utility.yul\":3546:3610   */\n  tag_28\n  jump\t// in\ntag_90:\n    /* \"#utility.yul\":3536:3610   */\n  swap3\n  pop\n    /* \"#utility.yul\":3491:3620   */\n  pop\n    /* \"#utility.yul\":3659:3661   */\n  0x40\n    /* \"#utility.yul\":3685:3749   */\n  tag_91\n    /* \"#utility.yul\":3741:3748   */\n  dup7\n    /* \"#utility.yul\":3732:3738   */\n  dup3\n    /* \"#utility.yul\":3721:3730   */\n  dup8\n    /* \"#utility.yul\":3717:3739   */\n  add\n    /* \"#utility.yul\":3685:3749   */\n  tag_28\n  jump\t// in\ntag_91:\n    /* \"#utility.yul\":3675:3749   */\n  swap2\n  pop\n    /* \"#utility.yul\":3630:3759   */\n  pop\n    /* \"#utility.yul\":2930:3766   */\n  swap3\n  pop\n  swap3\n  pop\n  swap3\n  jump\t// out\n    /* \"#utility.yul\":3772:3871   */\ntag_29:\n    /* \"#utility.yul\":3824:3830   */\n  0x00\n    /* \"#utility.yul\":3858:3863   */\n  dup2\n    /* \"#utility.yul\":3852:3864   */\n  mload\n    /* \"#utility.yul\":3842:3864   */\n  swap1\n  pop\n    /* \"#utility.yul\":3772:3871   */\n  swap2\n  swap1\n  pop\n  jump\t// out\n    /* \"#utility.yul\":3877:4057   */\ntag_30:\n    /* \"#utility.yul\":3925:4002   */\n  0x4e487b7100000000000000000000000000000000000000000000000000000000\n    /* \"#utility.yul\":3922:3923   */\n  0x00\n    /* \"#utility.yul\":3915:4003   */\n  mstore\n    /* \"#utility.yul\":4022:4026   */\n  0x22\n    /* \"#utility.yul\":4019:4020   */\n  0x04\n    /* \"#utility.yul\":4012:4027   */\n  mstore\n    /* \"#utility.yul\":4046:4050   */\n  0x24\n    /* \"#utility.yul\":4043:4044   */\n  0x00\n    /* \"#utility.yul\":4036:4051   */\n  revert\n    /* \"#utility.yul\":4063:4383   */\ntag_31:\n    /* \"#utility.yul\":4107:4113   */\n  0x00\n    /* \"#utility.yul\":4144:4145   */\n  0x02\n    /* \"#utility.yul\":4138:4142   */\n  dup3\n    /* \"#utility.yul\":4134:4146   */\n  div\n    /* \"#utility.yul\":4124:4146   */\n  swap1\n  pop\n    /* \"#utility.yul\":4191:4192   */\n  0x01\n    /* \"#utility.yul\":4185:4189   */\n  dup3\n    /* \"#utility.yul\":4181:4193   */\n  and\n    /* \"#utility.yul\":4212:4230   */\n  dup1\n    /* \"#utility.yul\":4202:4283   */\n  tag_95\n  jumpi\n    /* \"#utility.yul\":4268:4272   */\n  0x7f\n    /* \"#utility.yul\":4260:4266   */\n  dup3\n    /* \"#utility.yul\":4256:4273   */\n  and\n    /* \"#utility.yul\":4246:4273   */\n  swap2\n  pop\n    /* \"#utility.yul\":4202:4283   */\ntag_95:\n    /* \"#utility.yul\":4330:4332   */\n  0x20\n    /* \"#utility.yul\":4322:4328   */\n  dup3\n    /* \"#utility.yul\":4319:4333   */\n  lt\n    /* \"#utility.yul\":4299:4317   */\n  dup2\n    /* \"#utility.yul\":4296:4334   */\n  sub\n    /* \"#utility.yul\":4293:4377   */\n  tag_96\n  jumpi\n    /* \"#utility.yul\":4349:4367   */\n  tag_97\n  tag_30\n  jump\t// in\ntag_97:\n    /* \"#utility.yul\":4293:4377   */\ntag_96:\n    /* \"#utility.yul\":4114:4383   */\n  pop\n    /* \"#utility.yul\":4063:4383   */\n  swap2\n  swap1\n  pop\n  jump\t// out\n    /* \"#utility.yul\":4389:4530   */\ntag_32:\n    /* \"#utility.yul\":4438:4442   */\n  0x00\n    /* \"#utility.yul\":4461:4464   */\n  dup2\n    /* \"#utility.yul\":4453:4464   */\n  swap1\n  pop\n    /* \"#utility.yul\":4484:4487   */\n  dup2\n    /* \"#utility.yul\":4481:4482   */\n  0x00\n    /* \"#utility.yul\":4474:4488   */\n  mstore\n    /* \"#utility.yul\":4518:4522   */\n  0x20\n    /* \"#utility.yul\":4515:4516   */\n  0x00\n    /* \"#utility.yul\":4505:4523   */\n  keccak256\n    /* \"#utility.yul\":4497:4523   */\n  swap1\n  pop\n    /* \"#utility.yul\":4389:4530   */\n  swap2\n  swap1\n  pop\n  jump\t// out\n    /* \"#utility.yul\":4536:4629   */\ntag_33:\n    /* \"#utility.yul\":4573:4579   */\n  0x00\n    /* \"#utility.yul\":4620:4622   */\n  0x20\n    /* \"#utility.yul\":4615:4617   */\n  0x1f\n    /* \"#utility.yul\":4608:4613   */\n  dup4\n    /* \"#utility.yul\":4604:4618   */\n  add\n    /* \"#utility.yul\":4600:4623   */\n  div\n    /* \"#utility.yul\":4590:4623   */\n  swap1\n  pop\n    /* \"#utility.yul\":4536:4629   */\n  swap2\n  swap1\n  pop\n  jump\t// out\n    /* \"#utility.yul\":4635:4742   */\ntag_34:\n    /* \"#utility.yul\":4679:4687   */\n  0x00\n    /* \"#utility.yul\":4729:4734   */\n  dup3\n    /* \"#utility.yul\":4723:4727   */\n  dup3\n    /* \"#utility.yul\":4719:4735   */\n  shl\n    /* \"#utility.yul\":4698:4735   */\n  swap1\n  pop\n    /* \"#utility.yul\":4635:4742   */\n  swap3\n  swap2\n  pop\n  pop\n  jump\t// out\n    /* \"#utility.yul\":4748:5141   */\ntag_35:\n    /* \"#utility.yul\":4817:4823   */\n  0x00\n    /* \"#utility.yul\":4867:4868   */\n  0x08\n    /* \"#utility.yul\":4855:4865   */\n  dup4\n    /* \"#utility.yul\":4851:4869   */\n  mul\n    /* \"#utility.yul\":4890:4987   */\n  tag_102\n    /* \"#utility.yul\":4920:4986   */\n  0xffffffffffffffffffffffffffffffffffffffffffffffffffffffffffffffff\n    /* \"#utility.yul\":4909:4918   */\n  dup3\n    /* \"#utility.yul\":4890:4987   */\n  tag_34\n  jump\t// in\ntag_102:\n    /* \"#utility.yul\":5008:5047   */\n  tag_103\n    /* \"#utility.yul\":5038:5046   */\n  dup7\n    /* \"#utility.yul\":5027:5036   */\n  dup4\n    /* \"#utility.yul\":5008:5047   */\n  tag_34\n  jump\t// in\ntag_103:\n    /* \"#utility.yul\":4996:5047   */\n  swap6\n  pop\n    /* \"#utility.yul\":5080:5084   */\n  dup1\n    /* \"#utility.yul\":5076:5085   */\n  not\n    /* \"#utility.yul\":5069:5074   */\n  dup5\n    /* \"#utility.yul\":5065:5086   */\n  and\n    /* \"#utility.yul\":5056:5086   */\n  swap4\n  pop\n    /* \"#utility.yul\":5129:5133   */\n  dup1\n    /* \"#utility.yul\":5119:5127   */\n  dup7\n    /* \"#utility.yul\":5115:5134   */\n  and\n    /* \"#utility.yul\":5108:5113   */\n  dup5\n    /* \"#utility.yul\":5105:5135   */\n  or\n    /* \"#utility.yul\":5095:5135   */\n  swap3\n  pop\n    /* \"#utility.yul\":4824:5141   */\n  pop\n  pop\n    /* \"#utility.yul\":4748:5141   */\n  swap4\n  swap3\n  pop\n  pop\n  pop\n  jump\t// out\n    /* \"#utility.yul\":5147:5207   */\ntag_36:\n    /* \"#utility.yul\":5175:5178   */\n  0x00\n    /* \"#utility.yul\":5196:5201   */\n  dup2\n    /* \"#utility.yul\":5189:5201   */\n  swap1\n  pop\n    /* \"#utility.yul\":5147:5207   */\n  swap2\n  swap1\n  pop\n  jump\t// out\n    /* \"#utility.yul\":5213:5355   */\ntag_37:\n    /* \"#utility.yul\":5263:5272   */\n  0x00\n    /* \"#utility.yul\":5296:5349   */\n  tag_106\n    /* \"#utility.yul\":5314:5348   */\n  tag_107\n    /* \"#utility.yul\":5323:5347   */\n  tag_108\n    /* \"#utility.yul\":5341:5346   */\n  dup5\n    /* \"#utility.yul\":5323:5347   */\n  tag_26\n  jump\t// in\ntag_108:\n    /* \"#utility.yul\":5314:5348   */\n  tag_36\n  jump\t// in\ntag_107:\n    /* \"#utility.yul\":5296:5349   */\n  tag_26\n  jump\t// in\ntag_106:\n    /* \"#utility.yul\":5283:5349   */\n  swap1\n  pop\n    /* \"#utility.yul\":5213:5355   */\n  swap2\n  swap1\n  pop\n  jump\t// out\n    /* \"#utility.yul\":5361:5436   */\ntag_38:\n    /* \"#utility.yul\":5404:5407   */\n  0x00\n    /* \"#utility.yul\":5425:5430   */\n  dup2\n    /* \"#utility.yul\":5418:5430   */\n  swap1\n  pop\n    /* \"#utility.yul\":5361:5436   */\n  swap2\n  swap1\n  pop\n  jump\t// out\n    /* \"#utility.yul\":5442:5711   */\ntag_39:\n    /* \"#utility.yul\":5552:5591   */\n  tag_111\n    /* \"#utility.yul\":5583:5590   */\n  dup4\n    /* \"#utility.yul\":5552:5591   */\n  tag_37\n  jump\t// in\ntag_111:\n    /* \"#utility.yul\":5613:5704   */\n  tag_112\n    /* \"#utility.yul\":5662:5703   */\n  tag_113\n    /* \"#utility.yul\":5686:5702   */\n  dup3\n    /* \"#utility.yul\":5662:5703   */\n  tag_38\n  jump\t// in\ntag_113:\n    /* \"#utility.yul\":5654:5660   */\n  dup5\n    /* \"#utility.yul\":5647:5651   */\n  dup5\n    /* \"#utility.yul\":5641:5652   */\n  sload\n    /* \"#utility.yul\":5613:5704   */\n  tag_35\n  jump\t// in\ntag_112:\n    /* \"#utility.yul\":5607:5611   */\n  dup3\n    /* \"#utility.yul\":5600:5705   */\n  sstore\n    /* \"#utility.yul\":5518:5711   */\n  pop\n    /* \"#utility.yul\":5442:5711   */\n  pop\n  pop\n  pop\n  jump\t// out\n    /* \"#utility.yul\":5717:5790   */\ntag_40:\n    /* \"#utility.yul\":5762:5765   */\n  0x00\n    /* \"#utility.yul\":5783:5784   */\n  0x00\n    /* \"#utility.yul\":5776:5784   */\n  swap1\n  pop\n    /* \"#utility.yul\":5717:5790   */\n  swap1\n  jump\t// out\n    /* \"#utility.yul\":5796:5985   */\ntag_41:\n    /* \"#utility.yul\":5873:5905   */\n  tag_116\n  tag_40\n  jump\t// in\ntag_116:\n    /* \"#utility.yul\":5914:5979   */\n  tag_117\n    /* \"#utility.yul\":5972:5978   */\n  dup2\n    /* \"#utility.yul\":5964:5970   */\n  dup5\n    /* \"#utility.yul\":5958:5962   */\n  dup5\n    /* \"#utility.yul\":5914:5979   */\n  tag_39\n  jump\t// in\ntag_117:\n    /* \"#utility.yul\":5849:5985   */\n  pop\n    /* \"#utility.yul\":5796:5985   */\n  pop\n  pop\n  jump\t// out\n    /* \"#utility.yul\":5991:6177   */\ntag_42:\n    /* \"#utility.yul\":6051:6171   */\ntag_119:\n    /* \"#utility.yul\":6068:6071   */\n  dup2\n    /* \"#utility.yul\":6061:6066   */\n  dup2\n    /* \"#utility.yul\":6058:6072   */\n  lt\n    /* \"#utility.yul\":6051:6171   */\n  iszero\n  tag_121\n  jumpi\n    /* \"#utility.yul\":6122:6161   */\n  tag_122\n    /* \"#utility.yul\":6159:6160   */\n  0x00\n    /* \"#utility.yul\":6152:6157   */\n  dup3\n    /* \"#utility.yul\":6122:6161   */\n  tag_41\n  jump\t// in\ntag_122:\n    /* \"#utility.yul\":6095:6096   */\n  0x01\n    /* \"#utility.yul\":6088:6093   */\n  dup2\n    /* \"#utility.yul\":6084:6097   */\n  add\n    /* \"#utility.yul\":6075:6097   */\n  swap1\n  pop\n    /* \"#utility.yul\":6051:6171   */\n  jump(tag_119)\ntag_121:\n    /* \"#utility.yul\":5991:6177   */\n  pop\n  pop\n  jump\t// out\n    /* \"#utility.yul\":6183:6726   */\ntag_43:\n    /* \"#utility.yul\":6284:6286   */\n  0x1f\n    /* \"#utility.yul\":6279:6282   */\n  dup3\n    /* \"#utility.yul\":6276:6287   */\n  gt\n    /* \"#utility.yul\":6273:6719   */\n  iszero\n  tag_124\n  jumpi\n    /* \"#utility.yul\":6318:6356   */\n  tag_125\n    /* \"#utility.yul\":6350:6355   */\n  dup2\n    /* \"#utility.yul\":6318:6356   */\n  tag_32\n  jump\t// in\ntag_125:\n    /* \"#utility.yul\":6402:6431   */\n  tag_126\n    /* \"#utility.yul\":6420:6430   */\n  dup5\n    /* \"#utility.yul\":6402:6431   */\n  tag_33\n  jump\t// in\ntag_126:\n    /* \"#utility.yul\":6392:6400   */\n  dup2\n    /* \"#utility.yul\":6388:6432   */\n  add\n    /* \"#utility.yul\":6585:6587   */\n  0x20\n    /* \"#utility.yul\":6573:6583   */\n  dup6\n    /* \"#utility.yul\":6570:6588   */\n  lt\n    /* \"#utility.yul\":6567:6616   */\n  iszero\n  tag_127\n  jumpi\n    /* \"#utility.yul\":6606:6614   */\n  dup2\n    /* \"#utility.yul\":6591:6614   */\n  swap1\n  pop\n    /* \"#utility.yul\":6567:6616   */\ntag_127:\n    /* \"#utility.yul\":6629:6709   */\n  tag_128\n    /* \"#utility.yul\":6685:6707   */\n  tag_129\n    /* \"#utility.yul\":6703:6706   */\n  dup6\n    /* \"#utility.yul\":6685:6707   */\n  tag_33\n  jump\t// in\ntag_129:\n    /* \"#utility.yul\":6675:6683   */\n  dup4\n    /* \"#utility.yul\":6671:6708   */\n  add\n    /* \"#utility.yul\":6658:6669   */\n  dup3\n    /* \"#utility.yul\":6629:6709   */\n  tag_42\n  jump\t// in\ntag_128:\n    /* \"#utility.yul\":6288:6719   */\n  pop\n  pop\n    /* \"#utility.yul\":6273:6719   */\ntag_124:\n    /* \"#utility.yul\":6183:6726   */\n  pop\n  pop\n  pop\n  jump\t// out\n    /* \"#utility.yul\":6732:6849   */\ntag_44:\n    /* \"#utility.yul\":6786:6794   */\n  0x00\n    /* \"#utility.yul\":6836:6841   */\n  dup3\n    /* \"#utility.yul\":6830:6834   */\n  dup3\n    /* \"#utility.yul\":6826:6842   */\n  shr\n    /* \"#utility.yul\":6805:6842   */\n  swap1\n  pop\n    /* \"#utility.yul\":6732:6849   */\n  swap3\n  swap2\n  pop\n  pop\n  jump\t// out\n    /* \"#utility.yul\":6855:7024   */\ntag_45:\n    /* \"#utility.yul\":6899:6905   */\n  0x00\n    /* \"#utility.yul\":6932:6983   */\n  tag_132\n    /* \"#utility.yul\":6980:6981   */\n  0x00\n    /* \"#utility.yul\":6976:6982   */\n  not\n    /* \"#utility.yul\":6968:6973   */\n  dup5\n    /* \"#utility.yul\":6965:6966   */\n  0x08\n    /* \"#utility.yul\":6961:6974   */\n  mul\n    /* \"#utility.yul\":6932:6983   */\n  tag_44\n  jump\t// in\ntag_132:\n    /* \"#utility.yul\":6928:6984   */\n  not\n    /* \"#utility.yul\":7013:7017   */\n  dup1\n    /* \"#utility.yul\":7007:7011   */\n  dup4\n    /* \"#utility.yul\":7003:7018   */\n  and\n    /* \"#utility.yul\":6993:7018   */\n  swap2\n  pop\n    /* \"#utility.yul\":6906:7024   */\n  pop\n    /* \"#utility.yul\":6855:7024   */\n  swap3\n  swap2\n  pop\n  pop\n  jump\t// out\n    /* \"#utility.yul\":7029:7324   */\ntag_46:\n    /* \"#utility.yul\":7105:7109   */\n  0x00\n    /* \"#utility.yul\":7251:7280   */\n  tag_134\n    /* \"#utility.yul\":7276:7279   */\n  dup4\n    /* \"#utility.yul\":7270:7274   */\n  dup4\n    /* \"#utility.yul\":7251:7280   */\n  tag_45\n  jump\t// in\ntag_134:\n    /* \"#utility.yul\":7243:7280   */\n  swap2\n  pop\n    /* \"#utility.yul\":7313:7316   */\n  dup3\n    /* \"#utility.yul\":7310:7311   */\n  0x02\n    /* \"#utility.yul\":7306:7317   */\n  mul\n    /* \"#utility.yul\":7300:7304   */\n  dup3\n    /* \"#utility.yul\":7297:7318   */\n  or\n    /* \"#utility.yul\":7289:7318   */\n  swap1\n  pop\n    /* \"#utility.yul\":7029:7324   */\n  swap3\n  swap2\n  pop\n  pop\n  jump\t// out\n    /* \"#utility.yul\":7329:8724   */\ntag_7:\n    /* \"#utility.yul\":7446:7483   */\n  tag_136\n    /* \"#utility.yul\":7479:7482   */\n  dup3\n    /* \"#utility.yul\":7446:7483   */\n  tag_29\n  jump\t// in\ntag_136:\n    /* \"#utility.yul\":7548:7566   */\n  0xffffffffffffffff\n    /* \"#utility.yul\":7540:7546   */\n  dup2\n    /* \"#utility.yul\":7537:7567   */\n  gt\n    /* \"#utility.yul\":7534:7590   */\n  iszero\n  tag_137\n  jumpi\n    /* \"#utility.yul\":7570:7588   */\n  tag_138\n  tag_19\n  jump\t// in\ntag_138:\n    /* \"#utility.yul\":7534:7590   */\ntag_137:\n    /* \"#utility.yul\":7614:7652   */\n  tag_139\n    /* \"#utility.yul\":7646:7650   */\n  dup3\n    /* \"#utility.yul\":7640:7651   */\n  sload\n    /* \"#utility.yul\":7614:7652   */\n  tag_31\n  jump\t// in\ntag_139:\n    /* \"#utility.yul\":7699:7766   */\n  tag_140\n    /* \"#utility.yul\":7759:7765   */\n  dup3\n    /* \"#utility.yul\":7751:7757   */\n  dup3\n    /* \"#utility.yul\":7745:7749   */\n  dup6\n    /* \"#utility.yul\":7699:7766   */\n  tag_43\n  jump\t// in\ntag_140:\n    /* \"#utility.yul\":7793:7794   */\n  0x00\n    /* \"#utility.yul\":7817:7821   */\n  0x20\n    /* \"#utility.yul\":7804:7821   */\n  swap1\n  pop\n    /* \"#utility.yul\":7849:7851   */\n  0x1f\n    /* \"#utility.yul\":7841:7847   */\n  dup4\n    /* \"#utility.yul\":7838:7852   */\n  gt\n    /* \"#utility.yul\":7866:7867   */\n  0x01\n    /* \"#utility.yul\":7861:8479   */\n  dup2\n  eq\n  tag_142\n  jumpi\n    /* \"#utility.yul\":8523:8524   */\n  0x00\n    /* \"#utility.yul\":8540:8546   */\n  dup5\n    /* \"#utility.yul\":8537:8614   */\n  iszero\n  tag_143\n  jumpi\n    /* \"#utility.yul\":8589:8598   */\n  dup3\n    /* \"#utility.yul\":8584:8587   */\n  dup8\n    /* \"#utility.yul\":8580:8599   */\n  add\n    /* \"#utility.yul\":8574:8600   */\n  mload\n    /* \"#utility.yul\":8565:8600   */\n  swap1\n  pop\n    /* \"#utility.yul\":8537:8614   */\ntag_143:\n    /* \"#utility.yul\":8640:8707   */\n  tag_144\n    /* \"#utility.yul\":8700:8706   */\n  dup6\n    /* \"#utility.yul\":8693:8698   */\n  dup3\n    /* \"#utility.yul\":8640:8707   */\n  tag_46\n  jump\t// in\ntag_144:\n    /* \"#utility.yul\":8634:8638   */\n  dup7\n    /* \"#utility.yul\":8627:8708   */\n  sstore\n    /* \"#utility.yul\":8496:8718   */\n  pop\n    /* \"#utility.yul\":7831:8718   */\n  jump(tag_141)\n    /* \"#utility.yul\":7861:8479   */\ntag_142:\n    /* \"#utility.yul\":7913:7917   */\n  0x1f\n    /* \"#utility.yul\":7909:7918   */\n  not\n    /* \"#utility.yul\":7901:7907   */\n  dup5\n    /* \"#utility.yul\":7897:7919   */\n  and\n    /* \"#utility.yul\":7947:7984   */\n  tag_145\n    /* \"#utility.yul\":7979:7983   */\n  dup7\n    /* \"#utility.yul\":7947:7984   */\n  tag_32\n  jump\t// in\ntag_145:\n    /* \"#utility.yul\":8006:8007   */\n  0x00\n    /* \"#utility.yul\":8020:8228   */\ntag_146:\n    /* \"#utility.yul\":8034:8041   */\n  dup3\n    /* \"#utility.yul\":8031:8032   */\n  dup2\n    /* \"#utility.yul\":8028:8042   */\n  lt\n    /* \"#utility.yul\":8020:8228   */\n  iszero\n  tag_148\n  jumpi\n    /* \"#utility.yul\":8113:8122   */\n  dup5\n    /* \"#utility.yul\":8108:8111   */\n  dup10\n    /* \"#utility.yul\":8104:8123   */\n  add\n    /* \"#utility.yul\":8098:8124   */\n  mload\n    /* \"#utility.yul\":8090:8096   */\n  dup3\n    /* \"#utility.yul\":8083:8125   */\n  sstore\n    /* \"#utility.yul\":8164:8165   */\n  0x01\n    /* \"#utility.yul\":8156:8162   */\n  dup3\n    /* \"#utility.yul\":8152:8166   */\n  add\n    /* \"#utility.yul\":8142:8166   */\n  swap2\n  pop\n    /* \"#utility.yul\":8211:8213   */\n  0x20\n    /* \"#utility.yul\":8200:8209   */\n  dup6\n    /* \"#utility.yul\":8196:8214   */\n  add\n    /* \"#utility.yul\":8183:8214   */\n  swap5\n  pop\n    /* \"#utility.yul\":8057:8061   */\n  0x20\n    /* \"#utility.yul\":8054:8055   */\n  dup2\n    /* \"#utility.yul\":8050:8062   */\n  add\n    /* \"#utility.yul\":8045:8062   */\n  swap1\n  pop\n    /* \"#utility.yul\":8020:8228   */\n  jump(tag_146)\ntag_148:\n    /* \"#utility.yul\":8256:8262   */\n  dup7\n    /* \"#utility.yul\":8247:8254   */\n  dup4\n    /* \"#utility.yul\":8244:8263   */\n  lt\n    /* \"#utility.yul\":8241:8420   */\n  iszero\n  tag_149\n  jumpi\n    /* \"#utility.yul\":8314:8323   */\n  dup5\n    /* \"#utility.yul\":8309:8312   */\n  dup10\n    /* \"#utility.yul\":8305:8324   */\n  add\n    /* \"#utility.yul\":8299:8325   */\n  mload\n    /* \"#utility.yul\":8357:8405   */\n  tag_150\n    /* \"#utility.yul\":8399:8403   */\n  0x1f\n    /* \"#utility.yul\":8391:8397   */\n  dup10\n    /* \"#utility.yul\":8387:8404   */\n  and\n    /* \"#utility.yul\":8376:8385   */\n  dup3\n    /* \"#utility.yul\":8357:8405   */\n  tag_45\n  jump\t// in\ntag_150:\n    /* \"#utility.yul\":8349:8355   */\n  dup4\n    /* \"#utility.yul\":8342:8406   */\n  sstore\n    /* \"#utility.yul\":8264:8420   */\n  pop\n    /* \"#utility.yul\":8241:8420   */\ntag_149:\n    /* \"#utility.yul\":8466:8467   */\n  0x01\n    /* \"#utility.yul\":8462:8463   */\n  0x02\n    /* \"#utility.yul\":8454:8460   */\n  dup9\n    /* \"#utility.yul\":8450:8464   */\n  mul\n    /* \"#utility.yul\":8446:8468   */\n  add\n    /* \"#utility.yul\":8440:8444   */\n  dup9\n    /* \"#utility.yul\":8433:8469   */\n  sstore\n    /* \"#utility.yul\":7868:8479   */\n  pop\n  pop\n  pop\n    /* \"#utility.yul\":7831:8718   */\ntag_141:\n  pop\n    /* \"#utility.yul\":7421:8724   */\n  pop\n  pop\n  pop\n    /* \"#utility.yul\":7329:8724   */\n  pop\n  pop\n  jump\t// out\n    /* \"#utility.yul\":8730:8910   */\ntag_47:\n    /* \"#utility.yul\":8778:8855   */\n  0x4e487b7100000000000000000000000000000000000000000000000000000000\n    /* \"#utility.yul\":8775:8776   */\n  0x00\n    /* \"#utility.yul\":8768:8856   */\n  mstore\n    /* \"#utility.yul\":8875:8879   */\n  0x11\n    /* \"#utility.yul\":8872:8873   */\n  0x04\n    /* \"#utility.yul\":8865:8880   */\n  mstore\n    /* \"#utility.yul\":8899:8903   */\n  0x24\n    /* \"#utility.yul\":8896:8897   */\n  0x00\n    /* \"#utility.yul\":8889:8904   */\n  revert\n    /* \"#utility.yul\":8916:9326   */\ntag_9:\n    /* \"#utility.yul\":8956:8963   */\n  0x00\n    /* \"#utility.yul\":8979:8999   */\n  tag_153\n    /* \"#utility.yul\":8997:8998   */\n  dup3\n    /* \"#utility.yul\":8979:8999   */\n  tag_26\n  jump\t// in\ntag_153:\n    /* \"#utility.yul\":8974:8999   */\n  swap2\n  pop\n    /* \"#utility.yul\":9013:9033   */\n  tag_154\n    /* \"#utility.yul\":9031:9032   */\n  dup4\n    /* \"#utility.yul\":9013:9033   */\n  tag_26\n  jump\t// in\ntag_154:\n    /* \"#utility.yul\":9008:9033   */\n  swap3\n  pop\n    /* \"#utility.yul\":9068:9069   */\n  dup3\n    /* \"#utility.yul\":9065:9066   */\n  dup3\n    /* \"#utility.yul\":9061:9070   */\n  mul\n    /* \"#utility.yul\":9090:9120   */\n  tag_155\n    /* \"#utility.yul\":9108:9119   */\n  dup2\n    /* \"#utility.yul\":9090:9120   */\n  tag_26\n  jump\t// in\ntag_155:\n    /* \"#utility.yul\":9079:9120   */\n  swap2\n  pop\n    /* \"#utility.yul\":9269:9270   */\n  dup3\n    /* \"#utility.yul\":9260:9267   */\n  dup3\n    /* \"#utility.yul\":9256:9271   */\n  div\n    /* \"#utility.yul\":9253:9254   */\n  dup5\n    /* \"#utility.yul\":9250:9272   */\n  eq\n    /* \"#utility.yul\":9230:9231   */\n  dup4\n    /* \"#utility.yul\":9223:9232   */\n  iszero\n    /* \"#utility.yul\":9203:9286   */\n  or\n    /* \"#utility.yul\":9180:9319   */\n  tag_156\n  jumpi\n    /* \"#utility.yul\":9299:9317   */\n  tag_157\n  tag_47\n  jump\t// in\ntag_157:\n    /* \"#utility.yul\":9180:9319   */\ntag_156:\n    /* \"#utility.yul\":8964:9326   */\n  pop\n    /* \"#utility.yul\":8916:9326   */\n  swap3\n  swap2\n  pop\n  pop\n  jump\t// out\n    /* \"#utility.yul\":9332:9523   */\ntag_11:\n    /* \"#utility.yul\":9372:9375   */\n  0x00\n    /* \"#utility.yul\":9391:9411   */\n  tag_159\n    /* \"#utility.yul\":9409:9410   */\n  dup3\n    /* \"#utility.yul\":9391:9411   */\n  tag_26\n  jump\t// in\ntag_159:\n    /* \"#utility.yul\":9386:9411   */\n  swap2\n  pop\n    /* \"#utility.yul\":9425:9445   */\n  tag_160\n    /* \"#utility.yul\":9443:9444   */\n  dup4\n    /* \"#utility.yul\":9425:9445   */\n  tag_26\n  jump\t// in\ntag_160:\n    /* \"#utility.yul\":9420:9445   */\n  swap3\n  pop\n    /* \"#utility.yul\":9468:9469   */\n  dup3\n    /* \"#utility.yul\":9465:9466   */\n  dup3\n    /* \"#utility.yul\":9461:9470   */\n  add\n    /* \"#utility.yul\":9454:9470   */\n  swap1\n  pop\n    /* \"#utility.yul\":9489:9492   */\n  dup1\n    /* \"#utility.yul\":9486:9487   */\n  dup3\n    /* \"#utility.yul\":9483:9493   */\n  gt\n    /* \"#utility.yul\":9480:9516   */\n  iszero\n  tag_161\n  jumpi\n    /* \"#utility.yul\":9496:9514   */\n  tag_162\n  tag_47\n  jump\t// in\ntag_162:\n    /* \"#utility.yul\":9480:9516   */\ntag_161:\n    /* \"#utility.yul\":9332:9523   */\n  swap3\n  swap2\n  pop\n  pop\n  jump\t// out\n    /* \"contracts/subasta.sol\":158:3094  contract Subasta {... */\ntag_12:\n  dataSize(sub_0)\n  dup1\n  dataOffset(sub_0)\n  0x00\n  codecopy\n  0x00\n  return\nstop\n\nsub_0: assembly {\n        /* \"contracts/subasta.sol\":158:3094  contract Subasta {... */\n      mstore(0x40, 0x80)\n      jumpi(tag_1, lt(calldatasize, 0x04))\n      shr(0xe0, calldataload(0x00))\n      dup1\n      0x74b11d8a\n      gt\n      tag_9\n      jumpi\n      dup1\n      0x74b11d8a\n      eq\n      tag_5\n      jumpi\n      dup1\n      0x8da5cb5b\n      eq\n      tag_6\n      jumpi\n      dup1\n      0xbef3a083\n      eq\n      tag_7\n      jumpi\n      dup1\n      0xf30e3658\n      eq\n      tag_8\n      jumpi\n      jump(tag_1)\n    tag_9:\n      dup1\n      0x3e109a19\n      eq\n      tag_2\n      jumpi\n      dup1\n      0x6569ddf5\n      eq\n      tag_3\n      jumpi\n      dup1\n      0x7284e416\n      eq\n      tag_4\n      jumpi\n    tag_1:\n      revert(0x00, 0x00)\n        /* \"contracts/subasta.sol\":286:308  uint256 public  minBid */\n    tag_2:\n      callvalue\n      dup1\n      iszero\n      tag_10\n      jumpi\n      revert(0x00, 0x00)\n    tag_10:\n      pop\n      tag_11\n      tag_12\n      jump\t// in\n    tag_11:\n      mload(0x40)\n      tag_13\n      swap2\n      swap1\n      tag_14\n      jump\t// in\n    tag_13:\n      mload(0x40)\n      dup1\n      swap2\n      sub\n      swap1\n      return\n        /* \"contracts/subasta.sol\":342:371  address public  addressMaxBid */\n    tag_3:\n      callvalue\n      dup1\n      iszero\n      tag_15\n      jumpi\n      revert(0x00, 0x00)\n    tag_15:\n      pop\n      tag_16\n      tag_17\n      jump\t// in\n    tag_16:\n      mload(0x40)\n      tag_18\n      swap2\n      swap1\n      tag_19\n      jump\t// in\n    tag_18:\n      mload(0x40)\n      dup1\n      swap2\n      sub\n      swap1\n      return\n        /* \"contracts/subasta.sol\":253:280  string  public  description */\n    tag_4:\n      callvalue\n      dup1\n      iszero\n      tag_20\n      jumpi\n      revert(0x00, 0x00)\n    tag_20:\n      pop\n      tag_21\n      tag_22\n      jump\t// in\n    tag_21:\n      mload(0x40)\n      tag_23\n      swap2\n      swap1\n      tag_24\n      jump\t// in\n    tag_23:\n      mload(0x40)\n      dup1\n      swap2\n      sub\n      swap1\n      return\n        /* \"contracts/subasta.sol\":314:336  uint256 public  maxBid */\n    tag_5:\n      callvalue\n      dup1\n      iszero\n      tag_25\n      jumpi\n      revert(0x00, 0x00)\n    tag_25:\n      pop\n      tag_26\n      tag_27\n      jump\t// in\n    tag_26:\n      mload(0x40)\n      tag_28\n      swap2\n      swap1\n      tag_14\n      jump\t// in\n    tag_28:\n      mload(0x40)\n      dup1\n      swap2\n      sub\n      swap1\n      return\n        /* \"contracts/subasta.sol\":181:247  address public  owner = 0xF55301514c27489Fde7C9cd9A3EA8044E7E04579 */\n    tag_6:\n      callvalue\n      dup1\n      iszero\n      tag_29\n      jumpi\n      revert(0x00, 0x00)\n    tag_29:\n      pop\n      tag_30\n      tag_31\n      jump\t// in\n    tag_30:\n      mload(0x40)\n      tag_32\n      swap2\n      swap1\n      tag_19\n      jump\t// in\n    tag_32:\n      mload(0x40)\n      dup1\n      swap2\n      sub\n      swap1\n      return\n        /* \"contracts/subasta.sol\":377:401  uint256 public  deadLine */\n    tag_7:\n      callvalue\n      dup1\n      iszero\n      tag_33\n      jumpi\n      revert(0x00, 0x00)\n    tag_33:\n      pop\n      tag_34\n      tag_35\n      jump\t// in\n    tag_34:\n      mload(0x40)\n      tag_36\n      swap2\n      swap1\n      tag_14\n      jump\t// in\n    tag_36:\n      mload(0x40)\n      dup1\n      swap2\n      sub\n      swap1\n      return\n        /* \"contracts/subasta.sol\":1478:2903  function makeBid () external payable {... */\n    tag_8:\n      tag_37\n      tag_38\n      jump\t// in\n    tag_37:\n      stop\n        /* \"contracts/subasta.sol\":286:308  uint256 public  minBid */\n    tag_12:\n      sload(0x02)\n      dup2\n      jump\t// out\n        /* \"contracts/subasta.sol\":342:371  address public  addressMaxBid */\n    tag_17:\n      0x04\n      0x00\n      swap1\n      sload\n      swap1\n      0x0100\n      exp\n      swap1\n      div\n      0xffffffffffffffffffffffffffffffffffffffff\n      and\n      dup2\n      jump\t// out\n        /* \"contracts/subasta.sol\":253:280  string  public  description */\n    tag_22:\n      0x01\n      dup1\n      sload\n      tag_39\n      swap1\n      tag_40\n      jump\t// in\n    tag_39:\n      dup1\n      0x1f\n      add\n      0x20\n      dup1\n      swap2\n      div\n      mul\n      0x20\n      add\n      mload(0x40)\n      swap1\n      dup2\n      add\n      0x40\n      mstore\n      dup1\n      swap3\n      swap2\n      swap1\n      dup2\n      dup2\n      mstore\n      0x20\n      add\n      dup3\n      dup1\n      sload\n      tag_41\n      swap1\n      tag_40\n      jump\t// in\n    tag_41:\n      dup1\n      iszero\n      tag_42\n      jumpi\n      dup1\n      0x1f\n      lt\n      tag_43\n      jumpi\n      0x0100\n      dup1\n      dup4\n      sload\n      div\n      mul\n      dup4\n      mstore\n      swap2\n      0x20\n      add\n      swap2\n      jump(tag_42)\n    tag_43:\n      dup3\n      add\n      swap2\n      swap1\n      0x00\n      mstore\n      keccak256(0x00, 0x20)\n      swap1\n    tag_44:\n      dup2\n      sload\n      dup2\n      mstore\n      swap1\n      0x01\n      add\n      swap1\n      0x20\n      add\n      dup1\n      dup4\n      gt\n      tag_44\n      jumpi\n      dup3\n      swap1\n      sub\n      0x1f\n      and\n      dup3\n      add\n      swap2\n    tag_42:\n      pop\n      pop\n      pop\n      pop\n      pop\n      dup2\n      jump\t// out\n        /* \"contracts/subasta.sol\":314:336  uint256 public  maxBid */\n    tag_27:\n      sload(0x03)\n      dup2\n      jump\t// out\n        /* \"contracts/subasta.sol\":181:247  address public  owner = 0xF55301514c27489Fde7C9cd9A3EA8044E7E04579 */\n    tag_31:\n      0x00\n      0x00\n      swap1\n      sload\n      swap1\n      0x0100\n      exp\n      swap1\n      div\n      0xffffffffffffffffffffffffffffffffffffffff\n      and\n      dup2\n      jump\t// out\n        /* \"contracts/subasta.sol\":377:401  uint256 public  deadLine */\n    tag_35:\n      sload(0x05)\n      dup2\n      jump\t// out\n        /* \"contracts/subasta.sol\":1478:2903  function makeBid () external payable {... */\n    tag_38:\n        /* \"contracts/subasta.sol\":1602:1610  deadLine */\n      sload(0x05)\n        /* \"contracts/subasta.sol\":1583:1598  block.timestamp */\n      timestamp\n        /* \"contracts/subasta.sol\":1583:1610  block.timestamp >= deadLine */\n      lt\n        /* \"contracts/subasta.sol\":1579:1757  if (block.timestamp >= deadLine) {... */\n      tag_46\n      jumpi\n        /* \"contracts/subasta.sol\":1677:1692  block.timestamp */\n      timestamp\n        /* \"contracts/subasta.sol\":1723:1731  deadLine */\n      sload(0x05)\n        /* \"contracts/subasta.sol\":1633:1746  AuctionEnded({... */\n      mload(0x40)\n      0xe536ac5400000000000000000000000000000000000000000000000000000000\n      dup2\n      mstore\n      0x04\n      add\n      tag_47\n      swap3\n      swap2\n      swap1\n      tag_48\n      jump\t// in\n    tag_47:\n      mload(0x40)\n      dup1\n      swap2\n      sub\n      swap1\n      revert\n        /* \"contracts/subasta.sol\":1579:1757  if (block.timestamp >= deadLine) {... */\n    tag_46:\n        /* \"contracts/subasta.sol\":1847:1852  owner */\n      0x00\n      0x00\n      swap1\n      sload\n      swap1\n      0x0100\n      exp\n      swap1\n      div\n      0xffffffffffffffffffffffffffffffffffffffff\n      and\n        /* \"contracts/subasta.sol\":1833:1852  msg.sender == owner */\n      0xffffffffffffffffffffffffffffffffffffffff\n      and\n        /* \"contracts/subasta.sol\":1833:1843  msg.sender */\n      caller\n        /* \"contracts/subasta.sol\":1833:1852  msg.sender == owner */\n      0xffffffffffffffffffffffffffffffffffffffff\n      and\n      sub\n        /* \"contracts/subasta.sol\":1829:1918  if (msg.sender == owner) {... */\n      tag_49\n      jumpi\n        /* \"contracts/subasta.sol\":1899:1904  owner */\n      0x00\n      0x00\n      swap1\n      sload\n      swap1\n      0x0100\n      exp\n      swap1\n      div\n      0xffffffffffffffffffffffffffffffffffffffff\n      and\n        /* \"contracts/subasta.sol\":1875:1907  OwnerCannotBid({ owner: owner }) */\n      mload(0x40)\n      0x196a9d9700000000000000000000000000000000000000000000000000000000\n      dup2\n      mstore\n      0x04\n      add\n      tag_50\n      swap2\n      swap1\n      tag_19\n      jump\t// in\n    tag_50:\n      mload(0x40)\n      dup1\n      swap2\n      sub\n      swap1\n      revert\n        /* \"contracts/subasta.sol\":1829:1918  if (msg.sender == owner) {... */\n    tag_49:\n        /* \"contracts/subasta.sol\":2004:2005  0 */\n      0x00\n        /* \"contracts/subasta.sol\":1984:1988  bids */\n      0x07\n        /* \"contracts/subasta.sol\":1984:2000  bids[msg.sender] */\n      0x00\n        /* \"contracts/subasta.sol\":1989:1999  msg.sender */\n      caller\n        /* \"contracts/subasta.sol\":1984:2000  bids[msg.sender] */\n      0xffffffffffffffffffffffffffffffffffffffff\n      and\n      0xffffffffffffffffffffffffffffffffffffffff\n      and\n      dup2\n      mstore\n      0x20\n      add\n      swap1\n      dup2\n      mstore\n      0x20\n      add\n      0x00\n      keccak256\n      sload\n        /* \"contracts/subasta.sol\":1984:2005  bids[msg.sender] != 0 */\n      eq\n        /* \"contracts/subasta.sol\":1980:2073  if (bids[msg.sender] != 0) {... */\n      tag_51\n      jumpi\n        /* \"contracts/subasta.sol\":2049:2059  msg.sender */\n      caller\n        /* \"contracts/subasta.sol\":2028:2062  AlreadyBid({ bidder: msg.sender }) */\n      mload(0x40)\n      0x18bdc38e00000000000000000000000000000000000000000000000000000000\n      dup2\n      mstore\n      0x04\n      add\n      tag_52\n      swap2\n      swap1\n      tag_19\n      jump\t// in\n    tag_52:\n      mload(0x40)\n      dup1\n      swap2\n      sub\n      swap1\n      revert\n        /* \"contracts/subasta.sol\":1980:2073  if (bids[msg.sender] != 0) {... */\n    tag_51:\n        /* \"contracts/subasta.sol\":2165:2171  minBid */\n      sload(0x02)\n        /* \"contracts/subasta.sol\":2153:2162  msg.value */\n      callvalue\n        /* \"contracts/subasta.sol\":2153:2171  msg.value < minBid */\n      lt\n        /* \"contracts/subasta.sol\":2149:2251  if (msg.value < minBid) {... */\n      iszero\n      tag_53\n      jumpi\n        /* \"contracts/subasta.sol\":2212:2221  msg.value */\n      callvalue\n        /* \"contracts/subasta.sol\":2231:2237  minBid */\n      sload(0x02)\n        /* \"contracts/subasta.sol\":2194:2240  BidTooLow({ sent: msg.value, minBid: minBid }) */\n      mload(0x40)\n      0xf0defc6100000000000000000000000000000000000000000000000000000000\n      dup2\n      mstore\n      0x04\n      add\n      tag_54\n      swap3\n      swap2\n      swap1\n      tag_48\n      jump\t// in\n    tag_54:\n      mload(0x40)\n      dup1\n      swap2\n      sub\n      swap1\n      revert\n        /* \"contracts/subasta.sol\":2149:2251  if (msg.value < minBid) {... */\n    tag_53:\n        /* \"contracts/subasta.sol\":2327:2336  msg.value */\n      callvalue\n        /* \"contracts/subasta.sol\":2317:2323  maxBid */\n      sload(0x03)\n        /* \"contracts/subasta.sol\":2317:2336  maxBid >= msg.value */\n      lt\n        /* \"contracts/subasta.sol\":2313:2424  if (maxBid >= msg.value) {... */\n      tag_55\n      jumpi\n        /* \"contracts/subasta.sol\":2381:2390  msg.value */\n      callvalue\n        /* \"contracts/subasta.sol\":2404:2410  maxBid */\n      sload(0x03)\n        /* \"contracts/subasta.sol\":2359:2413  NotHighestBid({ sent: msg.value, currentMax: maxBid }) */\n      mload(0x40)\n      0x4e8661ba00000000000000000000000000000000000000000000000000000000\n      dup2\n      mstore\n      0x04\n      add\n      tag_56\n      swap3\n      swap2\n      swap1\n      tag_48\n      jump\t// in\n    tag_56:\n      mload(0x40)\n      dup1\n      swap2\n      sub\n      swap1\n      revert\n        /* \"contracts/subasta.sol\":2313:2424  if (maxBid >= msg.value) {... */\n    tag_55:\n        /* \"contracts/subasta.sol\":2530:2546  uint256 required */\n      0x00\n        /* \"contracts/subasta.sol\":2562:2571  msg.value */\n      callvalue\n        /* \"contracts/subasta.sol\":2549:2559  0.01 ether */\n      0x2386f26fc10000\n        /* \"contracts/subasta.sol\":2549:2571  0.01 ether + msg.value */\n      tag_57\n      swap2\n      swap1\n      tag_58\n      jump\t// in\n    tag_57:\n        /* \"contracts/subasta.sol\":2530:2571  uint256 required = 0.01 ether + msg.value */\n      swap1\n      pop\n        /* \"contracts/subasta.sol\":2606:2614  required */\n      dup1\n        /* \"contracts/subasta.sol\":2585:2595  msg.sender */\n      caller\n        /* \"contracts/subasta.sol\":2585:2603  msg.sender.balance */\n      0xffffffffffffffffffffffffffffffffffffffff\n      and\n      balance\n        /* \"contracts/subasta.sol\":2585:2614  msg.sender.balance < required */\n      lt\n        /* \"contracts/subasta.sol\":2581:2775  if (msg.sender.balance < required) {... */\n      iszero\n      tag_59\n      jumpi\n        /* \"contracts/subasta.sol\":2690:2700  msg.sender */\n      caller\n        /* \"contracts/subasta.sol\":2690:2708  msg.sender.balance */\n      0xffffffffffffffffffffffffffffffffffffffff\n      and\n      balance\n        /* \"contracts/subasta.sol\":2741:2749  required */\n      dup2\n        /* \"contracts/subasta.sol\":2637:2764  InsufficientBalance({... */\n      mload(0x40)\n      0xcf47918100000000000000000000000000000000000000000000000000000000\n      dup2\n      mstore\n      0x04\n      add\n      tag_60\n      swap3\n      swap2\n      swap1\n      tag_48\n      jump\t// in\n    tag_60:\n      mload(0x40)\n      dup1\n      swap2\n      sub\n      swap1\n      revert\n        /* \"contracts/subasta.sol\":2581:2775  if (msg.sender.balance < required) {... */\n    tag_59:\n        /* \"contracts/subasta.sol\":2823:2832  msg.value */\n      callvalue\n        /* \"contracts/subasta.sol\":2804:2808  bids */\n      0x07\n        /* \"contracts/subasta.sol\":2804:2820  bids[msg.sender] */\n      0x00\n        /* \"contracts/subasta.sol\":2809:2819  msg.sender */\n      caller\n        /* \"contracts/subasta.sol\":2804:2820  bids[msg.sender] */\n      0xffffffffffffffffffffffffffffffffffffffff\n      and\n      0xffffffffffffffffffffffffffffffffffffffff\n      and\n      dup2\n      mstore\n      0x20\n      add\n      swap1\n      dup2\n      mstore\n      0x20\n      add\n      0x00\n      keccak256\n        /* \"contracts/subasta.sol\":2804:2832  bids[msg.sender] = msg.value */\n      dup2\n      swap1\n      sstore\n      pop\n        /* \"contracts/subasta.sol\":2851:2860  msg.value */\n      callvalue\n        /* \"contracts/subasta.sol\":2842:2848  maxBid */\n      0x03\n        /* \"contracts/subasta.sol\":2842:2860  maxBid = msg.value */\n      dup2\n      swap1\n      sstore\n      pop\n        /* \"contracts/subasta.sol\":2886:2896  msg.sender */\n      caller\n        /* \"contracts/subasta.sol\":2870:2883  addressMaxBid */\n      0x04\n      0x00\n        /* \"contracts/subasta.sol\":2870:2896  addressMaxBid = msg.sender */\n      0x0100\n      exp\n      dup2\n      sload\n      dup2\n      0xffffffffffffffffffffffffffffffffffffffff\n      mul\n      not\n      and\n      swap1\n      dup4\n      0xffffffffffffffffffffffffffffffffffffffff\n      and\n      mul\n      or\n      swap1\n      sstore\n      pop\n        /* \"contracts/subasta.sol\":1515:2903  {... */\n      pop\n        /* \"contracts/subasta.sol\":1478:2903  function makeBid () external payable {... */\n      jump\t// out\n        /* \"#utility.yul\":7:84   */\n    tag_61:\n        /* \"#utility.yul\":44:51   */\n      0x00\n        /* \"#utility.yul\":73:78   */\n      dup2\n        /* \"#utility.yul\":62:78   */\n      swap1\n      pop\n        /* \"#utility.yul\":7:84   */\n      swap2\n      swap1\n      pop\n      jump\t// out\n        /* \"#utility.yul\":90:208   */\n    tag_62:\n        /* \"#utility.yul\":177:201   */\n      tag_76\n        /* \"#utility.yul\":195:200   */\n      dup2\n        /* \"#utility.yul\":177:201   */\n      tag_61\n      jump\t// in\n    tag_76:\n        /* \"#utility.yul\":172:175   */\n      dup3\n        /* \"#utility.yul\":165:202   */\n      mstore\n        /* \"#utility.yul\":90:208   */\n      pop\n      pop\n      jump\t// out\n        /* \"#utility.yul\":214:436   */\n    tag_14:\n        /* \"#utility.yul\":307:311   */\n      0x00\n        /* \"#utility.yul\":345:347   */\n      0x20\n        /* \"#utility.yul\":334:343   */\n      dup3\n        /* \"#utility.yul\":330:348   */\n      add\n        /* \"#utility.yul\":322:348   */\n      swap1\n      pop\n        /* \"#utility.yul\":358:429   */\n      tag_78\n        /* \"#utility.yul\":426:427   */\n      0x00\n        /* \"#utility.yul\":415:424   */\n      dup4\n        /* \"#utility.yul\":411:428   */\n      add\n        /* \"#utility.yul\":402:408   */\n      dup5\n        /* \"#utility.yul\":358:429   */\n      tag_62\n      jump\t// in\n    tag_78:\n        /* \"#utility.yul\":214:436   */\n      swap3\n      swap2\n      pop\n      pop\n      jump\t// out\n        /* \"#utility.yul\":442:568   */\n    tag_63:\n        /* \"#utility.yul\":479:486   */\n      0x00\n        /* \"#utility.yul\":519:561   */\n      0xffffffffffffffffffffffffffffffffffffffff\n        /* \"#utility.yul\":512:517   */\n      dup3\n        /* \"#utility.yul\":508:562   */\n      and\n        /* \"#utility.yul\":497:562   */\n      swap1\n      pop\n        /* \"#utility.yul\":442:568   */\n      swap2\n      swap1\n      pop\n      jump\t// out\n        /* \"#utility.yul\":574:670   */\n    tag_64:\n        /* \"#utility.yul\":611:618   */\n      0x00\n        /* \"#utility.yul\":640:664   */\n      tag_81\n        /* \"#utility.yul\":658:663   */\n      dup3\n        /* \"#utility.yul\":640:664   */\n      tag_63\n      jump\t// in\n    tag_81:\n        /* \"#utility.yul\":629:664   */\n      swap1\n      pop\n        /* \"#utility.yul\":574:670   */\n      swap2\n      swap1\n      pop\n      jump\t// out\n        /* \"#utility.yul\":676:794   */\n    tag_65:\n        /* \"#utility.yul\":763:787   */\n      tag_83\n        /* \"#utility.yul\":781:786   */\n      dup2\n        /* \"#utility.yul\":763:787   */\n      tag_64\n      jump\t// in\n    tag_83:\n        /* \"#utility.yul\":758:761   */\n      dup3\n        /* \"#utility.yul\":751:788   */\n      mstore\n        /* \"#utility.yul\":676:794   */\n      pop\n      pop\n      jump\t// out\n        /* \"#utility.yul\":800:1022   */\n    tag_19:\n        /* \"#utility.yul\":893:897   */\n      0x00\n        /* \"#utility.yul\":931:933   */\n      0x20\n        /* \"#utility.yul\":920:929   */\n      dup3\n        /* \"#utility.yul\":916:934   */\n      add\n        /* \"#utility.yul\":908:934   */\n      swap1\n      pop\n        /* \"#utility.yul\":944:1015   */\n      tag_85\n        /* \"#utility.yul\":1012:1013   */\n      0x00\n        /* \"#utility.yul\":1001:1010   */\n      dup4\n        /* \"#utility.yul\":997:1014   */\n      add\n        /* \"#utility.yul\":988:994   */\n      dup5\n        /* \"#utility.yul\":944:1015   */\n      tag_65\n      jump\t// in\n    tag_85:\n        /* \"#utility.yul\":800:1022   */\n      swap3\n      swap2\n      pop\n      pop\n      jump\t// out\n        /* \"#utility.yul\":1028:1127   */\n    tag_66:\n        /* \"#utility.yul\":1080:1086   */\n      0x00\n        /* \"#utility.yul\":1114:1119   */\n      dup2\n        /* \"#utility.yul\":1108:1120   */\n      mload\n        /* \"#utility.yul\":1098:1120   */\n      swap1\n      pop\n        /* \"#utility.yul\":1028:1127   */\n      swap2\n      swap1\n      pop\n      jump\t// out\n        /* \"#utility.yul\":1133:1302   */\n    tag_67:\n        /* \"#utility.yul\":1217:1228   */\n      0x00\n        /* \"#utility.yul\":1251:1257   */\n      dup3\n        /* \"#utility.yul\":1246:1249   */\n      dup3\n        /* \"#utility.yul\":1239:1258   */\n      mstore\n        /* \"#utility.yul\":1291:1295   */\n      0x20\n        /* \"#utility.yul\":1286:1289   */\n      dup3\n        /* \"#utility.yul\":1282:1296   */\n      add\n        /* \"#utility.yul\":1267:1296   */\n      swap1\n      pop\n        /* \"#utility.yul\":1133:1302   */\n      swap3\n      swap2\n      pop\n      pop\n      jump\t// out\n        /* \"#utility.yul\":1308:1447   */\n    tag_68:\n        /* \"#utility.yul\":1397:1403   */\n      dup3\n        /* \"#utility.yul\":1392:1395   */\n      dup2\n        /* \"#utility.yul\":1387:1390   */\n      dup4\n        /* \"#utility.yul\":1381:1404   */\n      mcopy\n        /* \"#utility.yul\":1438:1439   */\n      0x00\n        /* \"#utility.yul\":1429:1435   */\n      dup4\n        /* \"#utility.yul\":1424:1427   */\n      dup4\n        /* \"#utility.yul\":1420:1436   */\n      add\n        /* \"#utility.yul\":1413:1440   */\n      mstore\n        /* \"#utility.yul\":1308:1447   */\n      pop\n      pop\n      pop\n      jump\t// out\n        /* \"#utility.yul\":1453:1555   */\n    tag_69:\n        /* \"#utility.yul\":1494:1500   */\n      0x00\n        /* \"#utility.yul\":1545:1547   */\n      0x1f\n        /* \"#utility.yul\":1541:1548   */\n      not\n        /* \"#utility.yul\":1536:1538   */\n      0x1f\n        /* \"#utility.yul\":1529:1534   */\n      dup4\n        /* \"#utility.yul\":1525:1539   */\n      add\n        /* \"#utility.yul\":1521:1549   */\n      and\n        /* \"#utility.yul\":1511:1549   */\n      swap1\n      pop\n        /* \"#utility.yul\":1453:1555   */\n      swap2\n      swap1\n      pop\n      jump\t// out\n        /* \"#utility.yul\":1561:1938   */\n    tag_70:\n        /* \"#utility.yul\":1649:1652   */\n      0x00\n        /* \"#utility.yul\":1677:1716   */\n      tag_91\n        /* \"#utility.yul\":1710:1715   */\n      dup3\n        /* \"#utility.yul\":1677:1716   */\n      tag_66\n      jump\t// in\n    tag_91:\n        /* \"#utility.yul\":1732:1803   */\n      tag_92\n        /* \"#utility.yul\":1796:1802   */\n      dup2\n        /* \"#utility.yul\":1791:1794   */\n      dup6\n        /* \"#utility.yul\":1732:1803   */\n      tag_67\n      jump\t// in\n    tag_92:\n        /* \"#utility.yul\":1725:1803   */\n      swap4\n      pop\n        /* \"#utility.yul\":1812:1877   */\n      tag_93\n        /* \"#utility.yul\":1870:1876   */\n      dup2\n        /* \"#utility.yul\":1865:1868   */\n      dup6\n        /* \"#utility.yul\":1858:1862   */\n      0x20\n        /* \"#utility.yul\":1851:1856   */\n      dup7\n        /* \"#utility.yul\":1847:1863   */\n      add\n        /* \"#utility.yul\":1812:1877   */\n      tag_68\n      jump\t// in\n    tag_93:\n        /* \"#utility.yul\":1902:1931   */\n      tag_94\n        /* \"#utility.yul\":1924:1930   */\n      dup2\n        /* \"#utility.yul\":1902:1931   */\n      tag_69\n      jump\t// in\n    tag_94:\n        /* \"#utility.yul\":1897:1900   */\n      dup5\n        /* \"#utility.yul\":1893:1932   */\n      add\n        /* \"#utility.yul\":1886:1932   */\n      swap2\n      pop\n        /* \"#utility.yul\":1653:1938   */\n      pop\n        /* \"#utility.yul\":1561:1938   */\n      swap3\n      swap2\n      pop\n      pop\n      jump\t// out\n        /* \"#utility.yul\":1944:2257   */\n    tag_24:\n        /* \"#utility.yul\":2057:2061   */\n      0x00\n        /* \"#utility.yul\":2095:2097   */\n      0x20\n        /* \"#utility.yul\":2084:2093   */\n      dup3\n        /* \"#utility.yul\":2080:2098   */\n      add\n        /* \"#utility.yul\":2072:2098   */\n      swap1\n      pop\n        /* \"#utility.yul\":2144:2153   */\n      dup2\n        /* \"#utility.yul\":2138:2142   */\n      dup2\n        /* \"#utility.yul\":2134:2154   */\n      sub\n        /* \"#utility.yul\":2130:2131   */\n      0x00\n        /* \"#utility.yul\":2119:2128   */\n      dup4\n        /* \"#utility.yul\":2115:2132   */\n      add\n        /* \"#utility.yul\":2108:2155   */\n      mstore\n        /* \"#utility.yul\":2172:2250   */\n      tag_96\n        /* \"#utility.yul\":2245:2249   */\n      dup2\n        /* \"#utility.yul\":2236:2242   */\n      dup5\n        /* \"#utility.yul\":2172:2250   */\n      tag_70\n      jump\t// in\n    tag_96:\n        /* \"#utility.yul\":2164:2250   */\n      swap1\n      pop\n        /* \"#utility.yul\":1944:2257   */\n      swap3\n      swap2\n      pop\n      pop\n      jump\t// out\n        /* \"#utility.yul\":2263:2443   */\n    tag_71:\n        /* \"#utility.yul\":2311:2388   */\n      0x4e487b7100000000000000000000000000000000000000000000000000000000\n        /* \"#utility.yul\":2308:2309   */\n      0x00\n        /* \"#utility.yul\":2301:2389   */\n      mstore\n        /* \"#utility.yul\":2408:2412   */\n      0x22\n        /* \"#utility.yul\":2405:2406   */\n      0x04\n        /* \"#utility.yul\":2398:2413   */\n      mstore\n        /* \"#utility.yul\":2432:2436   */\n      0x24\n        /* \"#utility.yul\":2429:2430   */\n      0x00\n        /* \"#utility.yul\":2422:2437   */\n      revert\n        /* \"#utility.yul\":2449:2769   */\n    tag_40:\n        /* \"#utility.yul\":2493:2499   */\n      0x00\n        /* \"#utility.yul\":2530:2531   */\n      0x02\n        /* \"#utility.yul\":2524:2528   */\n      dup3\n        /* \"#utility.yul\":2520:2532   */\n      div\n        /* \"#utility.yul\":2510:2532   */\n      swap1\n      pop\n        /* \"#utility.yul\":2577:2578   */\n      0x01\n        /* \"#utility.yul\":2571:2575   */\n      dup3\n        /* \"#utility.yul\":2567:2579   */\n      and\n        /* \"#utility.yul\":2598:2616   */\n      dup1\n        /* \"#utility.yul\":2588:2669   */\n      tag_99\n      jumpi\n        /* \"#utility.yul\":2654:2658   */\n      0x7f\n        /* \"#utility.yul\":2646:2652   */\n      dup3\n        /* \"#utility.yul\":2642:2659   */\n      and\n        /* \"#utility.yul\":2632:2659   */\n      swap2\n      pop\n        /* \"#utility.yul\":2588:2669   */\n    tag_99:\n        /* \"#utility.yul\":2716:2718   */\n      0x20\n        /* \"#utility.yul\":2708:2714   */\n      dup3\n        /* \"#utility.yul\":2705:2719   */\n      lt\n        /* \"#utility.yul\":2685:2703   */\n      dup2\n        /* \"#utility.yul\":2682:2720   */\n      sub\n        /* \"#utility.yul\":2679:2763   */\n      tag_100\n      jumpi\n        /* \"#utility.yul\":2735:2753   */\n      tag_101\n      tag_71\n      jump\t// in\n    tag_101:\n        /* \"#utility.yul\":2679:2763   */\n    tag_100:\n        /* \"#utility.yul\":2500:2769   */\n      pop\n        /* \"#utility.yul\":2449:2769   */\n      swap2\n      swap1\n      pop\n      jump\t// out\n        /* \"#utility.yul\":2775:3107   */\n    tag_48:\n        /* \"#utility.yul\":2896:2900   */\n      0x00\n        /* \"#utility.yul\":2934:2936   */\n      0x40\n        /* \"#utility.yul\":2923:2932   */\n      dup3\n        /* \"#utility.yul\":2919:2937   */\n      add\n        /* \"#utility.yul\":2911:2937   */\n      swap1\n      pop\n        /* \"#utility.yul\":2947:3018   */\n      tag_103\n        /* \"#utility.yul\":3015:3016   */\n      0x00\n        /* \"#utility.yul\":3004:3013   */\n      dup4\n        /* \"#utility.yul\":3000:3017   */\n      add\n        /* \"#utility.yul\":2991:2997   */\n      dup6\n        /* \"#utility.yul\":2947:3018   */\n      tag_62\n      jump\t// in\n    tag_103:\n        /* \"#utility.yul\":3028:3100   */\n      tag_104\n        /* \"#utility.yul\":3096:3098   */\n      0x20\n        /* \"#utility.yul\":3085:3094   */\n      dup4\n        /* \"#utility.yul\":3081:3099   */\n      add\n        /* \"#utility.yul\":3072:3078   */\n      dup5\n        /* \"#utility.yul\":3028:3100   */\n      tag_62\n      jump\t// in\n    tag_104:\n        /* \"#utility.yul\":2775:3107   */\n      swap4\n      swap3\n      pop\n      pop\n      pop\n      jump\t// out\n        /* \"#utility.yul\":3113:3293   */\n    tag_72:\n        /* \"#utility.yul\":3161:3238   */\n      0x4e487b7100000000000000000000000000000000000000000000000000000000\n        /* \"#utility.yul\":3158:3159   */\n      0x00\n        /* \"#utility.yul\":3151:3239   */\n      mstore\n        /* \"#utility.yul\":3258:3262   */\n      0x11\n        /* \"#utility.yul\":3255:3256   */\n      0x04\n        /* \"#utility.yul\":3248:3263   */\n      mstore\n        /* \"#utility.yul\":3282:3286   */\n      0x24\n        /* \"#utility.yul\":3279:3280   */\n      0x00\n        /* \"#utility.yul\":3272:3287   */\n      revert\n        /* \"#utility.yul\":3299:3490   */\n    tag_58:\n        /* \"#utility.yul\":3339:3342   */\n      0x00\n        /* \"#utility.yul\":3358:3378   */\n      tag_107\n        /* \"#utility.yul\":3376:3377   */\n      dup3\n        /* \"#utility.yul\":3358:3378   */\n      tag_61\n      jump\t// in\n    tag_107:\n        /* \"#utility.yul\":3353:3378   */\n      swap2\n      pop\n        /* \"#utility.yul\":3392:3412   */\n      tag_108\n        /* \"#utility.yul\":3410:3411   */\n      dup4\n        /* \"#utility.yul\":3392:3412   */\n      tag_61\n      jump\t// in\n    tag_108:\n        /* \"#utility.yul\":3387:3412   */\n      swap3\n      pop\n        /* \"#utility.yul\":3435:3436   */\n      dup3\n        /* \"#utility.yul\":3432:3433   */\n      dup3\n        /* \"#utility.yul\":3428:3437   */\n      add\n        /* \"#utility.yul\":3421:3437   */\n      swap1\n      pop\n        /* \"#utility.yul\":3456:3459   */\n      dup1\n        /* \"#utility.yul\":3453:3454   */\n      dup3\n        /* \"#utility.yul\":3450:3460   */\n      gt\n        /* \"#utility.yul\":3447:3483   */\n      iszero\n      tag_109\n      jumpi\n        /* \"#utility.yul\":3463:3481   */\n      tag_110\n      tag_72\n      jump\t// in\n    tag_110:\n        /* \"#utility.yul\":3447:3483   */\n    tag_109:\n        /* \"#utility.yul\":3299:3490   */\n      swap3\n      swap2\n      pop\n      pop\n      jump\t// out\n\n    auxdata: 0xa264697066735822122081a47beb04b795834c099453c09c0e02c11403510870de181ab650efe54018df64736f6c634300081e0033\n}\n",
				"bytecode": {
					"linkReferences": {},
					"object": "608060405273f55301514c27489fde7c9cd9a3ea8044e7e045795f5f6101000a81548173ffffffffffffffffffffffffffffffffffffffff021916908373ffffffffffffffffffffffffffffffffffffffff160217905550348015610062575f5ffd5b50604051610df2380380610df283398181016040528101906100849190610248565b826001908161009391906104bb565b508160028190555081600381905550603c816100af91906105b7565b426100ba91906105f8565b60058190555050505061062b565b5f604051905090565b5f5ffd5b5f5ffd5b5f5ffd5b5f5ffd5b5f601f19601f8301169050919050565b7f4e487b71000000000000000000000000000000000000000000000000000000005f52604160045260245ffd5b610127826100e1565b810181811067ffffffffffffffff82111715610146576101456100f1565b5b80604052505050565b5f6101586100c8565b9050610164828261011e565b919050565b5f67ffffffffffffffff821115610183576101826100f1565b5b61018c826100e1565b9050602081019050919050565b8281835e5f83830152505050565b5f6101b96101b484610169565b61014f565b9050828152602081018484840111156101d5576101d46100dd565b5b6101e0848285610199565b509392505050565b5f82601f8301126101fc576101fb6100d9565b5b815161020c8482602086016101a7565b91505092915050565b5f819050919050565b61022781610215565b8114610231575f5ffd5b50565b5f815190506102428161021e565b92915050565b5f5f5f6060848603121561025f5761025e6100d1565b5b5f84015167ffffffffffffffff81111561027c5761027b6100d5565b5b610288868287016101e8565b935050602061029986828701610234565b92505060406102aa86828701610234565b9150509250925092565b5f81519050919050565b7f4e487b71000000000000000000000000000000000000000000000000000000005f52602260045260245ffd5b5f600282049050600182168061030257607f821691505b602082108103610315576103146102be565b5b50919050565b5f819050815f5260205f209050919050565b5f6020601f8301049050919050565b5f82821b905092915050565b5f600883026103777fffffffffffffffffffffffffffffffffffffffffffffffffffffffffffffffff8261033c565b610381868361033c565b95508019841693508086168417925050509392505050565b5f819050919050565b5f6103bc6103b76103b284610215565b610399565b610215565b9050919050565b5f819050919050565b6103d5836103a2565b6103e96103e1826103c3565b848454610348565b825550505050565b5f5f905090565b6104006103f1565b61040b8184846103cc565b505050565b5b8181101561042e576104235f826103f8565b600181019050610411565b5050565b601f821115610473576104448161031b565b61044d8461032d565b8101602085101561045c578190505b6104706104688561032d565b830182610410565b50505b505050565b5f82821c905092915050565b5f6104935f1984600802610478565b1980831691505092915050565b5f6104ab8383610484565b9150826002028217905092915050565b6104c4826102b4565b67ffffffffffffffff8111156104dd576104dc6100f1565b5b6104e782546102eb565b6104f2828285610432565b5f60209050601f831160018114610523575f8415610511578287015190505b61051b85826104a0565b865550610582565b601f1984166105318661031b565b5f5b8281101561055857848901518255600182019150602085019450602081019050610533565b868310156105755784890151610571601f891682610484565b8355505b6001600288020188555050505b505050505050565b7f4e487b71000000000000000000000000000000000000000000000000000000005f52601160045260245ffd5b5f6105c182610215565b91506105cc83610215565b92508282026105da81610215565b915082820484148315176105f1576105f061058a565b5b5092915050565b5f61060282610215565b915061060d83610215565b92508282019050808211156106255761062461058a565b5b92915050565b6107ba806106385f395ff3fe60806040526004361061006f575f3560e01c806374b11d8a1161004d57806374b11d8a146100f15780638da5cb5b1461011b578063bef3a08314610145578063f30e36581461016f5761006f565b80633e109a19146100735780636569ddf51461009d5780637284e416146100c7575b5f5ffd5b34801561007e575f5ffd5b50610087610179565b604051610094919061059f565b60405180910390f35b3480156100a8575f5ffd5b506100b161017f565b6040516100be91906105f7565b60405180910390f35b3480156100d2575f5ffd5b506100db6101a4565b6040516100e89190610680565b60405180910390f35b3480156100fc575f5ffd5b50610105610230565b604051610112919061059f565b60405180910390f35b348015610126575f5ffd5b5061012f610236565b60405161013c91906105f7565b60405180910390f35b348015610150575f5ffd5b5061015961025a565b604051610166919061059f565b60405180910390f35b610177610260565b005b60025481565b60045f9054906101000a900473ffffffffffffffffffffffffffffffffffffffff1681565b600180546101b1906106cd565b80601f01602080910402602001604051908101604052809291908181526020018280546101dd906106cd565b80156102285780601f106101ff57610100808354040283529160200191610228565b820191905f5260205f20905b81548152906001019060200180831161020b57829003601f168201915b505050505081565b60035481565b5f5f9054906101000a900473ffffffffffffffffffffffffffffffffffffffff1681565b60055481565b60055442106102aa57426005546040517fe536ac540000000000000000000000000000000000000000000000000000000081526004016102a19291906106fd565b60405180910390fd5b5f5f9054906101000a900473ffffffffffffffffffffffffffffffffffffffff1673ffffffffffffffffffffffffffffffffffffffff163373ffffffffffffffffffffffffffffffffffffffff160361035a575f5f9054906101000a900473ffffffffffffffffffffffffffffffffffffffff166040517f196a9d9700000000000000000000000000000000000000000000000000000000815260040161035191906105f7565b60405180910390fd5b5f60075f3373ffffffffffffffffffffffffffffffffffffffff1673ffffffffffffffffffffffffffffffffffffffff1681526020019081526020015f2054146103db57336040517f18bdc38e0000000000000000000000000000000000000000000000000000000081526004016103d291906105f7565b60405180910390fd5b60025434101561042657346002546040517ff0defc6100000000000000000000000000000000000000000000000000000000815260040161041d9291906106fd565b60405180910390fd5b346003541061047057346003546040517f4e8661ba0000000000000000000000000000000000000000000000000000000081526004016104679291906106fd565b60405180910390fd5b5f34662386f26fc100006104849190610751565b9050803373ffffffffffffffffffffffffffffffffffffffff163110156104fb573373ffffffffffffffffffffffffffffffffffffffff1631816040517fcf4791810000000000000000000000000000000000000000000000000000000081526004016104f29291906106fd565b60405180910390fd5b3460075f3373ffffffffffffffffffffffffffffffffffffffff1673ffffffffffffffffffffffffffffffffffffffff1681526020019081526020015f2081905550346003819055503360045f6101000a81548173ffffffffffffffffffffffffffffffffffffffff021916908373ffffffffffffffffffffffffffffffffffffffff16021790555050565b5f819050919050565b61059981610587565b82525050565b5f6020820190506105b25f830184610590565b92915050565b5f73ffffffffffffffffffffffffffffffffffffffff82169050919050565b5f6105e1826105b8565b9050919050565b6105f1816105d7565b82525050565b5f60208201905061060a5f8301846105e8565b92915050565b5f81519050919050565b5f82825260208201905092915050565b8281835e5f83830152505050565b5f601f19601f8301169050919050565b5f61065282610610565b61065c818561061a565b935061066c81856020860161062a565b61067581610638565b840191505092915050565b5f6020820190508181035f8301526106988184610648565b905092915050565b7f4e487b71000000000000000000000000000000000000000000000000000000005f52602260045260245ffd5b5f60028204905060018216806106e457607f821691505b6020821081036106f7576106f66106a0565b5b50919050565b5f6040820190506107105f830185610590565b61071d6020830184610590565b9392505050565b7f4e487b71000000000000000000000000000000000000000000000000000000005f52601160045260245ffd5b5f61075b82610587565b915061076683610587565b925082820190508082111561077e5761077d610724565b5b9291505056fea264697066735822122081a47beb04b795834c099453c09c0e02c11403510870de181ab650efe54018df64736f6c634300081e0033",
					"opcodes": "PUSH1 0x80 PUSH1 0x40 MSTORE PUSH20 0xF55301514C27489FDE7C9CD9A3EA8044E7E04579 PUSH0 PUSH0 PUSH2 0x100 EXP DUP2 SLOAD DUP2 PUSH20 0xFFFFFFFFFFFFFFFFFFFFFFFFFFFFFFFFFFFFFFFF MUL NOT AND SWAP1 DUP4 PUSH20 0xFFFFFFFFFFFFFFFFFFFFFFFFFFFFFFFFFFFFFFFF AND MUL OR SWAP1 SSTORE POP CALLVALUE DUP1 ISZERO PUSH2 0x62 JUMPI PUSH0 PUSH0 REVERT JUMPDEST POP PUSH1 0x40 MLOAD PUSH2 0xDF2 CODESIZE SUB DUP1 PUSH2 0xDF2 DUP4 CODECOPY DUP2 DUP2 ADD PUSH1 0x40 MSTORE DUP2 ADD SWAP1 PUSH2 0x84 SWAP2 SWAP1 PUSH2 0x248 JUMP JUMPDEST DUP3 PUSH1 0x1 SWAP1 DUP2 PUSH2 0x93 SWAP2 SWAP1 PUSH2 0x4BB JUMP JUMPDEST POP DUP2 PUSH1 0x2 DUP2 SWAP1 SSTORE POP DUP2 PUSH1 0x3 DUP2 SWAP1 SSTORE POP PUSH1 0x3C DUP2 PUSH2 0xAF SWAP2 SWAP1 PUSH2 0x5B7 JUMP JUMPDEST TIMESTAMP PUSH2 0xBA SWAP2 SWAP1 PUSH2 0x5F8 JUMP JUMPDEST PUSH1 0x5 DUP2 SWAP1 SSTORE POP POP POP POP PUSH2 0x62B JUMP JUMPDEST PUSH0 PUSH1 0x40 MLOAD SWAP1 POP SWAP1 JUMP JUMPDEST PUSH0 PUSH0 REVERT JUMPDEST PUSH0 PUSH0 REVERT JUMPDEST PUSH0 PUSH0 REVERT JUMPDEST PUSH0 PUSH0 REVERT JUMPDEST PUSH0 PUSH1 0x1F NOT PUSH1 0x1F DUP4 ADD AND SWAP1 POP SWAP2 SWAP1 POP JUMP JUMPDEST PUSH32 0x4E487B7100000000000000000000000000000000000000000000000000000000 PUSH0 MSTORE PUSH1 0x41 PUSH1 0x4 MSTORE PUSH1 0x24 PUSH0 REVERT JUMPDEST PUSH2 0x127 DUP3 PUSH2 0xE1 JUMP JUMPDEST DUP2 ADD DUP2 DUP2 LT PUSH8 0xFFFFFFFFFFFFFFFF DUP3 GT OR ISZERO PUSH2 0x146 JUMPI PUSH2 0x145 PUSH2 0xF1 JUMP JUMPDEST JUMPDEST DUP1 PUSH1 0x40 MSTORE POP POP POP JUMP JUMPDEST PUSH0 PUSH2 0x158 PUSH2 0xC8 JUMP JUMPDEST SWAP1 POP PUSH2 0x164 DUP3 DUP3 PUSH2 0x11E JUMP JUMPDEST SWAP2 SWAP1 POP JUMP JUMPDEST PUSH0 PUSH8 0xFFFFFFFFFFFFFFFF DUP3 GT ISZERO PUSH2 0x183 JUMPI PUSH2 0x182 PUSH2 0xF1 JUMP JUMPDEST JUMPDEST PUSH2 0x18C DUP3 PUSH2 0xE1 JUMP JUMPDEST SWAP1 POP PUSH1 0x20 DUP2 ADD SWAP1 POP SWAP2 SWAP1 POP JUMP JUMPDEST DUP3 DUP2 DUP4 MCOPY PUSH0 DUP4 DUP4 ADD MSTORE POP POP POP JUMP JUMPDEST PUSH0 PUSH2 0x1B9 PUSH2 0x1B4 DUP5 PUSH2 0x169 JUMP JUMPDEST PUSH2 0x14F JUMP JUMPDEST SWAP1 POP DUP3 DUP2 MSTORE PUSH1 0x20 DUP2 ADD DUP5 DUP5 DUP5 ADD GT ISZERO PUSH2 0x1D5 JUMPI PUSH2 0x1D4 PUSH2 0xDD JUMP JUMPDEST JUMPDEST PUSH2 0x1E0 DUP5 DUP3 DUP6 PUSH2 0x199 JUMP JUMPDEST POP SWAP4 SWAP3 POP POP POP JUMP JUMPDEST PUSH0 DUP3 PUSH1 0x1F DUP4 ADD SLT PUSH2 0x1FC JUMPI PUSH2 0x1FB PUSH2 0xD9 JUMP JUMPDEST JUMPDEST DUP2 MLOAD PUSH2 0x20C DUP5 DUP3 PUSH1 0x20 DUP7 ADD PUSH2 0x1A7 JUMP JUMPDEST SWAP2 POP POP SWAP3 SWAP2 POP POP JUMP JUMPDEST PUSH0 DUP2 SWAP1 POP SWAP2 SWAP1 POP JUMP JUMPDEST PUSH2 0x227 DUP2 PUSH2 0x215 JUMP JUMPDEST DUP2 EQ PUSH2 0x231 JUMPI PUSH0 PUSH0 REVERT JUMPDEST POP JUMP JUMPDEST PUSH0 DUP2 MLOAD SWAP1 POP PUSH2 0x242 DUP2 PUSH2 0x21E JUMP JUMPDEST SWAP3 SWAP2 POP POP JUMP JUMPDEST PUSH0 PUSH0 PUSH0 PUSH1 0x60 DUP5 DUP7 SUB SLT ISZERO PUSH2 0x25F JUMPI PUSH2 0x25E PUSH2 0xD1 JUMP JUMPDEST JUMPDEST PUSH0 DUP5 ADD MLOAD PUSH8 0xFFFFFFFFFFFFFFFF DUP2 GT ISZERO PUSH2 0x27C JUMPI PUSH2 0x27B PUSH2 0xD5 JUMP JUMPDEST JUMPDEST PUSH2 0x288 DUP7 DUP3 DUP8 ADD PUSH2 0x1E8 JUMP JUMPDEST SWAP4 POP POP PUSH1 0x20 PUSH2 0x299 DUP7 DUP3 DUP8 ADD PUSH2 0x234 JUMP JUMPDEST SWAP3 POP POP PUSH1 0x40 PUSH2 0x2AA DUP7 DUP3 DUP8 ADD PUSH2 0x234 JUMP JUMPDEST SWAP2 POP POP SWAP3 POP SWAP3 POP SWAP3 JUMP JUMPDEST PUSH0 DUP2 MLOAD SWAP1 POP SWAP2 SWAP1 POP JUMP JUMPDEST PUSH32 0x4E487B7100000000000000000000000000000000000000000000000000000000 PUSH0 MSTORE PUSH1 0x22 PUSH1 0x4 MSTORE PUSH1 0x24 PUSH0 REVERT JUMPDEST PUSH0 PUSH1 0x2 DUP3 DIV SWAP1 POP PUSH1 0x1 DUP3 AND DUP1 PUSH2 0x302 JUMPI PUSH1 0x7F DUP3 AND SWAP2 POP JUMPDEST PUSH1 0x20 DUP3 LT DUP2 SUB PUSH2 0x315 JUMPI PUSH2 0x314 PUSH2 0x2BE JUMP JUMPDEST JUMPDEST POP SWAP2 SWAP1 POP JUMP JUMPDEST PUSH0 DUP2 SWAP1 POP DUP2 PUSH0 MSTORE PUSH1 0x20 PUSH0 KECCAK256 SWAP1 POP SWAP2 SWAP1 POP JUMP JUMPDEST PUSH0 PUSH1 0x20 PUSH1 0x1F DUP4 ADD DIV SWAP1 POP SWAP2 SWAP1 POP JUMP JUMPDEST PUSH0 DUP3 DUP3 SHL SWAP1 POP SWAP3 SWAP2 POP POP JUMP JUMPDEST PUSH0 PUSH1 0x8 DUP4 MUL PUSH2 0x377 PUSH32 0xFFFFFFFFFFFFFFFFFFFFFFFFFFFFFFFFFFFFFFFFFFFFFFFFFFFFFFFFFFFFFFFF DUP3 PUSH2 0x33C JUMP JUMPDEST PUSH2 0x381 DUP7 DUP4 PUSH2 0x33C JUMP JUMPDEST SWAP6 POP DUP1 NOT DUP5 AND SWAP4 POP DUP1 DUP7 AND DUP5 OR SWAP3 POP POP POP SWAP4 SWAP3 POP POP POP JUMP JUMPDEST PUSH0 DUP2 SWAP1 POP SWAP2 SWAP1 POP JUMP JUMPDEST PUSH0 PUSH2 0x3BC PUSH2 0x3B7 PUSH2 0x3B2 DUP5 PUSH2 0x215 JUMP JUMPDEST PUSH2 0x399 JUMP JUMPDEST PUSH2 0x215 JUMP JUMPDEST SWAP1 POP SWAP2 SWAP1 POP JUMP JUMPDEST PUSH0 DUP2 SWAP1 POP SWAP2 SWAP1 POP JUMP JUMPDEST PUSH2 0x3D5 DUP4 PUSH2 0x3A2 JUMP JUMPDEST PUSH2 0x3E9 PUSH2 0x3E1 DUP3 PUSH2 0x3C3 JUMP JUMPDEST DUP5 DUP5 SLOAD PUSH2 0x348 JUMP JUMPDEST DUP3 SSTORE POP POP POP POP JUMP JUMPDEST PUSH0 PUSH0 SWAP1 POP SWAP1 JUMP JUMPDEST PUSH2 0x400 PUSH2 0x3F1 JUMP JUMPDEST PUSH2 0x40B DUP2 DUP5 DUP5 PUSH2 0x3CC JUMP JUMPDEST POP POP POP JUMP JUMPDEST JUMPDEST DUP2 DUP2 LT ISZERO PUSH2 0x42E JUMPI PUSH2 0x423 PUSH0 DUP3 PUSH2 0x3F8 JUMP JUMPDEST PUSH1 0x1 DUP2 ADD SWAP1 POP PUSH2 0x411 JUMP JUMPDEST POP POP JUMP JUMPDEST PUSH1 0x1F DUP3 GT ISZERO PUSH2 0x473 JUMPI PUSH2 0x444 DUP2 PUSH2 0x31B JUMP JUMPDEST PUSH2 0x44D DUP5 PUSH2 0x32D JUMP JUMPDEST DUP2 ADD PUSH1 0x20 DUP6 LT ISZERO PUSH2 0x45C JUMPI DUP2 SWAP1 POP JUMPDEST PUSH2 0x470 PUSH2 0x468 DUP6 PUSH2 0x32D JUMP JUMPDEST DUP4 ADD DUP3 PUSH2 0x410 JUMP JUMPDEST POP POP JUMPDEST POP POP POP JUMP JUMPDEST PUSH0 DUP3 DUP3 SHR SWAP1 POP SWAP3 SWAP2 POP POP JUMP JUMPDEST PUSH0 PUSH2 0x493 PUSH0 NOT DUP5 PUSH1 0x8 MUL PUSH2 0x478 JUMP JUMPDEST NOT DUP1 DUP4 AND SWAP2 POP POP SWAP3 SWAP2 POP POP JUMP JUMPDEST PUSH0 PUSH2 0x4AB DUP4 DUP4 PUSH2 0x484 JUMP JUMPDEST SWAP2 POP DUP3 PUSH1 0x2 MUL DUP3 OR SWAP1 POP SWAP3 SWAP2 POP POP JUMP JUMPDEST PUSH2 0x4C4 DUP3 PUSH2 0x2B4 JUMP JUMPDEST PUSH8 0xFFFFFFFFFFFFFFFF DUP2 GT ISZERO PUSH2 0x4DD JUMPI PUSH2 0x4DC PUSH2 0xF1 JUMP JUMPDEST JUMPDEST PUSH2 0x4E7 DUP3 SLOAD PUSH2 0x2EB JUMP JUMPDEST PUSH2 0x4F2 DUP3 DUP3 DUP6 PUSH2 0x432 JUMP JUMPDEST PUSH0 PUSH1 0x20 SWAP1 POP PUSH1 0x1F DUP4 GT PUSH1 0x1 DUP2 EQ PUSH2 0x523 JUMPI PUSH0 DUP5 ISZERO PUSH2 0x511 JUMPI DUP3 DUP8 ADD MLOAD SWAP1 POP JUMPDEST PUSH2 0x51B DUP6 DUP3 PUSH2 0x4A0 JUMP JUMPDEST DUP7 SSTORE POP PUSH2 0x582 JUMP JUMPDEST PUSH1 0x1F NOT DUP5 AND PUSH2 0x531 DUP7 PUSH2 0x31B JUMP JUMPDEST PUSH0 JUMPDEST DUP3 DUP2 LT ISZERO PUSH2 0x558 JUMPI DUP5 DUP10 ADD MLOAD DUP3 SSTORE PUSH1 0x1 DUP3 ADD SWAP2 POP PUSH1 0x20 DUP6 ADD SWAP5 POP PUSH1 0x20 DUP2 ADD SWAP1 POP PUSH2 0x533 JUMP JUMPDEST DUP7 DUP4 LT ISZERO PUSH2 0x575 JUMPI DUP5 DUP10 ADD MLOAD PUSH2 0x571 PUSH1 0x1F DUP10 AND DUP3 PUSH2 0x484 JUMP JUMPDEST DUP4 SSTORE POP JUMPDEST PUSH1 0x1 PUSH1 0x2 DUP9 MUL ADD DUP9 SSTORE POP POP POP JUMPDEST POP POP POP POP POP POP JUMP JUMPDEST PUSH32 0x4E487B7100000000000000000000000000000000000000000000000000000000 PUSH0 MSTORE PUSH1 0x11 PUSH1 0x4 MSTORE PUSH1 0x24 PUSH0 REVERT JUMPDEST PUSH0 PUSH2 0x5C1 DUP3 PUSH2 0x215 JUMP JUMPDEST SWAP2 POP PUSH2 0x5CC DUP4 PUSH2 0x215 JUMP JUMPDEST SWAP3 POP DUP3 DUP3 MUL PUSH2 0x5DA DUP2 PUSH2 0x215 JUMP JUMPDEST SWAP2 POP DUP3 DUP3 DIV DUP5 EQ DUP4 ISZERO OR PUSH2 0x5F1 JUMPI PUSH2 0x5F0 PUSH2 0x58A JUMP JUMPDEST JUMPDEST POP SWAP3 SWAP2 POP POP JUMP JUMPDEST PUSH0 PUSH2 0x602 DUP3 PUSH2 0x215 JUMP JUMPDEST SWAP2 POP PUSH2 0x60D DUP4 PUSH2 0x215 JUMP JUMPDEST SWAP3 POP DUP3 DUP3 ADD SWAP1 POP DUP1 DUP3 GT ISZERO PUSH2 0x625 JUMPI PUSH2 0x624 PUSH2 0x58A JUMP JUMPDEST JUMPDEST SWAP3 SWAP2 POP POP JUMP JUMPDEST PUSH2 0x7BA DUP1 PUSH2 0x638 PUSH0 CODECOPY PUSH0 RETURN INVALID PUSH1 0x80 PUSH1 0x40 MSTORE PUSH1 0x4 CALLDATASIZE LT PUSH2 0x6F JUMPI PUSH0 CALLDATALOAD PUSH1 0xE0 SHR DUP1 PUSH4 0x74B11D8A GT PUSH2 0x4D JUMPI DUP1 PUSH4 0x74B11D8A EQ PUSH2 0xF1 JUMPI DUP1 PUSH4 0x8DA5CB5B EQ PUSH2 0x11B JUMPI DUP1 PUSH4 0xBEF3A083 EQ PUSH2 0x145 JUMPI DUP1 PUSH4 0xF30E3658 EQ PUSH2 0x16F JUMPI PUSH2 0x6F JUMP JUMPDEST DUP1 PUSH4 0x3E109A19 EQ PUSH2 0x73 JUMPI DUP1 PUSH4 0x6569DDF5 EQ PUSH2 0x9D JUMPI DUP1 PUSH4 0x7284E416 EQ PUSH2 0xC7 JUMPI JUMPDEST PUSH0 PUSH0 REVERT JUMPDEST CALLVALUE DUP1 ISZERO PUSH2 0x7E JUMPI PUSH0 PUSH0 REVERT JUMPDEST POP PUSH2 0x87 PUSH2 0x179 JUMP JUMPDEST PUSH1 0x40 MLOAD PUSH2 0x94 SWAP2 SWAP1 PUSH2 0x59F JUMP JUMPDEST PUSH1 0x40 MLOAD DUP1 SWAP2 SUB SWAP1 RETURN JUMPDEST CALLVALUE DUP1 ISZERO PUSH2 0xA8 JUMPI PUSH0 PUSH0 REVERT JUMPDEST POP PUSH2 0xB1 PUSH2 0x17F JUMP JUMPDEST PUSH1 0x40 MLOAD PUSH2 0xBE SWAP2 SWAP1 PUSH2 0x5F7 JUMP JUMPDEST PUSH1 0x40 MLOAD DUP1 SWAP2 SUB SWAP1 RETURN JUMPDEST CALLVALUE DUP1 ISZERO PUSH2 0xD2 JUMPI PUSH0 PUSH0 REVERT JUMPDEST POP PUSH2 0xDB PUSH2 0x1A4 JUMP JUMPDEST PUSH1 0x40 MLOAD PUSH2 0xE8 SWAP2 SWAP1 PUSH2 0x680 JUMP JUMPDEST PUSH1 0x40 MLOAD DUP1 SWAP2 SUB SWAP1 RETURN JUMPDEST CALLVALUE DUP1 ISZERO PUSH2 0xFC JUMPI PUSH0 PUSH0 REVERT JUMPDEST POP PUSH2 0x105 PUSH2 0x230 JUMP JUMPDEST PUSH1 0x40 MLOAD PUSH2 0x112 SWAP2 SWAP1 PUSH2 0x59F JUMP JUMPDEST PUSH1 0x40 MLOAD DUP1 SWAP2 SUB SWAP1 RETURN JUMPDEST CALLVALUE DUP1 ISZERO PUSH2 0x126 JUMPI PUSH0 PUSH0 REVERT JUMPDEST POP PUSH2 0x12F PUSH2 0x236 JUMP JUMPDEST PUSH1 0x40 MLOAD PUSH2 0x13C SWAP2 SWAP1 PUSH2 0x5F7 JUMP JUMPDEST PUSH1 0x40 MLOAD DUP1 SWAP2 SUB SWAP1 RETURN JUMPDEST CALLVALUE DUP1 ISZERO PUSH2 0x150 JUMPI PUSH0 PUSH0 REVERT JUMPDEST POP PUSH2 0x159 PUSH2 0x25A JUMP JUMPDEST PUSH1 0x40 MLOAD PUSH2 0x166 SWAP2 SWAP1 PUSH2 0x59F JUMP JUMPDEST PUSH1 0x40 MLOAD DUP1 SWAP2 SUB SWAP1 RETURN JUMPDEST PUSH2 0x177 PUSH2 0x260 JUMP JUMPDEST STOP JUMPDEST PUSH1 0x2 SLOAD DUP2 JUMP JUMPDEST PUSH1 0x4 PUSH0 SWAP1 SLOAD SWAP1 PUSH2 0x100 EXP SWAP1 DIV PUSH20 0xFFFFFFFFFFFFFFFFFFFFFFFFFFFFFFFFFFFFFFFF AND DUP2 JUMP JUMPDEST PUSH1 0x1 DUP1 SLOAD PUSH2 0x1B1 SWAP1 PUSH2 0x6CD JUMP JUMPDEST DUP1 PUSH1 0x1F ADD PUSH1 0x20 DUP1 SWAP2 DIV MUL PUSH1 0x20 ADD PUSH1 0x40 MLOAD SWAP1 DUP2 ADD PUSH1 0x40 MSTORE DUP1 SWAP3 SWAP2 SWAP1 DUP2 DUP2 MSTORE PUSH1 0x20 ADD DUP3 DUP1 SLOAD PUSH2 0x1DD SWAP1 PUSH2 0x6CD JUMP JUMPDEST DUP1 ISZERO PUSH2 0x228 JUMPI DUP1 PUSH1 0x1F LT PUSH2 0x1FF JUMPI PUSH2 0x100 DUP1 DUP4 SLOAD DIV MUL DUP4 MSTORE SWAP2 PUSH1 0x20 ADD SWAP2 PUSH2 0x228 JUMP JUMPDEST DUP3 ADD SWAP2 SWAP1 PUSH0 MSTORE PUSH1 0x20 PUSH0 KECCAK256 SWAP1 JUMPDEST DUP2 SLOAD DUP2 MSTORE SWAP1 PUSH1 0x1 ADD SWAP1 PUSH1 0x20 ADD DUP1 DUP4 GT PUSH2 0x20B JUMPI DUP3 SWAP1 SUB PUSH1 0x1F AND DUP3 ADD SWAP2 JUMPDEST POP POP POP POP POP DUP2 JUMP JUMPDEST PUSH1 0x3 SLOAD DUP2 JUMP JUMPDEST PUSH0 PUSH0 SWAP1 SLOAD SWAP1 PUSH2 0x100 EXP SWAP1 DIV PUSH20 0xFFFFFFFFFFFFFFFFFFFFFFFFFFFFFFFFFFFFFFFF AND DUP2 JUMP JUMPDEST PUSH1 0x5 SLOAD DUP2 JUMP JUMPDEST PUSH1 0x5 SLOAD TIMESTAMP LT PUSH2 0x2AA JUMPI TIMESTAMP PUSH1 0x5 SLOAD PUSH1 0x40 MLOAD PUSH32 0xE536AC5400000000000000000000000000000000000000000000000000000000 DUP2 MSTORE PUSH1 0x4 ADD PUSH2 0x2A1 SWAP3 SWAP2 SWAP1 PUSH2 0x6FD JUMP JUMPDEST PUSH1 0x40 MLOAD DUP1 SWAP2 SUB SWAP1 REVERT JUMPDEST PUSH0 PUSH0 SWAP1 SLOAD SWAP1 PUSH2 0x100 EXP SWAP1 DIV PUSH20 0xFFFFFFFFFFFFFFFFFFFFFFFFFFFFFFFFFFFFFFFF AND PUSH20 0xFFFFFFFFFFFFFFFFFFFFFFFFFFFFFFFFFFFFFFFF AND CALLER PUSH20 0xFFFFFFFFFFFFFFFFFFFFFFFFFFFFFFFFFFFFFFFF AND SUB PUSH2 0x35A JUMPI PUSH0 PUSH0 SWAP1 SLOAD SWAP1 PUSH2 0x100 EXP SWAP1 DIV PUSH20 0xFFFFFFFFFFFFFFFFFFFFFFFFFFFFFFFFFFFFFFFF AND PUSH1 0x40 MLOAD PUSH32 0x196A9D9700000000000000000000000000000000000000000000000000000000 DUP2 MSTORE PUSH1 0x4 ADD PUSH2 0x351 SWAP2 SWAP1 PUSH2 0x5F7 JUMP JUMPDEST PUSH1 0x40 MLOAD DUP1 SWAP2 SUB SWAP1 REVERT JUMPDEST PUSH0 PUSH1 0x7 PUSH0 CALLER PUSH20 0xFFFFFFFFFFFFFFFFFFFFFFFFFFFFFFFFFFFFFFFF AND PUSH20 0xFFFFFFFFFFFFFFFFFFFFFFFFFFFFFFFFFFFFFFFF AND DUP2 MSTORE PUSH1 0x20 ADD SWAP1 DUP2 MSTORE PUSH1 0x20 ADD PUSH0 KECCAK256 SLOAD EQ PUSH2 0x3DB JUMPI CALLER PUSH1 0x40 MLOAD PUSH32 0x18BDC38E00000000000000000000000000000000000000000000000000000000 DUP2 MSTORE PUSH1 0x4 ADD PUSH2 0x3D2 SWAP2 SWAP1 PUSH2 0x5F7 JUMP JUMPDEST PUSH1 0x40 MLOAD DUP1 SWAP2 SUB SWAP1 REVERT JUMPDEST PUSH1 0x2 SLOAD CALLVALUE LT ISZERO PUSH2 0x426 JUMPI CALLVALUE PUSH1 0x2 SLOAD PUSH1 0x40 MLOAD PUSH32 0xF0DEFC6100000000000000000000000000000000000000000000000000000000 DUP2 MSTORE PUSH1 0x4 ADD PUSH2 0x41D SWAP3 SWAP2 SWAP1 PUSH2 0x6FD JUMP JUMPDEST PUSH1 0x40 MLOAD DUP1 SWAP2 SUB SWAP1 REVERT JUMPDEST CALLVALUE PUSH1 0x3 SLOAD LT PUSH2 0x470 JUMPI CALLVALUE PUSH1 0x3 SLOAD PUSH1 0x40 MLOAD PUSH32 0x4E8661BA00000000000000000000000000000000000000000000000000000000 DUP2 MSTORE PUSH1 0x4 ADD PUSH2 0x467 SWAP3 SWAP2 SWAP1 PUSH2 0x6FD JUMP JUMPDEST PUSH1 0x40 MLOAD DUP1 SWAP2 SUB SWAP1 REVERT JUMPDEST PUSH0 CALLVALUE PUSH7 0x2386F26FC10000 PUSH2 0x484 SWAP2 SWAP1 PUSH2 0x751 JUMP JUMPDEST SWAP1 POP DUP1 CALLER PUSH20 0xFFFFFFFFFFFFFFFFFFFFFFFFFFFFFFFFFFFFFFFF AND BALANCE LT ISZERO PUSH2 0x4FB JUMPI CALLER PUSH20 0xFFFFFFFFFFFFFFFFFFFFFFFFFFFFFFFFFFFFFFFF AND BALANCE DUP2 PUSH1 0x40 MLOAD PUSH32 0xCF47918100000000000000000000000000000000000000000000000000000000 DUP2 MSTORE PUSH1 0x4 ADD PUSH2 0x4F2 SWAP3 SWAP2 SWAP1 PUSH2 0x6FD JUMP JUMPDEST PUSH1 0x40 MLOAD DUP1 SWAP2 SUB SWAP1 REVERT JUMPDEST CALLVALUE PUSH1 0x7 PUSH0 CALLER PUSH20 0xFFFFFFFFFFFFFFFFFFFFFFFFFFFFFFFFFFFFFFFF AND PUSH20 0xFFFFFFFFFFFFFFFFFFFFFFFFFFFFFFFFFFFFFFFF AND DUP2 MSTORE PUSH1 0x20 ADD SWAP1 DUP2 MSTORE PUSH1 0x20 ADD PUSH0 KECCAK256 DUP2 SWAP1 SSTORE POP CALLVALUE PUSH1 0x3 DUP2 SWAP1 SSTORE POP CALLER PUSH1 0x4 PUSH0 PUSH2 0x100 EXP DUP2 SLOAD DUP2 PUSH20 0xFFFFFFFFFFFFFFFFFFFFFFFFFFFFFFFFFFFFFFFF MUL NOT AND SWAP1 DUP4 PUSH20 0xFFFFFFFFFFFFFFFFFFFFFFFFFFFFFFFFFFFFFFFF AND MUL OR SWAP1 SSTORE POP POP JUMP JUMPDEST PUSH0 DUP2 SWAP1 POP SWAP2 SWAP1 POP JUMP JUMPDEST PUSH2 0x599 DUP2 PUSH2 0x587 JUMP JUMPDEST DUP3 MSTORE POP POP JUMP JUMPDEST PUSH0 PUSH1 0x20 DUP3 ADD SWAP1 POP PUSH2 0x5B2 PUSH0 DUP4 ADD DUP5 PUSH2 0x590 JUMP JUMPDEST SWAP3 SWAP2 POP POP JUMP JUMPDEST PUSH0 PUSH20 0xFFFFFFFFFFFFFFFFFFFFFFFFFFFFFFFFFFFFFFFF DUP3 AND SWAP1 POP SWAP2 SWAP1 POP JUMP JUMPDEST PUSH0 PUSH2 0x5E1 DUP3 PUSH2 0x5B8 JUMP JUMPDEST SWAP1 POP SWAP2 SWAP1 POP JUMP JUMPDEST PUSH2 0x5F1 DUP2 PUSH2 0x5D7 JUMP JUMPDEST DUP3 MSTORE POP POP JUMP JUMPDEST PUSH0 PUSH1 0x20 DUP3 ADD SWAP1 POP PUSH2 0x60A PUSH0 DUP4 ADD DUP5 PUSH2 0x5E8 JUMP JUMPDEST SWAP3 SWAP2 POP POP JUMP JUMPDEST PUSH0 DUP2 MLOAD SWAP1 POP SWAP2 SWAP1 POP JUMP JUMPDEST PUSH0 DUP3 DUP3 MSTORE PUSH1 0x20 DUP3 ADD SWAP1 POP SWAP3 SWAP2 POP POP JUMP JUMPDEST DUP3 DUP2 DUP4 MCOPY PUSH0 DUP4 DUP4 ADD MSTORE POP POP POP JUMP JUMPDEST PUSH0 PUSH1 0x1F NOT PUSH1 0x1F DUP4 ADD AND SWAP1 POP SWAP2 SWAP1 POP JUMP JUMPDEST PUSH0 PUSH2 0x652 DUP3 PUSH2 0x610 JUMP JUMPDEST PUSH2 0x65C DUP2 DUP6 PUSH2 0x61A JUMP JUMPDEST SWAP4 POP PUSH2 0x66C DUP2 DUP6 PUSH1 0x20 DUP7 ADD PUSH2 0x62A JUMP JUMPDEST PUSH2 0x675 DUP2 PUSH2 0x638 JUMP JUMPDEST DUP5 ADD SWAP2 POP POP SWAP3 SWAP2 POP POP JUMP JUMPDEST PUSH0 PUSH1 0x20 DUP3 ADD SWAP1 POP DUP2 DUP2 SUB PUSH0 DUP4 ADD MSTORE PUSH2 0x698 DUP2 DUP5 PUSH2 0x648 JUMP JUMPDEST SWAP1 POP SWAP3 SWAP2 POP POP JUMP JUMPDEST PUSH32 0x4E487B7100000000000000000000000000000000000000000000000000000000 PUSH0 MSTORE PUSH1 0x22 PUSH1 0x4 MSTORE PUSH1 0x24 PUSH0 REVERT JUMPDEST PUSH0 PUSH1 0x2 DUP3 DIV SWAP1 POP PUSH1 0x1 DUP3 AND DUP1 PUSH2 0x6E4 JUMPI PUSH1 0x7F DUP3 AND SWAP2 POP JUMPDEST PUSH1 0x20 DUP3 LT DUP2 SUB PUSH2 0x6F7 JUMPI PUSH2 0x6F6 PUSH2 0x6A0 JUMP JUMPDEST JUMPDEST POP SWAP2 SWAP1 POP JUMP JUMPDEST PUSH0 PUSH1 0x40 DUP3 ADD SWAP1 POP PUSH2 0x710 PUSH0 DUP4 ADD DUP6 PUSH2 0x590 JUMP JUMPDEST PUSH2 0x71D PUSH1 0x20 DUP4 ADD DUP5 PUSH2 0x590 JUMP JUMPDEST SWAP4 SWAP3 POP POP POP JUMP JUMPDEST PUSH32 0x4E487B7100000000000000000000000000000000000000000000000000000000 PUSH0 MSTORE PUSH1 0x11 PUSH1 0x4 MSTORE PUSH1 0x24 PUSH0 REVERT JUMPDEST PUSH0 PUSH2 0x75B DUP3 PUSH2 0x587 JUMP JUMPDEST SWAP2 POP PUSH2 0x766 DUP4 PUSH2 0x587 JUMP JUMPDEST SWAP3 POP DUP3 DUP3 ADD SWAP1 POP DUP1 DUP3 GT ISZERO PUSH2 0x77E JUMPI PUSH2 0x77D PUSH2 0x724 JUMP JUMPDEST JUMPDEST SWAP3 SWAP2 POP POP JUMP INVALID LOG2 PUSH5 0x6970667358 0x22 SLT KECCAK256 DUP2 LOG4 PUSH28 0xEB04B795834C099453C09C0E02C11403510870DE181AB650EFE54018 0xDF PUSH5 0x736F6C6343 STOP ADDMOD 0x1E STOP CALLER "
				},
				"gasEstimates": {
					"creation": {
						"codeDepositCost": "395600",
						"executionCost": "infinite",
						"totalCost": "infinite"
					},
					"external": {
						"addressMaxBid()": "2531",
						"deadLine()": "2469",
						"description()": "infinite",
						"makeBid()": "infinite",
						"maxBid()": "2425",
						"minBid()": "2426",
						"owner()": "2529"
					}
				},
				"methodIdentifiers": {
					"addressMaxBid()": "6569ddf5",
					"deadLine()": "bef3a083",
					"description()": "7284e416",
					"makeBid()": "f30e3658",
					"maxBid()": "74b11d8a",
					"minBid()": "3e109a19",
					"owner()": "8da5cb5b"
				}
			},
			"storageLayout": {
				"storage": [
					{
						"astId": 5,
						"contract": "contracts/subasta.sol:Subasta",
						"label": "owner",
						"offset": 0,
						"slot": "0",
						"type": "t_address"
					},
					{
						"astId": 7,
						"contract": "contracts/subasta.sol:Subasta",
						"label": "description",
						"offset": 0,
						"slot": "1",
						"type": "t_string_storage"
					},
					{
						"astId": 9,
						"contract": "contracts/subasta.sol:Subasta",
						"label": "minBid",
						"offset": 0,
						"slot": "2",
						"type": "t_uint256"
					},
					{
						"astId": 11,
						"contract": "contracts/subasta.sol:Subasta",
						"label": "maxBid",
						"offset": 0,
						"slot": "3",
						"type": "t_uint256"
					},
					{
						"astId": 13,
						"contract": "contracts/subasta.sol:Subasta",
						"label": "addressMaxBid",
						"offset": 0,
						"slot": "4",
						"type": "t_address"
					},
					{
						"astId": 15,
						"contract": "contracts/subasta.sol:Subasta",
						"label": "deadLine",
						"offset": 0,
						"slot": "5",
						"type": "t_uint256"
					},
					{
						"astId": 17,
						"contract": "contracts/subasta.sol:Subasta",
						"label": "bloqueado",
						"offset": 0,
						"slot": "6",
						"type": "t_bool"
					},
					{
						"astId": 21,
						"contract": "contracts/subasta.sol:Subasta",
						"label": "bids",
						"offset": 0,
						"slot": "7",
						"type": "t_mapping(t_address,t_uint256)"
					}
				],
				"types": {
					"t_address": {
						"encoding": "inplace",
						"label": "address",
						"numberOfBytes": "20"
					},
					"t_bool": {
						"encoding": "inplace",
						"label": "bool",
						"numberOfBytes": "1"
					},
					"t_mapping(t_address,t_uint256)": {
						"encoding": "mapping",
						"key": "t_address",
						"label": "mapping(address => uint256)",
						"numberOfBytes": "32",
						"value": "t_uint256"
					},
					"t_string_storage": {
						"encoding": "bytes",
						"label": "string",
						"numberOfBytes": "32"
					},
					"t_uint256": {
						"encoding": "inplace",
						"label": "uint256",
						"numberOfBytes": "32"
					}
				}
			},
			"userdoc": {
				"kind": "user",
				"methods": {
					"constructor": {
						"notice": "Crea la subasta"
					},
					"makeBid()": {
						"notice": "Realiza una puja"
					}
				},
				"version": 1
			}
		}
	}
}